:020000040800F2
:10000000005000205542000861410008634100088B
:1000100065410008674100086941000800000000D0
:100020000000000000000000000000006B4100081C
:100030006D410008000000006F4100087141000898
:100040009D4200089D4200089D4200089D42000814
:100050009D4200089D4200089D4200089D42000804
:100060009D4200089D4200089D4200089D420008F4
:100070009D4200089D4200089D4200089D420008E4
:100080009D4200089D4200089D4200089D420008D4
:10009000754100089D4200089D4200089D420008ED
:1000A0009D4200089D4200089D4200089D420008B4
:1000B0009D4200089D4200089D4200089D420008A4
:1000C0009D4200089D4200089D4200089D42000894
:1000D0009D4200089D4200089D4200089D42000884
:1000E000814100089D4200089D4200080000000078
:1000F0000000000000000000000000000000000000
:0C01000000000000000000005FF808F1A3
:1001100010B5054C237833B9044B13B10448AFF341
:1001200000800123237010BD540300200000000054
:1001300080BF000808B5034B1BB103490348AFF368
:10014000008008BD000000005803002080BF0008A8
:10015000034613F8012B002AFBD1181A0138704707
:1001600081F0004102E000BF83F0004330B54FEA68
:1001700041044FEA430594EA050F08BF90EA020FD5
:100180001FBF54EA000C55EA020C7FEA645C7FEA68
:10019000655C00F0E2804FEA5454D4EB5555B8BF8B
:1001A0006D420CDD2C4480EA020281EA030382EAFC
:1001B000000083EA010180EA020281EA0303362D8E
:1001C00088BF30BD11F0004F4FEA01314FF4801C61
:1001D0004CEA113102D0404261EB410113F0004F73
:1001E0004FEA03334CEA133302D0524263EB43032A
:1001F00094EA050F00F0A780A4F10104D5F1200EC8
:100200000DDB02FA0EFC22FA05F2801841F1000122
:1002100003FA0EF2801843FA05F359410EE0A5F1F6
:1002200020050EF1200E012A03FA0EFC28BF4CF027
:10023000020C43FA05F3C01851EBE37101F00045DD
:1002400007D54FF0000EDCF1000C7EEB00006EEBEA
:100250000101B1F5801F1BD3B1F5001F0CD3490874
:100260005FEA30004FEA3C0C04F101044FEA4452CB
:1002700012F5800F80F09A80BCF1004F08BF5FEA52
:10028000500C50F1000041EB045141EA050130BD32
:100290005FEA4C0C404141EB0101013C28BFB1F544
:1002A000801FE9D291F0000F04BF01460020B1FA8F
:1002B00081F308BF2033A3F10B03B3F120020CDA62
:1002C0000C3208DD02F1140CC2F10C0201FA0CF040
:1002D00021FA02F10CE002F11402D8BFC2F1200CA5
:1002E00001FA02F120FA0CFCDCBF41EA0C0190405B
:1002F000E41AA2BF01EB0451294330BD6FEA0404A4
:100300001F3C1CDA0C340EDC04F11404C4F120028E
:1003100020FA04F001FA02F340EA030021FA04F3A0
:1003200045EA030130BDC4F10C04C4F1200220FAF7
:1003300002F001FA04F340EA0300294630BD21FA35
:1003400004F0294630BD94F0000F83F4801306BFFB
:1003500081F480110134013D4EE77FEA645C18BFEF
:100360007FEA655C29D094EA050F08BF90EA020F86
:1003700005D054EA000C04BF1946104630BD91EA7E
:10038000030F1EBF0021002030BD5FEA545C05D181
:100390004000494128BF41F0004130BD14F58004C0
:1003A0003CBF01F5801130BD01F0004545F0FE4134
:1003B00041F470014FF0000030BD7FEA645C1ABF69
:1003C000194610467FEA655C1CBF0B46024650EAA0
:1003D000013406BF52EA033591EA030F41F40021CC
:1003E00030BD00BF90F0000F04BF0021704730B552
:1003F0004FF4806404F132044FF000054FF0000127
:1004000050E700BF90F0000F04BF0021704730B5E7
:100410004FF4806404F1320410F0004548BF4042BC
:100420004FF000013EE700BF42004FEAE2014FEA11
:1004300031014FEA02701FBF12F07F4393F07F4FEC
:1004400081F06051704732F07F4208BF704793F0EF
:100450007F4F04BF41F40021704730B54FF4607402
:1004600001F0004521F000411CE700BF50EA010205
:1004700008BF704730B54FF000050AE050EA0102AE
:1004800008BF704730B511F0004502D5404261EB1E
:1004900041014FF4806404F132045FEA915C3FF45F
:1004A000D8AE4FF003025FEADC0C18BF03325FEAFC
:1004B000DC0C18BF033202EBDC02C2F1200300FAAD
:1004C00003FC20FA02F001FA03FE40EA0E0021FAD2
:1004D00002F11444BDE600BF70B54FF0FF0C4CF4C0
:1004E000E06C1CEA11541DBF1CEA135594EA0C0F72
:1004F00095EA0C0F00F0DEF82C4481EA030621EAAD
:100500004C5123EA4C5350EA013518BF52EA0335E7
:1005100041F4801143F4801338D0A0FB02CE4FF099
:100520000005E1FB02E506F00042E0FB03E54FF0C9
:100530000006E1FB03569CF0000F18BF4EF0010EC1
:10054000A4F1FF04B6F5007F64F5407404D25FEABD
:100550004E0E6D4146EB060642EAC62141EA555170
:100560004FEAC52040EA5E504FEACE2EB4F1FD0CB2
:1005700088BFBCF5E06F1ED8BEF1004F08BF5FEA30
:10058000500E50F1000041EB045170BD06F00046E2
:1005900046EA010140EA020081EA0301B4EB5C048F
:1005A000C2BFD4EB0C0541EA045170BD41F4801187
:1005B0004FF0000E013C00F3AB8014F1360FDEBFAC
:1005C000002001F0004170BDC4F10004203C35DA88
:1005D0000C341BDC04F11404C4F1200500FA05F30B
:1005E00020FA04F001FA05F240EA020001F00042AC
:1005F00021F0004110EBD37021FA04F642EB060122
:100600005EEA430E08BF20EAD37070BDC4F10C044B
:10061000C4F1200500FA04F320FA05F001FA04F20F
:1006200040EA020001F0004110EBD37041F10001FB
:100630005EEA430E08BF20EAD37070BDC4F1200506
:1006400000FA05F24EEA020E20FA04F301FA05F26E
:1006500043EA020321FA04F001F0004121FA04F216
:1006600020EA020000EBD3705EEA430E08BF20EAE6
:10067000D37070BD94F0000F0FD101F00046400020
:1006800041EB010111F4801F08BF013CF7D041EAA2
:10069000060195F0000F18BF704703F000465200A6
:1006A00043EB030313F4801F08BF013DF7D043EA77
:1006B0000603704794EA0C0F0CEA135518BF95EA2D
:1006C0000C0F0CD050EA410618BF52EA4306D1D1B4
:1006D00081EA030101F000414FF0000070BD50EAD3
:1006E000410606BF1046194652EA430619D094EA5D
:1006F0000C0F02D150EA013613D195EA0C0F05D147
:1007000052EA03361CBF104619460AD181EA03019A
:1007100001F0004141F0FE4141F470014FF0000052
:1007200070BD41F0FE4141F4780170BD70B54FF0ED
:10073000FF0C4CF4E06C1CEA11541DBF1CEA13556D
:1007400094EA0C0F95EA0C0F00F0A7F8A4EB05044F
:1007500081EA030E52EA03354FEA013100F0888046
:100760004FEA03334FF0805545EA131343EA12630F
:100770004FEA022245EA111545EA10654FEA0026C4
:100780000EF000419D4208BF964244F1FD0404F57D
:10079000407402D25B084FEA3202B61A65EB0305D9
:1007A0005B084FEA32024FF480104FF4002CB6EB96
:1007B000020E75EB030E22BFB61A754640EA0C0016
:1007C0005B084FEA3202B6EB020E75EB030E22BF56
:1007D000B61A754640EA5C005B084FEA3202B6EB97
:1007E000020E75EB030E22BFB61A754640EA9C0056
:1007F0005B084FEA3202B6EB020E75EB030E22BF26
:10080000B61A754640EADC0055EA060E18D04FEAE3
:10081000051545EA16754FEA06164FEAC30343EA83
:1008200052734FEAC2025FEA1C1CC0D111F4801F50
:100830000BD141EA00014FF000004FF0004CB6E749
:1008400011F4801F04BF01430020B4F1FD0C88BFE8
:10085000BCF5E06F3FF6AFAEB5EB030C04BFB6EBF3
:10086000020C5FEA500C50F1000041EB045170BDE6
:100870000EF0004E4EEA113114EB5C04C2BFD4EB13
:100880000C0541EA045170BD41F480114FF0000E97
:10089000013C90E645EA060E8DE60CEA135594EA13
:1008A0000C0F08BF95EA0C0F3FF43BAF94EA0C0F16
:1008B0000AD150EA01347FF434AF95EA0C0F7FF48B
:1008C00025AF104619462CE795EA0C0F06D152EADF
:1008D00003353FF4FDAE1046194622E750EA4106C3
:1008E00018BF52EA43067FF4C5AE50EA41047FF4D4
:1008F0000DAF52EA43057FF4EBAE12E74FF0FF3C39
:1009000006E000BF4FF0010C02E000BF4FF0010C09
:100910004DF804CD4FEA410C7FEA6C5C4FEA430C82
:1009200018BF7FEA6C5C1BD001B050EA410C0CBFD1
:1009300052EA430C91EA030F02BF90EA020F002033
:10094000704710F1000F91EA030F58BF994208BF9A
:1009500090422CBFD8176FEAE37040F00100704757
:100960004FEA410C7FEA6C5C02D150EA013C07D1AE
:100970004FEA430C7FEA6C5CD6D152EA033CD3D0F9
:100980005DF8040B704700BF8446104662468C46F3
:100990001946634600E000BF01B5FFF7B7FF002826
:1009A00048BF10F1000F01BD4DF808EDFFF7F4FF4F
:1009B0000CBF012000205DF808FB00BF4DF808EDDA
:1009C000FFF7EAFF34BF012000205DF808FB00BFFD
:1009D0004DF808EDFFF7E0FF94BF012000205DF81F
:1009E00008FB00BF4DF808EDFFF7CEFF94BF0120D4
:1009F00000205DF808FB00BF4DF808EDFFF7C4FFCD
:100A000034BF012000205DF808FB00BF4FEA410C15
:100A10007FEA6C5C02D150EA013C0AD14FEA430CF8
:100A20007FEA6C5C02D152EA033C02D14FF0000035
:100A300070474FF0010070474FEA410212F5001273
:100A400015D211D56FF47873B3EB625212D94FEA15
:100A5000C12343F0004343EA505311F0004F23FAFF
:100A600002F018BF404270474FF00000704750EA54
:100A7000013005D111F0004008BF6FF00040704711
:100A80004FF00000704700BF4A0011D212F500126B
:100A900011D20DD56FF47873B3EB62520ED44FEAD6
:100AA000C12343F0004343EA505323FA02F0704756
:100AB0004FF00000704750EA013002D14FF0FF3094
:100AC00070474FF0000070474FEA4102B2F1E04337
:100AD00024BFB3F5001CDCF1FE5C0DD901F0004C25
:100AE0004FEAC0024CEA5070B2F1004F40EB830075
:100AF00008BF20F00100704711F0804F21D113F1A1
:100B00003872BCBF01F00040704741F480114FEAD9
:100B10005252C2F11802C2F1200C10FA0CF320FA62
:100B200002F018BF40F001004FEAC1234FEAD3237F
:100B300003FA0CFC40EA0C0023FA02F34FEA4303E9
:100B4000CCE77FEA625307D150EA01331EBF4FF072
:100B5000FE4040F44000704701F0004040F0FE408D
:100B600040F40000704700BF80F0004002E000BF8A
:100B700081F0004142001FBF5FEA410392EA030F88
:100B80007FEA226C7FEA236C6AD04FEA1262D2EBD2
:100B90001363C1BFD218414048404140B8BF5B42D7
:100BA000192B88BF704710F0004F40F4000020F070
:100BB0007F4018BF404211F0004F41F4000121F086
:100BC0007F4118BF494292EA030F3FD0A2F10102D0
:100BD00041FA03FC10EB0C00C3F1200301FA03F10E
:100BE00000F0004302D5494260EB4000B0F5000F31
:100BF00013D3B0F1807F06D340084FEA310102F1F0
:100C00000102FE2A51D2B1F1004F40EBC25008BFA1
:100C100020F0010040EA03007047490040EB00006B
:100C2000013A28BFB0F5000FEDD2B0FA80FCACF16C
:100C3000080CB2EB0C0200FA0CF0AABF00EBC25099
:100C400052421843BCBFD0401843704792F0000F87
:100C500081F4000106BF80F400000132013BB5E7DA
:100C60004FEA41037FEA226C18BF7FEA236C21D050
:100C700092EA030F04D092F0000F08BF08467047B5
:100C800090EA010F1CBF0020704712F07F4F04D183
:100C9000400028BF40F00040704712F100723CBF96
:100CA00000F50000704700F0004343F0FE4040F4C0
:100CB000000070477FEA226216BF08467FEA23637E
:100CC0000146420206BF5FEA412390EA010F40F469
:100CD000800070474FF0000304E000BF10F00043B5
:100CE00048BF40425FEA000C08BF704743F096439C
:100CF00001464FF000001CE050EA010208BF7047B7
:100D00004FF000030AE000BF50EA010208BF70473D
:100D100011F0004302D5404261EB41015FEA010C52
:100D200002BF84460146002043F0B64308BFA3F14A
:100D30008053A3F50003BCFA8CF2083AA3EBC2532C
:100D400010DB01FA02FC634400FA02FCC2F120024B
:100D5000BCF1004F20FA02F243EB020008BF20F082
:100D60000100704702F1200201FA02FCC2F12002E8
:100D700050EA4C0021FA02F243EB020008BF20EADD
:100D8000DC7070474FF0FF0C1CEAD0521EBF1CEA0B
:100D9000D15392EA0C0F93EA0C0F6FD01A4480EAF9
:100DA000010C400218BF5FEA41211ED04FF00063E2
:100DB00043EA501043EA5111A0FB01310CF000400E
:100DC000B1F5000F3EBF490041EAD3715B0040EA34
:100DD000010062F17F02FD2A1DD8B3F1004F40EB04
:100DE000C25008BF20F00100704790F0000F0CF0D7
:100DF000004C08BF49024CEA502040EA51207F3A9B
:100E0000C2BFD2F1FF0340EAC250704740F4000075
:100E10004FF00003013A5DDC12F1190FDCBF00F066
:100E200000407047C2F10002410021FA02F1C2F114
:100E3000200200FA02FC5FEA310040F1000053EAB0
:100E40004C0308BF20EADC70704792F0000F00F0FE
:100E5000004C02BF400010F4000F013AF9D040EA04
:100E60000C0093F0000F01F0004C02BF490011F498
:100E7000000F013BF9D041EA0C018FE70CEAD15396
:100E800092EA0C0F18BF93EA0C0F0AD030F0004C16
:100E900018BF31F0004CD8D180EA010000F00040CA
:100EA000704790F0000F17BF90F0004F084691F088
:100EB000000F91F0004F14D092EA0C0F01D14202C2
:100EC0000FD193EA0C0F03D14B0218BF084608D18B
:100ED00080EA010000F0004040F0FE4040F40000D5
:100EE000704740F0FE4040F4400070474FF0FF0C68
:100EF0001CEAD0521EBF1CEAD15392EA0C0F93EAAF
:100F00000C0F69D0A2EB030280EA010C49024FEA00
:100F1000402037D04FF0805343EA111143EA1013B9
:100F20000CF000408B4238BF5B0042F17D024FF471
:100F3000000C8B4224BF5B1A40EA0C00B3EB510F4C
:100F400024BFA3EB510340EA5C00B3EB910F24BF35
:100F5000A3EB910340EA9C00B3EBD10F24BFA3EBBA
:100F6000D10340EADC001B0118BF5FEA1C1CE0D182
:100F7000FD2A3FF650AF8B4240EBC25008BF20F035
:100F8000010070470CF0004C4CEA50207F32C2BF89
:100F9000D2F1FF0340EAC250704740F400004FF026
:100FA0000003013A37E792F0000F00F0004C02BF57
:100FB000400010F4000F013AF9D040EA0C0093F021
:100FC000000F01F0004C02BF490011F4000F013B7B
:100FD000F9D041EA0C0195E70CEAD15392EA0C0FE3
:100FE00008D142027FF47DAF93EA0C0F7FF470AF1B
:100FF000084676E793EA0C0F04D14B023FF44CAF5E
:1010000008466EE730F0004C18BF31F0004CCAD1F2
:1010100030F000427FF45CAF31F000437FF43CAF2E
:101020005FE700BF4FF0FF3C06E000BF4FF0010C50
:1010300002E000BF4FF0010C4DF804CD4FEA400232
:101040004FEA41037FEA226C18BF7FEA236C11D07C
:1010500001B052EA530C18BF90EA010F58BFB2EB2F
:10106000030088BFC81738BF6FEAE17018BF40F0AF
:10107000010070477FEA226C02D15FEA402C05D163
:101080007FEA236CE4D15FEA412CE1D05DF8040BE8
:10109000704700BF844608466146FFE70FB5FFF77B
:1010A000C9FF002848BF10F1000F0FBD4DF808ED33
:1010B000FFF7F4FF0CBF012000205DF808FB00BF24
:1010C0004DF808EDFFF7EAFF34BF012000205DF87E
:1010D00008FB00BF4DF808EDFFF7E0FF94BF0120CB
:1010E00000205DF808FB00BF4DF808EDFFF7D2FFC8
:1010F00094BF012000205DF808FB00BF4DF808ED0B
:10110000FFF7C8FF34BF012000205DF808FB00BFD7
:101110004FEA40024FEA41037FEA226C02D15FEAC4
:10112000402C08D17FEA236C02D15FEA412C02D126
:101130004FF0000070474FF0010070474FEA400247
:10114000B2F1FE4F0FD34FF09E03B3EB12620DD9F5
:101150004FEA002343F0004310F0004F23FA02F05F
:1011600018BF404270474FF00000704712F1610F06
:1011700001D1420205D110F0004008BF6FF00040DD
:1011800070474FF00000704742000ED2B2F1FE4FA0
:101190000BD34FF09E03B3EB126209D44FEA002346
:1011A00043F0004323FA02F070474FF0000070470D
:1011B00012F1610F01D1420202D14FF0FF307047AE
:1011C0004FF00000704700BF38B5002200230446EE
:1011D0000D46FFF7F3FB28B920462946BDE8384005
:1011E00000F00AB8204605F1004100F005F8404241
:1011F00061EB410138BD00BFD0B500220B4B064664
:101200000F46FFF769F9FFF73FFC0446FFF7EAF8DE
:101210000022074BFFF760F902460B46304639467D
:10122000FEF7A2FFFFF730FC2146D0BD0000F03DE5
:101230000000F0410022024B1A605A601A72704797
:10124000700300200D4B2C221846002110B507F02A
:1012500020F8A0F108031A46094C6168206803C20F
:10126000217A11704FF0FF31064A5962DA601A6133
:101270005A619A61DA611A6210BD00BF84030020CE
:10128000700300200000C07FF8B515460B78C41825
:1012900023782046202B04F1010405D0092B03D02C
:1012A00033B900242046F8BD0B7801330B70EFE70B
:1012B0002B2B01D02D2B17D10A78431C01320A7039
:1012C00000242646013B13F8012F2AB1A2F1300772
:1012D000092F12D92E2A09D0002CE2D006F074F87A
:1012E000FFF7F2FB2860DDE70346E9E7002EF3D1C4
:1012F00001260A7801320A70E5E70124F9E70000C7
:10130000F7B5002506468DF80350FFF79BFF9DF8C3
:101310000330F45C14B972E00133DBB2F45C202CCE
:10132000FAD0092CF8D0002C69D0A4F16102192A56
:1013300098BF203C03F10103304601AA0DF10301DF
:1013400098BFE4B28DF80330FFF79EFF002800F04D
:10135000EC80019F463C384609F072FAFFF714FF13
:10136000C3B2142C19D8DFE804F0BB0B18181818F6
:10137000D65DCF18D218DAC918181818A9AFB50059
:10138000632B0AD81C2B42D013D8132B07D8102B51
:1013900038D8032B2BD9042B39D014242FE0A3F1F8
:1013A0001402012AF9D8624AC3F11503D370062347
:1013B00020E05C2B2BD010D83B2B06D8352BECD95A
:1013C0005B4A363B5370092314E05A3BDBB2012BD6
:1013D000E3D8574A137103230CE0A3F15D02012AFD
:1013E000DBD8534AC3F15E035371052302E0504A30
:1013F0001370012345FA03F2D2070DD515242046B8
:1014000003B0F0BD4A4A113B93700223F2E7484A09
:1014100082F830300023EDE7012202FA03F32B4378
:101420009DB274E7632BB8D8122B2BD8122BB4D8EB
:1014300001A252F823F000BF991400089914000883
:1014400099140008AD140008AD140008AD1400088C
:101450009B130008B5140008B5140008B514000863
:101460009B1300089B1300089B1300089B130008A4
:101470009B1300089B1300089B1300088F1400089F
:101480008D1400081E2B07D0542B86D11223284A16
:1014900082F83030002202E0254A13720B2245FA0E
:1014A00002F3DB07AAD401239340B8E7204A9371E3
:1014B0000C22F4E71E4AD3710D22F0E701221C4BE7
:1014C000DF6083F82A2022E70122194B1F6183F88D
:1014D0002B201CE70122164B5F6183F82C2016E7B6
:1014E0000122134B9F6183F82D2000213846FFF71E
:1014F000E7FD00283FF40BAF042480E701220C4BEA
:10150000DF6183F82E20F0E7094A5362EDE7084ACD
:1015100082F82830E9E7064A82F82930E5E7012217
:10152000034B1F6283F82F20DFE7022467E700BF29
:101530007C0300202DE9F041774C9EB094F83030C8
:10154000122B79D00DD8042B58D0112B6DD02378C5
:10155000032B00F28880DFE813F07600A700BE00BE
:10156000CA001C2B5AD05C2BF1D194F82A306B4E58
:1015700033B16B49E068FFF705FCFFF7DFFD306032
:1015800094F82B30674D33B165492069FFF7FAFBBA
:10159000FFF7D4FD286094F82C30DFF88C813BB144
:1015A00062496069FFF7EEFBFFF7C8FDC8F800006D
:1015B0003068FFF793FB5A49FFF798FCFEF734FFBA
:1015C0000646D8F800000F46FFF788FB5749FFF79B
:1015D0008DFCFEF729FFCDE902012868FFF77EFBAD
:1015E0004F49FFF783FCFEF71FFF3246CDE90001AC
:1015F0003B464F4905A806F0E7FD07E094F8282090
:10160000002AA4D04B4905A806F0DEFD05A8FEF788
:101610009FFD81B205A805F0B3FC98E71621464866
:1016200005F0AEFC00F094FB91E71B21434805F068
:10163000A7FC01F001FD8AE71821414805F0A0FC54
:1016400001F014FD83E7628D94F82C3002B953B198
:10165000019394F82B30009394F82A306269216941
:10166000E06800F059F9A379042B48D0052B49D044
:10167000032B03D11721334805F082FCE379082BB3
:1016800043D0092B44D0072B03D11E212E4805F04F
:1016900077FC2E4A204B03CB106000201B78516052
:1016A00013721EB0BDE8F081628D94F82C300AB937
:1016B000002BD8D094F82D20CDE9023294F82B30AD
:1016C000019394F82A300093A36962692169E06864
:1016D00000F09AF9C7E7638D13B994F82F3033B14E
:1016E0000123226A2169E06800F05EF9BBE7638D9F
:1016F0001BB994F82F30002BB5D00023F1E7182147
:101700001348B9E715211348B6E722211248BEE76E
:101710001A211248BBE700BF7C030020742300207D
:1017200000009E42702300206C23002000A075451D
:10173000CBBF000898BF0008B4BF0008F6BF000880
:1017400012C000082BC0000872C0000870030020FF
:1017500043C000085CC0000891C00008B5C0000884
:1017600008B5421E12F8013F33B9FFF7C9FD50B961
:10177000BDE80840FFF7DEBEA3F1610119299CBF57
:10178000203B1370EEE708BD00B5024689B01C2867
:101790003ED8DFE800F00F16191C1F3D3D3D3D3DD2
:1017A0003D3D3D3D3D3D3D3D3D3D2225282B2E31DE
:1017B00034373A0004211D4809B05DF804EB05F008
:1017C000DFBB24211A48F7E71E211A48F4E71E213F
:1017D0001948F1E71B211948EEE721211848EBE7EA
:1017E00023211848E8E721211748E5E72721174872
:1017F000E2E723211648DFE71B211648DCE71B211F
:101800001548D9E721211548D6E720211448D3E708
:101810001449684606F0D8FC6846FEF799FC81B288
:10182000684605F0ADFB09B05DF804FBD0C00008C8
:10183000D5C00008F9C0000817C1000835C100086C
:1018400050C1000871C1000894C10008B5C100086A
:10185000DCC10008FFC100081AC2000835C2000838
:1018600056C2000876C200084FF4805108B50348FC
:1018700002F0A8FEB0FA80F0400908BD000C01405B
:1018800010B50446FEF764FC81B22046BDE8104066
:1018900005F002BC1E4A38B5D2F8FC30032543F0EF
:1018A0008073C2F8FC30A2F55D421368194C43F016
:1018B0000103136001F0C0FB00220221154802F071
:1018C00087FE00220121134802F082FE012202213C
:1018D000204602F07DFE01222046114602F078FEED
:1018E000962002F025FD00220221204602F070FE23
:1018F00000220121204602F06BFE962002F018FD26
:10190000013DE3D1FFF796FCBDE8384002F090BB03
:1019100000ED00E0000C01402DE9FF471F461E4B83
:1019200004461B780D4616469DF830A09DF834906D
:10193000DFF86880CBB101A802F066FB07B1019423
:10194000BAF1000F00D00295B9F1000F00D0039654
:101950000122D8F8001001A802F0CAFA10B9104804
:10196000FFF78EFF04B0BDE8F08707B90D4CBAF160
:10197000000F00D10B4DB9F1000F00D1094E01232A
:101980003246294620460C93D8F8003004B0BDE812
:10199000F04701F085BB00BF0000002008000020D8
:1019A00081C200080000C07FF0B5DFF850C00746D4
:1019B0009CF800C00E4615461C4689B0BCF1000FCD
:1019C00016D005A802F020FB002304930C4B2246FE
:1019D0001B6803A9009305A80123059706960395A4
:1019E00002F0B6F810B90748FFF74AFF09B0F0BD9A
:1019F00009B0BDE8F04001F04FBD00BF000000207D
:101A00000C0000209FC200082DE9F04F85B01F4652
:101A10009DF8443004460D4616469DF838B09DF8B2
:101A20003CA09DF84090DFF8808033B1002138461B
:101A3000FFF764FB08B1C8F800701C4B1B78DBB1E2
:101A400001A802F0E1FABBF1000F00D00194BAF155
:101A5000000F00D00295B9F1000F00D003960022CC
:101A6000D8F8001001A802F043FA10B91048FFF7A7
:101A700007FF05B0BDE8F08FBBF1000F00D10D4CA2
:101A8000BAF1000F00D10B4DB9F1000F00D1094E92
:101A900000233246294620460E93D8F8003005B080
:101AA000BDE8F04F01F0FCBA0C000020000000205F
:101AB00081C200080000C07F2DE9F04FC825814C8D
:101AC00085B08148FFF7DCFE4F228049204606F0B2
:101AD0007BFB2046FFF7D4FE2A460021204606F075
:101AE000D8FB4F227A49204606F06EFB2046FFF7CE
:101AF000C7FE2A460021204606F0CBFB40F65A726C
:101B00007449204606F060FB2046FFF7B9FE2A46DE
:101B10000021204606F0BDFB4FF448726E49204676
:101B200006F052FB2046FFF7ABFE2A460021204676
:101B300006F0AFFB694B1F683846FFF7FFFA064611
:101B4000FFF7CCF801463846FFF712F86449FFF773
:101B500019F9FFF7F3FA324603466249204606F0C8
:101B600033FB2046FFF78CFE2A460021204606F074
:101B700090FB5D4B1F683846FFF7E0FA0646FFF71B
:101B8000ADF801463846FEF7F3FF5549FFF7FAF87E
:101B9000FFF7D4FA324603465449204606F014FBB8
:101BA0002046FFF76DFE2A460021204606F071FB15
:101BB0004F4B1F683846FFF7C1FA0646FFF78EF80D
:101BC00001463846FEF7D4FF4549FFF7DBF8FFF73B
:101BD000B5FA324603464749204606F0F5FA204654
:101BE000FFF74EFE2A460021204606F052FB424BEC
:101BF0001868FFF773F84149FFF778F9404B8346BF
:101C00001868FFF76BF83D49FFF770F93D4B8046C8
:101C10001868FFF763F83C49FFF768F982465846B1
:101C2000FFF78CFA06464046FFF788FA074650460B
:101C3000FFF784FA81463046FFF750F801465846D0
:101C4000FEF796FF3149FFF79DF8FFF777FA80EA34
:101C5000E07BABEBE07B4846FFF740F8014650469F
:101C6000FEF786FF2949FFF78DF8FFF767FA00288E
:101C7000B8BF4042CDE902903846FFF72FF8014641
:101C80004046FEF775FF2149FFF77CF8FFF756FA4B
:101C90000028B8BF40425B463246CDE900701C497F
:101CA000204606F091FA2046FFF7EAFD2A46002179
:101CB000204606F0EEFA174805B0BDE8F04FFFF7F2
:101CC000DFBD00BF78230020CEC20008EBC20008B1
:101CD00000C3000815C300082AC300080C00002038
:101CE000000020413EC30008080000205FC3000838
:101CF0000400002086C300087423002000009E42D8
:101D0000702300206C23002000A075450000C8420D
:101D1000A8C30008DAC30008592808B507D05A2814
:101D20000ED058280FD1BDE80840FFF79DBD4FF4F5
:101D30000051064802F046FCB0FA80F0400908BDA8
:101D40004FF48041F5E70020F9E700BF000C0140A7
:101D500030B5984D85B02B780BB102F047F9964815
:101D6000FFF78EFD9549964806F033FB9448FFF740
:101D700087FDC8220021924806F08BFA91499048CD
:101D800006F027FB8E48FFF77BFDC82200218C4818
:101D900006F07FFA05F04AF9002280218A4802F015
:101DA00017FCFFF761FD78B301228021864802F01D
:101DB0000FFC9E2401F000F94FF4487001F0B6F8D2
:101DC000013CF7D1224680217F4802F001FC9E248D
:101DD00001F0F2F84FF4166001F0A8F8013CF7D1D9
:101DE000FFF742FDB8B97949754806F0F2FA744830
:101DF000FFF746FD05F01AF9C8222146704805B0E4
:101E0000BDE8304006F045BA01F0D6F84FF448700E
:101E100001F08CF8C5E76E4B6E4969481C6006F00E
:101E2000D8FA6748FFF72CFD05F000F9C8222146D3
:101E3000634806F02EFA6849614806F0CAFA60481D
:101E4000FFF71EFD05F0F2F8C82221465C4806F0B7
:101E500020FA224608215C4802F0BAFB5920FFF71D
:101E60005BFF08B301220821574802F0B1FB9E2412
:101E700001F0B6F84FF4487001F058F8013CF7D182
:101E800022460821504802F0A3FB9E2401F0A8F846
:101E90004FF4166001F04AF8013CF7D15920FFF7E2
:101EA0003BFF40B94D499FE701F09AF84FF4487065
:101EB00001F03CF8D2E74A4B4A4941481C6006F021
:101EC00088FA3F48FFF7DCFC05F0B0F8C82221464D
:101ED0003B4806F0DEF94449394806F07AFA3848BA
:101EE000FFF7CEFC05F0A2F8C8222146344806F0E0
:101EF000D0F901224FF400713C4802F069FB5A20EE
:101F0000FFF70AFF28B300224FF40071374802F0B0
:101F10005FFB40F65A7401F079F84FF4857001F0D8
:101F200005F8013CF7D101224FF400712F4802F06F
:101F30004FFB40F65A7401F069F84FF4857000F0D9
:101F4000F5FF013CF7D15A20FFF7E6FE40B92849DA
:101F50004AE701F05BF84FF4857000F0E7FFCEE749
:101F6000244B254916481C6006F033FA1448FFF745
:101F700087FC05F05BF8C8222146114806F089F974
:101F80001E490F4806F025FA0D48FFF779FC05F0C9
:101F90004DF8C82221460A4806F07BF92B7833B168
:101FA000002301A801930293039302F037F805B0D0
:101FB00030BD00BF00000020F7C300081BC40008AC
:101FC0007823002044C40008000C014056C40008D7
:101FD0007423002080C400089AC40008ACC4000820
:101FE00070230020D6C40008F0C400080008014097
:101FF00002C500086C2300202CC5000846C5000857
:10200000012210B500240D4B1A700D4B1C600D4BB6
:102010001C700D4B18465022002106F03AF9034679
:102020000134642C03F15003F4D10848FFF728FC75
:10203000BDE810400648FFF723BC00BFB6030020F0
:10204000BC030020B5030020C00300207DC50008AC
:10205000B4C5000810B500240F4B1C700F4B1A6854
:10206000A24216DD01210E4B0E4819700E4906F0F2
:10207000ABF80C48FFF704FCC8222146094806F0DB
:1020800008F90A48FFF7FCFBBDE810400848FFF7D5
:10209000F7BB0848F6E700BFB6030020BC030020EA
:1020A000B503002078230020D9C5000803C6000826
:1020B000D0C0000848C600082DE9F041174E356829
:1020C000632D28DC014610F8013B202BFAD0092BA8
:1020D000F8D09BB150246C43DFF844804F2204EBCE
:1020E0000803184606F0EFF8002780F84F70FEF757
:1020F0002FF82318434420B9013535600120BDE88D
:10210000F08113F8012C01380D2A01D00A2AF3D1ED
:1021100003F8017DEFE70020F1E700BFBC030020DA
:10212000C003002038B500240C4A0D4D14600D4A40
:1021300014600D4A14700D4A14700D4A147028462C
:1021400050220021013406F0A4F8642C05F150055A
:10215000F5D10848BDE83840FFF792BBBC0300202A
:10216000C0030020B8030020B5030020B403002002
:10217000B603002063C60008154B10B51B7813B1D9
:10218000144B1A686AB91449144806F022F9134826
:10219000FFF776FBBDE81040C82200210F4806F08B
:1021A00078B8012100240E4B0C4819700D4B0E49D4
:1021B0001C6006F009F80948FFF762FB2146C822B7
:1021C000064806F066F8BDE810400848FFF758BB1F
:1021D000B5030020BC03002077C600087823002048
:1021E000B4030020B803002098C60008C7C6000842
:1021F00070B52F4B94B01B7813B12E4B1B6873B97D
:102200002D492E4806F0E5F82C48FFF739FBC82287
:1022100000212A4814B0BDE8704006F03AB8284CB6
:102220002268934210DC2749244806F0D2F823485C
:10223000FFF726FBC8220021204806F02AF80022DA
:10224000214B1A7014B070BD5026204D204906FB5A
:1022500002531A48013205F0B7FF1848FFF710FB88
:10226000C8220021154806F014F821684F2206FB09
:1022700001510025684606F026F868468DF84F5053
:10228000FFF76EFA23680246013308B92360D9E7E5
:1022900010490A4805F098FF0848FFF7F1FAC822EC
:1022A0002946064805F0F5FF074B1D70CAE700BF39
:1022B000B5030020BC03002077C600087823002067
:1022C000B8030020FFC60008B4030020C0030020AC
:1022D00015C700082FC7000870B50025C8260E4C8A
:1022E0000E4B0F4920461D7006F073F82046FFF78D
:1022F000C7FA32462946204605F0CBFF0949204659
:1023000006F067F82046FFF7BBFA3246294620461A
:10231000BDE8704005F0BDBF78230020B403002065
:102320004EC70008D0C0000808B53548FFF7A8FA26
:102330003448FFF7A5FA3448FFF7A2FA3348FFF70D
:102340009FFA3348FFF79CFA3248FFF799FA324870
:10235000FFF796FA3148FFF793FA3148FFF790FA02
:102360003048FFF78DFA3048FFF78AFA2F48FFF719
:1023700087FA2F48FFF784FA2E48FFF781FA2E4894
:10238000FFF77EFA2D48FFF77BFA2D48FFF778FA22
:102390002C48FFF775FA2C48FFF772FA2B48FFF725
:1023A0006FFA2B48FFF76CFA2A48FFF769FA2A48B8
:1023B000FFF766FA2948FFF763FA2948FFF760FA42
:1023C0002848FFF75DFA2848FFF75AFA2748FFF731
:1023D00057FA2748FFF754FA2648FFF751FA2648DC
:1023E000FFF74EFA2548FFF74BFA2548FFF748FA62
:1023F0002448FFF745FABDE808402348FFF740BAF4
:1024000061C7000883C700089DC70008D7C7000838
:1024100001C8000837C8000864C800088FC8000851
:10242000B2C80008E0C8000814C9000842C9000882
:1024300077C90008ACC90008DDC9000811CA000846
:1024400050CA000877CA000894CA0008B9CA000830
:10245000ECCA000814CB000842CB000867CB000888
:102460008FCB0008BBCB0008E4CB0008F8CB0008FA
:102470000BCC00081DCC000836CC000854CC00085A
:102480005DCC00086ECC0008D0C0000808B521491A
:10249000214805F09EFF2048FFF7F2F9C8220021ED
:1024A0001D4805F0F6FE04F0F9FD0A2302461B491B
:1024B000194805F089FE1848FFF7E2F9C822002103
:1024C000154805F0E6FE04F0EFFD154B154A1649D8
:1024D000002818BF1A46104805F076FE0E48FFF790
:1024E000CFF9C82200210C4805F0D3FE0F490A4855
:1024F00005F06FFF0848FFF7C3F9C822002106481E
:1025000005F0C7FE0A48FFF7BBF9BDE808400948D7
:10251000FFF7B6B98ACC000878230020AACC0008BF
:1025200084CC000887CC0008C4CC0008D5CC0008B7
:10253000ECCC000831CE00082DE9F0438BB00DF152
:10254000170206A90DF1160001F09CFD74497548AB
:1025500005F03FFF7348FFF793F9C8220021714847
:1025600005F097FE704B714A1978714B6D48002940
:1025700018BF1A466F4905F027FE6A48FFF780F931
:10258000C8220021674805F084FE6B4B9DF81710A8
:102590006A4A6448002918BF1A46694905F014FEC2
:1025A0006048FFF76DF9C82200215E4805F071FE12
:1025B00001F016FD9DF81630024662490093594815
:1025C000082305F001FE5748FFF75AF9C8220021F9
:1025D000544805F05EFE069A5B49524805F0F4FD4A
:1025E0005048FFF74DF9C82200214E4805F051FE32
:1025F00007A801F009FD079F3846FEF79FFDDDF8AB
:10260000208004464046FEF799FDDDF824900546FB
:102610004846FEF793FD06462046FEF75FFB01465F
:102620003846FEF7A5FA4949FEF7ACFBFEF786FDF2
:1026300080EAE077A7EBE0773046FEF74FFB0146F4
:102640004846FEF795FA4149FEF79CFBFEF776FDFA
:102650000028B8BF4042CDE902602846FEF73EFBA5
:1026600001464046FEF784FA3849FEF78BFBFEF739
:1026700065FD0028B8BF40423B462246CDE90050E8
:102680003349284805F0A0FD2648FFF7F9F8C8228D
:102690000021244805F0FDFD2E49224805F099FE51
:1026A0002048FFF7EDF8C82200211E4805F0F1FD93
:1026B000082229491B4805F087FD1A48FFF7E0F872
:1026C000C8220021174805F0E4FD13A3D3E9002335
:1026D0002249144805F078FD1248FFF7D1F8C822C6
:1026E0000021104805F0D5FD00234FF47A721C49F3
:1026F0000C4805F069FD0B48FFF7C2F8C82200211D
:10270000084805F0C6FD1748FFF7BAF80BB0BDE85A
:10271000F08300BFAFF30080000000A09999B93F9B
:1027200001CD00087823002000000020F3CC000831
:10273000F6CC000826CD000884CC000887CC000821
:1027400033CD000847CD00086ACD00080000C8421C
:1027500084CD0008B7CD0008C9CD0008E7CD00083A
:1027600009CE00082CCE0008F8B54149414805F0D3
:1027700030FE414C3F48FFF783F8C82200213D4816
:1027800005F087FD3D4F22783D4D3E49002A0CBFA4
:102790003A462A46374805F017FD3B4E3548FFF7C5
:1027A0006FF8C8220021334805F073FD32783749AD
:1027B000002A0CBF3A462A462E4805F005FD2D4852
:1027C000FFF75EF8C82200212A4805F062FD237851
:1027D000002B48D02E4C2F492268264805F0F4FCE7
:1027E0002D4D2448FFF74CF8C8220021214805F060
:1027F00050FD2A68294901321E4805F0E5FC1D48B4
:10280000FFF73EF8C82200211A4805F042FD236870
:102810001848002BC5BF64212A6800224A4320497A
:10282000C8BF92FBF3F205F0CFFC1248FFF728F87F
:10283000C82200210F4805F02CFD33789BB12B688E
:10284000226893420FDA5021164A0A4801FB0322FC
:10285000154905F0B9FC0748FFF712F8C822002116
:10286000044805F016FDBDE8F8401048FFF708B829
:102870004FCE000878230020B503002087CC000845
:1028800084CC000872CE0008B403002089CE000872
:10289000BC030020A6CE0008B8030020BDCE00086F
:1028A000D1CE0008C0030020E2CE00082FCE0008E1
:1028B0002DE9F0470D22A0B0A049044605F0F1FC37
:1028C00020B920B0BDE8F047FFF79ABB0C222046A4
:1028D0009B4905F0E6FC20B920B0BDE8F047FFF7C2
:1028E000B9BB0B222046974905F0DBFC20B920B08C
:1028F000BDE8F047FFF740BC0D222046924905F0A5
:10290000D0FC20B920B0BDE8F047FFF70BBC0D228A
:1029100020468E4905F0C5FC20B920B0BDE8F0473F
:10292000FFF7DABC0C222046894905F0BAFC20B931
:1029300020B0BDE8F047FFF75BBC0E22204685497A
:1029400005F0AFFC20B920B0BDE8F047FFF70CBFA1
:1029500004222046804905F0A4FC28B10422204628
:102960007E4905F09EFC20B920B0BDE8F047FFF796
:10297000DBBC0C2220467A4905F093FC20B920B03C
:10298000BDE8F047FFF782BD0E222046754905F0ED
:1029900088FC20B920B0BDE8F047FFF7CDBD0E227E
:1029A0002046714905F07DFC40B901226F4B70480B
:1029B0001A7020B0BDE8F047FEF762BF0F22204634
:1029C0006C4905F06EFC28B9684B187001F00EFBDD
:1029D0006948EEE70C222046684905F062FC18B908
:1029E00001F004FB6648E4E70D222046654905F046
:1029F00058FC18B901F044FB6348DAE7032220468B
:102A0000624905F04EFC624B1D7830B1032220462E
:102A1000604905F046FC00287BD1002D7FF45CAFB7
:102A20006322214607A805F04EFC002307A88DF875
:102A30007F30FEF795FE0546002864D1042220462B
:102A4000554905F02EFC00286DD1544B1868FEF74F
:102A500045F95349FEF74AFA524B06461868FEF705
:102A60003DF94F49FEF742FA4F4B80461868FEF792
:102A700035F94E49FEF73AFA81463046FEF75EFBDD
:102A800004464046FEF75AFB07464846FEF756FB0B
:102A90008246FEF723F901464846FEF769F84449A5
:102AA000FEF770F9FEF74AFB0028B8BF4042CDE9B7
:102AB00003A03846FEF712F901464046FEF758F8E3
:102AC0003B49FEF75FF9FEF739FB0028B8BF4042EB
:102AD000CDE901702046FEF701F901463046FEF7C8
:102AE00047F83349FEF74EF9FEF728FB0028B8BF38
:102AF000404200902346C8212E4A2F4805F02EFB65
:102B00002D48FEF7BDFE2846FEF73EFE20B0BDE88C
:102B1000F087002D84D02046FFF7CEFA08B1274871
:102B200047E7274845E704222046264905F0B9FB38
:102B30000028E8D1FEF7C0FFE5E700BFF8CE0008A7
:102B400006CF000813CF00081FCF00082DCF0008C4
:102B50003BCF000848CF000857CF00085CCF0008E3
:102B600061CF00086ECF00087DCF00080000002074
:102B70008CCF0008A1CF0008B1CF0008C9CF000852
:102B8000D6CF0008EDCF0008FBCF000810D000081A
:102B9000B603002014D000082ED0000874230020B3
:102BA00000009E42702300206C23002000A0754589
:102BB0000000C84233D0000878230020D0C00008AD
:102BC00018D0000853D0000808B500F009FE18B16D
:102BD000BDE8084000F004BE08BD00002DE9F0414A
:102BE00094B001F09FFB324C324B22681B680546C3
:102BF0009A4217DB304B1B7813B101F0F1F970B931
:102C00002E492F4805F0E5FB2D48FEF739FEC82276
:102C100000212B4805F03DFB00222A4B1A7014B00E
:102C2000BDE8F081284F3B68C31A312BF7D9224BFE
:102C30001B7893BB4FF050082268244E244908FBB0
:102C400002631F48013205F0BFFA1D48FEF718FE67
:102C5000C82200211A4805F01CFB21684F2208FBFE
:102C600001610026684605F02EFB68468DF84F602E
:102C7000FEF776FD0246A8B12368164901331048D5
:102C800005F0A2FA0E48FEF7FBFDC82231460C48BB
:102C900005F0FFFA0B4B1E70C1E701F0A1F9052802
:102CA000C8D9BCE723683D6001332360B7E700BFA4
:102CB000B8030020BC0300200000002058D000080A
:102CC00078230020B4030020B0030020C0030020BC
:102CD00015C700082FC70008164B70B51B780BB13D
:102CE000FFF772FF144B1B780BB1FFF777FF134D03
:102CF0002B7873B10022124E12493068124C824276
:102D000008DB0024642221460E48346005F0C1FA35
:102D10002C7070BD11F8013B093BDBB2172B05D8B5
:102D200024FA03F3DB0701D50132E8E70548FFF792
:102D3000BFFDE6E700000020B403002000230020D0
:102D400004230020082300201300800070470000A7
:102D500008B572B600F08AF91B21094804F09CF905
:102D600001220848114601F033FC064C204601219F
:102D700001F033FC4FF4FA7001F0DAFAF6E700BF25
:102D80007BD00008000C014070B594B014220021E3
:102D90000CA805F07EFA1422102500210DEB02008C
:102DA00005F077FA2A46002101A805F072FA0124FD
:102DB0004FF480330226CDE90A43CDE911634FF485
:102DC00080130AA80E94139302F0C0FA08B1FFF71B
:102DD000BFFF0F23CDE905364FF480630790CDE99F
:102DE0000830214605A802F073FC0028EFD14FF40B
:102DF000800301A80195049302F026FD0028E6D186
:102E000014B070BD00B589B001F06EFAFFF7BCFFD9
:102E100004F0CCF8FEF73EFD012202213C4801F00F
:102E2000D7FB0E213B4804F037F9102200210DEBAF
:102E3000020005F02EFA384B40F2DB319A69344833
:102E400042F020029A619A69002402F02002019265
:102E5000019A9A69012542F004029A619A69022650
:102E600002F004020292029A9A6942F008029A6100
:102E70009B69002203F008030393039B01F0A8FB66
:102E800000224FF4E061254801F0A2FB40F2DB3361
:102E90001F4804A9CDE90435CDE9064601F0BEFA84
:102EA0004FF4E0421E4B1A4804A9CDE904230695CD
:102EB00001F0B4FA4FF4E063184804A9CDE90435F1
:102EC000CDE9064601F0AAFA21462246282001F063
:102ED00053FA282001F080FA4FF416531148124992
:102EE000C0E90244C0E900130C230461C0E90534C1
:102EF000C46102F05DFD08B1FFF72AFF03F0D2FFC5
:102F000004F094F8FFF7E8FE322001F011FAF7E739
:102F1000000C014097D0000800100240000801405A
:102F2000000011104024002000440040064B074AD6
:102F30001B680749B3FBF2F3434348684A68121A17
:102F40009A42FBD3704700BF1000002040420F00A0
:102F5000001000E00000000010B500210446FEF75C
:102F6000B9F8D8B920461249FDF7C0FF1149FDF75D
:102F700009FF00210446FEF7ADF878B92046FDF7B9
:102F800053FA02460B4608A1D1E90001FDF7CEFB3A
:102F9000FDF77AFDC82838BFC82010BD4FF448702F
:102FA000FBE700BFAFF300800000000080842E41EB
:102FB0000000704200A0754510B5084C0122402168
:102FC000204601F005FB0220FFF7B0FF2046BDE8D8
:102FD00010400022402101F0FBBA00BF000C01406C
:102FE00010B5094C01224FF40071204601F0F0FAAF
:102FF0000220FFF79BFF2046BDE8104000224FF45F
:10300000007101F0E5BA00BF000C014010B5094C99
:1030100001224FF48071204601F0DAFA0220FFF716
:1030200085FF2046BDE8104000224FF4807101F07A
:10303000CFBA00BF0008014010B50A4C002220465C
:103040004FF4807101F0C4FA20460022102101F0F3
:10305000BFFABDE8104000224FF48061024801F041
:10306000B7BA00BF000C01400008014010B50A4C7F
:10307000012220464FF4807101F0AAFA2046012275
:10308000102101F0A5FABDE8104001224FF4806143
:10309000024801F09DBA00BF000C01400008014049
:1030A0002DE9F04F97B010939DF880300D461193A5
:1030B000AF4B014606461446D3F80090FEF728F8B9
:1030C000002840F0C981AB493046FDF75BFEFEF7B2
:1030D00035F80C90A84B29462846D3F80080FEF717
:1030E00017F8002840F0BB81A2492846FDF74AFEA8
:1030F000FEF724F80D90A14B21462046D3F800B0EE
:10310000FEF706F8002840F0AD819D492046FDF706
:1031100039FEFEF713F80E900C9B3146A3EB090A1B
:103120000D9B3046A3EB08070E9BA3EB0B030F93FD
:10313000FDF7EEFF002840F098814846FDF7CEFDF0
:103140008C49FDF7D3FE01463046FDF711FD81465F
:1031500029462846FDF7DCFF002840F089814046DB
:10316000FDF7BCFD8349FDF7C1FE01462846FDF78A
:10317000FFFC804621462046FDF7CAFF002840F0AC
:103180007A815846FDF7AAFD7D49FDF7AFFE01465D
:103190002046FDF7EDFC834649464846FDF7F2FD23
:1031A000414681464046FDF7EDFD01464846FDF7A4
:1031B000E1FC594680465846FDF7E4FD014640468D
:1031C000FDF7D8FCFDF730F907F0FCF8FDF77CFCC3
:1031D000119B814613B16B4B1B6810936A4B10997E
:1031E000D3F800804046FDF76BFF08B9DDF840805A
:1031F000BAF1000F06D06FEA0A0280216348D20FAD
:1032000001F0E6F92FB1FA4308216048D20F01F02E
:10321000DFF90F9B2BB14FF400715D48DA0F01F01D
:10322000D7F90F9BBAF1000FB8BFCAF1000A002FFF
:10323000B8BF7F42002BB8BF5B42494640460F9360
:10324000FFF78AFE314610903046FDF761FF38B136
:10325000474B1868FDF742FD4649FDF747FE064615
:1032600029462846FDF754FF38B1434B1868FDF74F
:1032700035FD4049FDF73AFE054621462046FDF75B
:1032800047FF38B13D4B1868FDF728FD3C49FDF775
:103290002DFE04463046FDF751FF1290FDF71EFD4E
:1032A00001463046FDF764FC3A49FDF76BFDFDF73A
:1032B00045FF83462846FDF741FF1390FDF70EFDBD
:1032C00001462846FDF754FC3249FDF75BFDFDF74A
:1032D00035FF05462046FDF731FF1590FDF7FEFC52
:1032E00001462046FDF744FC2A49FDF74BFDFDF75A
:1032F00025FF04464046FDF721FF1490FDF7EEFC44
:1033000001464046FDF734FC2349FDF73BFDFDF740
:1033100015FF06464846FDF711FF8046FDF7DEFC27
:1033200001464846FDF724FC1A49FDF72BFDFDF741
:1033300005FF0028B8BF4042002E109B149AB8BF6A
:103340007642002CB8BF6442CDE908800A93069209
:1033500007960594159B002D0493139B11990293D6
:103360008BEAEB73A3EBEB730193129B16E000BFA8
:103370007423002000009E42702300206C23002054
:1033800000A075450800002004000020000C01404A
:10339000000801400000C84200002041374A009365
:1033A000374BB8BF6D423748002908BF1346039515
:1033B000C821354A04F0D2FE3248FEF761FAC8222D
:1033C0000021304804F065FFBA45D146B8BFB94680
:1033D0000F9B9945B8BF9946B9F1000F39D04FEA14
:1033E000690B5D465C460026D344D945D4BF012213
:1033F00000220F993C440D44D8BFABEB090BA1450B
:10340000D6BF01230023A4EB0904A945D6BF4FF082
:1034100001084FF00008A5EB09051AB11193FFF759
:10342000CBFD119B0BB1FFF7DBFDB8F1000F01D015
:10343000FFF7ECFD10980136FFF778FDB145D3D1C9
:10344000124B0C9A1A60124B0D9A1A60114B0E9A7D
:103450001A6017B0BDE8F08FCDF830903AE6CDF89D
:10346000348048E6CDF838B056E64FF000096FE6F4
:103470004FF000087EE64FF0000B8DE6AFD000085D
:10348000A6D0000878230020B9D0000874230020BB
:10349000702300206C2300202DE9F04F8BB008939F
:1034A000B34B8046186816460F46FDF717FCB14B24
:1034B00005461868FDF712FCAF4904464046FDF783
:1034C00061FCAD4904903846FDF75CFCAA490690C2
:1034D0003046FDF757FC294603900498FDF748FB5A
:1034E000214606460698FDF743FB314683463046A3
:1034F000FDF748FC594607465846FDF743FC014690
:103500003846FDF737FBFCF78FFF06F05BFFFDF752
:10351000DBFA0746FCF788FF039B804623F0004058
:103520008946FCF781FF02460B46FCF71FFE024668
:103530000B4640464946FDF75FFA28B18F480BB06D
:10354000BDE8F04FFEF79CB904992846FDF712FB41
:103550004FF07C51FDF716FC069981462046FDF799
:1035600009FB4FF07C51FDF70DFC4FF07C5180467C
:103570003846FDF707FC039909900846FDF702FC61
:10358000099982460846FDF7FDFB01465046FDF7C6
:10359000EFFAFCF749FF06F015FFFDF795FA3946FB
:1035A00082460BF10040FDF7A1FC394683463046C8
:1035B000FDF79CFC089B064659465046002B00F040
:1035C000B680FDF7DFFB01464846FDF7D1FA3146EC
:1035D00081465046FDF7D6FB01464046FDF7C8FA46
:1035E000804649462846FDF7C3FAFCF71DFF06460C
:1035F0000F4620464146FDF7BBFAFCF715FF324661
:103600003B4606F0DDFEFDF75FFA49468346049827
:10361000FDF7AEFAFCF708FF04460D460698414652
:10362000FDF7A6FAFCF700FF22462B4606F0C8FE7F
:10363000FDF74AFA5946FDF79BFA089B044600211C
:10364000002B00F08280FDF759FD50B12046FCF7B9
:10365000EBFE45A3D3E90023FCF786FDFDF734FA22
:1036600004460125DFF810A10398FCF7DDFECDE943
:1036700004012846FDF732FB4149FDF737FC21469E
:10368000FDF780FB5946FDF775FAFCF7CDFE0646BF
:103690000F4606F0BBFECDE906013046394606F07E
:1036A000FBFE384B0646186840F65A7390FBF3F061
:1036B0000F46FDF713FB32463B460890DDE9040157
:1036C000FCF70AFF064640460F46FCF7ADFE0246F1
:1036D0000B4630463946FCF749FDFDF7F5F95146F2
:1036E000FDF704FCDDE906230990DDE90401FCF7A0
:1036F000F3FE064648460F46FCF796FE02460B468A
:1037000030463946FCF732FDFDF7DEF95146FDF74C
:10371000EDFB012300931C4B089A1B6809990135A6
:10372000FFF7BEFC332D9FD10BB0BDE8F08FFDF746
:1037300029FB4946FDF71EFA314681465046FDF702
:1037400021FB4146FDF716FA4AE7FDF7B9FC0028D0
:1037500087D02046FCF768FE03A3D3E90023FCF7DB
:1037600005FD7BE7AFF30080182D4454FB21194081
:10377000742300207023002000009E42F9D000082E
:10378000000048426C2300200800002070B50D4660
:103790001446064638B10D4B1868FDF79FFA0C49E0
:1037A000FDF7A4FB30603DB10A4B1868FDF796FAAF
:1037B0000749FDF79BFB28603CB1074B1868FDF7F4
:1037C0008DFA0649FDF792FB206070BD742300203E
:1037D00000009E42702300206C23002000A075454D
:1037E0002DE9F7432A4F3B7803F0FF023BB9294B01
:1037F00083F824200026304603B0BDE8F083482338
:10380000DFF89480254C98F800205FFA82F95A433B
:10381000A01890F84660002EECD090F84730002BAE
:10382000E8D10121A25C1B4D022A85F824102CD07E
:1038300007D9032ADED1426A41690069FFF72CFEED
:103840000AE082F0010202F001020092436B8269F9
:1038500041690069FFF724FC482303FB09444FF446
:103860008073A4F8463098F80030013303F0070362
:1038700088F800303B78013BDBB23B70AB6A013328
:10388000AB62002385F82530B5E70B46D3E700BFD0
:10389000B424002088240020B5240020B82400206F
:1038A0002DE9F04F0D46044689B0002871D000295B
:1038B0006FD006460F46CB6AD0F82CB001930DF1BD
:1038C00008090DF1140800F10C0A306956F8041FBC
:1038D000FDF74EF95946FDF709FB49F8040B386925
:1038E00057F8041FFDF744F90199FDF7FFFA564513
:1038F00048F8040BE9D102990598FDF743FA002135
:10390000FDF738F9064606990398FDF73BFA31466C
:10391000FDF730F9064607990498FDF733FA31466A
:10392000FDF728F94FF07E510646FDF7E7FB30B969
:1039300030461A49FDF7C4FB18B1184E01E04FF0AC
:103940007E564FF07E513046FDF714F94FF07C5112
:10395000FDF718FA06F0E8FD11490646FDF7B0FB41
:1039600030B1296B206B09B0BDE8F04F06F0F6BD11
:103970000C49206CFDF706FA3146FDF7B7FA06F060
:10398000D3FD296B0646206B06F0E8FD0146304664
:10399000E9E7002009B0BDE8F08F00BF000080BF5C
:1039A0006F12833ACDCCCC3D38B514460D46014656
:1039B000FDF7E0F82146FDF7E5F9294604462846DB
:1039C000FDF7E0F901462046FDF7D4F80021044652
:1039D000FDF780FB20B92046BDE8384006F0A4BDC5
:1039E000002038BD2DE9F84F554B1A78012A1FD910
:1039F000544A14781B78E4B213B1DCB1013CE4B250
:103A000000214FF0000A0D46DFF83C81DFF83C91C1
:103A100098F800309C420FD100234FF07E574FF0B2
:103A2000000B98F80050EDB2464A1278954222D128
:103A3000BDE8F88F0724E3E7482707FB049785B123
:103A400095F844306BB191B12846FFF729FF06463F
:103A50003146A86BFDF752FB18B10023AE6385F821
:103A6000443034B1013CE4B229463D46D0E75646E5
:103A7000EEE70724F8E74FF04808DFF8D09008FB9E
:103A80000598002B41D0996BD8F82C20D8F840002D
:103A9000FFF78AFFD8F834100446FDF711FB08B190
:103AA000C8F83440482606FB0596D6F830A0706B5F
:103AB0005146FDF71BFA51460446B06BFDF716FA66
:103AC000394606462046FDF719FB394680BB30468D
:103AD000FDF714FB18BB00212046FDF7F1FA00B1F9
:103AE000002459463046FDF7EBFAB0B94823214689
:103AF000504603FB0599FDF745F93146C9F83400F6
:103B00005046FDF73FF9C9F838000135434605F046
:103B1000070589E73E465C46E8E75E46E6E7594624
:103B20002046FDF7CDFA0028F4D14FF07E56DDE7B0
:103B30003046FDF7E3FA3C460028D2D03E46D5E7B2
:103B4000B4240020B6240020B5240020B82400208E
:103B50002DE9F04F87B00292A74A054612780C462D
:103B6000072AA64A06D9012382F82530002007B08B
:103B7000BDE8F08FA249A34F91F800C007F1040EF1
:103B80005FFA8CF10191482101FB0CFC0299E6449B
:103B9000C1F1030107F80C1007CA8EE8070007EB14
:103BA0000C06286869680CF1100C07EB0C0203C2C4
:103BB000A8681060776886F82830002B00F02E8106
:103BC0002468D6F810A0394674625046FCF7D0FF3E
:103BD000736980460393B368039819460493FCF70E
:103BE000C7FF414683464046FDF7CCF85946064696
:103BF0005846FDF7C7F801463046FCF7BBFF06F014
:103C000093FC4FF07C518146FDF7BCF80646014617
:103C10002046FDF755FA0028A8D121462046FDF799
:103C2000B1F8314605903046FDF7ACF801460598ED
:103C3000FCF79EFF06F078FC394606465046FCF736
:103C400099FF4FF07C51FDF79DF804998246039847
:103C5000FCF790FF4FF07C51FDF794F8494607467A
:103C60000BF10040FDF742F9494683464046FDF717
:103C70003DF9002181462046FDF740FA003818BF83
:103C80000120029B3146984214BF4FF07E505E489F
:103C9000FDF778F84823019A5A4E594603FB02660D
:103CA0008046FDF76FF85146FCF764FF4946F06126
:103CB0004046FDF767F83946FCF75CFF24F0004406
:103CC00030624FF0480B019B4E4E0BFB036BDBF851
:103CD0001C90DBF810004946CBF82440FCF748FF65
:103CE000DBF820A080465146DBF81400FCF740FFCB
:103CF00049460746DBF80400FCF73AFF8146514687
:103D0000DBF80800FCF734FF494606F00BFC81465F
:103D10004146384606F006FC4946FCF729FF029B5F
:103D200007460021002B00F0A280FDF7DDF950B11D
:103D30003846FCF779FB2EA3D3E90023FCF714FAED
:103D4000FCF7C2FE07462146482427F00040FDF755
:103D500019F8019B804604FB0364E168E062A069F6
:103D6000FCF706FF2949074620F00040FDF7C6F999
:103D700078B141464046FDF705F839468046384659
:103D8000FDF700F801464046FCF7F4FE06F0CCFBD8
:103D9000E0621F4B10991C682046FDF791F900B1B5
:103DA00010944823019A03FB0266109B144A336364
:103DB00000237363B363109BF363164B3364164B9A
:103DC0007364286869680D4B03C3A868186013788A
:103DD000013303F007031370074A13780133DBB292
:103DE0001370FFF7FFFD0120C1E600BFAFF30080B5
:103DF000182D4454FB211940B424002088240020AD
:103E0000B6240020B8240020000080BF6F12833A3F
:103E100004000020000048440101010021683846E8
:103E2000FCF7A8FED6F80890F06161688046484625
:103E3000FCF7A0FE4146044630623846FCF798FE87
:103E4000214607464846FCF793FE39460646384663
:103E5000FCF798FF314604463046FCF793FF0146D5
:103E60002046FCF787FE06F05FFB044629E7FDF7D6
:103E700031F900283FF467AF3846FCF7D5FA04A3C0
:103E8000D3E90023FCF772F95AE700BFAFF30080D3
:103E9000182D4454FB211940F8B50C46054601681D
:103EA0002068FCF765FE696807466068FCF760FEFD
:103EB000A9680646A068FCF75BFE39460546384609
:103EC000FCF760FF314604463046FCF75BFF0146D5
:103ED0002046FCF74FFE294604462846FCF752FFD1
:103EE00001462046FCF746FEBDE8F84006F01CBB44
:103EF0002DE9F84FDFF8C480174698F800300546E2
:103F0000072B0E462E4A05D90123002082F82530C2
:103F1000BDE8F88F4821DFF8AC902B4C99F80030C1
:103F20005FFA83FA4B4387F00101E15404EB030B82
:103F300003F1040C1033A444234407CA8CE807009F
:103F40001A462868696803C2A86819461060604666
:103F5000FFF7A2FF1D49CBF82C00FDF7B1F858BBC5
:103F60000FB11B4B1E681B4B31461F683846FDF7CF
:103F7000A7F800B13E464823002203FB0A435A63D8
:103F80009A63154A1E631A64144ADE635A642868E9
:103F900069680B4B03C3A868186099F800300133B7
:103FA00003F0070389F8003098F800300133DBB2E2
:103FB00088F80030FFF716FD0120A9E7B42400209F
:103FC00088240020B6240020B82400206F12833AF1
:103FD000080000200400002000007A4401010100D4
:103FE000014B1878704700BFB424002010B5054C71
:103FF000237803B910BDFFF7F3FB012000F098F917
:10400000F6E700BFB42400200346034A03CA186041
:104010005960106898607047882400200246034B5E
:104020000068516803C390681860704788240020B6
:104030001FB54FF4107200210C4804F02AF900213A
:104040000B4B2C2219700B4B0B4819700B4B197032
:1040500004F01FF903AA02A901A8FFF797FB01A822
:10406000FFF7DCFF05B05DF804FB00BFB8240020BB
:10407000B6240020B524002088240020B424002089
:10408000FFF7D6BF10B56424054B1B786343DB10E4
:104090000370044B986A93F824300860137010BDC5
:1040A000B4240020882400200E4B82B09A6942F08C
:1040B00001029A619A6902F001020092009ADA699B
:1040C00042F08052DA61DB69074A03F080530193C2
:1040D000019B536823F0E06343F00073536002B028
:1040E000704700BF001002400000014010B50446B8
:1040F00086B01022002102A804F0CBF82268164BEB
:104100009A4226D103F5E633DA69144842F40032C4
:10411000DA61DA6902A902F400320092009A9A691F
:1041200042F004029A619B69042203F004030193A4
:10413000019B0223CDE902230323059300F06EF9CE
:10414000082100230548CDE9021302A9049300F0D9
:1041500065F906B010BD00BF0044004000080140F2
:10416000FEE7FEE7FEE7FEE7FEE7704770477047B1
:1041700000F0CCB8014800F0D5BA00BF644500207B
:1041800008B54FF4805000F031FA4FF4005000F0C1
:104190002DFABDE808404FF4804000F027BA012016
:1041A000704708B504F0E8F8162303604FF0FF30BD
:1041B00008BD08B504F0E0F816230360FEE770B50B
:1041C0000D4614460E46731B9C4201DC204670BD12
:1041D000AFF3008006F8010BF5E770B50D46144605
:1041E0000E46731B9C4201DC204670BD16F8010B85
:1041F000AFF30080F5E74FF0FF3070474FF4005306
:1042000000204B607047012070470020704700007D
:104210000B4A0346116810B509B90A4911601068C4
:1042200009490A4C0344091B8B4206D904F0A4F83F
:104230000C2303604FF0FF3010BD1360FCE700BF9C
:10424000F8260020884900200050002000040000CB
:1042500070470000FFF7FCFF0B480C490C4A002395
:1042600002E0D458C4500433C4188C42F9D3094A2C
:10427000094C002301E013600432A242FBD304F096
:1042800081F8FEF7BFFD70470000002054030020B6
:1042900008D800085403002088490020FEE70000E9
:1042A00038B50E4B05461A784FF47A73B3FBF2F328
:1042B0000B4A1068B0FBF3F000F09CF8044658B9C4
:1042C0000F2D09D8024629464FF0FF3000F054F870
:1042D0002046044B1D6038BD0120FCE7140000207F
:1042E0001000002018000020074A08B513680320BA
:1042F00043F01003136000F02DF80F20FFF7D0FFFC
:10430000FFF7D2FE002008BD00200240034A044B04
:1043100011681B780B441360704700BFFC26002017
:1043200014000020014B1868704700BFFC260020D5
:1043300038B50446FFF7F6FF0546631C1EBF044B65
:104340001B78E418FFF7EEFF431BA342FAD338BDF6
:104350001400002007490302CA6803F4E06322F452
:10436000E0621204120C134343F0BF6343F40033C2
:10437000CB60704700ED00E0154B30B5DC68C4F34E
:104380000224C4F10703251D042B28BF0423062D96
:104390004FF0FF3594BF0024033C05FA03F321EAF4
:1043A0000303A54022EA0502A340002843EA0203D2
:1043B000ACBF00F16040074A4FEA0313DBB2ABBF6A
:1043C00000F5614000F00F0080F80033135430BD59
:1043D00000ED00E014ED00E0002807DB01234109B7
:1043E000034A00F01F00834042F82130704700BFAD
:1043F00000E100E00138B0F1807F0BD24FF0E02304
:10440000F021054A586182F82310002007229861A4
:104410001A6170470120704700ED00E02DE9F74F69
:1044200000244FF00F0E2646DFF884C1614B00F1E7
:1044300004080A6832FA06F502D103B0BDE8F08F2D
:10444000012505FA06F702EA070537EA020276D1E6
:104450004A68032A07D8013A022A00F28380DFE87B
:1044600002F091969C00122A00F0948069D8112ADB
:1044700000F08A80FF2D94BF8146C1464FEA860234
:10448000D9F8007088BF203A0EFA02FA27EA0A0724
:1044900004FA02F21743C9F80070D1F8049019F039
:1044A000805F4CD0DCF8182026F0030742F00102B0
:1044B000CCF81820DCF8182007F1804702F0010240
:1044C000019207F5803706F0030A019A4FEA8A0A3B
:1044D000BA680EFA0AFB22EA0B0B374A904260D008
:1044E00002F5806290425ED002F5806290425CD01C
:1044F00002F58062904214BF0422032202FA0AF2FB
:1045000042EA0B02BA609A6819F4801F14BF2A436A
:10451000AA439A60DA6819F4001F14BF2A43AA4319
:10452000DA605A6819F4003F14BF2A43AA435A605C
:104530001A6819F4803F14BF2A43AA431A6001364F
:1045400077E7DFF878904A450CD014D8A9F58019A0
:104550004A4507D009F570294A4503D0A9F58019C5
:104560004A4587D18A68D2B1012A4FF008040CBFAE
:10457000076147617EE7DFF848904A45F2D009F5C8
:104580008039EDE7CC6875E7CC68043472E7CC6815
:1045900008346FE7CC680C346CE700246AE7042425
:1045A00068E70022AAE70122A8E70222A6E700BFE7
:1045B00000100240000401400008014000002210E9
:1045C000000031108368194214BF01200020704799
:1045D0000AB1016170470904FBE7C36801EA0302FD
:1045E00021EA030141EA024101617047044A08B52A
:1045F0005169014202D05061FEF7A8FB08BD00BF1F
:1046000000040140F8B50446E0B190F8913203F09F
:10461000FF021BB980F8902202F0CEFD032384F83C
:10462000913200232546637155F8040B01F0FFF920
:1046300095E80E00206801F0EAF9014628B102234E
:1046400084F8913201252846F8BD206801F0F9F977
:104650000028F4D102460127267904F11003C1B2E3
:104660008E4203F1280318D800210A4604F5A873E6
:10467000C8B2864203F128031BD895E80E002068D3
:1046800001F0E1F905460028D9D1012360732068C3
:1046900084F8913201F08CFCD5E743E9062203F857
:1046A000277C03F8281C03F8252C43F8102C013034
:1046B000D5E743E9062203F8272C03F8280C03F872
:1046C000252C43F8102C0131D2E738B590F8903200
:1046D0000446012B10D0012580F89052006801F0AB
:1046E0009DF92946204602F06EFE206801F05EFC2E
:1046F000002084F8900238BD0220FCE710B590F845
:1047000090220446012A0AD00122417380F89022A7
:10471000006801F045FC002084F8900210BD0220E2
:10472000FCE700002DE9F04F044685B0006801F079
:1047300041FC10F4004500F04F842825C64E206847
:10474000B0F844301F0402D405B0BDE8F08FB0F8D3
:10475000443013F00F0799B240F0C08011F01001FF
:1047600026D103889BB2334043F400430380B0F862
:104770005030227C9BB203EBC20300EB4303B3F83F
:104780000434626AC3F309031A44E3622046626296
:1047900002F041FD637B002BD1D0A26A2168002A80
:1047A000CDD1637B43F08003A1F84C306273C6E740
:1047B0000788BBB217F4006721D0B0F8503094F8E6
:1047C00050219BB203EBC20300EB4303B3F80C345C
:1047D000B4F85621C3F30903C4F86C3104F526710B
:1047E00001F033FE22682046138823F070031B0576
:1047F0001B0D43F08003138002F0FEFC9FE71904B9
:104800009DD5038823F070031B051B0D43F0800327
:104810000380B0F8503094F850219BB203EBC203F0
:1048200000EB4303B3F80C34C3F30903C4F86C3151
:104830008BB1D4F8641171B1B4F8562101F005FEC2
:10484000D4F86431D4F86C21394613442046C4F8B6
:10485000643102F0D7FC21680A8893B212053FF553
:104860006EAF03F44053B3F5405F3FF468AFB1F867
:10487000502001F20C4092B2835AC3F309038352D1
:10488000D4F860313E2B1DD95F09DB06835A08BF7F
:1048900007F1FF379BB243EA87236FEA43436FEA8E
:1048A00053439BB283520B8823F4804323F070035D
:1048B0001B041B0C83F4405343F4004343F0800378
:1048C0000B803CE70BB9835AE7E75F08DB07835AA5
:1048D00048BF01379BB243EA8723E2E730F827302D
:1048E00019041FFA83F840F1F68030F8273005FBF1
:1048F000074123F070031B051B0D43F0800320F8D4
:10490000273091F85C3100F5806EBBB9B0F85030BB
:1049100091F850219BB2063303EBC2033EF813908B
:10492000C9F30909B9F1000F00F0BA804B46B1F89C
:104930005621D1F8641101F088FDB1E091F85331AE
:1049400091F85021022B40F08980B0F850904FEA46
:10495000C20B1FFA89F918F4804AD1F86831D9449A
:1049600008F0400C3CD009F102093EF81990C9F357
:104970000909994513D90023C1F8683130F822306C
:1049800023F4804323F070031B041B0C83F40053B7
:1049900043F4004343F0800320F8223005E0A3EB0A
:1049A0000903C1F86831002BE8D0BCF1000F0DD02D
:1049B00030F8223023F4E04323F070031B041B0C77
:1049C00043F4004343F0C00320F82230B9F1000F54
:1049D00066D0282101FB07414B46B1F85821A8E7D2
:1049E00009F106093EF81990C9F30909994512D948
:1049F000C1F868A130F8223023F4804323F070031B
:104A00001B041B0C83F4005343F4004343F0800366
:104A100020F8223005E0A3EB0903C1F86831002B30
:104A2000E8D0BCF1000F0DD130F8223023F4E04380
:104A300023F070031B041B0C43F4004343F0C0033A
:104A400020F82230B9F1000F2AD0282101FB0741BC
:104A50004B46B1F85A216CE70F8FFFFF30F8223038
:104A600023F4E04323F070031B041B0C43F40043C6
:104A700043F0C00320F8223091F8503130F8232061
:104A8000DB0012F4804FB0F8502092B254D00232C2
:104A900013443EF81390C9F30909B9F1000F9BD1F3
:104AA00005FB07F16318D3F86C214A44C3F86C2165
:104AB000D3F864214A44C3F86421D3F868211AB1B9
:104AC000D3F86031994541D205FB0743204693F85E
:104AD000501102F097FB18F0800F20683FF42FAEC2
:104AE00030F8273005FB07FC9BB2334043F400430A
:104AF00020F8273004EB0C03DA7C012A56D1002180
:104B000007FB0552A1501A7F92B318F040085A7C57
:104B100036D012BBB0F850201B7C92B21B0100F2C1
:104B2000044010441A5AC2F309021A521A5A92B295
:104B300042F400421A521BE0063213443EF813902E
:104B4000C9F30909B9F1000FAAD081E701F5A871ED
:104B50002068214401F044FABDE7012A08D1B0F8E9
:104B600050201B7C92B200F204401B0110441952E9
:104B7000282303FB0743197C204602F04CFBDEE5AB
:104B80003AB9B0F850201B7C92B21B0100F20C40E5
:104B9000C7E7012AECD1B0F850201B7C92B200F29A
:104BA0000C401B01104423F80080E1E7197C18F445
:104BB000807E9A6A4FEAC10A00F580691BD1B0F87D
:104BC0005070BFB25744023739F81770C7F309075E
:104BD000974202D3C3F828E0CEE7D21B9A625A6A02
:104BE0000CF110013A445A62DA6A21443A44DA621A
:104BF00001F0F6F9A3E5B0F850C018F0400E1FFA26
:104C00008CFCD44408F4804800F0F4800CF1020CD1
:104C100039F81CC01FFA88F8CCF3090C94452CBF56
:104C20000022A2EB0C029A62002A5BD1282303FB2C
:104C300007435B7C002B41D1B0F8502000F2044CBC
:104C400092B20B0194443CF80320C2F309022CF801
:104C500003203CF803206FEA42426FEA524292B2CC
:104C60002CF80320B0F8502000F20C4092B210440F
:104C7000C25AC2F30902C252C25A6FEA42426FEAF2
:104C8000524292B2C252204602F0C5FAB8F1000F69
:104C900000F0F480282303FB07432268197C32F8D4
:104CA000213023F4E04323F070031B041B0C43F476
:104CB000404343F0800322F82130DFE0012BE2D1B2
:104CC000B0F850E000F2044C1FFA8EFEF4440B01E1
:104CD0002CF80320B0F850C000F20C401FFA8CFCF6
:104CE0006044CFE7B8F1000F0DD030F8212022F456
:104CF000E04222F070021204120C42F4404242F0F0
:104D0000800220F821204FF0280808FB074898F877
:104D10003420012A40F0B280D8F8242002EB0C0E97
:104D2000C8F824E0DA6A6244DA62D8F83030D8F899
:104D30002020934235D39B1AC8F83030282303FB38
:104D4000074393F811C093B2BCF1000F45D1B0F8FE
:104D5000508000F2044C1FFA88F8C44409013CF862
:104D600001803E2AC8F309082CF8018025D94FEAB2
:104D70005218D2063CF8012008BF08F1FF3892B261
:104D800042EA88226FEA42426FEA524292B22CF81B
:104D90000120282202FB0742128B714601F010F914
:104DA0006CE01BB9624688F83430C7E7002288F807
:104DB0003420C8F830201A46C0E712B93CF8012068
:104DC000E0E74FEA5208D2073CF8012048BF08F15B
:104DD000010892B242EA8822D8E7BCF1010FD8D18B
:104DE000B0F850C000F204421FFA8CFC6244090182
:104DF0005352CEE70CF1060C39F81CC01FFA88F8A4
:104E0000CCF3090C94458CBF7246A2EB0C029A625B
:104E1000002A5DD1282303FB07435B7C002B43D191
:104E2000B0F8502000F2044C92B20B0194443CF8CC
:104E30000320C2F309022CF803203CF803206FEA98
:104E400042426FEA524292B22CF80320B0F850204E
:104E500000F20C4092B21044C25AC2F30902C2528C
:104E6000C25A6FEA42426FEA524292B2C25220469E
:104E700002F0D1F9B8F1000F3FF40CAF282303FB87
:104E800007432268197C32F8213023F4E04323F0F1
:104E900040031B041B0C83F0300343F4004343F036
:104EA000800322F821304AE4012BE0D1B0F850E031
:104EB00000F2044C1FFA8EFEF4440B012CF8032080
:104EC000B0F850C000F20C401FFA8CFC6044CDE7F3
:104ED000B8F1000F0DD130F8212022F4E04222F089
:104EE00070021204120C42F4404242F0800220F898
:104EF00021204FF0280808FB074898F83420012AA1
:104F0000BCD1D8F8242002EB0C0EC8F824E0DA6AF1
:104F10006244DA62D8F83030D8F82020934232D395
:104F20009B1AC8F83030282303FB074393F811C0BD
:104F300093B2BCF1000F42D1B0F8508000F20C4C9B
:104F40001FFA88F8C44409013CF801803E2AC8F3DE
:104F500009082CF8018022D94FEA5218D2063CF8F1
:104F6000012008BF08F1FF3892B242EA88226FEAB6
:104F700042426FEA524292B22CF80120282202FBF0
:104F80000742528B09E71BB9624688F83430CAE7FA
:104F90000022C8F8302088F834201A46C3E712B936
:104FA0003CF80120E3E74FEA5208D2073CF8012021
:104FB00048BF08F1010892B242EA8822DBE7BCF15F
:104FC000010FDBD1B0F8502000F20C4C92B29444A7
:104FD0000A012CF80230D1E7460512D52268204696
:104FE000B2F8443023F480631B041B0CA2F8443055
:104FF00002F01DF92946204605B0BDE8F04FFFF745
:105000007DBB41040AD52268B2F8443023F48043C2
:105010001B041B0CA2F84430FFF796BB820405D595
:105020002268B2F8443023F40053F1E7C30419D5E1
:1050300022682046B2F8403023F004031B041B0C06
:10504000A2F84030B2F8403023F008031B041B0CD8
:10505000A2F8403002F00EF92268B2F8443023F48E
:105060008053D5E7070548D56846236806461946A4
:105070001A4603F1200532F8047B954226F8027B9C
:10508000F9D1B3F8402092B242F00102A3F84020D7
:10509000B3F8402022F001021204120CA3F84020C1
:1050A000B3F844205605FBD5B3F8442022F48062BF
:1050B0001204120CA3F8442030F8022B21F8042B20
:1050C0008D42F9D1B3F84020204692B242F0080256
:1050D000A3F84020B3F8442022F400621204120C1A
:1050E000A3F84420B3F8402092B242F00402A3F89F
:1050F000402002F0AFF8FFF727BB82050DD52268EC
:105100002046B2F8443023F400731B041B0CA2F8B1
:10511000443002F088F8FFF717BBC3057FF514ABE6
:105120002268B2F8443023F4807371E770B5282404
:10513000054601F00700444311F0800F14BF04F14D
:10514000100104F5A87105EB040615BF0124002425
:10515000747486F8514114BF49194919022BCB7058
:1051600008BF0023087008BF0B710A6195F89032E0
:10517000012B09D00123286885F8903200F074FCD7
:10518000002085F8900270BD0220FCE7282301F082
:105190000702534311F0800F10B5044618BF03F106
:1051A000100118440BBF03F5A8710123002309194E
:1051B0000ABF0919437480F851310A7094F890328B
:1051C000012B09D00123206884F8903200F0ACFD57
:1051D000002084F8900210BD0220FCE770B528245E
:1051E000002601F007014C43051985F8501104F51C
:1051F000A8710144C5E95923C5F86C6185F851616E
:10520000006800F0EDFE304670BD282301F0070174
:1052100003FB0100D0F86C01704770B5282501F040
:1052200007014D4344190026C4E9092301222174D2
:1052300005F11001014484F834202363E6626274AE
:10524000006800F0CDFE304670BD38B5037901F03E
:105250000705AB4204462AD311F0800F4FF0280314
:105260001CD001226B4303F11001034401445A7422
:1052700001230D708B7094F890229A4219D0206807
:1052800084F8903200F023FE25B9206804F52671D9
:1052900000F094FE002084F8900238BD00224B43B9
:1052A00003F5A8710344014483F85121E0E701208C
:1052B000F3E70220F1E738B5027901F00F039A42D3
:1052C000044626D3282301F00702534311F0800F30
:1052D00014BF03F1100103F5A87118444FF0000545
:1052E00015BF012300230919091914BF437480F85D
:1052F00051318D700A7094F89032012B0BD001233C
:10530000206884F8903200F002FE284684F890521B
:1053100038BD0120FCE70220FAE710B5282411F07F
:10532000800F1BBF01F0070104FB010004FB01001B
:10533000103008BF00F5A87099B21AB90273C18085
:10534000002010BD012283600273F9E72DE9F341CB
:10535000054638B30368DB0710D42B689F075ED47B
:105360002B68190700F195802B685A0700F1C1805E
:10537000EB69002B40F02C81002029E0904C636801
:1053800003F00C03042B07D0636803F00C03082B15
:105390000AD16368DE0307D523689C03DDD56B68FB
:1053A000002BDAD1012013E06B68B3F5803F12D1F6
:1053B000236843F480332360FEF7B4FF0646236876
:1053C0009803CAD4FEF7AEFF801B6428F7D90320E8
:1053D00002B0BDE8F0819BB9236823F480332360D9
:1053E000236823F480232360FEF79CFF064623688E
:1053F0009903B2D5FEF796FF801B6428F7D9E6E73C
:10540000B3F5A02F236803D143F480232360CFE7B3
:1054100023F480332360236823F48023CBE7684C94
:10542000636813F00C0F07D0636803F00C03082BBC
:1054300010D16368DA030DD423689B0702D52B696A
:10544000012BAFD123686A6923F0F80343EAC20352
:10545000236085E72A695B4B6AB101221A60FEF777
:1054600061FF064623689F07ECD4FEF75BFF801BB5
:105470000228F7D9ABE71A60FEF754FF0646236807
:1054800098077FF56DAFFEF74DFF801B0228F6D918
:105490009DE7AA694A4E4B4BE2B10122C3F8802432
:1054A000FEF740FF0446736A9B070DD54FF4FA528E
:1054B000454B1B68B3FBF2F3019300BF019B5A1EDF
:1054C0000192002BF9D14FE7FEF72CFF001B0228B9
:1054D000E9D97CE7C3F88024FEF724FF0446736A09
:1054E0009F077FF541AFFEF71DFF001B0228F6D98D
:1054F0006DE7334CE369D80024D40127E36943F016
:105500008053E361E36903F080530093009B2F4EC7
:105510003368D90518D5EB68012B26D1236A43F0EF
:1055200001032362FEF7FEFE41F288380646236A35
:105530009B073FD5002F3FF41BAFE36923F0805357
:10554000E36115E70027E2E7336843F480733360D3
:10555000FEF7E8FE80463368DA05DCD4FEF7E2FEAB
:10556000A0EB08006428F6D931E7ABB9236A41F211
:10557000883823F001032362236A23F004032362A3
:10558000FEF7D0FE0646236A9807D3D5FEF7CAFE7B
:10559000801B4045F7D91AE7052B236A03D143F056
:1055A00004032362BAE723F001032362236A23F092
:1055B0000403B6E7FEF7B6FE801B4045B7D906E701
:1055C0000010024000004242100000200070004025
:1055D0002A4C626802F00C02082A3ED00022022BFC
:1055E000274B1A662CD1FEF79DFE064623689901CB
:1055F00020D42B6AB3F5803F05D16268A96822F4F4
:1056000000320A436260696A62680B4322F47412D2
:105610001343012263601A4B1A66FEF783FE0546A8
:1056200023689A013FF5A8AEFEF77CFE401B0228D6
:10563000F6D9CCE6FEF776FE801B0228D6D9C6E660
:10564000FEF770FE054623689B017FF595AEFEF7D9
:1056500069FE401B0228F6D9B9E6012B3FF4A2AE41
:1056600060682B6A00F480329A427FF49BAE6B6ACA
:1056700000F47010C01A18BF0120A9E60010024003
:10568000000042420D4A536803F00C01082912D170
:105690000B48C3F38341DB03405C09D55368094AD7
:1056A000C3F340435043084AD35CB0FBF3F0704768
:1056B000064B584370470348704700BF0010024034
:1056C000F1D2000800127A00EFD2000800093D0074
:1056D0002DE9F0410D46044610B90120BDE8F081E6
:1056E000444A136803F007038B4228D321688E07CE
:1056F00030D4CA0743D43F4A136803F00703AB42D0
:1057000065D822683C4D12F0040F6CD1130706D502
:105710006B68226923F4605343EAC2036B60FFF7AE
:10572000B1FF6B68354AC3F30313D35CD840344BE5
:105730001860344B1868FEF7B3FD0020CEE71368FD
:1057400023F007030B431360136803F007038B4236
:10575000C3D1CBE7284B11F0040F1EBF5A6842F4A7
:10576000E0625A60080742BF5A6842F460525A60C9
:105770005A68A06822F0F00202435A60B9E76268F2
:105780001D4E012A33681AD113F4003FA5D0736867
:1057900041F2883823F0030313437360FEF7C2FD20
:1057A00007467368626803F00C03B3EB820FA2D064
:1057B000FEF7B8FDC01B4045F3D903208EE7022A4F
:1057C00002D113F0007FE1E713F0020FDEE7136868
:1057D00023F007032B431360136803F00703AB4266
:1057E0007FF47BAF8DE76B68E16823F4E0630B43E4
:1057F0006B608BE70020024000100240DFD20008FF
:105800001000002018000020044B054A5B68C3F319
:105810000223D35C034A1068D8407047001002404E
:10582000D7D2000810000020044B054A5B68C3F380
:10583000C223D35C034A1068D8407047001002406E
:10584000D7D200081000002003682DE9F341054677
:10585000D80721D5364CE369D9002BD40126E3695A
:1058600043F08053E361E36903F080530193019BAC
:10587000304F3B68DA051FD5236A6A6813F440731A
:105880002ED1236A6A6823F44073134323621EB146
:10589000E36923F08053E3612A68910706D5244920
:1058A000A8684B6823F4404303434B60D30636D4C7
:1058B000002012E00026DBE73B6843F480733B6086
:1058C000FEF730FD80463B68DB05D5D4FEF72AFDA8
:1058D000A0EB08006428F6D9032002B0BDE8F081EF
:1058E00002F440729A42CCD00120134A236AC2F8D3
:1058F0004004002023F44071DF07C2F84004216215
:10590000BFD5FEF70FFD41F288380746236A980796
:10591000B7D4FEF707FDC01B4045F7D9DCE7044AC2
:10592000E968536823F480030B435360C0E700BF6A
:1059300000100240007000400000424210B50446D2
:105940000368C1681A6922F440520A431A618268E6
:105950000069D9680243606921F4B05121F00C015B
:1059600002430A43DA605A69A16922F440720A4389
:105970005A610E4A934215D1FFF756FF192343434C
:10598000626820689200B3FBF2F36422B3FBF2F189
:1059900002FB11331B013233B3FBF2F303EB0113B0
:1059A000836010BDFFF730FFE8E700BF003801401B
:1059B00010B5044648B390F8413003F0FF021BB91C
:1059C00080F84020FEF792FB2423226884F84130BF
:1059D000D368204623F40053D360FFF7AFFF23685A
:1059E00000201A6922F490421A615A6922F02A02B0
:1059F0005A61DA6842F40052DA602023606484F865
:105A0000413084F84230606310BD0120FCE784B06F
:105A100004A800E90E00002004B0704703464FF4CC
:105A20003F420020A3F84400A3F840207047B0F89C
:105A3000403023F47C535B045B0CA0F84030002022
:105A40007047002070471FB5044604A800E90E0007
:105A500000200123A4F84030A4F84000A4F844003A
:105A6000A4F8500004B010BDF0B50A78CD7830F835
:105A70002240034624F4EC4424F070042404240C53
:105A8000032D03D8DFE805F041494745012048F2DE
:105A90008006344323F8224033F822409F4FA4B2BB
:105AA0003C401443344323F822400C7B03EB021C9C
:105AB000002C40F08D80CC884E78640864007EB362
:105AC000B3F8501089B26144A1F8004433F82210B1
:105AD000490609D533F8221089B2394041F4004112
