:020000040800F2
:100000000050002091420008954000089D400008E3
:10001000A5400008AD400008B54000080000000001
:10002000000000000000000000000000BD400008CB
:10003000C940000800000000D5400008E140000869
:10004000D9420008D9420008D9420008D942000824
:10005000D9420008D9420008D9420008D942000814
:10006000D9420008D9420008D9420008D942000804
:10007000D9420008D9420008D9420008D9420008F4
:10008000D9420008D9420008D9420008D9420008E4
:10009000ED400008D9420008D9420008D9420008C2
:1000A000D9420008D9420008D9420008D9420008C4
:1000B000D9420008D9420008D9420008D9420008B4
:1000C000D9420008D9420008D9420008D9420008A4
:1000D000D9420008D9420008D9420008D942000894
:1000E000D9420008D9420008D942000800000000A7
:1000F0000000000000000000000000000000000000
:0C01000000000000000000005FF808F1A3
:1001100010B5054C237833B9044B13B10448AFF341
:1001200000800123237010BD500300200000000058
:10013000F8E6000808B5034B1BB103490348AFF3C9
:10014000008008BD0000000054030020F8E600080D
:10015000034613F8012B002AFBD1181A0138704707
:1001600081F0004102E000BF83F0004330B54FEA68
:1001700041044FEA430594EA050F08BF90EA020FD5
:100180001FBF54EA000C55EA020C7FEA645C7FEA68
:10019000655C00F0E2804FEA5454D4EB5555B8BF8B
:1001A0006D420CDD2C4480EA020281EA030382EAFC
:1001B000000083EA010180EA020281EA0303362D8E
:1001C00088BF30BD11F0004F4FEA01314FF4801C61
:1001D0004CEA113102D0404261EB410113F0004F73
:1001E0004FEA03334CEA133302D0524263EB43032A
:1001F00094EA050F00F0A780A4F10104D5F1200EC8
:100200000DDB02FA0EFC22FA05F2801841F1000122
:1002100003FA0EF2801843FA05F359410EE0A5F1F6
:1002200020050EF1200E012A03FA0EFC28BF4CF027
:10023000020C43FA05F3C01851EBE37101F00045DD
:1002400007D54FF0000EDCF1000C7EEB00006EEBEA
:100250000101B1F5801F1BD3B1F5001F0CD3490874
:100260005FEA30004FEA3C0C04F101044FEA4452CB
:1002700012F5800F80F09A80BCF1004F08BF5FEA52
:10028000500C50F1000041EB045141EA050130BD32
:100290005FEA4C0C404141EB0101013C28BFB1F544
:1002A000801FE9D291F0000F04BF01460020B1FA8F
:1002B00081F308BF2033A3F10B03B3F120020CDA62
:1002C0000C3208DD02F1140CC2F10C0201FA0CF040
:1002D00021FA02F10CE002F11402D8BFC2F1200CA5
:1002E00001FA02F120FA0CFCDCBF41EA0C0190405B
:1002F000E41AA2BF01EB0451294330BD6FEA0404A4
:100300001F3C1CDA0C340EDC04F11404C4F120028E
:1003100020FA04F001FA02F340EA030021FA04F3A0
:1003200045EA030130BDC4F10C04C4F1200220FAF7
:1003300002F001FA04F340EA0300294630BD21FA35
:1003400004F0294630BD94F0000F83F4801306BFFB
:1003500081F480110134013D4EE77FEA645C18BFEF
:100360007FEA655C29D094EA050F08BF90EA020F86
:1003700005D054EA000C04BF1946104630BD91EA7E
:10038000030F1EBF0021002030BD5FEA545C05D181
:100390004000494128BF41F0004130BD14F58004C0
:1003A0003CBF01F5801130BD01F0004545F0FE4134
:1003B00041F470014FF0000030BD7FEA645C1ABF69
:1003C000194610467FEA655C1CBF0B46024650EAA0
:1003D000013406BF52EA033591EA030F41F40021CC
:1003E00030BD00BF90F0000F04BF0021704730B552
:1003F0004FF4806404F132044FF000054FF0000127
:1004000050E700BF90F0000F04BF0021704730B5E7
:100410004FF4806404F1320410F0004548BF4042BC
:100420004FF000013EE700BF42004FEAE2014FEA11
:1004300031014FEA02701FBF12F07F4393F07F4FEC
:1004400081F06051704732F07F4208BF704793F0EF
:100450007F4F04BF41F40021704730B54FF4607402
:1004600001F0004521F000411CE700BF50EA010205
:1004700008BF704730B54FF000050AE050EA0102AE
:1004800008BF704730B511F0004502D5404261EB1E
:1004900041014FF4806404F132045FEA915C3FF45F
:1004A000D8AE4FF003025FEADC0C18BF03325FEAFC
:1004B000DC0C18BF033202EBDC02C2F1200300FAAD
:1004C00003FC20FA02F001FA03FE40EA0E0021FAD2
:1004D00002F11444BDE600BF70B54FF0FF0C4CF4C0
:1004E000E06C1CEA11541DBF1CEA135594EA0C0F72
:1004F00095EA0C0F00F0DEF82C4481EA030621EAAD
:100500004C5123EA4C5350EA013518BF52EA0335E7
:1005100041F4801143F4801338D0A0FB02CE4FF099
:100520000005E1FB02E506F00042E0FB03E54FF0C9
:100530000006E1FB03569CF0000F18BF4EF0010EC1
:10054000A4F1FF04B6F5007F64F5407404D25FEABD
:100550004E0E6D4146EB060642EAC62141EA555170
:100560004FEAC52040EA5E504FEACE2EB4F1FD0CB2
:1005700088BFBCF5E06F1ED8BEF1004F08BF5FEA30
:10058000500E50F1000041EB045170BD06F00046E2
:1005900046EA010140EA020081EA0301B4EB5C048F
:1005A000C2BFD4EB0C0541EA045170BD41F4801187
:1005B0004FF0000E013C00F3AB8014F1360FDEBFAC
:1005C000002001F0004170BDC4F10004203C35DA88
:1005D0000C341BDC04F11404C4F1200500FA05F30B
:1005E00020FA04F001FA05F240EA020001F00042AC
:1005F00021F0004110EBD37021FA04F642EB060122
:100600005EEA430E08BF20EAD37070BDC4F10C044B
:10061000C4F1200500FA04F320FA05F001FA04F20F
:1006200040EA020001F0004110EBD37041F10001FB
:100630005EEA430E08BF20EAD37070BDC4F1200506
:1006400000FA05F24EEA020E20FA04F301FA05F26E
:1006500043EA020321FA04F001F0004121FA04F216
:1006600020EA020000EBD3705EEA430E08BF20EAE6
:10067000D37070BD94F0000F0FD101F00046400020
:1006800041EB010111F4801F08BF013CF7D041EAA2
:10069000060195F0000F18BF704703F000465200A6
:1006A00043EB030313F4801F08BF013DF7D043EA77
:1006B0000603704794EA0C0F0CEA135518BF95EA2D
:1006C0000C0F0CD050EA410618BF52EA4306D1D1B4
:1006D00081EA030101F000414FF0000070BD50EAD3
:1006E000410606BF1046194652EA430619D094EA5D
:1006F0000C0F02D150EA013613D195EA0C0F05D147
:1007000052EA03361CBF104619460AD181EA03019A
:1007100001F0004141F0FE4141F470014FF0000052
:1007200070BD41F0FE4141F4780170BD70B54FF0ED
:10073000FF0C4CF4E06C1CEA11541DBF1CEA13556D
:1007400094EA0C0F95EA0C0F00F0A7F8A4EB05044F
:1007500081EA030E52EA03354FEA013100F0888046
:100760004FEA03334FF0805545EA131343EA12630F
:100770004FEA022245EA111545EA10654FEA0026C4
:100780000EF000419D4208BF964244F1FD0404F57D
:10079000407402D25B084FEA3202B61A65EB0305D9
:1007A0005B084FEA32024FF480104FF4002CB6EB96
:1007B000020E75EB030E22BFB61A754640EA0C0016
:1007C0005B084FEA3202B6EB020E75EB030E22BF56
:1007D000B61A754640EA5C005B084FEA3202B6EB97
:1007E000020E75EB030E22BFB61A754640EA9C0056
:1007F0005B084FEA3202B6EB020E75EB030E22BF26
:10080000B61A754640EADC0055EA060E18D04FEAE3
:10081000051545EA16754FEA06164FEAC30343EA83
:1008200052734FEAC2025FEA1C1CC0D111F4801F50
:100830000BD141EA00014FF000004FF0004CB6E749
:1008400011F4801F04BF01430020B4F1FD0C88BFE8
:10085000BCF5E06F3FF6AFAEB5EB030C04BFB6EBF3
:10086000020C5FEA500C50F1000041EB045170BDE6
:100870000EF0004E4EEA113114EB5C04C2BFD4EB13
:100880000C0541EA045170BD41F480114FF0000E97
:10089000013C90E645EA060E8DE60CEA135594EA13
:1008A0000C0F08BF95EA0C0F3FF43BAF94EA0C0F16
:1008B0000AD150EA01347FF434AF95EA0C0F7FF48B
:1008C00025AF104619462CE795EA0C0F06D152EADF
:1008D00003353FF4FDAE1046194622E750EA4106C3
:1008E00018BF52EA43067FF4C5AE50EA41047FF4D4
:1008F0000DAF52EA43057FF4EBAE12E74FF0FF3C39
:1009000006E000BF4FF0010C02E000BF4FF0010C09
:100910004DF804CD4FEA410C7FEA6C5C4FEA430C82
:1009200018BF7FEA6C5C1BD001B050EA410C0CBFD1
:1009300052EA430C91EA030F02BF90EA020F002033
:10094000704710F1000F91EA030F58BF994208BF9A
:1009500090422CBFD8176FEAE37040F00100704757
:100960004FEA410C7FEA6C5C02D150EA013C07D1AE
:100970004FEA430C7FEA6C5CD6D152EA033CD3D0F9
:100980005DF8040B704700BF8446104662468C46F3
:100990001946634600E000BF01B5FFF7B7FF002826
:1009A00048BF10F1000F01BD4DF808EDFFF7F4FF4F
:1009B0000CBF012000205DF808FB00BF4DF808EDDA
:1009C000FFF7EAFF34BF012000205DF808FB00BFFD
:1009D0004DF808EDFFF7E0FF94BF012000205DF81F
:1009E00008FB00BF4DF808EDFFF7CEFF94BF0120D4
:1009F00000205DF808FB00BF4DF808EDFFF7C4FFCD
:100A000034BF012000205DF808FB00BF4FEA410C15
:100A10007FEA6C5C02D150EA013C0AD14FEA430CF8
:100A20007FEA6C5C02D152EA033C02D14FF0000035
:100A300070474FF0010070474A0011D212F50012C2
:100A400011D20DD56FF47873B3EB62520ED44FEA26
:100A5000C12343F0004343EA505323FA02F07047A6
:100A60004FF00000704750EA013002D14FF0FF30E4
:100A700070474FF0000070474FEA4102B2F1E04387
:100A800024BFB3F5001CDCF1FE5C0DD901F0004C75
:100A90004FEAC0024CEA5070B2F1004F40EB8300C5
:100AA00008BF20F00100704711F0804F21D113F1F1
:100AB0003872BCBF01F00040704741F480114FEA2A
:100AC0005252C2F11802C2F1200C10FA0CF320FAB3
:100AD00002F018BF40F001004FEAC1234FEAD323D0
:100AE00003FA0CFC40EA0C0023FA02F34FEA43033A
:100AF000CCE77FEA625307D150EA01331EBF4FF0C3
:100B0000FE4040F44000704701F0004040F0FE40DD
:100B100040F40000704700BF80F0004002E000BFDA
:100B200081F0004142001FBF5FEA410392EA030FD8
:100B30007FEA226C7FEA236C6AD04FEA1262D2EB22
:100B40001363C1BFD218414048404140B8BF5B4227
:100B5000192B88BF704710F0004F40F4000020F0C0
:100B60007F4018BF404211F0004F41F4000121F0D6
:100B70007F4118BF494292EA030F3FD0A2F1010220
:100B800041FA03FC10EB0C00C3F1200301FA03F15E
:100B900000F0004302D5494260EB4000B0F5000F81
:100BA00013D3B0F1807F06D340084FEA310102F140
:100BB0000102FE2A51D2B1F1004F40EBC25008BFF2
:100BC00020F0010040EA03007047490040EB0000BC
:100BD000013A28BFB0F5000FEDD2B0FA80FCACF1BD
:100BE000080CB2EB0C0200FA0CF0AABF00EBC250EA
:100BF00052421843BCBFD0401843704792F0000FD8
:100C000081F4000106BF80F400000132013BB5E72A
:100C10004FEA41037FEA226C18BF7FEA236C21D0A0
:100C200092EA030F04D092F0000F08BF0846704705
:100C300090EA010F1CBF0020704712F07F4F04D1D3
:100C4000400028BF40F00040704712F100723CBFE6
:100C500000F50000704700F0004343F0FE4040F410
:100C6000000070477FEA226216BF08467FEA2363CE
:100C70000146420206BF5FEA412390EA010F40F4B9
:100C8000800070474FF0000304E000BF10F0004305
:100C900048BF40425FEA000C08BF704743F09643EC
:100CA00001464FF000001CE050EA010208BF704707
:100CB0004FF000030AE000BF50EA010208BF70478E
:100CC00011F0004302D5404261EB41015FEA010CA3
:100CD00002BF84460146002043F0B64308BFA3F19B
:100CE0008053A3F50003BCFA8CF2083AA3EBC2537D
:100CF00010DB01FA02FC634400FA02FCC2F120029C
:100D0000BCF1004F20FA02F243EB020008BF20F0D2
:100D10000100704702F1200201FA02FCC2F1200238
:100D200050EA4C0021FA02F243EB020008BF20EA2D
:100D3000DC7070474FF0FF0C1CEAD0521EBF1CEA5B
:100D4000D15392EA0C0F93EA0C0F6FD01A4480EA49
:100D5000010C400218BF5FEA41211ED04FF0006332
:100D600043EA501043EA5111A0FB01310CF000405E
:100D7000B1F5000F3EBF490041EAD3715B0040EA84
:100D8000010062F17F02FD2A1DD8B3F1004F40EB54
:100D9000C25008BF20F00100704790F0000F0CF027
:100DA000004C08BF49024CEA502040EA51207F3AEB
:100DB000C2BFD2F1FF0340EAC250704740F40000C6
:100DC0004FF00003013A5DDC12F1190FDCBF00F0B7
:100DD00000407047C2F10002410021FA02F1C2F165
:100DE000200200FA02FC5FEA310040F1000053EA01
:100DF0004C0308BF20EADC70704792F0000F00F04F
:100E0000004C02BF400010F4000F013AF9D040EA54
:100E10000C0093F0000F01F0004C02BF490011F4E8
:100E2000000F013BF9D041EA0C018FE70CEAD153E6
:100E300092EA0C0F18BF93EA0C0F0AD030F0004C66
:100E400018BF31F0004CD8D180EA010000F000401A
:100E5000704790F0000F17BF90F0004F084691F0D8
:100E6000000F91F0004F14D092EA0C0F01D1420212
:100E70000FD193EA0C0F03D14B0218BF084608D1DB
:100E800080EA010000F0004040F0FE4040F4000025
:100E9000704740F0FE4040F4400070474FF0FF0CB8
:100EA0001CEAD0521EBF1CEAD15392EA0C0F93EAFF
:100EB0000C0F69D0A2EB030280EA010C49024FEA51
:100EC000402037D04FF0805343EA111143EA10130A
:100ED0000CF000408B4238BF5B0042F17D024FF4C2
:100EE000000C8B4224BF5B1A40EA0C00B3EB510F9D
:100EF00024BFA3EB510340EA5C00B3EB910F24BF86
:100F0000A3EB910340EA9C00B3EBD10F24BFA3EB0A
:100F1000D10340EADC001B0118BF5FEA1C1CE0D1D2
:100F2000FD2A3FF650AF8B4240EBC25008BF20F085
:100F3000010070470CF0004C4CEA50207F32C2BFD9
:100F4000D2F1FF0340EAC250704740F400004FF076
:100F50000003013A37E792F0000F00F0004C02BFA7
:100F6000400010F4000F013AF9D040EA0C0093F071
:100F7000000F01F0004C02BF490011F4000F013BCB
:100F8000F9D041EA0C0195E70CEAD15392EA0C0F33
:100F900008D142027FF47DAF93EA0C0F7FF470AF6B
:100FA000084676E793EA0C0F04D14B023FF44CAFAE
:100FB00008466EE730F0004C18BF31F0004CCAD143
:100FC00030F000427FF45CAF31F000437FF43CAF7F
:100FD0005FE700BF4FF0FF3C06E000BF4FF0010CA1
:100FE00002E000BF4FF0010C4DF804CD4FEA400283
:100FF0004FEA41037FEA226C18BF7FEA236C11D0CD
:1010000001B052EA530C18BF90EA010F58BFB2EB7F
:10101000030088BFC81738BF6FEAE17018BF40F0FF
:10102000010070477FEA226C02D15FEA402C05D1B3
:101030007FEA236CE4D15FEA412CE1D05DF8040B38
:10104000704700BF844608466146FFE70FB5FFF7CB
:10105000C9FF002848BF10F1000F0FBD4DF808ED83
:10106000FFF7F4FF0CBF012000205DF808FB00BF74
:101070004DF808EDFFF7EAFF34BF012000205DF8CE
:1010800008FB00BF4DF808EDFFF7E0FF94BF01201B
:1010900000205DF808FB00BF4DF808EDFFF7D2FF18
:1010A00094BF012000205DF808FB00BF4DF808ED5B
:1010B000FFF7C8FF34BF012000205DF808FB00BF28
:1010C0004FEA40024FEA41037FEA226C02D15FEA15
:1010D000402C08D17FEA236C02D15FEA412C02D177
:1010E0004FF0000070474FF0010070474FEA400298
:1010F000B2F1FE4F0FD34FF09E03B3EB12620DD946
:101100004FEA002343F0004310F0004F23FA02F0AF
:1011100018BF404270474FF00000704712F1610F56
:1011200001D1420205D110F0004008BF6FF000402D
:1011300070474FF00000704742000ED2B2F1FE4FF0
:101140000BD34FF09E03B3EB126209D44FEA002396
:1011500043F0004323FA02F070474FF0000070475D
:1011600012F1610F01D1420202D14FF0FF307047FE
:101170004FF00000704700BF38B50022002304463E
:101180000D46FFF71BFC28B920462946BDE838402C
:1011900000F00AB8204605F1004100F005F8404291
:1011A00061EB410138BD00BFD0B500220B4B0646B4
:1011B0000F46FFF791F9FFF73FFC0446FFF712F9DE
:1011C0000022074BFFF788F902460B4630463946A6
:1011D000FEF7CAFFFFF730FC2146D0BD0000F03D0E
:1011E0000000F04180B500AF092200210F480BF04C
:1011F000E4F80E4B00221A700C4B00225A700B4B75
:1012000000229A70094B0022DA70084B00221A71F2
:10121000064B00225A71054B00229A71034B0022A3
:10122000DA71024B00221A7200BF80BD9C030020BD
:1012300080B500AF302200211C480BF0BEF81B4BDC
:101240001B4A07CA03C31A70184B1A4ADA60174BB5
:10125000184A1A61154B174A5A61144B154A9A617C
:10126000124B144ADA61114B4FF0FF321A620F4BE6
:10127000002283F824200D4B002283F825200B4BFD
:10128000002283F82620094B002283F82720074BF1
:10129000002283F82820054B002283F82920034BE5
:1012A000002283F82A2000BF80BD00BF6C0300200D
:1012B0009C0300200000C07F80B588B000AFF860BC
:1012C000B9607A60BB681B781A46FB681344FB61FF
:1012D00008E0FB690133FB61BB681B780133DAB2BC
:1012E000BB681A70FB691B787B767B7E202BF0D065
:1012F0007B7E092BEDD07B7E002B01D100234DE0BE
:10130000FB697B617B7E2B2B02D07B7E2D2B08D152
:10131000FB690133FB61BB681B780133DAB2BB6840
:101320001A700023FB760023BB761CE07B7E2F2BFC
:1013300005D97B7E392B02D80123BB760AE07B7E60
:101340002E2B16D1FB7E83F00103DBB2002B10D0D5
:101350000123FB76FB690133FB61BB681B7801331A
:10136000DAB2BB681A70FB691B787B767B7E002B38
:10137000DCD1BB7E83F00103DBB2002B01D0002364
:101380000CE078690AF0B4F802460B46104619469C
:10139000FFF772FB02467B681A600123184620376C
:1013A000BD4680BD80B586B000AF786000237B74F9
:1013B0000023BB740023BB820023FB74FFF738FFBC
:1013C00091E27B7C0133DBB27B747B7C1A467B68C9
:1013D00013441B78202BF4D07B7C1A467B68134483
:1013E0001B78092BEDD07B7C1A467B6813441B7855
:1013F000FB75FB7D002B00F07F82FB7D602B05D908
:10140000FB7D7A2B02D8FB7D203BFB757B7C013377
:10141000DBB27B7407F10C0207F1110319467868FF
:10142000FFF74AFF034683F00103DBB2002B01D034
:10143000022363E2FB6818460DF044F903461846A0
:10144000FFF77AFE0346BB74FB7D463B142B00F28C
:10145000488201A252F823F039180008AD140008A0
:10146000E3180008E3180008E3180008E318000870
:10147000C3180008F916000885180008E3180008CA
:10148000A3180008E3180008E31800085F18000814
:10149000E3180008E3180008E3180008E318000840
:1014A000091800081918000829180008BB7C632BCC
:1014B00001D9142322E2BB7C5E2B00F2068101A23B
:1014C00052F823F0411600084116000841160008A2
:1014D000411600084D160008CB160008CB16000870
:1014E000CB160008CB160008CB160008CB16000858
:1014F000CB160008CB160008CB160008CB16000848
:10150000CB160008CB1600085B1600085B16000817
:101510005B1600086B1600086B160008CB16000857
:10152000CB160008CB160008CB160008CB16000817
:10153000CB1600087D160008CB160008CB16000855
:10154000CB160008CB160008CB160008CB160008F7
:10155000CB160008CB160008CB160008CB160008E7
:10156000CB160008CB160008CB160008CB160008D7
:10157000CB160008CB160008CB160008CB160008C7
:10158000CB160008CB160008CB160008CB160008B7
:10159000CB160008CB160008CB160008BB160008B7
:1015A000BB160008BB160008BB160008BB160008D7
:1015B000BB160008CB160008CB160008CB16000897
:1015C000CB160008CB160008CB160008CB16000877
:1015D000CB160008CB160008CB160008CB16000867
:1015E000CB160008CB160008CB160008CB16000857
:1015F000CB160008CB160008CB160008CB16000847
:10160000CB160008CB160008CB160008CB16000836
:10161000CB160008CB160008CB160008CB16000826
:10162000CB160008CB160008CB1600088B16000856
:101630008B1600089B160008A9160008A9160008BA
:101640000123FB74AF4ABB7C137040E00023FB74A2
:10165000AC4B042283F82C2039E00223FB74BB7CC2
:10166000113BDAB2A74B9A7031E00623FB74BB7CC6
:10167000C3F11503DAB2A34BDA7028E00023FB7440
:10168000A04B1C2283F82C2021E00323FB74BB7C9D
:101690005A3BDAB29B4B1A7119E00023FB74994B49
:1016A0005C2283F82C2012E00523FB74BB7CC3F181
:1016B0005E03DAB2934B5A7109E00923FB74BB7CD9
:1016C000363BDAB28F4B5A7001E0142316E1BA8A26
:1016D000FB7C42FA03F303F00103002B01D0152336
:1016E0000CE1FB7C012202FA03F31AB2B7F91430C1
:1016F00013431BB2BB82F6E0BB7C632B01D91423DE
:10170000FCE0BB7C1E2B45DC002B66DB1E2B64D86B
:1017100001A252F823F000BF9B1700089B17000896
:101720009B170008A7170008A7170008A7170008AD
:10173000DB170008B3170008B3170008B317000839
:10174000DB170008DB170008DB170008DB170008B1
:10175000DB170008DB170008DB170008BF170008BD
:10176000CD170008DB170008DB170008DB1700089F
:10177000DB170008DB170008DB170008DB17000881
:10178000DB170008DB170008DB170008DB17000871
:101790009B170008542B19D01FE00B23FB74594AE8
:1017A000BB7C13721BE00C23FB74564ABB7C937109
:1017B00015E00D23FB74534ABB7CD3710FE000236B
:1017C000FB74504B112283F82C2008E00023FB749B
:1017D0004C4B122283F82C2001E014238EE0BA8AAD
:1017E000FB7C42FA03F303F00103002B01D0152325
:1017F00084E0FB7C012202FA03F31AB2B7F9143039
:1018000013431BB2BB826EE0FB683E4AD3603D4B84
:10181000012283F8262066E0FB683A4A1361394BBF
:10182000012283F827205EE0FB68364A5361354B7E
:10183000012283F8282056E0FB68324A9361314B3D
:10184000012283F82920FB684FF000011846FFF7BA
:101850000FFC0346002B00D145E004234EE0FB685B
:10186000284AD361274B012283F82A20FB684FF0D6
:1018700000011846FFF7FCFB0346002B00D132E0C5
:1018800004233BE0BB7C1F4A1362FB684FF000015E
:101890001846FFF7EDFB0346002B00D123E004239D
:1018A0002CE0184ABB7C82F82430FB684FF0000122
:1018B0001846FFF7DDFB0346002B00D113E004239D
:1018C0001CE0104ABB7C82F82530FB684FF0000119
:1018D0001846FFF7CDFB0346002B00D103E004239D
:1018E0000CE014230AE07B7C1A467B6813441B78C7
:1018F000002B7FF46AAD00E000BF002318461837C4
:10190000BD4680BD6C0300202DE9F0439FB004AFBD
:10191000AC4B93F82C301C2B3CDC042BC0F2EA803F
:10192000043B182B00F2E68001A252F823F000BF1E
:101930009B190008F51A0008F51A0008F51A0008A6
:10194000F51A0008F51A0008F51A0008F51A00083B
:10195000F51A0008F51A0008F51A0008F51A00082B
:10196000F51A0008D71A0008E51A0008F51A000849
:10197000F51A0008F51A0008F51A0008F51A00080B
:10198000F51A0008F51A0008F51A0008F51A0008FB
:10199000D11900085C2B22D0ACE08A4B93F824309C
:1019A000002B00F0A680874B93F824301A463B1D8D
:1019B000854918460AF09CFC3B1D1846FEF7C8FBFB
:1019C00003469AB23B1D1146184609F0B3F990E060
:1019D00016217E4809F0AEF901F01EFD8AE0794B30
:1019E00093F82630002B0CD0764BDB6878491846EC
:1019F000FFF7A0F903461846FFF778FB0346754A40
:101A00001360704B93F82730002B0CD06D4B1B6983
:101A10006F491846FFF78EF903461846FFF766FB35
:101A200003466D4A1360674B93F82830002B0CD0A7
:101A3000644B5B6969491846FFF77CF90346184611
:101A4000FFF754FB0346664A1360624B1B68184657
:101A5000FFF71CF903465E491846FFF71FFA0346D5
:101A60001846FEF7E1FC804689465B4B1B6818462A
:101A7000FFF70CF9034656491846FFF70FFA0346DD
:101A80001846FEF7D1FC04460D46554B1B68184618
:101A9000FFF7FCF8034651491846FFF7FFF90346E4
:101AA0001846FEF7C1FC02460B46381DCDE902235D
:101AB000CDE9004542464B464A490AF019FC3B1D18
:101AC0001846FEF745FB03469AB23B1D11461846E1
:101AD00009F030F90EE01B21434809F02BF901F021
:101AE00033FE07E01821414809F024F901F046FED1
:101AF00000E000BF334B1B78032B7CDC022B58DA51
:101B0000002B02D0012B25D075E02E4B93F8263008
:101B1000002B09D12B4B93F82730002B04D1294BF4
:101B200093F82830002B4AD0264BD868254B1969EA
:101B3000244B5C69234B93F82650224B93F82730B3
:101B4000204A92F82820019200932B46224601F069
:101B5000FBF934E01B4B93F82630002B09D1194BCD
:101B600093F82730002B04D1164B93F82830002B24
:101B700040D0144BDC68134B1D69124B5E69114B4E
:101B8000D3F818C00F4B93F826300E4A92F827204E
:101B90000C4991F828100B4890F829000390029105
:101BA00001920093634632462946204601F0FCF933
:101BB00020E02A210E4809F0BDF8142355E000BFAB
:101BC00019E000BF6C03002010E700082CE70008B4
:101BD00000009E42A8030020AC03002000A0754531
:101BE000B003002044E7000870E700088CE7000815
:101BF000A8E7000800BF1F4B9B79052B10D0052BD1
:101C000013DC032B02D0042B05D00EE017211A4859
:101C100009F090F809E01821184809F08BF804E061
:101C20001521174809F086F800BF124BDB79092B04
:101C300010D0092B13DC072B02D0082B05D00EE0A7
:101C40001E21104809F076F809E022210E4809F01B
:101C500071F804E01A210D4809F06CF800BF0C4B34
:101C6000044A07CA03C31A70002318466C37BD46DE
:101C7000BDE8F0836C030020D4E70008ECE700081F
:101C800008E8000820E8000840E8000864E80008C8
:101C90009C03002080B584B000AF78600023FB6017
:101CA00018E0FB687A6813441B78602B0FD9FB6837
:101CB0007A6813441B787A2B09D8FB687A68134436
:101CC0001A78FB6879680B44203AD2B21A70FB6824
:101CD0000133FB60FB687A6813441B78002BE0D16A
:101CE0007868FFF75FFB0346FB72FB7A002B01D09D
:101CF000FB7A09E0FFF708FE0346FB72FB7A002B34
:101D000001D0FB7A00E0002318461037BD4680BDA5
:101D100080B58AB000AF0346FB71FB791C2B00F243
:101D2000838001A252F823F09D1D0008A71D000822
:101D3000B11D0008BB1D0008C51D0008291E0008B4
:101D4000291E0008291E0008291E0008291E000857
:101D5000291E0008291E0008291E0008291E000847
:101D6000291E0008291E0008291E0008291E000837
:101D7000291E0008291E0008CF1D0008D91D0008D3
:101D8000E31D0008ED1D0008F71D0008011E0008F6
:101D90000B1E0008151E00081F1E000804212F48F6
:101DA00008F0C8FF55E024212D4808F0C3FF50E09B
:101DB0001E212C4808F0BEFF4BE01E212A4808F0E7
:101DC000B9FF46E01B21294808F0B4FF41E021217A
:101DD000274808F0AFFF3CE02321264808F0AAFF7F
:101DE00037E02121244808F0A5FF32E027212348CD
:101DF00008F0A0FF2DE02321214808F09BFF28E0F8
:101E00001B21204808F096FF23E01B211E4808F004
:101E100091FF1EE021211D4808F08CFF19E02021D0
:101E20001B4808F087FF14E0FA7907F10803194905
:101E300018460AF05DFA07F108031846FEF788F91C
:101E400003469AB207F108031146184608F072FFDC
:101E500000BF00BF2837BD4680BD00BF80E8000836
:101E600088E80008ACE80008CCE80008ECE80008C6
:101E700008E900082CE9000850E9000874E90008A6
:101E80009CE90008C0E90008DCE90008F8E900085E
:101E90001CEA00083CEA000890B585B000AF02F0EB
:101EA0001DFA00F01DF800F077F808F055FE01F07B
:101EB00027F80A4B3C460FCB07C4238002341B0C87
:101EC00023703B460E21184608F034FF00F01CFF3B
:101ED000322002F065FA00BFF8E700BF48EA0008C8
:101EE00080B594B000AF07F12803282200211846DE
:101EF0000AF063FA07F1140300221A605A609A602C
:101F0000DA601A613B1D00221A605A609A60DA603A
:101F10000123BB624FF48033FB6200233B63012348
:101F2000BB6302237B644FF48033BB644FF48013A4
:101F3000FB6407F12803184604F078FA0346002BE7
:101F400001D002F06FF80F237B610223BB610023F5
:101F5000FB614FF480633B6200237B6207F1140353
:101F60000121184604F0E4FC0346002B01D002F0E6
:101F700059F810237B604FF480033B613B1D1846EA
:101F800004F032FE0346002B01D002F04BF800BFF4
:101F90005037BD4680BD000080B588B000AF07F166
:101FA000100300221A605A609A60DA602F4B9B6916
:101FB0002E4A43F0200393612C4B9B6903F02003CE
:101FC000FB60FB68294B9B69284A43F0040393613B
:101FD000264B9B6903F00403BB60BB68234B9B69E2
:101FE000224A43F008039361204B9B6903F00803E6
:101FF0007B607B68002240F2D9311D4802F09DFCD5
:1020000000224FF4E0611B4802F097FC40F2D93304
:102010003B6101237B610023BB610223FB6107F16C
:1020200010031946124802F0EDFA4FF4E0433B6109
:1020300000237B610023BB6107F1100319460C48A4
:1020400002F0E0FA4FF4E0633B6101237B6100237F
:10205000BB610223FB6107F110031946054802F03A
:10206000D1FA00BF2037BD4680BD00BF001002403E
:10207000000C01400008014080B485B000AF7860DA
:102080000D4B1B680D4AA2FB03239A0C7B6802FBD5
:1020900003F3FB600A4B5B68BB6000BF084B5A68E8
:1020A000BB68D31AFA689A42F8D800BF00BF143749
:1020B000BD4680BC704700BF0C00002083DE1B4380
:1020C000001000E080B500AF01224021064802F078
:1020D00034FC0220FFF7D0FF00224021024802F02A
:1020E0002CFC00BF80BD00BF000C014080B500AFDC
:1020F00001224FF40071074802F01FFC0220FFF795
:10210000BBFF00224FF40071024802F016FC00BF32
:1021100080BD00BF000C014080B500AF01224FF42C
:102120008071074802F009FC0220FFF7A5FF00229A
:102130004FF48071024802F000FC00BF80BD00BF78
:10214000000801400000000080B586B000AF786054
:1021500039604FF000017868FEF794FF0346002BCA
:1021600002D04FF4487330E01D497868FEF796FEC0
:1021700003463B611B4BFB60F9683869FEF7DAFDEB
:102180000346BB604FF00001B868FEF77BFF0346D3
:10219000002B02D04FF4487317E0B868FEF744F9FB
:1021A00002460B460CA1D1E90001FEF7BFFA024638
:1021B0000B4610461946FEF73FFC03467B617B69E0
:1021C000C72B01D8C8237B617B6918461837BD46E9
:1021D00080BD00BFAFF300800000000080842E416E
:1021E0000000704200A07545F0B5E5B00CAF07F5F2
:1021F000B074A4F5A674206007F5B070A0F5A870BF
:10220000016007F5B071A1F5AA710A6007F5B07217
:10221000A2F5AC72136007F5B073A3F5A67307F5CA
:10222000B072A2F5A67211681868FEF749FF03465E
:10223000002B0DD107F5B073A3F5A6738F4918686D
:10224000FEF778FD03461846FEF750FF034601E00F
:102250008B4B1B68C7F8403107F5B073A3F5A87323
:1022600007F5B072A2F5A87211681868FEF728FF8A
:102270000346002B0DD107F5B073A3F5A8737F4972
:102280001868FEF757FD03461846FEF72FFF034672
:1022900001E07C4B1B68C7F83C3107F5B073A3F530
:1022A000AA7307F5B072A2F5AA7211681868FEF752
:1022B00007FF0346002B0DD107F5B073A3F5AA73F2
:1022C00071491868FEF736FD03461846FEF70EFF03
:1022D000034601E06D4B1B68C7F83831684B1B683B
:1022E000D7F84021D31AC7F83431664B1B68D7F8AA
:1022F0003C21D31AC7F83031644B1B68D7F838211A
:10230000D31AC7F82C3107F5B073A3F5A67307F5F8
:10231000B072A2F5A67211681868FEF7D1FE0346E6
:10232000002B17D1564B1B681846FEF7AFFC03462F
:1023300052491846FEF7B2FD03461A4607F5B07338
:10234000A3F5A67311461868FEF7EAFB034623F0CF
:10235000004301E04FF00003C7F8283107F5B073E0
:10236000A3F5A87307F5B072A2F5A87211681868F2
:10237000FEF7A6FE0346002B17D1424B1B681846FA
:10238000FEF784FC03463D491846FEF787FD0346E9
:102390001A4607F5B073A3F5A87311461868FEF73F
:1023A000BFFB034623F0004301E04FF00003C7F8F2
:1023B000243107F5B073A3F5AA7307F5B072A2F53F
:1023C000AA7211681868FEF77BFE0346002B17D12E
:1023D0002E4B1B681846FEF759FC03462A4918463F
:1023E000FEF75CFD03461A4607F5B073A3F5AA7322
:1023F00011461868FEF794FB034623F0004301E002
:102400004FF00003C7F82031D7F82811D7F828017A
:10241000FEF790FC03461C46D7F82411D7F8240198
:10242000FEF788FC034619462046FEF77BFB034671
:102430001C46D7F82011D7F82001FEF77BFC034695
:1024400019462046FEF76EFB03461846FDF7ECFFE3
:1024500002460B46104619460CF03EF802460B4663
:1024600010461946FEF708FB0346C7F81C3197F8DB
:102470007831002B0ED0064B1B6810E000009E4206
:10248000A8030020AC03002000A07545B003002085
:102490000400002007F5B073A3F5AC731B68C7F800
:1024A0005C31B04B1B681946D7F85C01FEF7FEFDA6
:1024B0000346002B03D0AB4B1B68C7F85C31D7F841
:1024C0003431DB43DB0F87F81B31D7F83031DB4386
:1024D000DB0F87F81A31D7F82C31DB43DB0F87F895
:1024E0001931D7F83431002B06D097F81B311A4632
:1024F00080219D4802F021FAD7F83031002B06D018
:1025000097F81A311A460821974802F016FAD7F8B8
:102510002C31002B0AD097F8193183F00103DBB27C
:102520001A464FF40071914802F007FAD7F8343197
:10253000002BB8BF5B42C7F83431D7F83031002BDD
:10254000B8BF5B42C7F83031D7F82C31002BB8BF89
:102550005B42C7F82C31D7F81C11D7F85C01FFF7A4
:10256000F3FDC7F8140107F5B073A3F5A67307F5DB
:10257000B072A2F5A67211681868FEF7A1FD0346B5
:10258000002B0BD07A4B1B681846FEF77FFB0346E7
:1025900078491846FEF782FC034604E007F5B0735D
:1025A000A3F5A6731B68C7F8103107F5B073A3F540
:1025B000A87307F5B072A2F5A87211681868FEF743
:1025C0007FFD0346002B0BD06B4B1B681846FEF7B4
:1025D0005DFB034667491846FEF760FC034604E0CE
:1025E00007F5B073A3F5A8731B68C7F80C3107F59E
:1025F000B073A3F5AA7307F5B072A2F5AA721168B9
:102600001868FEF75DFD0346002B0BD05B4B1B6883
:102610001846FEF73BFB034659491846FEF73EFCB9
:10262000034604E007F5B073A3F5AA731B68C7F867
:102630000831D7F81001FEF759FD0346C7F80431F9
:10264000D7F80401FEF722FB03461946D7F810011C
:10265000FEF766FA03464B491846FEF76BFB034646
:102660001846FEF743FD0346C7F80031D7F80C01C2
:10267000FEF73CFD0346C7F8FC30D7F8FC00FEF738
:1026800005FB03461946D7F80C01FEF749FA034645
:102690003C491846FEF74EFB03461846FEF726FD5A
:1026A0000346C7F8F830D7F80801FEF71FFD0346C8
:1026B000C7F8F430D7F8F400FEF7E8FA03461946F5
:1026C000D7F80801FEF72CFA03462E491846FEF704
:1026D00031FB03461846FEF709FD0346C7F8F03004
:1026E000D7F85C01FEF702FD0346C7F8EC30D7F8D7
:1026F000EC00FEF7CBFA03461946D7F85C01FEF76B
:102700000FFA034620491846FEF714FB0346184605
:10271000FEF7ECFC0346C7F8E830D7F81C01FEF7DB
:10272000E5FC0346C7F8E430D7F8E400FEF7AEFA5C
:1027300003461946D7F81C01FEF7F2F90346114982
:102740001846FEF7F7FA03461846FEF7CFFC034695
:10275000C7F8E03097F87831002B19D00B4B7B602D
:1027600018E000BF08000020000C014000080140F4
:10277000A803002000009E42AC030020B00300200C
:1027800000A075450000C8420000204158EA00083A
:10279000894B7B60D7F80031002BB8BF5B42D7F87C
:1027A000F820002AB8BF5242D7F8F0100029B8BF6D
:1027B0004942D7F8E8000028B8BF4042D7F8E040C7
:1027C000002CB8BF644207F11806D7F814510A95D7
:1027D0000994D7F8E44008940790D7F8EC000690E5
:1027E0000591D7F8F41004910392D7F8FC200292D7
:1027F0000193D7F8043100937B68704AC8213046B2
:1028000009F040FD07F118031846FDF7A1FC034647
:102810009AB207F118031146184608F08BFAD7F858
:102820003431C7F85831D7F83021D7F858319A42A7
:1028300003DDD7F83031C7F85831D7F82C21D7F855
:1028400058319A4203DDD7F82C31C7F85831D7F800
:102850005831002B00F0AB80D7F85831DA0F134411
:102860005B10C7F85431D7F85831DA0F13445B10B6
:10287000C7F85031D7F85831DA0F13445B10C7F856
:102880004C3197F87831002B01D0022300E001236E
:10289000012219464A4802F050F80023C7F848318F
:1028A00068E0002387F84731002387F8463100238A
:1028B00087F84531D7F85421D7F834311344C7F895
:1028C0005431D7F85421D7F858319A4209DBD7F858
:1028D0005421D7F85831D31AC7F85431012387F857
:1028E0004731D7F85021D7F830311344C7F8503169
:1028F000D7F85021D7F858319A4209DBD7F8502140
:10290000D7F85831D31AC7F85031012387F8463128
:10291000D7F84C21D7F82C311344C7F84C31D7F8ED
:102920004C21D7F858319A4209DBD7F84C21D7F817
:102930005831D31AC7F84C31012387F8453197F83D
:102940004731002B01D0FFF7BDFB97F84631002B34
:1029500001D0FFF7CBFB97F84531002B01D0FFF7F3
:10296000DBFBD7F81401FFF787FBD7F848310133B9
:10297000C7F84831D7F84821D7F858319A4290DB48
:10298000002201210E4801F0D8FF002202210C484C
:1029900001F0D3FF0B4AD7F8403113600A4AD7F849
:1029A0003C311360094AD7F83831136000E000BFAA
:1029B00007F5B277BD46F0BD64EA000870EA00088A
:1029C000000C0140A8030020AC030020B00300204D
:1029D00080B5C2B004AF78600D22B449786809F0C0
:1029E000F4FC0346002B02D100F0E2FE5AE10C2277
:1029F000AF49786809F0E9FC0346002B02D100F0EA
:102A000017FF4FE10B22AB49786809F0DEFC034663
:102A1000002B02D101F0DCF844E10C22A6497868D1
:102A200009F0D3FC0346002B02D101F005F839E18F
:102A30000D22A249786809F0C8FC0346002B02D198
:102A400000F0B6FF2EE10D229D49786809F0BDFC2B
:102A50000346002B02D101F023FA23E10C2299490D
:102A6000786809F0B2FC0346002B02D101F082F92C
:102A700018E104229449786809F0A7FC0346002B6A
:102A800007D004229149786809F09FFC0346002B87
:102A900002D101F01BFA05E103228D49786809F0A3
:102AA00094FC0346002B07D003228A49786809F07A
:102AB0008CFC0346002B06D1874B1B78002B02D0E1
:102AC00000F0B6FEEEE0844B1B78002B0FD0786848
:102AD00000F0ECFE0346002B04D004217F4808F0F0
:102AE00029F9DFE015217E4808F024F9DAE007F142
:102AF0006C0363227968184609F079FC002387F893
:102B0000CF3007F16C031846FFF7C4F8034687F887
:102B1000F73097F8F730002B40F0BF80042271495E
:102B2000786809F052FC0346002B40F0AC806E4BF5
:102B30001B681846FEF7AAF803466C491846FEF7CC
:102B4000ADF90346C7F8F030694B1B681846FEF72D
:102B50009DF8034665491846FEF7A0F90346C7F8F5
:102B6000EC30644B1B681846FEF790F80346624948
:102B70001846FEF793F90346C7F8E830D7F8F00097
:102B8000FEF7B4FA0346C7F8E430D7F8E400FEF7DE
:102B90007DF803461946D7F8F000FDF7C1FF03465C
:102BA00056491846FEF7C6F803461846FEF79EFA41
:102BB0000346C7F8E030D7F8EC00FEF797FA034673
:102BC000C7F8DC30D7F8DC00FEF760F8034619469A
:102BD000D7F8EC00FDF7A4FF034648491846FEF776
:102BE000A9F803461846FEF781FA0346C7F8D8301D
:102BF000D7F8E800FEF77AFA0346C7F8D430D7F8DA
:102C0000D400FEF743F803461946D7F8E800FDF76D
:102C100087FF034639491846FEF78CF803461846E5
:102C2000FEF764FA0346C7F8D030D7F8E03083EAFD
:102C3000E371A1EBE371D7F8D830002BB8BF5B424A
:102C4000D7F8D020002AB8BF524207F108000392FB
:102C5000D7F8D42002920193D7F8DC3000930B46CA
:102C6000D7F8E420264909F043FB07F1080318468A
:102C7000FDF76EFA03469AB207F1080311461846AB
:102C800008F058F809E004221E49786809F09DFB15
:102C90000346002B01D100F0C7F997F8F73018462A
:102CA000FFF736F8F837BD4680BD00BFB0EA000830
:102CB000C0EA0008D0EA0008DCEA0008ECEA0008F4
:102CC000FCEA00080CEB00081CEB000824EB0008F1
:102CD0002CEB000830EB00086823002034EB0008E0
:102CE0003CEB000854EB0008A803002000009E42C3
:102CF000AC030020B003002000A075450000C842CE
:102D00005CEB00087CEB000880B584B000AF01F0FC
:102D10003DFB78606C4B1B687A68D31A0A2B40F233
:102D20008D80694A7B6813604FF48051674801F0D9
:102D3000EDFD0346002B0CBF01230023FB70FB7845
:102D4000002B0ED0624B1B7883F00103DBB2002B0B
:102D500007D01B215F4807F0EDFF5D4B01221A7081
:102D600010E0FB7883F00103DBB2002B0AD0584B54
:102D70001B78002B06D01E21574807F0DBFF544B71
:102D800000221A704FF40051504801F0BFFD034675
:102D9000002B0CBF01230023BB70BB78002B0ED08F
:102DA0004E4B1B7883F00103DBB2002B07D01B21B5
:102DB0004B4807F0BFFF494B01221A7010E0BB7867
:102DC00083F00103DBB2002B0AD0444B1B78002BAD
:102DD00006D01E21434807F0ADFF404B00221A7079
:102DE0004FF48041394801F091FD0346002B0CBFA0
:102DF000012300237B707B78002B0ED03A4B1B788D
:102E000083F00103DBB2002B07D01B21374807F00A
:102E100091FF354B01221A7010E07B7883F001039B
:102E2000DBB2002B0AD0304B1B78002B06D01E21C2
:102E30002F4807F07FFF2C4B00221A702D4B1B7878
:102E4000002B3CD00023FB730023BB601DE02A4A0B
:102E5000BB6813441B78202B14D0274ABB6813444B
:102E60001B78092B0ED0244ABB6813441B780D2B0A
:102E700008D0214ABB6813441B780A2B02D00123D7
:102E8000FB7307E0BB680133BB601C4B1B68BA686F
:102E90009A42DCDBFB7B002B06D0184B1B68002B17
:102EA00002DD1548FFF794FD144B00221A606422DE
:102EB0000021114809F081FA0E4B00221A7000BF60
:102EC0001037BD4680BD00BF6C230020000C0140C0
:102ED0007023002084EB0008A0EB00087123002081
:102EE000C0EB0008DCEB000872230020FCEB0008BC
:102EF00018EC00081C040020B40300201804002073
:102F000080B500AF0D4BDB680C4A43F08073D36093
:102F10000B4B1B680A4A43F00103136000F014FCDA
:102F200000220121074801F008FD00220221054886
:102F300001F003FDFEF756F900BF80BDF0ED00E0A3
:102F4000001000E0000C014080B58AB002AFF860CC
:102F5000B9607A60FB70FB78002B01D0FB6800E061
:102F60000F4BFB6197F82830002B01D0BB6800E0C5
:102F70000B4BBB6197F82C30002B01D07B6800E035
:102F8000074B7B61074B1B68012200927A69B96984
:102F9000F869FFF729F900BF2037BD4680BD00BFA3
:102FA0000000C07F0400002080B58AB002AFF86046
:102FB000B9607A603B6097F82830002B01D0FB683D
:102FC00000E0174BFB6197F82C30002B01D0BB6859
:102FD00000E0134BBB6197F83030002B01D07B68C9
:102FE00000E00F4B7B6197F83430002B0AD04FF094
:102FF00000013868FEF75AF80346002B02D0094A50
:103000003B681360074B1B68002200927A69B9691C
:10301000F869FFF7E9F800BF2037BD4680BD00BF63
:103020000000C07F0000002090B5C7B004AF1C2195
:10303000C84807F07FFE3B1D4F22C749184609F0DC
:1030400057F93B1D1846FDF783F803469AB23B1D1E
:103050001146184607F06EFE3B1D4F22BF49184629
:1030600009F046F93B1D1846FDF772F803469AB27F
:103070003B1D1146184607F05DFE3B1D40F65A7297
:10308000B749184609F034F93B1D1846FDF760F8BA
:1030900003469AB23B1D1146184607F04BFE4FF40B
:1030A00048731A463B1DAF49184609F021F93B1DEC
:1030B0001846FDF74DF803469AB23B1D11461846D7
:1030C00007F038FEA84B1B681846FEF70FF80346BA
:1030D000C7F80431A44B1C68D7F80401FDF7D6FDEE
:1030E000034619462046FDF71BFD03469F49184637
:1030F000FDF720FE03461846FDF7F8FF0346C7F824
:103100000031381DD7F80031D7F80421984909F06B
:10311000EFF83B1D1846FDF71BF803469AB23B1D1E
:103120001146184607F006FE924B1B681846FDF73D
:10313000DDFF0346C7F8FC308E4B1C68D7F8FC0057
:10314000FDF7A4FD034619462046FDF7E9FC0346BA
:1031500086491846FDF7EEFD03461846FDF7C6FF03
:103160000346C7F8F830381DD7F8F830D7F8FC20F8
:10317000814909F0BDF83B1D1846FCF7E9FF0346FD
:103180009AB23B1D1146184607F0D4FD7B4B1B68D5
:103190001846FDF7ABFF0346C7F8F430774B1C68C1
:1031A000D7F8F400FDF772FD034619462046FDF7F7
:1031B000B7FC03466D491846FDF7BCFD03461846AB
:1031C000FDF794FF0346C7F8F030381DD7F8F0300C
:1031D000D7F8F4206A4909F08BF83B1D1846FCF734
:1031E000B7FF03469AB23B1D1146184607F0A2FDF1
:1031F000644B1B681846FDF749FD034662491846B3
:10320000FDF74CFE0346C7F8EC30604B1B681846D0
:10321000FDF73CFD03465C491846FDF73FFE0346BB
:10322000C7F8E8305A4B1B681846FDF72FFD0346D8
:1032300058491846FDF732FE0346C7F8E430D7F880
:10324000EC00FDF753FF0346C7F8E030D7F8E00085
:10325000FDF71CFD03461946D7F8EC00FDF760FCAE
:1032600003464D491846FDF765FD03461846FDF730
:103270003DFF0346C7F8DC30D7F8E800FDF736FF1E
:103280000346C7F8D830D7F8D800FDF7FFFC03464F
:103290001946D7F8E800FDF743FC03463E491846B7
:1032A000FDF748FD03461846FDF720FF0346C7F823
:1032B000D430D7F8E400FDF719FF0346C7F8D03043
:1032C000D7F8D000FDF7E2FC03461946D7F8E40032
:1032D000FDF726FC034630491846FDF72BFD034653
:1032E0001846FDF703FF0346C7F8CC30D7F8DC30AB
:1032F00083EAE371A1EBE371D7F8D430002BB8BFB8
:103300005B42D7F8CC20002AB8BF5242381D039246
:10331000D7F8D02002920193D7F8D83000930B460B
:10332000D7F8E0201D4908F0E3FF3B1D1846FCF7E5
:103330000FFF03469AB23B1D1146184607F0FAFCF0
:103340001C21174807F0F6FC00BF07F58677BD463D
:1033500090BD00BF6CEC00088CEC0008A4EC0008E9
:10336000BCEC0008D4EC0008000000200000204164
:10337000E8EC0008040000200CED00080800002024
:1033800034ED0008A803002000009E42AC0300209A
:10339000B003002000A075450000C84258ED0008A9
:1033A0008CED000880B582B000AF0346FB71FB795D
:1033B0005A2B1ED05A2B28DC582B02D0592B0CD05C
:1033C00023E04FF48051134801F0A0FA0346002B8C
:1033D0000CBF01230023DBB218E04FF400510D486D
:1033E00001F094FA0346002B0CBF01230023DBB24B
:1033F0000CE04FF48041074801F088FA0346002BA7
:103400000CBF01230023DBB200E00023184608377D
:10341000BD4680BD000C014080B598B000AF2221B0
:10342000BB4807F087FC3B1DBA49184608F060FF0F
:103430003B1D1846FCF78CFE03469AB23B1D114615
:10344000184607F077FC3B1DB349184608F050FFBB
:103450003B1D1846FCF77CFE03469AB23B1D114605
:10346000184607F067FC00228021AC4801F065FA9D
:1034700006E0FEF727FE4FF448731846FEF7FCFD02
:103480005820FFF78FFF034683F00103DBB2002BC8
:10349000EFD101228021A14801F04FFA0023FB6502
:1034A00012E05820FFF77EFF034683F00103DBB2F2
:1034B000002B0DD1FEF706FE4FF448731846FEF7B9
:1034C000DBFDFB6D0133FB65FB6D092BE9DD00E0E6
:1034D00000BF00228021914801F02FFA0AE0FEF798
:1034E000F1FD4FF448731A4613465B001344184627
:1034F000FEF7C2FD5820FFF755FF034683F0010396
:10350000DBB2002BEBD1864B00221A603B1D8549B4
:10351000184608F0EDFE3B1D1846FCF719FE034661
:103520009AB23B1D1146184607F004FC3B1D7E492C
:10353000184608F0DDFE3B1D1846FCF709FE034661
:103540009AB23B1D1146184607F0F4FB00220821F1
:10355000724801F0F2F906E0FEF7C8FD4FF4487337
:103560001846FEF789FD5920FFF71CFF034683F03C
:103570000103DBB2002BEFD101220821674801F0E3
:10358000DCF90023BB6512E05920FFF70BFF03466F
:1035900083F00103DBB2002B0DD1FEF7A7FD4FF442
:1035A00048731846FEF768FDBB6D0133BB65BB6D04
:1035B000092BE9DD00E000BF00220821574801F097
:1035C000BCF90AE0FEF792FD4FF448731A46134621
:1035D0005B0013441846FEF74FFD5920FFF7E2FE4B
:1035E000034683F00103DBB2002BEBD14F4B0022EB
:1035F0001A603B1D4E49184608F07AFE3B1D1846DE
:10360000FCF7A6FD03469AB23B1D1146184607F08B
:1036100091FB3B1D4749184608F06AFE3B1D1846C2
:10362000FCF796FD03469AB23B1D1146184607F07B
:1036300081FB01224FF400713F4801F07EF906E062
:10364000FEF76AFD4FF448731846FEF715FD5A2041
:10365000FFF7A8FE034683F00103DBB2002BEFD196
:1036600000224FF40071344801F067F900237B65B4
:1036700012E05A20FFF796FE034683F00103DBB207
:10368000002B0DD1FEF748FD4FF448731846FEF7A6
:10369000F3FC7B6D01337B657B6D092BE9DD00E07D
:1036A00000BF01224FF40071234801F046F90AE0FF
:1036B000FEF732FD4FF448731A4613465B0013447D
:1036C0001846FEF7D9FC5A20FFF76CFE034683F03C
:1036D0000103DBB2002BEBD1184B00221A603B1D1B
:1036E0001749184608F004FE3B1D1846FCF730FD4C
:1036F00003469AB23B1D1146184607F01BFB3621C4
:10370000104807F017FB00BF6037BD4680BD00BF03
:10371000ACED0008D0ED0008FCED0008000C014005
:10372000A803002010EE00082CEE0008AC030020D7
:1037300040EE00085CEE000800080140B0030020E5
:1037400070EE00088CEE000880B500AF00224FF448
:103750008071084801F0F1F800221021054801F0BD
:10376000ECF800224FF48061034801F0E6F800BF56
:1037700080BD00BF000C01400008014080B500AFD3
:1037800001224FF48071084801F0D7F8012210217E
:10379000054801F0D2F801224FF48061034801F09E
:1037A000CCF800BF80BD00BF000C01400008014004
:1037B00080B582B000AF174B01221A70164B002261
:1037C0001A60164B00221A7000237B600EE07A68A4
:1037D00013469B0013441B01114A1344502200213D
:1037E000184608F0EAFD7B6801337B607B68632B39
:1037F000EDDD37210B4807F09DFA25210A4807F037
:1038000099FA0421094807F095FA00BF0837BD4628
:1038100080BD00BF682300206023002069230020B2
:1038200020040020C4EE0008FCEE000834EB000881
:1038300080B59AB000AF164B00221A70154B1B686A
:10384000002B19DD144B01221A70124B1A683B1D14
:103850001249184608F04CFD3B1D1846FCF778FC51
:1038600003469AB23B1D1146184607F063FA4421FD
:103870000B4807F05FFA03E01A210A4807F05AFAEA
:103880000421094807F056FA00BF6837BD4680BDDD
:1038900068230020602300206923002024EF000813
:1038A00050EF000898EF000834EB000880B584B0B2
:1038B00000AF78603C4B1B68632B01DD00236EE09A
:1038C0007B68FB6002E0FB680133FB60FB681B78F0
:1038D000202BF8D0FB681B78092BF4D0FB681B78F1
:1038E000002B01D101235AE02F4B1A6813469B008D
:1038F00013441B012D4A13444F22F968184608F05F
:1039000076FD294B1A68294913469B0013441B0175
:103910000B444F3300221A70234B1A6813469B0046
:1039200013441B01214A13441846FCF711FC0346BB
:10393000BB600FE01C4B1A68BB68591E1B4813463E
:103940009B0013441B0103440B4400221A70BB6804
:10395000013BBB60BB68002B1BDD134B1A68BB68C7
:10396000591E124813469B0013441B0103440B4489
:103970001B780D2BDED00C4B1A68BB68591E0B4808
:1039800013469B0013441B0103440B441B780A2B72
:10399000D0D0054B1B680133034A1360012318463E
:1039A0001037BD4680BD00BF6023002020040020EA
:1039B00080B582B000AF184B00221A60174B00226E
:1039C0001A60174B00221A70164B00221A70164B01
:1039D00000221A7000237B600EE07A6813469B0079
:1039E00013441B01114A134450220021184608F0C9
:1039F000E4FC7B6801337B607B68632BEDDD132186
:103A00000B4807F097F904210A4807F093F900BF23
:103A10000837BD4680BD00BF60230020642300201E
:103A2000692300206A23002068230020200400204E
:103A3000B4EF000834EB000880B5A8B000AF3B1D20
:103A40005149184608F054FC3B1D1846FCF780FB12
:103A500003469AB23B1D1146184607F06BF94B4BD3
:103A60001A68381D64234A4908F042FC3B1D184679
:103A7000FCF76EFB03469AB23B1D1146184607F051
:103A800059F9444B1B78002B01D0434A00E0434ACC
:103A90003B1D4349184608F02BFC3B1D1846FCF71C
:103AA00057FB03469AB23B1D1146184607F042F9F0
:103AB0003C4B1B78002B01D03B4A00E03B4A3B1DAE
:103AC0003B49184608F014FC3B1D1846FCF740FB28
:103AD00003469AB23B1D1146184607F02BF92D4BB1
:103AE0001B78002B44D0294B1B68002B40DD314B49
:103AF0001B685A1C3B1D3049184608F0F9FB3B1D5A
:103B00001846FCF725FB03469AB23B1D11461846A2
:103B100007F010F91A21294807F00CF90023C7F81B
:103B20009C301FE0D7F89C30591CD7F89C201346D6
:103B30009B0013441B01224A1344381D0A462149A5
:103B400008F0D6FB3B1D1846FCF702FB03469AB271
:103B50003B1D1146184607F0EDF8D7F89C300133AD
:103B6000C7F89C30094B1B68D7F89C209A42D9DBD8
:103B70001A21154807F0DEF80421144807F0DAF896
:103B800000BFA037BD4680BDC8EF000860230020FD
:103B9000ECEF00086923002008F000080CF0000892
:103BA00010F000086A23002028F0000834F0000814
:103BB00040F000086423002050F0000864F0000882
:103BC0002004002080F000088CF0000834EB00088E
:103BD00080B5AEB000AF5B4B1B7883F00103DBB266
:103BE000002B03D1584B1B68002B04D121215748CF
:103BF00007F0A0F8A2E0564B01221A70554B0022A4
:103C00001A60514B1A6807F150035349184608F0DF
:103C10006FFB07F150031846FCF79AFA03469AB275
:103C200007F150031146184607F084F8494B00226B
:103C30001A606CE0464B1B7883F00103DBB2002B6B
:103C400004D02221454807F075F866E0414B1B6817
:103C5000591C404B1A6813469B0013441B01404AF1
:103C6000134407F150000A463E4908F041FB07F1B2
:103C700050031846FCF76CFA03469AB207F150035A
:103C80001146184607F056F8324B1A6813469B0047
:103C900013441B01324A99183B464F22184608F03C
:103CA000A6FB002387F84F303B461846FDF7F2FF8E
:103CB000034687F8B73097F8B730002B04D10421BA
:103CC000294807F037F81AE097F8B720214B1B680E
:103CD000013307F15000254908F00AFB07F15003B2
:103CE0001846FCF735FA03469AB207F1500311461D
:103CF000184607F01FF8164B00221A700DE00A2034
:103D000000F04EFB134B1B680133124A1360114B3A
:103D10001A680D4B1B689A428CDB0D4B00221A70FF
:103D20000C4B1A68084B1B689A4203DB222110488F
:103D300007F000F804210C4806F0FCFFB837BD4638
:103D400080BD00BF6923002060230020A8F0000888
:103D50006A23002064230020CCF00008FCF0000857
:103D60002004002020F1000834EB00083CF100089A
:103D70005CF1000880B5BAB000AF3F4B1B7883F010
:103D80000103DBB2002B03D13C4B1B68002B04D199
:103D900021213B4806F0CEFF6AE03A4B1A68374BC8
:103DA0001B689A4207DB1521374806F0C3FF374BE3
:103DB00000221A705CE0334B1B68591C314B1A68A7
:103DC00013469B0013441B01314A134407F1500072
:103DD0000A46304908F08CFA07F150031846FCF700
:103DE000B7F903469AB207F150031146184606F098
:103DF000A1FF244B1A6813469B0013441B01244A5D
:103E000099183B464F22184608F0F1FA002387F82C
:103E10004F303B461846FDF73DFF034687F8E73035
:103E200097F8E730002B09D104211B4806F082FFE8
:103E3000144B1B680133134A136019E097F8E7200D
:103E4000104B1B68013307F15000144908F050FA79
:103E500007F150031846FCF77BF903469AB207F1C5
:103E600050031146184606F065FF084B00221A70F1
:103E7000E837BD4680BD00BF6923002060230020D5
:103E8000A8F000086423002080F100086A230020C5
:103E90002004002020F1000834EB00083CF1000869
:103EA00080B500AF064B00221A701221054806F0BB
:103EB00041FF0421044806F03DFF00BF80BD00BF64
:103EC0006A23002098F1000834EB000880B500AFA9
:103ED0002221384806F02EFF1921374806F02AFF24
:103EE0003A21364806F026FF2A21354806F022FFFF
:103EF0003621344806F01EFF2D21334806F01AFF04
:103F00002B21324806F016FF2321314806F012FF1C
:103F10003421304806F00EFF2E212F4806F00AFF0C
:103F20001B212E4806F006FF25212D4806F002FF32
:103F300033212C4806F0FEFE27212B4806F0FAFE1E
:103F40002E212A4806F0F6FE2521294806F0F2FE29
:103F50002721284806F0EEFE2C21274806F0EAFE2D
:103F60002821264806F0E6FE1221254806F0E2FE4A
:103F70001221244806F0DEFE1121234806F0DAFE65
:103F80001821224806F0D6FE1D21214806F0D2FE57
:103F90000821204806F0CEFE10211F4806F0CAFE78
:103FA00014211E4806F0C6FE04211D4806F0C2FE7C
:103FB00000BF80BDC0F10008E4F1000800F2000875
:103FC0003CF2000868F20008A0F20008D0F20008F5
:103FD000FCF2000820F3000854F3000884F3000802
:103FE000A4F30008CCF3000800F4000828F400084B
:103FF00058F4000880F40008A8F40008D4F400087D
:1040000000F5000814F5000828F500083CF5000844
:1040100058F5000878F5000884F5000898F50008C0
:1040200034EB000880B400AF72B600BF00BFFDE7FC
:1040300080B485B000AF154B9B69144A43F001036F
:104040009361124B9B6903F00103BB60BB680F4B8C
:10405000DB690E4A43F08053D3610C4BDB6903F0FC
:1040600080537B607B680A4B5B68FB60FB6823F0D6
:10407000E063FB60FB6843F00073FB60044AFB688D
:10408000536000BF1437BD4680BC7047001002402B
:104090000000014080B400AF00BFFDE780B400AF76
:1040A00000BFFDE780B400AF00BFFDE780B400AF04
:1040B00000BFFDE780B400AF00BFFDE780B400AFF4
:1040C00000BFBD4680BC704780B400AF00BFBD4696
:1040D00080BC704780B400AF00BFBD4680BC704755
:1040E00080B500AF00F040F900BF80BD80B500AFE3
:1040F000024800F056FD00BF80BD00BF44300020E4
:1041000080B400AF01231846BD4680BC704780B51F
:1041100082B000AF7860396008F0C2F90346162219
:104120001A604FF0FF3318460837BD4680BD80B592
:1041300082B000AF78604FF0FF317868FFF7E7FF9B
:1041400000BFFDE780B586B000AFF860B9607A6067
:1041500000237B610AE0AFF300800146BB685A1C74
:10416000BA60CAB21A707B6901337B617A697B6875
:104170009A42F0DB7B6818461837BD4680BD80B593
:1041800086B000AFF860B9607A6000237B6109E017
:10419000BB685A1CBA601B781846AFF300807B6975
:1041A00001337B617A697B689A42F1DB7B68184650
:1041B0001837BD4680BD80B483B000AF78604FF043
:1041C000FF3318460C37BD4680BC704780B483B0BF
:1041D00000AF786039603B684FF400525A600023AA
:1041E00018460C37BD4680BC704780B483B000AF22
:1041F0007860012318460C37BD4680BC704780B4F8
:1042000085B000AFF860B9607A60002318461437B3
:10421000BD4680BC7047000080B586B000AF7860B6
:10422000144A154BD31A7B617B693B61134B1B68A6
:10423000002B02D1114B124A1A60104B1A687B688E
:1042400013443A699A4207D208F02AF903460C222D
:104250001A604FF0FF3309E0084B1B68FB60074B07
:104260001A687B681344054A1360FB6818461837C0
:10427000BD4680BD005000200004000074230020D3
:104280008836002080B400AF00BFBD4680BC7047B8
:10429000FFF7F8FF0B480C490C4A002302E0D45802
:1042A000C4500433C4188C42F9D3094A094C002382
:1042B00001E013600432A242FBD308F0F7F8FDF7E7
:1042C000EBFD70470000002050030020F8F90008C3
:1042D0005003002088360020FEE7000080B500AFC4
:1042E000084B1B68074A43F010031360032000F0DB
:1042F00047F90F2000F008F8FFF79AFE0023184650
:1043000080BD00BF0020024080B582B000AF786061
:10431000124B1A68124B1B7819464FF47A73B3FB91
:10432000F1F3B2FBF3F3184600F05FF90346002BFC
:1043300001D001230EE07B680F2B0AD80022796898
:104340004FF0FF3000F027F9064A7B681360002326
:1043500000E0012318460837BD4680BD0C00002050
:10436000140000201000002080B400AF054B1B7823
:104370001A46054B1B681344034A136000BFBD4631
:1043800080BC7047140000207823002080B400AF68
:10439000024B1B681846BD4680BC7047782300203E
:1043A00080B584B000AF7860FFF7F0FFB8607B683D
:1043B000FB60FB68B3F1FF3F05D00A4B1B781A4640
:1043C000FB681344FB6000BFFFF7E0FF0246BB68D9
:1043D000D31AFA689A42F7D800BF00BF1037BD461B
:1043E00080BD00BF1400002080B485B000AF7860AD
:1043F0007B6803F00703FB600C4BDB68BB60BA68AB
:104400004FF6FF031340BB60FB681A02BB681343FF
:1044100043F0BF6343F40033BB60044ABB68D3601E
:1044200000BF1437BD4680BC704700BF00ED00E000
:1044300080B400AF044BDB681B0A03F00703184687
:10444000BD4680BC704700BF00ED00E080B483B083
:1044500000AF0346FB7197F90730002B0BDBFB79AC
:1044600003F01F02064997F907305B09012000FAA3
:1044700002F241F8232000BF0C37BD4680BC7047D4
:1044800000E100E080B483B000AF03463960FB7107
:1044900097F90730002B0ADB3B68DAB20C4997F931
:1044A00007301201D2B20B4483F800230AE03B68C4
:1044B000DAB20849FB7903F00F03043B1201D2B2D0
:1044C0000B441A7600BF0C37BD4680BC704700BF56
:1044D00000E100E000ED00E080B489B000AFF860DA
:1044E000B9607A60FB6803F00703FB61FB69C3F105
:1044F0000703042B28BF0423BB61FB690433062B8D
:1045000002D9FB69033B00E000237B614FF0FF32DF
:10451000BB6902FA03F3DA43BB681A407B699A402D
:104520004FF0FF317B6901FA03F3D9437B680B40FD
:10453000134318462437BD4680BC704780B582B00F
:1045400000AF78607B68013BB3F1807F01D301232A
:104550000FE00A4A7B68013B53600F214FF0FF30A8
:10456000FFF790FF054B00229A60044B07221A6068
:10457000002318460837BD4680BD00BF10E000E0AC
:1045800080B582B000AF78607868FFF72DFF00BF7C
:104590000837BD4680BD80B586B000AF0346B96020
:1045A0007A60FB7300237B61FFF742FF78617A68D2
:1045B000B9687869FFF790FF024697F90F30114606
:1045C0001846FFF75FFF00BF1837BD4680BD80B5B6
:1045D00082B000AF0346FB7197F907301846FFF72A
:1045E00035FF00BF0837BD4680BD80B582B000AF43
:1045F00078607868FFF7A2FF034618460837BD4683
:1046000080BD000080B48BB000AF786039600023BB
:104610007B6200233B6269E101227B6A02FA03F3B9
:10462000FB613B681B68FA691340BB61BA69FB69AF
:104630009A4240F058813B685B689A4A93425ED048
:10464000984A934275D8984A934258D0964A9342D2
:104650006FD8964A934252D0944A934269D8944A6A
:1046600093424CD0924A934263D8924A934246D0A6
:10467000904A93425DD8122B2AD8122B59D801A206
:1046800052F823F0FF460008D9460008EB46000820
:104690002D47000833470008334700083347000818
:1046A0003347000833470008334700083347000802
:1046B00033470008334700083347000833470008F2
:1046C0003347000833470008E1460008F546000874
:1046D000794A934213D02CE03B68DB683B6229E0C7
:1046E0003B68DB6804333B6224E03B68DB680833EB
:1046F0003B621FE03B68DB680C333B621AE03B68BF
:104700009B68002B02D104233B6213E03B689B684B
:10471000012B05D108233B627B68FA691A6109E025
:1047200008233B627B68FA695A6103E000233B621D
:1047300000E000BFBB69FF2B01D87B6801E07B680C
:1047400004337B61BB69FF2B02D87B6A9B0002E0CC
:104750007B6A083B9B003B617B691A680F213B69C0
:1047600001FA03F3DB431A40396A3B6901FA03F3A8
:104770001A437B691A603B685B6803F08053002B27
:1047800000F0B1804D4B9B694C4A43F001039361AB
:104790004A4B9B6903F00103BB60BB68484A7B6AD4
:1047A0009B08023352F82330FB607B6A03F003035B
:1047B0009B000F2202FA03F3DB43FA681340FB600D
:1047C0007B68404A934213D07B683F4A93420DD0A6
:1047D0007B683E4A934207D07B683D4A934201D1B1
:1047E000032306E0042304E0022302E0012300E0A7
:1047F00000237A6A02F0030292009340FA6813439E
:10480000FB602F497B6A9B080233FA6841F823203A
:104810003B685B6803F48013002B06D02D4B9A682D
:104820002C49BB6913438B6006E02A4B9A68BB692D
:10483000DB43284913408B603B685B6803F400133B
:10484000002B06D0234BDA682249BB691343CB60A7
:1048500006E0204BDA68BB69DB431E491340CB609E
:104860003B685B6803F40033002B06D0194B5A6891
:104870001849BB6913434B6006E0164B5A68BB6985
:10488000DB43144913404B603B685B6803F480339F
:10489000002B21D00F4B1A680E49BB6913430B60E4
:1048A00021E000BF00003210000031100000221093
:1048B0000000211000001210000011100010024032
:1048C0000000014000080140000C014000100140C0
:1048D00000140140000401400B4B1A68BB69DB4324
:1048E000094913400B607B6A01337B623B681A689D
:1048F0007B6A22FA03F3002B7FF48EAE00BF00BF69
:104900002C37BD4680BC70470004014080B485B0A0
:1049100000AF78600B467B807B689A687B88134089
:10492000002B02D00123FB7301E00023FB73FB7B10
:1049300018461437BD4680BC704780B483B000AFC2
:1049400078600B467B8013467B707B78002B03D00E
:104950007A887B681A6103E07B881A047B681A6195
:1049600000BF0C37BD4680BC704780B584B000AF37
:1049700078607B68002B01D10123E8E07B6893F825
:104980009132DBB2002B06D17B68002283F89022A3
:10499000786806F003FB7B68032283F891227B682A
:1049A00000225A717B681B68184602F0F6F97B6892
:1049B00018687B6804330ECB02F0CCF90346002B59
:1049C00005D07B68022283F891220123BFE07B6837
:1049D0001B680021184602F0FAF90346002B05D0A7
:1049E0007B68022283F891220123B0E00023FB734D
:1049F0003EE0FA7B796813469B001344DB000B44CE
:104A0000113301221A70FA7B796813469B00134414
:104A1000DB000B441033FA7B1A70FA7B796813467B
:104A20009B001344DB000B44133300221A70FA7B03
:104A3000796813469B001344DB000B4420330022AB
:104A40001A60FA7B796813469B001344DB000B4421
:104A5000243300221A60FB7B79685A1C13469B00A2
:104A60001344DB000B4400221A60FB7B0133FB7311
:104A70007B681B79FA7B9A42BBD30023FB7344E02B
:104A8000FA7B796813469B001344DB000B4403F266
:104A9000511300221A70FA7B796813469B00134465
:104AA000DB000B4403F5A873FA7B1A70FA7B796874
:104AB00013469B001344DB000B4403F25313002204
:104AC0001A70FA7B796813469B001344DB000B4491
:104AD00003F5B07300221A60FA7B796813469B00D5
:104AE0001344DB000B4403F5B27300221A60FA7B17
:104AF000796813469B001344DB000B4403F5B47341
:104B000000221A60FB7B0133FB737B681B79FA7B05
:104B10009A42B5D37B6818687B6804330ECB02F0E9
:104B200062F90346002B05D07B68022283F89122AC
:104B300001230CE07B6800225A737B68012283F812
:104B400091227B681B68184604F0E1FB002318469D
:104B50001037BD4680BD80B582B000AF78607B68FD
:104B600093F89032012B01D1022316E07B680122D9
:104B700083F890227B681B68184602F0F8F8012140
:104B8000786806F07EFC7B681B68184604F0B5FB6D
:104B90007B68002283F89022002318460837BD4620
:104BA00080BD80B588B000AF78607B681B68184610
:104BB00004F0B7FBB861BB6903F40043002B03D0DA
:104BC000786800F01AFB19E1BB6903F48063002BDD
:104BD00013D07B681B68B3F844309AB27B681B68BB
:104BE00022F4806292B2A3F84420786806F051FA69
:104BF0000021786800F005F900E1BB6903F4804307
:104C0000002B0CD07B681B68B3F844309AB27B68E9
:104C10001B6822F4804292B2A3F84420EEE0BB6904
:104C200003F40053002B0CD07B681B68B3F84430AE
:104C30009AB27B681B6822F4005292B2A3F8442017
:104C4000DCE0BB6903F48053002B27D07B681B6832
:104C5000B3F840309AB27B681B6822F0040292B22B
:104C6000A3F840207B681B68B3F840309AB27B6899
:104C70001B6822F0080292B2A3F84020786806F080
:104C800041FA7B681B68B3F844309AB27B681B68B2
:104C900022F4805292B2A3F84420AFE0BB6903F43F
:104CA0000063002B00F083800023FB7710E07B681B
:104CB0001B681A46FB7F9B001A44FB7F128892B246
:104CC0005B0020333B4423F8182CFB7F0133FB7738
:104CD000FB7F072BEBD97B681B68B3F840309AB297
:104CE0007B681B6842F0010292B2A3F840207B6807
:104CF0001B68B3F840309AB27B681B6822F001024F
:104D000092B2A3F8402000BF7B681B68B3F8443020
:104D10009BB203F48063002BF6D07B681B68B3F86A
:104D200044309AB27B681B6822F4806292B2A3F886
:104D300044200023FB770FE0FB7F7A68126811465E
:104D4000FA7F92000A445B0020333B4433F8183C5E
:104D50001380FB7F0133FB77FB7F072BECD97B684C
:104D60001B68B3F840309AB27B681B6842F00802B7
:104D700092B2A3F840207B681B68B3F844309AB223
:104D80007B681B6822F4006292B2A3F844207B681F
:104D90001B68B3F840309AB27B681B6842F004028B
:104DA00092B2A3F84020786806F092F926E0BB6939
:104DB00003F40073002B0FD07B681B68B3F84430FA
:104DC0009AB27B681B6822F4007292B2A3F8442066
:104DD000786806F050F911E0BB6903F48073002B8A
:104DE0000CD07B681B68B3F844309AB27B681B68B0
:104DF00022F4807292B2A3F8442000BF2037BD464F
:104E000080BD80B582B000AF78600B46FB707B68D8
:104E100093F89032012B01D1022312E07B6801222A
:104E200083F890227B68FA785A737B681B68FA785B
:104E30001146184604F04EFA7B68002283F890224F
:104E4000002318460837BD4680BD80B584B000AF4A
:104E50007860084611461A460346FB700B463B80B5
:104E60001346BB700023FB7297F90330002B0EDA58
:104E7000FB7803F0070213469B001344DB0010335A
:104E80007A681344FB60FB6801225A700EE0FB78DD
:104E900003F0070213469B001344DB0003F5A873DD
:104EA0007A681344FB60FB6800225A70FB7803F0B9
:104EB0000703DAB2FB681A703A88FB681A61FB686C
:104EC000BA78DA70BB78022B02D1FB6800221A7123
:104ED0007B6893F89032012B01D102230EE07B68AE
:104EE000012283F890227B681B68F968184601F05C
:104EF00097FF7B68002283F89022FB7A18461037D0
:104F0000BD4680BD80B584B000AF78600B46FB70B5
:104F100097F90330002B0EDAFB7803F007021346F3
:104F20009B001344DB0010337A681344FB60FB687A
:104F300001225A700EE0FB7803F0070213469B0033
:104F40001344DB0003F5A8737A681344FB60FB6825
:104F500000225A70FB7803F00703DAB2FB681A707C
:104F60007B6893F89032012B01D102230EE07B681D
:104F7000012283F890227B681B68F968184602F0CA
:104F80000FFB7B68002283F890220023184610371D
:104F9000BD4680BD80B586B000AFF8607A603B60EA
:104FA0000B46FB72FB7A03F0070213469B00134487
:104FB000DB0003F5A873FA6813447B617B697A68A8
:104FC0005A617B693A689A617B690022DA617B6980
:104FD00000225A70FB7A03F00703DAB27B691A7079
:104FE000FB681B687969184602F0C6FC0023184666
:104FF0001837BD4680BD80B483B000AF78600B46E3
:10500000FB70FB7803F00702796813469B0013449A
:10501000DB000B4403F5B6731B6818460C37BD461E
:1050200080BC704780B586B000AFF8607A603B60A6
:105030000B46FB72FB7A03F0070213469B001344F6
:10504000DB001033FA6813447B617B697A685A612C
:105050007B693A689A617B69012283F824207B6925
:105060003A681A627B690022DA617B6901225A7010
:10507000FB7A03F00703DAB27B691A70FB681B68DE
:105080007969184602F078FC002318461837BD46A7
:1050900080BD80B584B000AF78600B46FB70FB78B4
:1050A00003F007037A681279934201D901234CE097
:1050B00097F90330002B0EDAFB7803F00702134652
:1050C0009B001344DB0010337A681344FB60FB68D9
:1050D00001225A700CE0FA7813469B001344DB005F
:1050E00003F5A8737A681344FB60FB6800225A70CA
:1050F000FB6801229A70FB7803F00703DAB2FB68C1
:105100001A707B6893F89032012B01D102231CE0C6
:105110007B68012283F890227B681B68F968184637
:1051200003F0DBFFFB7803F00703002B08D17B685B
:105130001A687B6803F526731946104604F000F9D7
:105140007B68002283F89022002318461037BD4662
:1051500080BD80B584B000AF78600B46FB70FB78F3
:1051600003F00F037A681279934201D9012340E0DA
:1051700097F90330002B0EDAFB7803F00702134691
:105180009B001344DB0010337A681344FB60FB6818
:1051900001225A700EE0FB7803F0070213469B00D1
:1051A0001344DB0003F5A8737A681344FB60FB68C3
:1051B00000225A70FB6800229A70FB7803F0070304
:1051C000DAB2FB681A707B6893F89032012B01D138
:1051D00002230EE07B68012283F890227B681B6823
:1051E000F968184603F0C9FF7B68002283F8902213
:1051F000002318461037BD4680BD80B596B000AF7D
:105200007860BBE37B681B68B3F84430A7F84E3086
:10521000B7F84E30DBB203F00F0387F84D3097F844
:105220004D30002B40F07581B7F84E3003F010037D
:10523000002B4ED17B681B681B889BB223F4E14393
:1052400023F07003FB817B681A68FB896FEA434394
:105250006FEA53439BB213807B6810337B657B6896
:105260001B68B3F850309BB21A467B6D1B78DB008D
:10527000134402335B007A681268134403F58063B9
:105280001B88C3F309027B6DDA617B6D5A697B6D04
:10529000DB691A447B6D5A610021786805F0D1FE04
:1052A0007B685B7BDBB2002B00F068837B6D9B69C6
:1052B000002B40F063837B685B7BDBB263F07F0392
:1052C000DAB27B681B68A3F84C207B6800225A7313
:1052D00054E37B6803F5A8737B657B681B681B88B8
:1052E000A7F84A30B7F84A3003F40063002B34D0F3
:1052F0007B681B68B3F850309BB21A467B6D1B78F5
:10530000DB00134406335B007A681268134403F52C
:1053100080631B88C3F309027B6DDA617B681868C0
:105320007B6803F526717B6DDA887B6DDB699BB248
:1053300004F057F87B681B681B889AB240F68F739D
:1053400013403B827B681B683A8A42F0800292B22B
:105350001A80786805F048FE10E3B7F94A30002B50
:1053600080F20C837B681B681B889AB240F68F73AF
:105370001340FB837B681B68FA8B42F0800292B279
:105380001A807B681B68B3F850309BB21A467B6D5D
:105390001B78DB00134406335B007A681268134401
:1053A00003F580631B88C3F309027B6DDA617B6DB3
:1053B000DB69002B19D07B6D5B69002B15D07B68F6
:1053C00018687B6D59697B6DDA887B6DDB699BB2F0
:1053D00004F007F87B6D5A697B6DDB691A447B6DBD
:1053E0005A610021786805F011FE7B681B681B88F4
:1053F000A7F84A30B7F84A3003F40063002B40F0B6
:10540000BD82B7F84A3003F44053B3F5405F00F073
:10541000B5827B681B68BB617B681B68B3F8503042
:105420009BB21A46BB691344BB61BB6903F20C43D0
:105430007B617B691B889BB2C3F309039AB27B69CA
:105440001A807B6D1B693E2B1DD97B6D1B695B0927
:105450007B647B6D1B6903F01F03002B02D17B6C07
:10546000013B7B647B691B889AB27B6C9BB29B027D
:105470009BB213439BB26FEA43436FEA53439AB222
:105480007B691A8026E07B6D1B69002B0AD17B6942
:105490001B889BB26FEA43436FEA53439AB27B691E
:1054A0001A8017E07B6D1B695B087B647B6D1B6951
:1054B00003F00103002B02D07B6C01337B647B691A
:1054C0001B889AB27B6C9BB29B029BB213439AB22D
:1054D0007B691A807B681B681B889BB223F480431E
:1054E00023F070037B827B8A83F480537B827B8AE8
:1054F00083F400537B827B681A687B8A43F07F4386
:1055000043F47F0343F4004343F080039BB21380D2
:1055100034E27B681B681A4697F84D309B001344B1
:105520001B88A7F84A30B7F94A30002B80F2FC807C
:105530007B681B681A4697F84D309B0013441B8804
:105540009AB240F68F731340A7F848307B681B6807
:105550001A4697F84D309B001344B7F8482042F0A4
:10556000800292B21A8097F84D2013469B00134494
:10557000DB0003F5A8737A6813447B657B6D1B7BA6
:10558000002B25D17B681B68B3F850309BB21A46BC
:105590007B6D1B78DB00134406335B007A6812686E
:1055A000134403F580631B88C3F30903A7F8503045
:1055B000B7F85030002B00F092807B6818687B6D44
:1055C00059697B6DDA88B7F8503003F00AFF86E03E
:1055D0007B6DDB78022B0AD1B7F84A301A46796D19
:1055E000786800F0D9F90346A7F8503077E07B6877
:1055F0001B681A467B6D1B789B0013441B889BB26B
:1056000023F4E04323F07003A7F852307B681B6853
:105610001A467B6D1B789B001A44B7F8523043F052
:105620007F4343F47F0343F4004343F0C0039BB242
:1056300013807B681B681A467B6D1B789B001344A4
:105640001B889BB203F48043002B24D07B681B682B
:10565000B3F850309BB21A467B6D1B78DB001344C5
:1056600002335B007A681268134403F580631B8879
:10567000C3F30903A7F85030B7F85030002B2ED0F1
:105680007B6818687B6D59697B6D1A89B7F8503053
:1056900003F0A7FE23E07B681B68B3F850309BB291
:1056A0001A467B6D1B78DB00134406335B007A6877
:1056B0001268134403F580631B88C3F30903A7F83A
:1056C0005030B7F85030002B09D07B6818687B6DDC
:1056D00059697B6D5A89B7F8503003F082FE7B6DB3
:1056E000DA69B7F850301A447B6DDA617B6D5A691C
:1056F000B7F850301A447B6D5A617B6D9B69002B63
:1057000005D0B7F850207B6D1B699A4206D27B6D9D
:105710001B781946786805F079FC05E07B681B6802
:10572000796D184602F028F9B7F84A3003F0800383
:10573000002B00F0238197F84D2013469B00134463
:10574000DB0010337A6813447B657B681B681A465C
:1057500097F84D309B0013441B889BB223F4E14320
:1057600023F07003A7F842307B681B681A4697F84D
:105770004D309B001A44B7F842306FEA43436FEA5A
:1057800053439BB213807B6DDB78012B40F0A280EA
:105790007B6D00229A617B6D1B7B002B00F0938058
:1057A000B7F84A3003F04003002B46D07B6D5B789E
:1057B000002B26D17B681B687B627B681B68B3F873
:1057C00050309BB21A467B6A13447B627B6D1B7818
:1057D0001A017B6A134403F204433B623B6A1B8851
:1057E0009BB2C3F309039AB23B6A1A803B6A1B88D7
:1057F0009BB26FEA43436FEA53439AB23B6A1A8003
:1058000061E07B6D5B78012B5DD17B681B68FB627F
:105810007B681B68B3F850309BB21A46FB6A13448E
:10582000FB627B6D1B781A01FB6A134403F204438D
:10583000BB62BB6A00221A8045E07B681B68FB6381
:105840007B6D5B78002B26D17B681B687B637B6854
:105850001B68B3F850309BB21A467B6B13447B63D2
:105860007B6D1B781A017B6B134403F20C433B6383
:105870003B6B1B889BB2C3F309039AB23B6B1A8044
:105880003B6B1B889BB26FEA43436FEA53439AB268
:105890003B6B1A8017E07B6D5B78012B13D17B6823
:1058A0001B68B3F850309BB21A46FB6B1344FB6382
:1058B0007B6D1B781A01FB6B134403F20C43BB6333
:1058C000BB6B00221A807B6D1B781946786805F047
:1058D000B8FB53E0B7F84A3003F48073002B46D18D
:1058E0007B681B68B3F850309BB21A467B6D1B78FF
:1058F000DB00134402335B007A681268134403F53B
:1059000080631B88C3F30903A7F840307B6D9A6955
:10591000B7F840309A4207D97B6D9A69B7F84030A2
:10592000D21A7B6D9A6102E07B6D00229A617B6DD9
:105930009B69002B06D17B6D1B781946786805F0B2
:1059400080FB1BE07B6D5A69B7F840301A447B6DD1
:105950005A617B6DDA69B7F840301A447B6DDA61C1
:105960007B681B68796D184602F006F806E0B7F808
:105970004A301A46796D786800F01BF97B681B681D
:10598000B3F844309BB21BB2002BFFF63BAC0023B4
:1059900018465837BD4680BD80B588B000AFF86066
:1059A000B9601346FB80FB8803F48043002B7ED054
:1059B000FB681B68B3F850309BB21A46BB681B7873
:1059C000DB00134402335B00FA681268134403F5EA
:1059D00080631B88C3F309037B83BB689A697B8B55
:1059E0009A4206D3BB689A697B8BD21ABB689A61CC
:1059F00002E0BB6800229A61BB689B69002B23D13F
:105A0000FB681B681A46BB681B789B0013441B8805
:105A10009BB223F4804323F070033B833B8B83F4DE
:105A200000533B83FB681B681A46BB681B789B00CE
:105A30001A443B8B43F07F4343F47F0343F400431A
:105A400043F080039BB21380FB8803F04003002BDC
:105A50001FD0FB681B681A46BB681B789B00134469
:105A60001B889BB223F4E04323F07003FB82FB68A6
:105A70001B681A46BB681B789B001A44FB8A43F0DC
:105A80007F4343F47F0343F4004343F0C0039BB2DE
:105A900013807B8B002B00F08780FB681868BB6845
:105AA0005969BB681A897B8B03F09BFC7CE0FB681F
:105AB0001B68B3F850309BB21A46BB681B78DB00FA
:105AC000134406335B00FA681268134403F58063DD
:105AD0001B88C3F309037B83BB689A697B8B9A425B
