:020000040800F2
:1000000000500020E1170008E5150008ED15000874
:10001000F5150008FD150008051600080000000091
:100020000000000000000000000000000D160008A5
:1000300019160008000000002516000831160008F7
:10004000291800082918000829180008291800088C
:10005000291800082918000829180008291800087C
:10006000291800082918000829180008291800086C
:10007000291800082918000829180008291800085C
:10008000291800082918000829180008291800084C
:100090003D1600082918000829180008291800082A
:1000A000291800082918000829180008291800082C
:1000B000291800082918000829180008291800081C
:1000C000291800082918000829180008291800080C
:1000D00029180008291800082918000829180008FC
:1000E0002918000829180008291800080000000035
:1000F0000000000000000000000000000000000000
:0C01000000000000000000005FF808F1A3
:1001100010B5054C237833B9044B13B10448AFF341
:1001200000800123237010BD480300200000000060
:10013000B8B9000808B5034B1BB103490348AFF336
:10014000008008BD000000004C030020B8B9000882
:10015000034613F8012B002AFBD1181A0138704707
:1001600081F0004102E000BF83F0004330B54FEA68
:1001700041044FEA430594EA050F08BF90EA020FD5
:100180001FBF54EA000C55EA020C7FEA645C7FEA68
:10019000655C00F0E2804FEA5454D4EB5555B8BF8B
:1001A0006D420CDD2C4480EA020281EA030382EAFC
:1001B000000083EA010180EA020281EA0303362D8E
:1001C00088BF30BD11F0004F4FEA01314FF4801C61
:1001D0004CEA113102D0404261EB410113F0004F73
:1001E0004FEA03334CEA133302D0524263EB43032A
:1001F00094EA050F00F0A780A4F10104D5F1200EC8
:100200000DDB02FA0EFC22FA05F2801841F1000122
:1002100003FA0EF2801843FA05F359410EE0A5F1F6
:1002200020050EF1200E012A03FA0EFC28BF4CF027
:10023000020C43FA05F3C01851EBE37101F00045DD
:1002400007D54FF0000EDCF1000C7EEB00006EEBEA
:100250000101B1F5801F1BD3B1F5001F0CD3490874
:100260005FEA30004FEA3C0C04F101044FEA4452CB
:1002700012F5800F80F09A80BCF1004F08BF5FEA52
:10028000500C50F1000041EB045141EA050130BD32
:100290005FEA4C0C404141EB0101013C28BFB1F544
:1002A000801FE9D291F0000F04BF01460020B1FA8F
:1002B00081F308BF2033A3F10B03B3F120020CDA62
:1002C0000C3208DD02F1140CC2F10C0201FA0CF040
:1002D00021FA02F10CE002F11402D8BFC2F1200CA5
:1002E00001FA02F120FA0CFCDCBF41EA0C0190405B
:1002F000E41AA2BF01EB0451294330BD6FEA0404A4
:100300001F3C1CDA0C340EDC04F11404C4F120028E
:1003100020FA04F001FA02F340EA030021FA04F3A0
:1003200045EA030130BDC4F10C04C4F1200220FAF7
:1003300002F001FA04F340EA0300294630BD21FA35
:1003400004F0294630BD94F0000F83F4801306BFFB
:1003500081F480110134013D4EE77FEA645C18BFEF
:100360007FEA655C29D094EA050F08BF90EA020F86
:1003700005D054EA000C04BF1946104630BD91EA7E
:10038000030F1EBF0021002030BD5FEA545C05D181
:100390004000494128BF41F0004130BD14F58004C0
:1003A0003CBF01F5801130BD01F0004545F0FE4134
:1003B00041F470014FF0000030BD7FEA645C1ABF69
:1003C000194610467FEA655C1CBF0B46024650EAA0
:1003D000013406BF52EA033591EA030F41F40021CC
:1003E00030BD00BF90F0000F04BF0021704730B552
:1003F0004FF4806404F132044FF000054FF0000127
:1004000050E700BF90F0000F04BF0021704730B5E7
:100410004FF4806404F1320410F0004548BF4042BC
:100420004FF000013EE700BF42004FEAE2014FEA11
:1004300031014FEA02701FBF12F07F4393F07F4FEC
:1004400081F06051704732F07F4208BF704793F0EF
:100450007F4F04BF41F40021704730B54FF4607402
:1004600001F0004521F000411CE700BF50EA010205
:1004700008BF704730B54FF000050AE050EA0102AE
:1004800008BF704730B511F0004502D5404261EB1E
:1004900041014FF4806404F132045FEA915C3FF45F
:1004A000D8AE4FF003025FEADC0C18BF03325FEAFC
:1004B000DC0C18BF033202EBDC02C2F1200300FAAD
:1004C00003FC20FA02F001FA03FE40EA0E0021FAD2
:1004D00002F11444BDE600BF70B54FF0FF0C4CF4C0
:1004E000E06C1CEA11541DBF1CEA135594EA0C0F72
:1004F00095EA0C0F00F0DEF82C4481EA030621EAAD
:100500004C5123EA4C5350EA013518BF52EA0335E7
:1005100041F4801143F4801338D0A0FB02CE4FF099
:100520000005E1FB02E506F00042E0FB03E54FF0C9
:100530000006E1FB03569CF0000F18BF4EF0010EC1
:10054000A4F1FF04B6F5007F64F5407404D25FEABD
:100550004E0E6D4146EB060642EAC62141EA555170
:100560004FEAC52040EA5E504FEACE2EB4F1FD0CB2
:1005700088BFBCF5E06F1ED8BEF1004F08BF5FEA30
:10058000500E50F1000041EB045170BD06F00046E2
:1005900046EA010140EA020081EA0301B4EB5C048F
:1005A000C2BFD4EB0C0541EA045170BD41F4801187
:1005B0004FF0000E013C00F3AB8014F1360FDEBFAC
:1005C000002001F0004170BDC4F10004203C35DA88
:1005D0000C341BDC04F11404C4F1200500FA05F30B
:1005E00020FA04F001FA05F240EA020001F00042AC
:1005F00021F0004110EBD37021FA04F642EB060122
:100600005EEA430E08BF20EAD37070BDC4F10C044B
:10061000C4F1200500FA04F320FA05F001FA04F20F
:1006200040EA020001F0004110EBD37041F10001FB
:100630005EEA430E08BF20EAD37070BDC4F1200506
:1006400000FA05F24EEA020E20FA04F301FA05F26E
:1006500043EA020321FA04F001F0004121FA04F216
:1006600020EA020000EBD3705EEA430E08BF20EAE6
:10067000D37070BD94F0000F0FD101F00046400020
:1006800041EB010111F4801F08BF013CF7D041EAA2
:10069000060195F0000F18BF704703F000465200A6
:1006A00043EB030313F4801F08BF013DF7D043EA77
:1006B0000603704794EA0C0F0CEA135518BF95EA2D
:1006C0000C0F0CD050EA410618BF52EA4306D1D1B4
:1006D00081EA030101F000414FF0000070BD50EAD3
:1006E000410606BF1046194652EA430619D094EA5D
:1006F0000C0F02D150EA013613D195EA0C0F05D147
:1007000052EA03361CBF104619460AD181EA03019A
:1007100001F0004141F0FE4141F470014FF0000052
:1007200070BD41F0FE4141F4780170BD70B54FF0ED
:10073000FF0C4CF4E06C1CEA11541DBF1CEA13556D
:1007400094EA0C0F95EA0C0F00F0A7F8A4EB05044F
:1007500081EA030E52EA03354FEA013100F0888046
:100760004FEA03334FF0805545EA131343EA12630F
:100770004FEA022245EA111545EA10654FEA0026C4
:100780000EF000419D4208BF964244F1FD0404F57D
:10079000407402D25B084FEA3202B61A65EB0305D9
:1007A0005B084FEA32024FF480104FF4002CB6EB96
:1007B000020E75EB030E22BFB61A754640EA0C0016
:1007C0005B084FEA3202B6EB020E75EB030E22BF56
:1007D000B61A754640EA5C005B084FEA3202B6EB97
:1007E000020E75EB030E22BFB61A754640EA9C0056
:1007F0005B084FEA3202B6EB020E75EB030E22BF26
:10080000B61A754640EADC0055EA060E18D04FEAE3
:10081000051545EA16754FEA06164FEAC30343EA83
:1008200052734FEAC2025FEA1C1CC0D111F4801F50
:100830000BD141EA00014FF000004FF0004CB6E749
:1008400011F4801F04BF01430020B4F1FD0C88BFE8
:10085000BCF5E06F3FF6AFAEB5EB030C04BFB6EBF3
:10086000020C5FEA500C50F1000041EB045170BDE6
:100870000EF0004E4EEA113114EB5C04C2BFD4EB13
:100880000C0541EA045170BD41F480114FF0000E97
:10089000013C90E645EA060E8DE60CEA135594EA13
:1008A0000C0F08BF95EA0C0F3FF43BAF94EA0C0F16
:1008B0000AD150EA01347FF434AF95EA0C0F7FF48B
:1008C00025AF104619462CE795EA0C0F06D152EADF
:1008D00003353FF4FDAE1046194622E750EA4106C3
:1008E00018BF52EA43067FF4C5AE50EA41047FF4D4
:1008F0000DAF52EA43057FF4EBAE12E74FF0FF3C39
:1009000006E000BF4FF0010C02E000BF4FF0010C09
:100910004DF804CD4FEA410C7FEA6C5C4FEA430C82
:1009200018BF7FEA6C5C1BD001B050EA410C0CBFD1
:1009300052EA430C91EA030F02BF90EA020F002033
:10094000704710F1000F91EA030F58BF994208BF9A
:1009500090422CBFD8176FEAE37040F00100704757
:100960004FEA410C7FEA6C5C02D150EA013C07D1AE
:100970004FEA430C7FEA6C5CD6D152EA033CD3D0F9
:100980005DF8040B704700BF8446104662468C46F3
:100990001946634600E000BF01B5FFF7B7FF002826
:1009A00048BF10F1000F01BD4DF808EDFFF7F4FF4F
:1009B0000CBF012000205DF808FB00BF4DF808EDDA
:1009C000FFF7EAFF34BF012000205DF808FB00BFFD
:1009D0004DF808EDFFF7E0FF94BF012000205DF81F
:1009E00008FB00BF4DF808EDFFF7CEFF94BF0120D4
:1009F00000205DF808FB00BF4DF808EDFFF7C4FFCD
:100A000034BF012000205DF808FB00BF4FEA41021F
:100A100012F5001215D211D56FF47873B3EB625250
:100A200012D94FEAC12343F0004343EA505311F077
:100A3000004F23FA02F018BF404270474FF0000009
:100A4000704750EA013005D111F0004008BF6FF047
:100A5000004070474FF00000704700BF4A0011D2BD
:100A600012F5001211D20DD56FF47873B3EB625208
:100A70000ED44FEAC12343F0004343EA505323FA14
:100A800002F070474FF00000704750EA013002D189
:100A90004FF0FF3070474FF0000070474FEA4102BF
:100AA000B2F1E04324BFB3F5001CDCF1FE5C0DD9CC
:100AB00001F0004C4FEAC0024CEA5070B2F1004F16
:100AC00040EB830008BF20F00100704711F0804F19
:100AD00021D113F13872BCBF01F00040704741F4DE
:100AE00080114FEA5252C2F11802C2F1200C10FAE2
:100AF0000CF320FA02F018BF40F001004FEAC123C6
:100B00004FEAD32303FA0CFC40EA0C0023FA02F369
:100B10004FEA4303CCE77FEA625307D150EA01333F
:100B20001EBF4FF0FE4040F44000704701F000400F
:100B300040F0FE4040F40000704700BF4FEA400222
:100B40004FEA41037FEA226C02D15FEA402C08D1D0
:100B50007FEA236C02D15FEA412C02D14FF0000002
:100B600070474FF00100704738B50022002304465B
:100B70000D46FFF723FF28B920462946BDE8384037
:100B800000F00AB8204605F1004100F005F84042A7
:100B900061EB410138BD00BFD0B500220B4B0646CA
:100BA0000F46FFF799FCFFF759FF0446FFF71AFCC1
:100BB0000022074BFFF790FC02460B4630463946B1
:100BC000FFF7D2FAFFF74AFF2146D0BD0000F03D03
:100BD0000000F04190B585B000AF00F027FE00F0B6
:100BE0001DF800F077F807F05FFA00F08FFC0A4B71
:100BF0003C460FCB07C4238002341B0C23703B46BA
:100C00000E21184607F042FB00F09AFB322000F05C
:100C10006FFE00BFF8E700BFD0B9000880B594B000
:100C200000AF07F1280328220021184608F03BFEF8
:100C300007F1140300221A605A609A60DA601A61A0
:100C40003B1D00221A605A609A60DA600123BB6281
:100C50004FF48033FB6200233B630123BB63022319
:100C60007B644FF48033BB644FF48013FB6407F163
:100C70002803184602F082FE0346002B01D000F044
:100C800079FC0F237B610223BB610023FB614FF4DE
:100C900080633B6200237B6207F114030121184645
:100CA00003F0EEF80346002B01D000F063FC1023A4
:100CB0007B604FF480033B613B1D184603F03CFA18
:100CC0000346002B01D000F055FC00BF5037BD4655
:100CD00080BD000080B588B000AF07F1100300228E
:100CE0001A605A609A60DA602F4B9B692E4A43F073
:100CF000200393612C4B9B6903F02003FB60FB688E
:100D0000294B9B69284A43F004039361264B9B6956
:100D100003F00403BB60BB68234B9B69224A43F08A
:100D200008039361204B9B6903F008037B607B6899
:100D3000002240F2D9311D4801F0A7F800224FF4FB
:100D4000E0611B4801F0A1F840F2D9333B61012377
:100D50007B610023BB610223FB6107F1100319468D
:100D6000124800F0F7FE4FF4E0433B6100237B6143
:100D70000023BB6107F1100319460C4800F0EAFE9E
:100D80004FF4E0633B6101237B610023BB610223DD
:100D9000FB6107F110031946054800F0DBFE00BFB8
:100DA0002037BD4680BD00BF00100240000C01404E
:100DB0000008014080B485B000AF78600D4B1B681F
:100DC0000D4AA2FB03239A0C7B6802FB03F3FB6032
:100DD0000A4B5B68BB6000BF084B5A68BB68D31AFC
:100DE000FA689A42F8D800BF00BF1437BD4680BCED
:100DF000704700BF0400002083DE1B43001000E0AA
:100E000080B500AF01224021064801F03EF80220E3
:100E1000FFF7D0FF00224021024801F036F800BF62
:100E200080BD00BF000C014080B500AF01224FF42F
:100E30000071074801F029F80220FFF7BBFF0022EC
:100E40004FF40071024801F020F800BF80BD00BFE0
:100E5000000C014080B500AF01224FF480710748BB
:100E600001F013F80220FFF7A5FF00224FF4807174
:100E7000024801F00AF800BF80BD00BF0008014031
:100E800080B584B000AF78600B46FB70FB781A46E3
:100E900080211D4800F0F9FFFB78002B0AD00122C9
:100EA0000121194800F0F1FF00220221164800F04C
:100EB000ECFF09E000220121134800F0E6FF0122C7
:100EC0000221114800F0E1FF0023FB6009E0FFF779
:100ED00097FF4FF448731846FFF76CFFFB68013328
:100EE000FB60FA687B689A42F1DB00220121064828
:100EF00000F0CBFF00220221034800F0C6FF00BF34
:100F00001037BD4680BD00BF000C014080B584B0E5
:100F100000AF78600B46FB70FB781A4608211D482D
:100F200000F0B3FFFB78002B0AD001220121194801
:100F300000F0ABFF00220221164800F0A6FF09E0F6
:100F400000220121134800F0A0FF012202211148D4
:100F500000F09BFF0023FB6009E0FFF765FF4FF403
:100F600048731846FFF726FFFB680133FB60FA68F9
:100F70007B689A42F1DB00220121064800F085FFE0
:100F800000220221034800F080FF00BF1037BD4659
:100F900080BD00BF000C014080B584B000AF786018
:100FA0000B46FB70FB781A464FF400711C4800F0AA
:100FB0006CFFFB78002B0AD001220121194800F0B8
:100FC00064FF00220221174800F05FFF09E00022C1
:100FD0000121144800F059FF01220221114800F0BC
:100FE00054FF0023FB6009E0FFF734FF4FF4487320
:100FF0001846FFF7DFFEFB680133FB60FA687B6889
:101000009A42F1DB00220121064800F03EFF002257
:101010000221044800F039FF00BF1037BD4680BDF3
:1010200000080140000C014080B584B000AF78603A
:101030000B46FB70FB781946786808F03CFCF860BA
:10104000FB68002B0CD0FB680133184607F0FCFC52
:1010500002460B4610461946FFF720FD034600E006
:10106000024B18461037BD4680BD00BF0000C07F50
:1010700080B598B000AFF860B9607A600023FB6576
:101080000023BB6500237B65012387F853300123D0
:1010900087F85230012387F85130F968F868FFF774
:1010A0004DFD0346002B21D1F868FFF7BDF970A371
:1010B000D3E90023FFF710FA02460B461046194603
:1010C000FFF7A4FC0346FB646B4B1B68FA6CD31A56
:1010D000FB65FB6DDB43DB0F87F85330FB6D002BAB
:1010E000B8BF5B42FB65644AFB6C1360B968B868C3
:1010F000FFF724FD0346002B21D1B868FFF794F9D0
:101100005BA3D3E90023FFF7E7F902460B4610463D
:101110001946FFF77BFC0346BB64584B1B68BA6C4F
:10112000D31ABB65BB6DDB43DB0F87F85230BB6D59
:10113000002BB8BF5B42BB65504ABB6C136079683B
:101140007868FFF7FBFC0346002B21D17868FFF796
:101150006BF947A3D3E90023FFF7BEF902460B461C
:1011600010461946FFF752FC03467B64444B1B684C
:101170007A6CD31A7B657B6DDB43DB0F87F85130CC
:101180007B6D002BB8BF5B427B653D4A7B6C136077
:10119000FB6D002B1FDD97F85330002B01D0394B2E
:1011A00000E0394B07F11000FA6D384908F016FBE2
:1011B00007F110031846FEF7CBFF03469AB207F17A
:1011C00010031146184607F061F897F85330194696
:1011D000F86DFFF755FEBB6D002B1FDD97F8523001
:1011E000002B01D0274B00E0274B07F11000BA6D10
:1011F000274908F0F3FA07F110031846FEF7A8FF95
:1012000003469AB207F110031146184607F03EF85C
:1012100097F852301946B86DFFF778FE7B6D002BBA
:101220001FDD97F85130002B01D0164B00E0164B14
:1012300007F110007A6D174908F0D0FA07F1100392
:101240001846FEF785FF03469AB207F110031146D0
:10125000184607F01BF897F851301946786DFFF7DC
:101260009BFE00BF6037BD4680BD00BFAFF300806E
:101270008EE3388EE33816406403002068030020B4
:101280006C030020E0B90008E8B90008F4B90008D0
:1012900018BA00083CBA000880B59EB000AF78606C
:1012A00007F108037A682149184608F097FA07F110
:1012B00008031846FEF74CFF03469AB207F10803ED
:1012C0001146184606F0E2FF02221949786808F034
:1012D000FFFA0346002B07D002221649786808F06F
:1012E000F7FA0346002B18D158217868FFF79CFEC7
:1012F000786759217868FFF797FE38675A21786830
:10130000FFF792FEF866FA6E396F786FFFF7B0FE5E
:101310000421094806F0BAFF04E01721074806F047
:10132000B5FF00BF00BF7837BD4680BD60BA00087A
:1013300074BA000878BA00087CBA000884BA0008B9
:1013400080B5A0B000AF00F0C9FAF867604B1B6829
:10135000FA6FD31A0A2B40F296805D4AFB6F136036
:101360004FF480515B4800F079FD0346002B0CBF21
:101370000123002387F87B3097F87B30002B0ED0B9
:10138000554B1B7883F00103DBB2002B07D01B21E8
:10139000524806F07BFF504B01221A7011E097F87B
:1013A0007B3083F00103DBB2002B0AD04A4B1B7861
:1013B000002B06D01E214A4806F068FF464B00224B
:1013C0001A704FF40051434800F048FD0346002BCB
:1013D0000CBF0123002387F87A3097F87A30002B6E
:1013E0000ED0404B1B7883F00103DBB2002B07D0FB
:1013F0001B213D4806F04AFF3A4B01221A7011E0CA
:1014000097F87A3083F00103DBB2002B0AD0354B1A
:101410001B78002B06D01E21344806F037FF314BD5
:1014200000221A704FF480412A4800F017FD03464D
:10143000002B0CBF0123002387F8793097F879300F
:10144000002B0ED02A4B1B7883F00103DBB2002B5C
:1014500007D01B21274806F019FF254B01221A70DF
:1014600011E097F8793083F00103DBB2002B0AD04A
:101470001F4B1B78002B06D01E211F4806F006FFCD
:101480001B4B00221A701D4B1B78002B1BD03B46B8
:101490001B4A1C49184608F0A1F93B461846FEF7BE
:1014A00057FE03469AB23B461146184606F0EEFE3A
:1014B0001348FFF7F1FE144B00221A60642200214A
:1014C0000F4808F0F0F900BF8037BD4680BD00BF6F
:1014D000D8030020000C0140DC0300209CBA000867
:1014E000B8BA0008DD030020D8BA0008F4BA000832
:1014F000DE03002014BB000830BB00080000002001
:101500007003002050BB0008D403002080B500AF5A
:10151000144BDB68134A43F08073D360124B1B6893
:10152000114A43F00103136000224FF480710F4809
:1015300000F0ABFC002210210C4800F0A6FC0022B9
:101540004FF480610A4800F0A0FC00220121074806
:1015500000F09BFC00220221044800F096FC00BF32
:1015600080BD00BFF0ED00E0001000E0000C014085
:101570000008014080B400AF72B600BF00BFFDE7B5
:1015800080B485B000AF154B9B69144A43F001034A
:101590009361124B9B6903F00103BB60BB680F4B67
:1015A000DB690E4A43F08053D3610C4BDB6903F0D7
:1015B00080537B607B680A4B5B68FB60FB6823F0B1
:1015C000E063FB60FB6843F00073FB60044AFB6868
:1015D000536000BF1437BD4680BC70470010024006
:1015E0000000014080B400AF00BFFDE780B400AF51
:1015F00000BFFDE780B400AF00BFFDE780B400AFDF
:1016000000BFFDE780B400AF00BFFDE780B400AFCE
:1016100000BFBD4680BC704780B400AF00BFBD4670
:1016200080BC704780B400AF00BFBD4680BC70472F
:1016300080B500AF00F040F900BF80BD80B500AFBD
:10164000024800F056FD00BF80BD00BFB010002072
:1016500080B400AF01231846BD4680BC704780B5FA
:1016600082B000AF7860396008F08AF9034616222C
:101670001A604FF0FF3318460837BD4680BD80B56D
:1016800082B000AF78604FF0FF317868FFF7E7FF76
:1016900000BFFDE780B586B000AFF860B9607A6042
:1016A00000237B610AE0AFF300800146BB685A1C4F
:1016B000BA60CAB21A707B6901337B617A697B6850
:1016C0009A42F0DB7B6818461837BD4680BD80B56E
:1016D00086B000AFF860B9607A6000237B6109E0F2
:1016E000BB685A1CBA601B781846AFF300807B6950
:1016F00001337B617A697B689A42F1DB7B6818462B
:101700001837BD4680BD80B483B000AF78604FF01D
:10171000FF3318460C37BD4680BC704780B483B099
:1017200000AF786039603B684FF400525A60002384
:1017300018460C37BD4680BC704780B483B000AFFC
:101740007860012318460C37BD4680BC704780B4D2
:1017500085B000AFF860B9607A600023184614378E
:10176000BD4680BC7047000080B586B000AF786091
:10177000144A154BD31A7B617B693B61134B1B6881
:10178000002B02D1114B124A1A60104B1A687B6869
:1017900013443A699A4207D208F0F2F803460C2241
:1017A0001A604FF0FF3309E0084B1B68FB60074BE2
:1017B0001A687B681344054A1360FB68184618379B
:1017C000BD4680BD0050002000040000E003002062
:1017D000F816002080B400AF00BFBD4680BC704743
:1017E000FFF7F8FF0B480C490C4A002302E0D458DD
:1017F000C4500433C4188C42F9D3094A094C00235D
:1018000001E013600432A242FBD308F0BFF8FFF7F7
:10181000E1F97047000000204803002094BF000851
:1018200048030020F4160020FEE7000080B500AF5A
:10183000084B1B68074A43F010031360032000F0B5
:1018400047F90F2000F008F8FFF79AFE002318462A
:1018500080BD00BF0020024080B582B000AF78603C
:10186000124B1A68124B1B7819464FF47A73B3FB6C
:10187000F1F3B2FBF3F3184600F05FF90346002BD7
:1018800001D001230EE07B680F2B0AD80022796873
:101890004FF0FF3000F027F9064A7B681360002301
:1018A00000E0012318460837BD4680BD0400002033
:1018B0000C0000200800002080B400AF054B1B780E
:1018C0001A46054B1B681344034A136000BFBD460C
:1018D00080BC70470C000020E403002080B400AFFF
:1018E000024B1B681846BD4680BC7047E4030020CD
:1018F00080B584B000AF7860FFF7F0FFB8607B6818
:10190000FB60FB68B3F1FF3F05D00A4B1B781A461A
:10191000FB681344FB6000BFFFF7E0FF0246BB68B3
:10192000D31AFA689A42F7D800BF00BF1037BD46F5
:1019300080BD00BF0C00002080B485B000AF78608F
:101940007B6803F00703FB600C4BDB68BB60BA6885
:101950004FF6FF031340BB60FB681A02BB681343DA
:1019600043F0BF6343F40033BB60044ABB68D360F9
:1019700000BF1437BD4680BC704700BF00ED00E0DB
:1019800080B400AF044BDB681B0A03F00703184662
:10199000BD4680BC704700BF00ED00E080B483B05E
:1019A00000AF0346FB7197F90730002B0BDBFB7987
:1019B00003F01F02064997F907305B09012000FA7E
:1019C00002F241F8232000BF0C37BD4680BC7047AF
:1019D00000E100E080B483B000AF03463960FB71E2
:1019E00097F90730002B0ADB3B68DAB20C4997F90C
:1019F00007301201D2B20B4483F800230AE03B689F
:101A0000DAB20849FB7903F00F03043B1201D2B2AA
:101A10000B441A7600BF0C37BD4680BC704700BF30
:101A200000E100E000ED00E080B489B000AFF860B4
:101A3000B9607A60FB6803F00703FB61FB69C3F1DF
:101A40000703042B28BF0423BB61FB690433062B67
:101A500002D9FB69033B00E000237B614FF0FF32BA
:101A6000BB6902FA03F3DA43BB681A407B699A4008
:101A70004FF0FF317B6901FA03F3D9437B680B40D8
:101A8000134318462437BD4680BC704780B582B0EA
:101A900000AF78607B68013BB3F1807F01D3012305
:101AA0000FE00A4A7B68013B53600F214FF0FF3083
:101AB000FFF790FF054B00229A60044B07221A6043
:101AC000002318460837BD4680BD00BF10E000E087
:101AD00080B582B000AF78607868FFF72DFF00BF57
:101AE0000837BD4680BD80B586B000AF0346B960FB
:101AF0007A60FB7300237B61FFF742FF78617A68AD
:101B0000B9687869FFF790FF024697F90F301146E0
:101B10001846FFF75FFF00BF1837BD4680BD80B590
:101B200082B000AF0346FB7197F907301846FFF704
:101B300035FF00BF0837BD4680BD80B582B000AF1D
:101B400078607868FFF7A2FF034618460837BD465D
:101B500080BD000080B48BB000AF78603960002396
:101B60007B6200233B6269E101227B6A02FA03F394
:101B7000FB613B681B68FA691340BB61BA69FB698A
:101B80009A4240F058813B685B689A4A93425ED023
:101B9000984A934275D8984A934258D0964A9342AD
:101BA0006FD8964A934252D0944A934269D8944A45
:101BB00093424CD0924A934263D8924A934246D081
:101BC000904A93425DD8122B2AD8122B59D801A2E1
:101BD00052F823F04F1C0008291C00083B1C000889
:101BE0007D1C0008831C0008831C0008831C00085F
:101BF000831C0008831C0008831C0008831C000849
:101C0000831C0008831C0008831C0008831C000838
:101C1000831C0008831C0008311C0008451C0008B8
:101C2000794A934213D02CE03B68DB683B6229E0A1
:101C30003B68DB6804333B6224E03B68DB680833C5
:101C40003B621FE03B68DB680C333B621AE03B6899
:101C50009B68002B02D104233B6213E03B689B6826
:101C6000012B05D108233B627B68FA691A6109E000
:101C700008233B627B68FA695A6103E000233B62F8
:101C800000E000BFBB69FF2B01D87B6801E07B68E7
:101C900004337B61BB69FF2B02D87B6A9B0002E0A7
:101CA0007B6A083B9B003B617B691A680F213B699B
:101CB00001FA03F3DB431A40396A3B6901FA03F383
:101CC0001A437B691A603B685B6803F08053002B02
:101CD00000F0B1804D4B9B694C4A43F00103936186
:101CE0004A4B9B6903F00103BB60BB68484A7B6AAF
:101CF0009B08023352F82330FB607B6A03F0030336
:101D00009B000F2202FA03F3DB43FA681340FB60E7
:101D10007B68404A934213D07B683F4A93420DD080
:101D20007B683E4A934207D07B683D4A934201D18B
:101D3000032306E0042304E0022302E0012300E081
:101D400000237A6A02F0030292009340FA68134378
:101D5000FB602F497B6A9B080233FA6841F8232015
:101D60003B685B6803F48013002B06D02D4B9A6808
:101D70002C49BB6913438B6006E02A4B9A68BB6908
:101D8000DB43284913408B603B685B6803F4001316
:101D9000002B06D0234BDA682249BB691343CB6082
:101DA00006E0204BDA68BB69DB431E491340CB6079
:101DB0003B685B6803F40033002B06D0194B5A686C
:101DC0001849BB6913434B6006E0164B5A68BB6960
:101DD000DB43144913404B603B685B6803F480337A
:101DE000002B21D00F4B1A680E49BB6913430B60BF
:101DF00021E000BF0000321000003110000022106E
:101E0000000021100000121000001110001002400C
:101E10000000014000080140000C0140001001409A
:101E200000140140000401400B4B1A68BB69DB43FE
:101E3000094913400B607B6A01337B623B681A6877
:101E40007B6A22FA03F3002B7FF48EAE00BF00BF43
:101E50002C37BD4680BC70470004014080B485B07B
:101E600000AF78600B467B807B689A687B88134064
:101E7000002B02D00123FB7301E00023FB73FB7BEB
:101E800018461437BD4680BC704780B483B000AF9D
:101E900078600B467B8013467B707B78002B03D0E9
:101EA0007A887B681A6103E07B881A047B681A6170
:101EB00000BF0C37BD4680BC704780B584B000AF12
:101EC00078607B68002B01D10123E8E07B6893F800
:101ED0009132DBB2002B06D17B68002283F890227E
:101EE000786806F007FB7B68032283F891227B6801
:101EF00000225A717B681B68184602F0F6F97B686D
:101F000018687B6804330ECB02F0CCF90346002B33
:101F100005D07B68022283F891220123BFE07B6811
:101F20001B680021184602F0FAF90346002B05D081
:101F30007B68022283F891220123B0E00023FB7327
:101F40003EE0FA7B796813469B001344DB000B44A8
:101F5000113301221A70FA7B796813469B001344EF
:101F6000DB000B441033FA7B1A70FA7B7968134656
:101F70009B001344DB000B44133300221A70FA7BDE
:101F8000796813469B001344DB000B442033002286
:101F90001A60FA7B796813469B001344DB000B44FC
:101FA000243300221A60FB7B79685A1C13469B007D
:101FB0001344DB000B4400221A60FB7B0133FB73EC
:101FC0007B681B79FA7B9A42BBD30023FB7344E006
:101FD000FA7B796813469B001344DB000B4403F241
:101FE000511300221A70FA7B796813469B00134440
:101FF000DB000B4403F5A873FA7B1A70FA7B79684F
:1020000013469B001344DB000B4403F253130022DE
:102010001A70FA7B796813469B001344DB000B446B
:1020200003F5B07300221A60FA7B796813469B00AF
:102030001344DB000B4403F5B27300221A60FA7BF1
:10204000796813469B001344DB000B4403F5B4731B
:1020500000221A60FB7B0133FB737B681B79FA7BE0
:102060009A42B5D37B6818687B6804330ECB02F0C4
:1020700062F90346002B05D07B68022283F8912287
:1020800001230CE07B6800225A737B68012283F8ED
:1020900091227B681B68184604F0E1FB0023184678
:1020A0001037BD4680BD80B582B000AF78607B68D8
:1020B00093F89032012B01D1022316E07B680122B4
:1020C00083F890227B681B68184602F0F8F801211B
:1020D000786806F082FC7B681B68184604F0B5FB44
:1020E0007B68002283F89022002318460837BD46FB
:1020F00080BD80B588B000AF78607B681B681846EB
:1021000004F0B7FBB861BB6903F40043002B03D0B4
:10211000786800F01AFB19E1BB6903F48063002BB7
:1021200013D07B681B68B3F844309AB27B681B6895
:1021300022F4806292B2A3F84420786806F055FA3F
:102140000021786800F005F900E1BB6903F48043E1
:10215000002B0CD07B681B68B3F844309AB27B68C4
:102160001B6822F4804292B2A3F84420EEE0BB69DF
:1021700003F40053002B0CD07B681B68B3F8443089
:102180009AB27B681B6822F4005292B2A3F84420F2
:10219000DCE0BB6903F48053002B27D07B681B680D
:1021A000B3F840309AB27B681B6822F0040292B206
:1021B000A3F840207B681B68B3F840309AB27B6874
:1021C0001B6822F0080292B2A3F84020786806F05B
:1021D00045FA7B681B68B3F844309AB27B681B6889
:1021E00022F4805292B2A3F84420AFE0BB6903F41A
:1021F0000063002B00F083800023FB7710E07B68F6
:102200001B681A46FB7F9B001A44FB7F128892B220
:102210005B0020333B4423F8182CFB7F0133FB7712
:10222000FB7F072BEBD97B681B68B3F840309AB271
:102230007B681B6842F0010292B2A3F840207B68E1
:102240001B68B3F840309AB27B681B6822F0010229
:1022500092B2A3F8402000BF7B681B68B3F84430FB
:102260009BB203F48063002BF6D07B681B68B3F845
:1022700044309AB27B681B6822F4806292B2A3F861
:1022800044200023FB770FE0FB7F7A681268114639
:10229000FA7F92000A445B0020333B4433F8183C39
:1022A0001380FB7F0133FB77FB7F072BECD97B6827
:1022B0001B68B3F840309AB27B681B6842F0080292
:1022C00092B2A3F840207B681B68B3F844309AB2FE
:1022D0007B681B6822F4006292B2A3F844207B68FA
:1022E0001B68B3F840309AB27B681B6842F0040266
:1022F00092B2A3F84020786806F096F926E0BB6910
:1023000003F40073002B0FD07B681B68B3F84430D4
:102310009AB27B681B6822F4007292B2A3F8442040
:10232000786806F054F911E0BB6903F48073002B60
:102330000CD07B681B68B3F844309AB27B681B688A
:1023400022F4807292B2A3F8442000BF2037BD4629
:1023500080BD80B582B000AF78600B46FB707B68B3
:1023600093F89032012B01D1022312E07B68012205
:1023700083F890227B68FA785A737B681B68FA7836
:102380001146184604F04EFA7B68002283F890222A
:10239000002318460837BD4680BD80B584B000AF25
:1023A0007860084611461A460346FB700B463B8090
:1023B0001346BB700023FB7297F90330002B0EDA33
:1023C000FB7803F0070213469B001344DB00103335
:1023D0007A681344FB60FB6801225A700EE0FB78B8
:1023E00003F0070213469B001344DB0003F5A873B8
:1023F0007A681344FB60FB6800225A70FB7803F094
:102400000703DAB2FB681A703A88FB681A61FB6846
:10241000BA78DA70BB78022B02D1FB6800221A71FD
:102420007B6893F89032012B01D102230EE07B6888
:10243000012283F890227B681B68F968184601F036
:1024400097FF7B68002283F89022FB7A18461037AA
:10245000BD4680BD80B584B000AF78600B46FB7090
:1024600097F90330002B0EDAFB7803F007021346CE
:102470009B001344DB0010337A681344FB60FB6855
:1024800001225A700EE0FB7803F0070213469B000E
:102490001344DB0003F5A8737A681344FB60FB6800
:1024A00000225A70FB7803F00703DAB2FB681A7057
:1024B0007B6893F89032012B01D102230EE07B68F8
:1024C000012283F890227B681B68F968184602F0A5
:1024D0000FFB7B68002283F89022002318461037F8
:1024E000BD4680BD80B586B000AFF8607A603B60C5
:1024F0000B46FB72FB7A03F0070213469B00134462
:10250000DB0003F5A873FA6813447B617B697A6882
:102510005A617B693A689A617B690022DA617B695A
:1025200000225A70FB7A03F00703DAB27B691A7053
:10253000FB681B687969184602F0C6FC0023184640
:102540001837BD4680BD80B483B000AF78600B46BD
:10255000FB70FB7803F00702796813469B00134475
:10256000DB000B4403F5B6731B6818460C37BD46F9
:1025700080BC704780B586B000AFF8607A603B6081
:102580000B46FB72FB7A03F0070213469B001344D1
:10259000DB001033FA6813447B617B697A685A6107
:1025A0007B693A689A617B69012283F824207B6900
:1025B0003A681A627B690022DA617B6901225A70EB
:1025C000FB7A03F00703DAB27B691A70FB681B68B9
:1025D0007969184602F078FC002318461837BD4682
:1025E00080BD80B584B000AF78600B46FB70FB788F
:1025F00003F007037A681279934201D901234CE072
:1026000097F90330002B0EDAFB7803F0070213462C
:102610009B001344DB0010337A681344FB60FB68B3
:1026200001225A700CE0FA7813469B001344DB0039
:1026300003F5A8737A681344FB60FB6800225A70A4
:10264000FB6801229A70FB7803F00703DAB2FB689B
:102650001A707B6893F89032012B01D102231CE0A1
:102660007B68012283F890227B681B68F968184612
:1026700003F0DBFFFB7803F00703002B08D17B6836
:102680001A687B6803F526731946104604F000F9B2
:102690007B68002283F89022002318461037BD463D
:1026A00080BD80B584B000AF78600B46FB70FB78CE
:1026B00003F00F037A681279934201D9012340E0B5
:1026C00097F90330002B0EDAFB7803F0070213466C
:1026D0009B001344DB0010337A681344FB60FB68F3
:1026E00001225A700EE0FB7803F0070213469B00AC
:1026F0001344DB0003F5A8737A681344FB60FB689E
:1027000000225A70FB6800229A70FB7803F00703DE
:10271000DAB2FB681A707B6893F89032012B01D112
:1027200002230EE07B68012283F890227B681B68FD
:10273000F968184603F0C9FF7B68002283F89022ED
:10274000002318461037BD4680BD80B596B000AF57
:102750007860BBE37B681B68B3F84430A7F84E3061
:10276000B7F84E30DBB203F00F0387F84D3097F81F
:102770004D30002B40F07581B7F84E3003F0100358
:10278000002B4ED17B681B681B889BB223F4E1436E
:1027900023F07003FB817B681A68FB896FEA43436F
:1027A0006FEA53439BB213807B6810337B657B6871
:1027B0001B68B3F850309BB21A467B6D1B78DB0068
:1027C000134402335B007A681268134403F5806394
:1027D0001B88C3F309027B6DDA617B6D5A697B6DDF
:1027E000DB691A447B6D5A610021786805F0D5FEDB
:1027F0007B685B7BDBB2002B00F068837B6D9B69A1
:10280000002B40F063837B685B7BDBB263F07F036C
:10281000DAB27B681B68A3F84C207B6800225A73ED
:1028200054E37B6803F5A8737B657B681B681B8892
:10283000A7F84A30B7F84A3003F40063002B34D0CD
:102840007B681B68B3F850309BB21A467B6D1B78CF
:10285000DB00134406335B007A681268134403F507
:1028600080631B88C3F309027B6DDA617B6818689B
:102870007B6803F526717B6DDA887B6DDB699BB223
:1028800004F057F87B681B681B889AB240F68F7378
:1028900013403B827B681B683A8A42F0800292B206
:1028A0001A80786805F04CFE10E3B7F94A30002B27
:1028B00080F20C837B681B681B889AB240F68F738A
:1028C0001340FB837B681B68FA8B42F0800292B254
:1028D0001A807B681B68B3F850309BB21A467B6D38
:1028E0001B78DB00134406335B007A6812681344DC
:1028F00003F580631B88C3F309027B6DDA617B6D8E
:10290000DB69002B19D07B6D5B69002B15D07B68D0
:1029100018687B6D59697B6DDA887B6DDB699BB2CA
:1029200004F007F87B6D5A697B6DDB691A447B6D97
:102930005A610021786805F015FE7B681B681B88CA
:10294000A7F84A30B7F84A3003F40063002B40F090
:10295000BD82B7F84A3003F44053B3F5405F00F04E
:10296000B5827B681B68BB617B681B68B3F850301D
:102970009BB21A46BB691344BB61BB6903F20C43AB
:102980007B617B691B889BB2C3F309039AB27B69A5
:102990001A807B6D1B693E2B1DD97B6D1B695B0902
:1029A0007B647B6D1B6903F01F03002B02D17B6CE2
:1029B000013B7B647B691B889AB27B6C9BB29B0258
:1029C0009BB213439BB26FEA43436FEA53439AB2FD
:1029D0007B691A8026E07B6D1B69002B0AD17B691D
:1029E0001B889BB26FEA43436FEA53439AB27B69F9
:1029F0001A8017E07B6D1B695B087B647B6D1B692C
:102A000003F00103002B02D07B6C01337B647B69F4
:102A10001B889AB27B6C9BB29B029BB213439AB207
:102A20007B691A807B681B681B889BB223F48043F8
:102A300023F070037B827B8A83F480537B827B8AC2
:102A400083F400537B827B681A687B8A43F07F4360
:102A500043F47F0343F4004343F080039BB21380AD
:102A600034E27B681B681A4697F84D309B0013448C
:102A70001B88A7F84A30B7F94A30002B80F2FC8057
:102A80007B681B681A4697F84D309B0013441B88DF
:102A90009AB240F68F731340A7F848307B681B68E2
:102AA0001A4697F84D309B001344B7F8482042F07F
:102AB000800292B21A8097F84D2013469B0013446F
:102AC000DB0003F5A8737A6813447B657B6D1B7B81
:102AD000002B25D17B681B68B3F850309BB21A4697
:102AE0007B6D1B78DB00134406335B007A68126849
:102AF000134403F580631B88C3F30903A7F8503020
:102B0000B7F85030002B00F092807B6818687B6D1E
:102B100059697B6DDA88B7F8503003F00AFF86E018
:102B20007B6DDB78022B0AD1B7F84A301A46796DF3
:102B3000786800F0D9F90346A7F8503077E07B6851
:102B40001B681A467B6D1B789B0013441B889BB245
:102B500023F4E04323F07003A7F852307B681B682E
:102B60001A467B6D1B789B001A44B7F8523043F02D
:102B70007F4343F47F0343F4004343F0C0039BB21D
:102B800013807B681B681A467B6D1B789B0013447F
:102B90001B889BB203F48043002B24D07B681B6806
:102BA000B3F850309BB21A467B6D1B78DB001344A0
:102BB00002335B007A681268134403F580631B8854
:102BC000C3F30903A7F85030B7F85030002B2ED0CC
:102BD0007B6818687B6D59697B6D1A89B7F850302E
:102BE00003F0A7FE23E07B681B68B3F850309BB26C
:102BF0001A467B6D1B78DB00134406335B007A6852
:102C00001268134403F580631B88C3F30903A7F814
:102C10005030B7F85030002B09D07B6818687B6DB6
:102C200059697B6D5A89B7F8503003F082FE7B6D8D
:102C3000DA69B7F850301A447B6DDA617B6D5A69F6
:102C4000B7F850301A447B6D5A617B6D9B69002B3D
:102C500005D0B7F850207B6D1B699A4206D27B6D78
:102C60001B781946786805F07DFC05E07B681B68D9
:102C7000796D184602F028F9B7F84A3003F080035E
:102C8000002B00F0238197F84D2013469B0013443E
:102C9000DB0010337A6813447B657B681B681A4637
:102CA00097F84D309B0013441B889BB223F4E143FB
:102CB00023F07003A7F842307B681B681A4697F828
:102CC0004D309B001A44B7F842306FEA43436FEA35
:102CD00053439BB213807B6DDB78012B40F0A280C5
:102CE0007B6D00229A617B6D1B7B002B00F0938033
:102CF000B7F84A3003F04003002B46D07B6D5B7879
:102D0000002B26D17B681B687B627B681B68B3F84D
:102D100050309BB21A467B6A13447B627B6D1B78F2
:102D20001A017B6A134403F204433B623B6A1B882B
:102D30009BB2C3F309039AB23B6A1A803B6A1B88B1
:102D40009BB26FEA43436FEA53439AB23B6A1A80DD
:102D500061E07B6D5B78012B5DD17B681B68FB625A
:102D60007B681B68B3F850309BB21A46FB6A134469
:102D7000FB627B6D1B781A01FB6A134403F2044368
:102D8000BB62BB6A00221A8045E07B681B68FB635C
:102D90007B6D5B78002B26D17B681B687B637B682F
:102DA0001B68B3F850309BB21A467B6B13447B63AD
:102DB0007B6D1B781A017B6B134403F20C433B635E
:102DC0003B6B1B889BB2C3F309039AB23B6B1A801F
:102DD0003B6B1B889BB26FEA43436FEA53439AB243
:102DE0003B6B1A8017E07B6D5B78012B13D17B68FE
:102DF0001B68B3F850309BB21A46FB6B1344FB635D
:102E00007B6D1B781A01FB6B134403F20C43BB630D
:102E1000BB6B00221A807B6D1B781946786805F021
:102E2000BCFB53E0B7F84A3003F48073002B46D163
:102E30007B681B68B3F850309BB21A467B6D1B78D9
:102E4000DB00134402335B007A681268134403F515
:102E500080631B88C3F30903A7F840307B6D9A6930
:102E6000B7F840309A4207D97B6D9A69B7F840307D
:102E7000D21A7B6D9A6102E07B6D00229A617B6DB4
:102E80009B69002B06D17B6D1B781946786805F08D
:102E900084FB1BE07B6D5A69B7F840301A447B6DA8
:102EA0005A617B6DDA69B7F840301A447B6DDA619C
:102EB0007B681B68796D184602F006F806E0B7F8E3
:102EC0004A301A46796D786800F01BF97B681B68F8
:102ED000B3F844309BB21BB2002BFFF63BAC00238F
:102EE00018465837BD4680BD80B588B000AFF86041
:102EF000B9601346FB80FB8803F48043002B7ED02F
:102F0000FB681B68B3F850309BB21A46BB681B784D
:102F1000DB00134402335B00FA681268134403F5C4
:102F200080631B88C3F309037B83BB689A697B8B2F
:102F30009A4206D3BB689A697B8BD21ABB689A61A6
:102F400002E0BB6800229A61BB689B69002B23D119
:102F5000FB681B681A46BB681B789B0013441B88E0
:102F60009BB223F4804323F070033B833B8B83F4B9
:102F700000533B83FB681B681A46BB681B789B00A9
:102F80001A443B8B43F07F4343F47F0343F40043F5
:102F900043F080039BB21380FB8803F04003002BB7
:102FA0001FD0FB681B681A46BB681B789B00134444
:102FB0001B889BB223F4E04323F07003FB82FB6881
:102FC0001B681A46BB681B789B001A44FB8A43F0B7
:102FD0007F4343F47F0343F4004343F0C0039BB2B9
:102FE00013807B8B002B00F08780FB681868BB6820
:102FF0005969BB681A897B8B03F09BFC7CE0FB68FA
:103000001B68B3F850309BB21A46BB681B78DB00D4
:10301000134406335B00FA681268134403F58063B7
:103020001B88C3F309037B83BB689A697B8B9A4235
:1030300006D3BB689A697B8BD21ABB689A6102E09F
:10304000BB6800229A61BB689B69002B23D1FB6897
:103050001B681A46BB681B789B0013441B889BB2F5
:1030600023F4804323F07003FB83FB8B83F4005332
:10307000FB83FB681B681A46BB681B789B001A44DD
:10308000FB8B43F07F4343F47F0343F4004343F05F
:1030900080039BB21380FB8803F04003002B1FD1F9
:1030A000FB681B681A46BB681B789B0013441B888F
:1030B0009BB223F4E04323F07003BB83FB681B68DF
:1030C0001A46BB681B789B001A44BB8B43F07F43B6
:1030D00043F47F0343F4004343F0C0039BB21380E7
:1030E0007B8B002B08D0FB681868BB685969BB68EC
:1030F0005A897B8B03F01DFC7B8B18462037BD461D
:1031000080BD80B5A4B000AFF860B9601346FB8005
:10311000FB8803F04003002B00F0DD81FB681B6897
:10312000B3F850309BB21A46BB681B78DB001344DF
:1031300002335B00FA681268134403F580631B884E
:10314000C3F30903A7F88630BB689A69B7F88630DD
:103150009A4207D9BB689A69B7F88630D21ABB6819
:103160009A6102E0BB6800229A61BB689B69002BF0
:1031700040F0B980BB685B78002B26D1FB681B68E8
:10318000FB62FB681B68B3F850309BB21A46FB6ABF
:103190001344FB62BB681B781A01FB6A134403F2F9
:1031A0000443BB62BB6A1B889BB2C3F309039AB298
:1031B000BB6A1A80BB6A1B889BB26FEA43436FEA03
:1031C00053439AB2BB6A1A801AE0BB685B78012B42
:1031D00016D1FB681B687B63FB681B68B3F8503033
:1031E0009BB21A467B6B13447B63BB681B781A0146
:1031F0007B6B134403F204433B633B6B00221A8056
:10320000FB681B687B62BB685B78002B26D1FB6880
:103210001B68FB61FB681B68B3F850309BB21A4611
:10322000FB691344FB61BB681B781A01FB691344FB
:1032300003F20C43BB61BB691B889BB2C3F3090358
:103240009AB2BB691A80BB691B889BB26FEA434381
:103250006FEA53439AB2BB691A8017E0BB685B7888
:10326000012B13D1FB681B68B3F850309BB21A4690
:103270007B6A13447B62BB681B781A017B6A134428
:1032800003F20C433B623B6A00221A80BB681B7846
:103290001946F86805F081F9FB8803F48043002B98
:1032A00000F0FC82FB681B681A46BB681B789B0019
:1032B00013441B889BB223F4E04323F07003FB828A
:1032C000FB681B681A46BB681B789B001A44FB8A84
:1032D00043F07F4343F47F0343F4404343F08003D0
:1032E0009BB21380DAE2FB8803F48043002B21D0E9
:1032F000FB681B681A46BB681B789B0013441B883D
:103300009BB223F4E04323F07003A7F88A30FB68F4
:103310001B681A46BB681B789B001A44B7F88A30B2
:1033200043F07F4343F47F0343F4404343F080037F
:103330009BB21380BB6893F82430012B40F0AE821F
:10334000BB685A69B7F886301A44BB685A61BB68D3
:10335000DA69B7F886301A44BB68DA61BB681A6A62
:10336000BB681B699A420BD3BB681B69C7F88C30DA
:10337000BB681A6AD7F88C30D21ABB681A6217E099
:10338000BB681B6A002B08D1B7F88630C7F88C30B1
:10339000BB68002283F824200AE0BB68002283F87F
:1033A0002420BB681B6AC7F88C30BB6800221A62F5
:1033B000BB685B78002B65D1FB681B68FB63FB680F
:1033C0001B68B3F850309BB21A46FB6B1344FB6387
:1033D000BB681B781A01FB6B134403F20443BB6305
:1033E000BB6B1B889BB2C3F309039AB2BB6B1A80F9
:1033F000D7F88C303E2B1DD9D7F88C305B09BB64D5
:10340000D7F88C3003F01F03002B02D1BB6C013BBB
:10341000BB64BB6B1B889AB2BB6C9BB29B029BB21A
:1034200013439BB26FEA43436FEA53439AB2BB6BB9
:103430001A8044E0D7F88C30002B0AD1BB6B1B8874
:103440009BB26FEA43436FEA53439AB2BB6B1A8055
:1034500035E0D7F88C305B08BB64D7F88C3003F0CC
:103460000103002B02D0BB6C0133BB64BB6B1B8818
:103470009AB2BB6C9BB29B029BB213439AB2BB6BDA
:103480001A801CE0BB685B78012B18D1FB681B68B5
:103490007B64FB681B68B3F850309BB21A467B6CA8
:1034A00013447B64BB681B781A017B6C134403F2E2
:1034B00004433B64D7F88C309AB23B6C1A80FB68AB
:1034C0001868BB685969BB681A89D7F88C309BB2F9
:1034D00003F0E9F9E2E1FB681B68B3F850309BB2F6
:1034E0001A46BB681B78DB00134406335B00FA689E
:1034F0001268134403F580631B88C3F30903A7F81C
:103500008630BB689A69B7F886309A4207D3BB68A1
:103510009A69B7F88630D21ABB689A6102E0BB6834
:1035200000229A61BB689B69002B40F0C080BB6899
:103530005B78002B26D1FB681B68FB67FB681B6868
:10354000B3F850309BB21A46FB6F1344FB67BB685D
:103550001B781A01FB6F134403F20443BB67BB6F74
:103560001B889BB2C3F309039AB2BB6F1A80BB6F6F
:103570001B889BB26FEA43436FEA53439AB2BB6F17
:103580001A801AE0BB685B78012B16D1FB681B68B8
:103590007B66FB681B68B3F850309BB21A467B6EA3
:1035A00013447B66BB681B781A017B6E134403F2DD
:1035B00004433B663B6E00221A80FB681B687B67F6
:1035C000BB685B78002B2BD1FB681B68FB66FB6834
:1035D0001B68B3F850309BB21A46FB6E1344FB666F
:1035E000BB681B781A01FB6E134403F20C43C7F847
:1035F0008030D7F880301B889BB2C3F309039AB29E
:10360000D7F880301A80D7F880301B889BB26FEAD9
:1036100043436FEA53439AB2D7F880301A8017E0D9
:10362000BB685B78012B13D1FB681B68B3F8503083
:103630009BB21A467B6F13447B67BB681B781A01E9
:103640007B6F134403F20C433B673B6F00221A80ED
:10365000BB681B781946F86804F09FFFFB8803F4E9
:103660008043002B40F01A81FB681B681A46BB6838
:103670001B789B0013441B889BB223F4E04323F088
:103680007003A7F88830FB681B681A46BB681B7874
:103690009B001A44B7F8883043F07F4343F47F031C
:1036A00043F4404343F080039BB21380F6E0FB8871
:1036B00003F48043002B21D1FB681B681A46BB68CA
:1036C0001B789B0013441B889BB223F4E04323F038
:1036D0007003A7F84E30FB681B681A46BB681B785E
:1036E0009B001A44B7F84E3043F07F4343F47F0306
:1036F00043F4404343F080039BB21380BB6893F8CC
:103700002430012B40F0CA80BB685A69B7F8863074
:103710001A44BB685A61BB68DA69B7F886301A4444
:10372000BB68DA61BB681A6ABB681B699A420BD333
:10373000BB681B69C7F88C30BB681A6AD7F88C3035
:10374000D21ABB681A6217E0BB681B6A002B08D14B
:10375000B7F88630C7F88C30BB68002283F8242085
:103760000AE0BB681B6AC7F88C30BB6800221A628B
:10377000BB68002283F82420FB681B687B65BB685C
:103780005B78002B65D1FB681B68FB65FB681B68D9
:10379000B3F850309BB21A46FB6D1344FB65BB680F
:1037A0001B781A01FB6D134403F20C43BB65BB6D20
:1037B0001B889BB2C3F309039AB2BB6D1A80D7F87A
:1037C0008C303E2B1DD9D7F88C305B09BB66D7F8FF
:1037D0008C3003F01F03002B02D1BB6E013BBB6694
:1037E000BB6D1B889AB2BB6E9BB29B029BB213430C
:1037F0009BB26FEA43436FEA53439AB2BB6D1A80A0
:1038000041E0D7F88C30002B0AD1BB6D1B889BB2EE
:103810006FEA43436FEA53439AB2BB6D1A8032E0BA
:10382000D7F88C305B08BB66D7F88C3003F0010307
:10383000002B02D0BB6E0133BB66BB6D1B889AB2F6
:10384000BB6E9BB29B029BB213439AB2BB6D1A80B4
:1038500019E0BB685B78012B15D1FB681B68B3F8D6
:1038600050309BB21A467B6D13447B65BB681B7856
:103870001A017B6D134403F20C433B65D7F88C307F
:103880009AB23B6D1A80FB681868BB685969BB68BF
:103890005A89D7F88C309BB203F005F8FB681B6897
:1038A0001A46BB681B789B0013441B889BB223F409
:1038B000E04323F04003BB82BB8A83F01003BB824A
:1038C000BB8A83F02003BB82FB681B681A46BB6877
:1038D0001B789B001A44BB8A43F07F4343F47F0369
:1038E00043F4004343F080039BB213800023184647
:1038F0009037BD4680BD80B487B000AFF8607B6074
:103900000B467B8113463B817B8903F080039BB28E
:10391000002B0BD07B8903F0070213469B00134456
:10392000DB001033FA6813447B6109E07A8913469F
:103930009B001344DB0003F5A873FA6813447B6112
:103940003B89002B07D17B6900221A737B689AB2EE
:103950007B69DA800BE07B6901221A737B689AB27B
:103960007B691A817B681B0C9AB27B695A810023A0
:1039700018461C37BD4680BC7047000080B586B035
:1039800000AF78607B68002B01D1012372E27B6875
:103990001B6803F00103002B00F08780924B5B68EB
:1039A00003F00C03042B0CD08F4B5B6803F00C036B
:1039B000082B12D18C4B5B6803F48033B3F5803F46
:1039C0000BD1894B1B6803F40033002B6CD07B6850
:1039D0005B68002B68D101234CE27B685B68B3F520
:1039E000803F06D1804B1B687F4A43F480331360CD
:1039F0002EE07B685B68002B0CD17B4B1B687A4AFE
:103A000023F480331360784B1B68774A23F48023B8
:103A100013601DE07B685B68B3F5A02F0CD1724B7F
:103A20001B68714A43F4802313606F4B1B686E4A16
:103A300043F4803313600BE06B4B1B686A4A23F43A
:103A400080331360684B1B68674A23F4802313603C
:103A50007B685B68002B13D0FDF740FF386108E0FE
:103A6000FDF73CFF02463B69D31A642B01D90323BF
:103A700000E25D4B1B6803F40033002BF0D014E030
:103A8000FDF72CFF386108E0FDF728FF02463B698F
:103A9000D31A642B01D90323ECE1534B1B6803F4C5
:103AA0000033002BF0D100E000BF7B681B6803F0FF
:103AB0000203002B63D04C4B5B6803F00C03002B1C
:103AC0000BD0494B5B6803F00C03082B1CD1464B11
:103AD0005B6803F48033002B16D1434B1B6803F063
:103AE0000203002B05D07B681B69012B01D0012349
:103AF000C0E13D4B1B6823F0F8027B685B69DB008B
:103B0000394913430B603AE07B681B69002B20D0D6
:103B1000364B01221A60FDF7E1FE386108E0FDF73F
:103B2000DDFE02463B69D31A022B01D90323A1E132
:103B30002D4B1B6803F00203002BF0D02A4B1B68AF
:103B400023F0F8027B685B69DB00274913430B60B5
:103B500015E0264B00221A60FDF7C0FE386108E030
:103B6000FDF7BCFE02463B69D31A022B01D90323A1
:103B700080E11D4B1B6803F00203002BF0D17B6832
:103B80001B6803F00803002B3AD07B689B69002B6D
:103B900019D0174B01221A60FDF7A0FE386108E02A
:103BA000FDF79CFE02463B69D31A022B01D9032381
:103BB00060E10D4B5B6A03F00203002BF0D00120A3
:103BC00000F09CFA1CE00A4B00221A60FDF786FE0A
:103BD00038610FE0FDF782FE02463B69D31A022BE3
:103BE00008D9032346E100BF001002400000424212
:103BF00080044242924B5B6A03F00203002BE9D13E
:103C00007B681B6803F00403002B00F0A6800023F0
:103C1000FB758B4BDB6903F08053002B0DD1884B78
:103C2000DB69874A43F08053D361854BDB6903F03E
:103C30008053BB60BB680123FB75824B1B6803F498
:103C40008073002B18D17F4B1B687E4A43F480732E
:103C50001360FDF743FE386108E0FDF73FFE0246C2
:103C60003B69D31A642B01D9032303E1754B1B680D
:103C700003F48073002BF0D07B68DB68012B06D146
:103C80006F4B1B6A6E4A43F0010313622DE07B68A1
:103C9000DB68002B0CD16A4B1B6A694A23F00103D5
:103CA0001362674B1B6A664A23F0040313621CE02D
:103CB0007B68DB68052B0CD1614B1B6A604A43F0C3
:103CC000040313625E4B1B6A5D4A43F001031362F7
:103CD0000BE05B4B1B6A5A4A23F001031362584BFB
:103CE0001B6A574A23F0040313627B68DB68002BCE
:103CF00015D0FDF7F3FD38610AE0FDF7EFFD024650
:103D00003B69D31A41F28832934201D90323B1E0CF
:103D10004B4B1B6A03F00203002BEED014E0FDF7BF
:103D2000DDFD38610AE0FDF7D9FD02463B69D31A93
:103D300041F28832934201D903239BE0404B1B6A36
:103D400003F00203002BEED1FB7D012B05D13C4B90
:103D5000DB693B4A23F08053D3617B68DB69002B2E
:103D600000F08780364B5B6803F00C03082B61D0B2
:103D70007B68DB69022B46D1334B00221A60FDF7CA
:103D8000ADFD386108E0FDF7A9FD02463B69D31A95
:103D9000022B01D903236DE0294B1B6803F000734C
:103DA000002BF0D17B681B6AB3F5803F08D1244B10
:103DB0005B6823F400327B689B68214913434B60A6
:103DC0001F4B5B6823F474127B68196A7B685B6A1B
:103DD0000B431B4913434B601B4B01221A60FDF739
:103DE0007DFD386108E0FDF779FD02463B69D31A95
:103DF000022B01D903233DE0114B1B6803F0007334
:103E0000002BF0D035E0104B00221A60FDF766FD64
:103E1000386108E0FDF762FD02463B69D31A022BC8
:103E200001D9032326E0064B1B6803F00073002B27
:103E3000F0D11EE07B68DB69012B07D1012319E07B
:103E40000010024000700040600042420B4B5B6873
:103E5000FB60FB6803F480327B681B6A9A4206D1E0
:103E6000FB6803F470127B685B6A9A4201D00123FD
:103E700000E0002318461837BD4680BD0010024000
:103E800080B584B000AF786039607B68002B01D1C9
:103E90000123D0E06A4B1B6803F007033A689A429B
:103EA00010D9674B1B6823F0070265493B68134331
:103EB0000B60634B1B6803F007033A689A4201D01A
:103EC0000123B8E07B681B6803F00203002B20D0BD
:103ED0007B681B6803F00403002B05D0594B5B681B
:103EE000584A43F4E06353607B681B6803F008039F
:103EF000002B05D0534B5B68524A43F46053536028
:103F0000504B5B6823F0F0027B689B684D4913437C
:103F10004B607B681B6803F00103002B40D07B687B
:103F20005B68012B07D1474B1B6803F40033002B60
:103F300015D101237FE07B685B68022B07D1414BE1
:103F40001B6803F00073002B09D1012373E03D4B84
:103F50001B6803F00203002B01D101236BE0394BF6
:103F60005B6823F003027B685B68364913434B6050
:103F7000FDF7B4FCF8600AE0FDF7B0FC0246FB6810
:103F8000D31A41F28832934201D9032353E02D4BD7
:103F90005B6803F00C027B685B689B009A42EBD184
:103FA000274B1B6803F007033A689A4210D2244B50
:103FB0001B6823F0070222493B6813430B60204B28
:103FC0001B6803F007033A689A4201D0012332E0EC
:103FD0007B681B6803F00403002B08D0194B5B6857
:103FE00023F4E0627B68DB68164913434B607B680F
:103FF0001B6803F00803002B09D0124B5B6823F405
:1040000060527B681B69DB000E4913434B6000F074
:1040100021F802460B4B5B681B0903F00F030A49AA
:10402000CB5C22FA03F3094A1360094B1B6818465C
:10403000FDF712FC002318461037BD4680BD00BFB7
:104040000020024000100240A4BB00080400002031
:104050000800002080B487B000AF0023FB6000237D
:10406000BB6000237B6100237B6000233B611E4B10
:104070005B68FB60FB6803F00C03042B02D0082B89
:1040800003D027E0194B3B6127E0FB689B0C03F052
:104090000F03174AD35C7B60FB6803F48033002B6B
:1040A00010D0114B5B685B0C03F00103114AD35C29
:1040B000BB607B680D4A03FB02F2BB68B2FBF3F303
:1040C0007B6104E07B680C4A02FB03F37B617B6944
:1040D0003B6102E0054B3B6100BF3B6918461C3762
:1040E000BD4680BC704700BF0010024000127A003D
:1040F000B4BB0008C4BB000800093D0080B485B013
:1041000000AF78600A4B1B680A4AA2FB03235B0AD4
:104110007A6802FB03F3FB6000BFFB685A1EFA607B
:10412000002BF9D100BF00BF1437BD4680BC7047DB
:1041300004000020D34D621080B586B000AF7860D7
:1041400000233B610023FB607B681B6803F00103D5
:10415000002B7DD00023FB754F4BDB6903F08053B0
:10416000002B0DD14C4BDB694B4A43F08053D3619C
:10417000494BDB6903F08053BB60BB680123FB75CF
:10418000464B1B6803F48073002B18D1434B1B680C
:10419000424A43F480731360FDF7A0FB386108E0E6
:1041A000FDF79CFB02463B69D31A642B01D903231C
:1041B0006DE03A4B1B6803F48073002BF0D0364B54
:1041C0001B6A03F44073FB60FB68002B2ED07B68F6
:1041D0005B6803F44073FA689A4227D02E4B1B6A3F
:1041E00023F44073FB602E4B01221A602C4B0022FB
:1041F0001A60294AFB681362FB6803F00103002B75
:1042000014D0FDF76BFB38610AE0FDF767FB02464F
:104210003B69D31A41F28832934201D9032336E035
:104220001D4B1B6A03F00203002BEED01A4B1B6AD6
:1042300023F440727B685B68174913430B62FB7D74
:10424000012B05D1144BDB69134A23F08053D36152
:104250007B681B6803F00203002B08D00E4B5B68E1
:1042600023F440427B689B680B4913434B607B6897
:104270001B6803F01003002B08D0074B5B6823F486
:1042800080027B68DB68044913434B6000231846B7
:104290001837BD4680BD00BF0010024000700040CE
:1042A0004004424280B485B000AFF860384680E8F0
:1042B0000E00002318461437BD4680BC704780B4FA
:1042C00085B000AF78607B680022A3F844204FF4EB
:1042D0003F43FB60FB689AB27B68A3F84020002351
:1042E00018461437BD4680BC704780B485B000AF17
:1042F00078604FF43F43FB607B68B3F840309AB27C
:10430000FB689BB2DB439BB213409AB27B68A3F875
:104310004020002318461437BD4680BC704780B447
:1043200083B000AF78600B46FB70002318460C3753
:10433000BD4680BC704780B485B000AFF860384699
:1043400080E80E00FB680122A3F84020FB680022F1
:10435000A3F84020FB680022A3F84420FB68002259
:10436000A3F85020002318461437BD4680BC704780
:1043700080B49DB000AF78603960002387F86F305B
:104380007A683B681B789B0013441B889BB223F41C
:10439000EC4323F07003A7F86C303B68DB78032B09
:1043A0001FD801A252F823F0B9430008D5430008F2
:1043B000EB430008C7430008B7F86C3043F40073C0
:1043C000A7F86C3012E0B7F86C3043F4C063A7F87C
:1043D0006C300BE0B7F86C3043F48063A7F86C30B6
:1043E00004E0012387F86F3000E000BF7A683B6883
:1043F0001B789B001A44B7F86C3043F07F4343F4BA
:104400007F0343F4004343F080039BB213807A6838
:104410003B681B789B0013441B889BB223F4E0434A
:1044200023F070039BB23A6812781343A7F8663002
:104430007A683B681B789B001A44B7F8663043F0F3
:104440007F4343F47F0343F4004343F080039BB274
:1044500013803B681B7B002B40F078813B685B78C6
:10446000002B00F084807B68BB617B68B3F8503020
:104470009BB21A46BB691344BB613B681B781A01A7
:10448000BB69134403F580637B613B68DB885B0891
:104490009BB25B009AB27B691A807A683B681B7892
:1044A0009B0013441B887B827B8A03F04003002B14
:1044B0001BD07A683B681B789B0013441B889BB217
:1044C00023F4E04323F070033B827A683B681B7857
:1044D0009B001A443B8A43F07F4343F47F0343F439
:1044E000004343F0C0039BB213803B68DB78012B91
:1044F00020D07A683B681B789B0013441B889BB2D2
:1045000023F4E04323F04003BB81BB8983F0200305
:10451000BB817A683B681B789B001A44BB8943F0D7
:104520007F4343F47F0343F4004343F080039BB293
:104530001380D5E27A683B681B789B0013441B8884
:104540009BB223F4E04323F04003FB817A683B688D
:104550001B789B001A44FB8943F07F4343F47F039D
:1045600043F4004343F080039BB21380B8E27B68BE
:104570003B637B68B3F850309BB21A463B6B1344E5
:104580003B633B681B781A013B6B134403F5816363
:10459000FB623B68DB885B089BB25B009AB2FB6AFC
:1045A0001A807B68BB627B68B3F850309BB21A46B6
:1045B000BB6A1344BB623B681B781A01BB6A134495
:1045C00003F20C437B627B6A1B889BB2C3F3090333
:1045D0009AB27B6A1A803B681B693E2B1DD93B68E7
:1045E0001B695B09BB663B681B6903F01F03002B5B
:1045F00002D1BB6E013BBB667B6A1B889AB2BB6E65
:104600009BB29B029BB213439BB26FEA43436FEA98
:1046100053439AB27B6A1A8026E03B681B69002BE1
:104620000AD17B6A1B889BB26FEA43436FEA53430C
:104630009AB27B6A1A8017E03B681B695B08BB660D
:104640003B681B6903F00103002B02D0BB6E0133F2
:10465000BB667B6A1B889AB2BB6E9BB29B029BB205
:1046600013439AB27B6A1A807A683B681B789B0076
:1046700013441B887B847B8C03F48043002B1BD06A
:104680007A683B681B789B0013441B889BB223F419
:10469000E04323F070033B847A683B681B789B00FF
:1046A0001A443B8C43F07F4343F47F0343F440437D
:1046B00043F080039BB213803B681B78002B24D10E
:1046C0007A683B681B789B0013441B889BB223F4D9
:1046D000804323F07003BB83BB8B83F48053BB8385
:1046E000BB8B83F40053BB837A683B681B789B00C9
:1046F0001A44BB8B43F07F4343F47F0343F40043EE
:1047000043F080039BB21380EAE17A683B681B7830
:104710009B0013441B889BB223F4804323F0700357
:10472000FB83FB8B83F40053FB837A683B681B7825
:104730009B001A44FB8B43F07F4343F47F0343F415
:10474000004343F080039BB21380C9E13B68DB78F0
:10475000022B1ED17A683B681B789B0013441B8890
:104760009BB223F4E04323F07003A7F862307A6829
:104770003B681B789B001A44B7F8623043F07F43D4
:1047800043F47F0343F4014343F080039BB213805F
:104790001DE07A683B681B789B0013441B889BB222
:1047A00023F4E24323F07003A7F864307A683B688F
:1047B0001B789B001A44B7F8643043F07F4343F4FE
:1047C0007F0343F4004343F080039BB213807B6874
:1047D000FB657B68B3F850309BB21A46FB6D1344FF
:1047E000FB653B681B781A01FB6D134403F580637E
:1047F000BB653B681B895B089BB25B009AB2BB6DD3
:104800001A807B687B657B68B3F850309BB21A4690
:104810007B6D13447B653B681B781A017B6D1344E9
:1048200003F581633B653B685B895B089BB25B007A
:104830009AB23B6D1A803B685B78002B40F0938006
:104840007A683B681B789B0013441B88A7F84030AC
:10485000B7F8403003F48043002B1BD07A683B68E4
:104860001B789B0013441B889BB223F4E04323F086
:104870007003FB877A683B681B789B001A44FB8FA8
:1048800043F07F4343F47F0343F4404343F080030A
:104890009BB213807A683B681B789B0013441B888B
:1048A000BB87BB8F03F04003002B1BD07A683B68AB
:1048B0001B789B0013441B889BB223F4E04323F036
:1048C00070037B877A683B681B789B001A447B8F58
:1048D00043F07F4343F47F0343F4004343F0C003BA
:1048E0009BB213807A683B681B789B0013441B883B
:1048F0009BB223F4804323F070033B873B8F83F408
:1049000080533B873B8F83F400533B877A683B6837
:104910001B789B001A443B8F43F07F4343F47F0393
:1049200043F4004343F080039BB213807A683B68F2
:104930001B789B0013441B889BB223F4E04323F0B5
:104940004003FB867A683B681B789B001A44FB8E09
:1049500043F07F4343F47F0343F4004343F0800379
:104960009BB21380BCE07A683B681B789B001344C1
:104970001B88A7F84E30B7F84E3003F48043002B65
:104980001DD07A683B681B789B0013441B889BB240
:1049900023F4E04323F07003A7F84C307A683B68B7
:1049A0001B789B001A44B7F84C3043F07F4343F424
:1049B0007F0343F4404343F080039BB213807A6843
:1049C0003B681B789B0013441B88A7F84A30B7F854
:1049D0004A3003F04003002B1DD07A683B681B78F7
:1049E0009B0013441B889BB223F4E04323F0700325
:1049F000A7F848307A683B681B789B001A44B7F8E0
:104A0000483043F07F4343F47F0343F4004343F0D3
:104A1000C0039BB213803B68DB78012B24D07A68FB
:104A20003B681B789B0013441B889BB223F4E04334
:104A300023F04003A7F84430B7F8443083F0200354
:104A4000A7F844307A683B681B789B001A44B7F893
:104A5000443043F07F4343F47F0343F4004343F087
:104A600080039BB213801DE07A683B681B789B0033
:104A700013441B889BB223F4E04323F04003A7F8C0
:104A800046307A683B681B789B001A44B7F846307A
:104A900043F07F4343F47F0343F4004343F0800338
:104AA0009BB213807A683B681B789B0013441B8879
:104AB0009BB223F4804323F07003A7F842307A6856
:104AC0003B681B789B001A44B7F8423043F07F43A1
:104AD00043F47F0343F4004343F080039BB213800D
:104AE00097F86F3018467437BD4680BC704700BFDA
:104AF00080B48DB000AF786039603B681B7B002BC1
:104B000040F08E803B685B78002B44D07A683B682D
:104B10001B789B0013441B88BB81BB8903F04003B7
:104B2000002B1BD07A683B681B789B0013441B88C2
:104B30009BB223F4E04323F070037B817A683B68E7
:104B40001B789B001A447B8943F07F4343F47F0327
:104B500043F4004343F0C0039BB213807A683B6880
:104B60001B789B0013441B889BB223F4E04323F083
:104B700040033B817A683B681B789B001A443B8961
:104B800043F07F4343F47F0343F4004343F0800347
:104B90009BB2138092E17A683B681B789B001344B8
:104BA0001B887B827B8A03F48043002B1BD07A68AE
:104BB0003B681B789B0013441B889BB223F4E043A3
:104BC00023F070033B827A683B681B789B001A4491
:104BD0003B8A43F07F4343F47F0343F4404343F075
:104BE00080039BB213807A683B681B789B00134458
:104BF0001B889BB223F4804323F07003FB817A6807
:104C00003B681B789B001A44FB8943F07F4343F4C5
:104C10007F0343F4004343F080039BB213804DE1D4
:104C20003B685B78002B40F0A5807A683B681B7876
:104C30009B0013441B883B843B8C03F48043002B74
:104C40001BD07A683B681B789B0013441B889BB27F
:104C500023F4E04323F07003FB837A683B681B78FE
:104C60009B001A44FB8B43F07F4343F47F0343F4E0
:104C7000404343F080039BB213807A683B681B7803
:104C80009B0013441B88BB83BB8B03F04003002BAA
:104C90001BD07A683B681B789B0013441B889BB22F
:104CA00023F4E04323F070037B837A683B681B782E
:104CB0009B001A447B8B43F07F4343F47F0343F410
:104CC000004343F0C0039BB213807A683B681B78B3
:104CD0009B0013441B889BB223F4E04323F0700332
:104CE0003B837A683B681B789B001A443B8B43F0FC
:104CF0007F4343F47F0343F4004343F0C0039BB27C
:104D000013807A683B681B789B0013441B889BB216
:104D100023F4804323F07003FB827A683B681B789E
:104D20009B001A44FB8A43F07F4343F47F0343F420
:104D3000004343F080039BB213807A683B681B7882
:104D40009B0013441B889BB223F4E04323F04003F1
:104D5000BB827A683B681B789B001A44BB8A43F08D
:104D60007F4343F47F0343F4004343F080039BB24B
:104D70001380A3E07A683B681B789B0013441B8870
:104D8000FB85FB8D03F48043002B1BD07A683B68C6
:104D90001B789B0013441B889BB223F4E04323F051
:104DA0007003BB857A683B681B789B001A44BB8DF7
:104DB00043F07F4343F47F0343F4404343F08003D5
:104DC0009BB213807A683B681B789B0013441B8856
:104DD0007B857B8D03F04003002B1BD07A683B68FA
:104DE0001B789B0013441B889BB223F4E04323F001
:104DF00070033B857A683B681B789B001A443B8DA7
:104E000043F07F4343F47F0343F4004343F0C00384
:104E10009BB213807A683B681B789B0013441B8805
:104E20009BB223F4E04323F07003FB847A683B6871
:104E30001B789B001A44FB8C43F07F4343F47F03B1
:104E400043F4404343F080039BB213807A683B688D
:104E50001B789B0013441B889BB223F4E04323F090
:104E60004003BB847A683B681B789B001A44BB8C68
:104E700043F07F4343F47F0343F4004343F0800354
:104E80009BB213807A683B681B789B0013441B8895
:104E90009BB223F4804323F070037B847A683B68E1
:104EA0001B789B001A447B8C43F07F4343F47F03C1
:104EB00043F4004343F080039BB213800023184661
:104EC0003437BD4680BC704780B5C2B000AF07F52F
:104ED0008473A3F58273186007F58473A3F5847354
:104EE000196007F58473A3F584731B685B78012B45
:104EF00040F0B78607F58473A3F584731B689A693D
:104F000007F58473A3F584731B681B699A4208D95B
:104F100007F58473A3F584731B681B69C7F8043114
:104F200007E007F58473A3F584731B689B69C7F8D2
:104F3000043107F58473A3F584731B681B7B002B76
:104F40003AD107F58473A3F584731B68596907F593
:104F50008473A3F584731B68DA88D7F804319BB295
:104F600007F58470A0F58270006801F09CFC07F5DD
:104F70008473A3F582731B683B6107F58473A3F503
:104F800082731B68B3F850309BB21A463B691344D6
:104F90003B6107F58473A3F584731B681B781A01C2
:104FA0003B69134403F20443FB60D7F804319AB21F
:104FB000FB681A8000F01FBE07F58473A3F58473A5
:104FC0001B68DB78022B40F0628407F58473A3F53D
:104FD00084731B681A6A07F58473A3F584731B68CE
:104FE0001B699A4240F2DF8307F58473A3F582734D
:104FF0001A6807F58473A3F584731B681B789B00FC
:1050000013441B889BB223F4E04323F07003A7F8FA
:10501000563007F58473A3F582731A6807F5847315
:10502000A3F584731B681B789B001A44B7F85630AD
:1050300043F07F4343F47F0343F4014343F0800391
:105040009BB2138007F58473A3F584731B681A6AF7
:10505000D7F80431D21A07F58473A3F584731B685B
:105060001A6207F58473A3F582731A6807F58473CF
:10507000A3F584731B681B789B0013441B889BB2A9
:1050800003F04003002B00F0C78107F58473A3F5FC
:1050900082731B683B6307F58473A3F584731B68F5
:1050A0005B78002B77D107F58473A3F582731B68B7
:1050B000BB6207F58473A3F582731B68B3F85030A5
:1050C0009BB21A46BB6A1344BB6207F58473A3F50F
:1050D00084731B681B781A01BB6A134403F20C43E8
:1050E0007B627B6A1B889BB2C3F309039AB27B6A1B
:1050F0001A80D7F804313E2B21D9D7F804315B0947
:10510000C7F80031D7F8043103F01F03002B04D196
:10511000D7F80031013BC7F800317B6A1B889AB28F
:10512000D7F800319BB29B029BB213439BB26FEA4C
:1051300043436FEA53439AB27B6A1A8050E0D7F830
:105140000431002B0AD17B6A1B889BB26FEA434370
:105150006FEA53439AB27B6A1A8041E0D7F8043170
:105160005B08C7F80031D7F8043103F00103002BC6
:1051700004D0D7F800310133C7F800317B6A1B88AF
:105180009AB2D7F800319BB29B029BB213439AB2FA
:105190007B6A1A8024E007F58473A3F584731B6887
:1051A0005B78012B1CD107F58473A3F582731B6810
:1051B000B3F850309BB21A463B6B13443B6307F580
:1051C0008473A3F584731B681B781A013B6B13442B
:1051D00003F20C43FB62D7F804319AB2FB6A1A80DF
:1051E00007F58473A3F584731B685B89A7F8763091
:1051F00007F58473A3F584731B685969D7F80431E4
:105200009BB2B7F8762007F58470A0F5827000682D
:1052100001F049FB07F58473A3F584731B685A6991
:10522000D7F804311A4407F58473A3F584731B6817
:105230005A6107F58473A3F584731B681A6A07F52E
:105240008473A3F584731B681B699A420FD907F511
:105250008473A3F584731B681A6AD7F80431D21AD1
:1052600007F58473A3F584731B681A620EE007F5D3
:105270008473A3F584731B681B6AC7F8043107F5B0
:105280008473A3F584731B6800221A6207F5847384
:10529000A3F584731B685B78002B77D107F58473C3
:1052A000A3F582731B68BB6107F58473A3F5827352
:1052B0001B68B3F850309BB21A46BB691344BB61FC
:1052C00007F58473A3F584731B681B781A01BB6907
:1052D000134403F204437B617B691B889BB2C3F3D5
:1052E00009039AB27B691A80D7F804313E2B21D981
:1052F000D7F804315B09C7F8FC30D7F8043103F064
:105300001F03002B04D1D7F8FC30013BC7F8FC3059
:105310007B691B889AB2D7F8FC309BB29B029BB288
:1053200013439BB26FEA43436FEA53439AB27B69DC
:105330001A8056E0D7F80431002B0AD17B691B880C
:105340009BB26FEA43436FEA53439AB27B691A8078
:1053500047E0D7F804315B08C7F8FC30D7F80431D0
:1053600003F00103002B04D0D7F8FC300133C7F859
:10537000FC307B691B889AB2D7F8FC309BB29B0249
:105380009BB213439AB27B691A802AE007F58473B3
:10539000A3F584731B685B78012B22D107F5847316
:1053A000A3F582731B683B6207F58473A3F58273D0
:1053B0001B68B3F850309BB21A463B6A13443B62F9
:1053C00007F58473A3F584731B681B781A013B6A85
:1053D000134403F20443FB61D7F804319AB2FB692A
:1053E0001A8007F58473A3F584731B681B89A7F8DB
:1053F000763007F58473A3F584731B685969D7F871
:1054000004319BB2B7F8762007F58470A0F582705E
:10541000006801F048FAEEE307F58473A3F584739E
:105420001B685B78002B77D107F58473A3F5827333
:105430001B68BB6407F58473A3F582731B68B3F81C
:1054400050309BB21A46BB6C1344BB6407F584739F
:10545000A3F584731B681B781A01BB6C134403F219
:1054600004437B647B6C1B889BB2C3F309039AB231
:105470007B6C1A80D7F804313E2B21D9D7F8043140
:105480005B09C7F8F830D7F8043103F01F03002B8D
:1054900004D1D7F8F830013BC7F8F8307B6C1B8893
:1054A0009AB2D7F8F8309BB29B029BB213439BB2DF
:1054B0006FEA43436FEA53439AB27B6C1A8056E01B
:1054C000D7F80431002B0AD17B6C1B889BB26FEAA2
:1054D00043436FEA53439AB27B6C1A8047E0D7F894
:1054E00004315B08C7F8F830D7F8043103F0010342
:1054F000002B04D0D7F8F8300133C7F8F8307B6CB4
:105500001B889AB2D7F8F8309BB29B029BB2134328
:105510009AB27B6C1A802AE007F58473A3F5847332
:105520001B685B78012B22D107F58473A3F5827386
:105530001B683B6507F58473A3F582731B68B3F89A
:1055400050309BB21A463B6D13443B6507F584739C
:10555000A3F584731B681B781A013B6D134403F297
:105560000443FB64D7F804319AB2FB6C1A8007F548
:105570008473A3F584731B681B89A7F8763007F53D
:105580008473A3F584731B685969D7F804319BB2FF
:10559000B7F8762007F58470A0F58270006801F0F6
:1055A00082F907F58473A3F584731B685A69D7F8E9
:1055B00004311A4407F58473A3F584731B685A6198
:1055C00007F58473A3F584731B681A6A07F584735F
:1055D000A3F584731B681B699A420FD907F584737E
:1055E000A3F584731B681A6AD7F80431D21A07F539
:1055F0008473A3F584731B681A620EE007F5847345
:10560000A3F584731B681B6AC7F8043107F584731C
:10561000A3F584731B6800221A6207F58473A3F54F
:1056200082731B683B6407F58473A3F584731B685E
:105630005B78002B77D107F58473A3F582731B6821
:10564000BB6307F58473A3F582731B68B3F850300E
:105650009BB21A46BB6B1344BB6307F58473A3F577
:1056600084731B681B781A01BB6B134403F20C4351
:105670007B637B6B1B889BB2C3F309039AB27B6B82
:105680001A80D7F804313E2B21D9D7F804315B09B1
:10569000C7F8F430D7F8043103F01F03002B04D10E
:1056A000D7F8F430013BC7F8F4307B6B1B889AB213
:1056B000D7F8F4309BB29B029BB213439BB26FEAC4
:1056C00043436FEA53439AB27B6B1A8050E0D7F89A
:1056D0000431002B0AD17B6B1B889BB26FEA4343DA
:1056E0006FEA53439AB27B6B1A8041E0D7F80431DA
:1056F0005B08C7F8F430D7F8043103F00103002B3E
:1057000004D0D7F8F4300133C7F8F4307B6B1B8832
:105710009AB2D7F8F4309BB29B029BB213439AB271
:105720007B6B1A8024E007F58473A3F584731B68F0
:105730005B78012B1CD107F58473A3F582731B687A
:10574000B3F850309BB21A463B6C13443B6407F5E8
:105750008473A3F584731B681B781A013B6C134494
:1057600003F20C43FB63D7F804319AB2FB6B1A8047
:1057700007F58473A3F584731B685B89A7F87630FB
:1057800007F58473A3F584731B685969D7F804314E
:105790009BB2B7F8762007F58470A0F58270006898
:1057A00001F081F827E207F58473A3F584731B6881
:1057B0001B6AC7F8043107F58473A3F582731A686E
:1057C00007F58473A3F584731B681B789B0013444F
:1057D0001B889BB223F4E24323F07003A7F86230E6
:1057E00007F58473A3F582731A6807F58473A3F52C
:1057F00084731B681B789B001A44B7F8623043F02F
:105800007F4343F47F0343F4004343F080039BB2A0
:10581000138007F58473A3F582731B68FB6507F596
:105820008473A3F582731B68B3F850309BB21A4699
:10583000FB6D1344FB6507F58473A3F584731B6844
:105840001B781A01FB6D134403F20443BB65D7F8C0
:1058500004319AB2BB6D1A8007F58473A3F5847383
:105860001B681B89A7F8763007F58473A3F584734A
:105870001B685969D7F804319BB2B7F8762007F551
:105880008470A0F58270006801F00DF8B3E107F5AF
:105890008473A3F584731B681A6AD7F80431D21A8B
:1058A00007F58473A3F584731B681A6207F5847384
:1058B000A3F582731A6807F58473A3F584731B68D4
:1058C0001B789B0013441B889BB203F04003002B02
:1058D00000F0C68007F58473A3F582731B683B67ED
:1058E00007F58473A3F584731B685B78002B77D16D
:1058F00007F58473A3F582731B68BB6607F5847391
:10590000A3F582731B68B3F850309BB21A46BB6E86
:105910001344BB6607F58473A3F584731B681B7877
:105920001A01BB6E134403F20C437B667B6E1B882B
:105930009BB2C3F309039AB27B6E1A80D7F8043185
:105940003E2B21D9D7F804315B09C7F8F030D7F8DE
:10595000043103F01F03002B04D1D7F8F030013BD2
:10596000C7F8F0307B6E1B889AB2D7F8F0309BB244
:105970009B029BB213439BB26FEA43436FEA5343CC
:105980009AB27B6E1A8050E0D7F80431002B0AD10E
:105990007B6E1B889BB26FEA43436FEA53439AB214
:1059A0007B6E1A8041E0D7F804315B08C7F8F0300D
:1059B000D7F8043103F00103002B04D0D7F8F030FE
:1059C0000133C7F8F0307B6E1B889AB2D7F8F030FD
:1059D0009BB29B029BB213439AB27B6E1A8024E067
:1059E00007F58473A3F584731B685B78012B1CD1C6
:1059F00007F58473A3F582731B68B3F850309BB22C
:105A00001A463B6F13443B6707F58473A3F5847311
:105A10001B681B781A013B6F134403F20C43FB66AF
:105A2000D7F804319AB2FB6E1A8007F58473A3F598
:105A300084731B685B89A7F8763007F58473A3F538
:105A400084731B685969D7F804319BB2B7F8762084
:105A500007F58470A0F58270006800F024FFCAE0AA
:105A600007F58473A3F584731B685B78002B77D1EB
:105A700007F58473A3F582731B68FB6707F58473CE
:105A8000A3F582731B68B3F850309BB21A46FB6FC4
:105A90001344FB6707F58473A3F584731B681B78B5
:105AA0001A01FB6F134403F20443BB67BB6F1B88EF
:105AB0009BB2C3F309039AB2BB6F1A80D7F80431C3
:105AC0003E2B21D9D7F804315B09C7F8EC30D7F861
:105AD000043103F01F03002B04D1D7F8EC30013B55
