:020000040800F2
:100000000050002029360008353500083735000833
:10001000393500083B3500083D3500080000000078
:100020000000000000000000000000003F35000854
:100030004135000800000000433500084535000840
:1000400071360008713600087136000871360008F4
:1000500071360008713600087136000871360008E4
:1000600071360008713600087136000871360008D4
:1000700071360008713600087136000871360008C4
:1000800071360008713600087136000871360008B4
:1000900049350008713600087136000871360008CD
:1000A0007136000871360008713600087136000894
:1000B0007136000871360008713600087136000884
:1000C0007136000871360008713600087136000874
:1000D0007136000871360008713600087136000864
:1000E0005535000871360008713600080000000020
:1000F0000000000000000000000000000000000000
:0C01000000000000000000005FF808F1A3
:1001100010B5054C237833B9044B13B10448AFF341
:1001200000800123237010BD500300200000000058
:10013000D0AE000808B5034B1BB103490348AFF329
:10014000008008BD0000000054030020D0AE00086D
:10015000034613F8012B002AFBD1181A0138704707
:1001600081F0004102E000BF83F0004330B54FEA68
:1001700041044FEA430594EA050F08BF90EA020FD5
:100180001FBF54EA000C55EA020C7FEA645C7FEA68
:10019000655C00F0E2804FEA5454D4EB5555B8BF8B
:1001A0006D420CDD2C4480EA020281EA030382EAFC
:1001B000000083EA010180EA020281EA0303362D8E
:1001C00088BF30BD11F0004F4FEA01314FF4801C61
:1001D0004CEA113102D0404261EB410113F0004F73
:1001E0004FEA03334CEA133302D0524263EB43032A
:1001F00094EA050F00F0A780A4F10104D5F1200EC8
:100200000DDB02FA0EFC22FA05F2801841F1000122
:1002100003FA0EF2801843FA05F359410EE0A5F1F6
:1002200020050EF1200E012A03FA0EFC28BF4CF027
:10023000020C43FA05F3C01851EBE37101F00045DD
:1002400007D54FF0000EDCF1000C7EEB00006EEBEA
:100250000101B1F5801F1BD3B1F5001F0CD3490874
:100260005FEA30004FEA3C0C04F101044FEA4452CB
:1002700012F5800F80F09A80BCF1004F08BF5FEA52
:10028000500C50F1000041EB045141EA050130BD32
:100290005FEA4C0C404141EB0101013C28BFB1F544
:1002A000801FE9D291F0000F04BF01460020B1FA8F
:1002B00081F308BF2033A3F10B03B3F120020CDA62
:1002C0000C3208DD02F1140CC2F10C0201FA0CF040
:1002D00021FA02F10CE002F11402D8BFC2F1200CA5
:1002E00001FA02F120FA0CFCDCBF41EA0C0190405B
:1002F000E41AA2BF01EB0451294330BD6FEA0404A4
:100300001F3C1CDA0C340EDC04F11404C4F120028E
:1003100020FA04F001FA02F340EA030021FA04F3A0
:1003200045EA030130BDC4F10C04C4F1200220FAF7
:1003300002F001FA04F340EA0300294630BD21FA35
:1003400004F0294630BD94F0000F83F4801306BFFB
:1003500081F480110134013D4EE77FEA645C18BFEF
:100360007FEA655C29D094EA050F08BF90EA020F86
:1003700005D054EA000C04BF1946104630BD91EA7E
:10038000030F1EBF0021002030BD5FEA545C05D181
:100390004000494128BF41F0004130BD14F58004C0
:1003A0003CBF01F5801130BD01F0004545F0FE4134
:1003B00041F470014FF0000030BD7FEA645C1ABF69
:1003C000194610467FEA655C1CBF0B46024650EAA0
:1003D000013406BF52EA033591EA030F41F40021CC
:1003E00030BD00BF90F0000F04BF0021704730B552
:1003F0004FF4806404F132044FF000054FF0000127
:1004000050E700BF90F0000F04BF0021704730B5E7
:100410004FF4806404F1320410F0004548BF4042BC
:100420004FF000013EE700BF42004FEAE2014FEA11
:1004300031014FEA02701FBF12F07F4393F07F4FEC
:1004400081F06051704732F07F4208BF704793F0EF
:100450007F4F04BF41F40021704730B54FF4607402
:1004600001F0004521F000411CE700BF50EA010205
:1004700008BF704730B54FF000050AE050EA0102AE
:1004800008BF704730B511F0004502D5404261EB1E
:1004900041014FF4806404F132045FEA915C3FF45F
:1004A000D8AE4FF003025FEADC0C18BF03325FEAFC
:1004B000DC0C18BF033202EBDC02C2F1200300FAAD
:1004C00003FC20FA02F001FA03FE40EA0E0021FAD2
:1004D00002F11444BDE600BF70B54FF0FF0C4CF4C0
:1004E000E06C1CEA11541DBF1CEA135594EA0C0F72
:1004F00095EA0C0F00F0DEF82C4481EA030621EAAD
:100500004C5123EA4C5350EA013518BF52EA0335E7
:1005100041F4801143F4801338D0A0FB02CE4FF099
:100520000005E1FB02E506F00042E0FB03E54FF0C9
:100530000006E1FB03569CF0000F18BF4EF0010EC1
:10054000A4F1FF04B6F5007F64F5407404D25FEABD
:100550004E0E6D4146EB060642EAC62141EA555170
:100560004FEAC52040EA5E504FEACE2EB4F1FD0CB2
:1005700088BFBCF5E06F1ED8BEF1004F08BF5FEA30
:10058000500E50F1000041EB045170BD06F00046E2
:1005900046EA010140EA020081EA0301B4EB5C048F
:1005A000C2BFD4EB0C0541EA045170BD41F4801187
:1005B0004FF0000E013C00F3AB8014F1360FDEBFAC
:1005C000002001F0004170BDC4F10004203C35DA88
:1005D0000C341BDC04F11404C4F1200500FA05F30B
:1005E00020FA04F001FA05F240EA020001F00042AC
:1005F00021F0004110EBD37021FA04F642EB060122
:100600005EEA430E08BF20EAD37070BDC4F10C044B
:10061000C4F1200500FA04F320FA05F001FA04F20F
:1006200040EA020001F0004110EBD37041F10001FB
:100630005EEA430E08BF20EAD37070BDC4F1200506
:1006400000FA05F24EEA020E20FA04F301FA05F26E
:1006500043EA020321FA04F001F0004121FA04F216
:1006600020EA020000EBD3705EEA430E08BF20EAE6
:10067000D37070BD94F0000F0FD101F00046400020
:1006800041EB010111F4801F08BF013CF7D041EAA2
:10069000060195F0000F18BF704703F000465200A6
:1006A00043EB030313F4801F08BF013DF7D043EA77
:1006B0000603704794EA0C0F0CEA135518BF95EA2D
:1006C0000C0F0CD050EA410618BF52EA4306D1D1B4
:1006D00081EA030101F000414FF0000070BD50EAD3
:1006E000410606BF1046194652EA430619D094EA5D
:1006F0000C0F02D150EA013613D195EA0C0F05D147
:1007000052EA03361CBF104619460AD181EA03019A
:1007100001F0004141F0FE4141F470014FF0000052
:1007200070BD41F0FE4141F4780170BD70B54FF0ED
:10073000FF0C4CF4E06C1CEA11541DBF1CEA13556D
:1007400094EA0C0F95EA0C0F00F0A7F8A4EB05044F
:1007500081EA030E52EA03354FEA013100F0888046
:100760004FEA03334FF0805545EA131343EA12630F
:100770004FEA022245EA111545EA10654FEA0026C4
:100780000EF000419D4208BF964244F1FD0404F57D
:10079000407402D25B084FEA3202B61A65EB0305D9
:1007A0005B084FEA32024FF480104FF4002CB6EB96
:1007B000020E75EB030E22BFB61A754640EA0C0016
:1007C0005B084FEA3202B6EB020E75EB030E22BF56
:1007D000B61A754640EA5C005B084FEA3202B6EB97
:1007E000020E75EB030E22BFB61A754640EA9C0056
:1007F0005B084FEA3202B6EB020E75EB030E22BF26
:10080000B61A754640EADC0055EA060E18D04FEAE3
:10081000051545EA16754FEA06164FEAC30343EA83
:1008200052734FEAC2025FEA1C1CC0D111F4801F50
:100830000BD141EA00014FF000004FF0004CB6E749
:1008400011F4801F04BF01430020B4F1FD0C88BFE8
:10085000BCF5E06F3FF6AFAEB5EB030C04BFB6EBF3
:10086000020C5FEA500C50F1000041EB045170BDE6
:100870000EF0004E4EEA113114EB5C04C2BFD4EB13
:100880000C0541EA045170BD41F480114FF0000E97
:10089000013C90E645EA060E8DE60CEA135594EA13
:1008A0000C0F08BF95EA0C0F3FF43BAF94EA0C0F16
:1008B0000AD150EA01347FF434AF95EA0C0F7FF48B
:1008C00025AF104619462CE795EA0C0F06D152EADF
:1008D00003353FF4FDAE1046194622E750EA4106C3
:1008E00018BF52EA43067FF4C5AE50EA41047FF4D4
:1008F0000DAF52EA43057FF4EBAE12E74FF0FF3C39
:1009000006E000BF4FF0010C02E000BF4FF0010C09
:100910004DF804CD4FEA410C7FEA6C5C4FEA430C82
:1009200018BF7FEA6C5C1BD001B050EA410C0CBFD1
:1009300052EA430C91EA030F02BF90EA020F002033
:10094000704710F1000F91EA030F58BF994208BF9A
:1009500090422CBFD8176FEAE37040F00100704757
:100960004FEA410C7FEA6C5C02D150EA013C07D1AE
:100970004FEA430C7FEA6C5CD6D152EA033CD3D0F9
:100980005DF8040B704700BF8446104662468C46F3
:100990001946634600E000BF01B5FFF7B7FF002826
:1009A00048BF10F1000F01BD4DF808EDFFF7F4FF4F
:1009B0000CBF012000205DF808FB00BF4DF808EDDA
:1009C000FFF7EAFF34BF012000205DF808FB00BFFD
:1009D0004DF808EDFFF7E0FF94BF012000205DF81F
:1009E00008FB00BF4DF808EDFFF7CEFF94BF0120D4
:1009F00000205DF808FB00BF4DF808EDFFF7C4FFCD
:100A000034BF012000205DF808FB00BF4FEA410C15
:100A10007FEA6C5C02D150EA013C0AD14FEA430CF8
:100A20007FEA6C5C02D152EA033C02D14FF0000035
:100A300070474FF0010070474FEA410212F5001273
:100A400015D211D56FF47873B3EB625212D94FEA15
:100A5000C12343F0004343EA505311F0004F23FAFF
:100A600002F018BF404270474FF00000704750EA54
:100A7000013005D111F0004008BF6FF00040704711
:100A80004FF00000704700BF4A0011D212F500126B
:100A900011D20DD56FF47873B3EB62520ED44FEAD6
:100AA000C12343F0004343EA505323FA02F0704756
:100AB0004FF00000704750EA013002D14FF0FF3094
:100AC00070474FF0000070474FEA4102B2F1E04337
:100AD00024BFB3F5001CDCF1FE5C0DD901F0004C25
:100AE0004FEAC0024CEA5070B2F1004F40EB830075
:100AF00008BF20F00100704711F0804F21D113F1A1
:100B00003872BCBF01F00040704741F480114FEAD9
:100B10005252C2F11802C2F1200C10FA0CF320FA62
:100B200002F018BF40F001004FEAC1234FEAD3237F
:100B300003FA0CFC40EA0C0023FA02F34FEA4303E9
:100B4000CCE77FEA625307D150EA01331EBF4FF072
:100B5000FE4040F44000704701F0004040F0FE408D
:100B600040F40000704700BF80F0004002E000BF8A
:100B700081F0004142001FBF5FEA410392EA030F88
:100B80007FEA226C7FEA236C6AD04FEA1262D2EBD2
:100B90001363C1BFD218414048404140B8BF5B42D7
:100BA000192B88BF704710F0004F40F4000020F070
:100BB0007F4018BF404211F0004F41F4000121F086
:100BC0007F4118BF494292EA030F3FD0A2F10102D0
:100BD00041FA03FC10EB0C00C3F1200301FA03F10E
:100BE00000F0004302D5494260EB4000B0F5000F31
:100BF00013D3B0F1807F06D340084FEA310102F1F0
:100C00000102FE2A51D2B1F1004F40EBC25008BFA1
:100C100020F0010040EA03007047490040EB00006B
:100C2000013A28BFB0F5000FEDD2B0FA80FCACF16C
:100C3000080CB2EB0C0200FA0CF0AABF00EBC25099
:100C400052421843BCBFD0401843704792F0000F87
:100C500081F4000106BF80F400000132013BB5E7DA
:100C60004FEA41037FEA226C18BF7FEA236C21D050
:100C700092EA030F04D092F0000F08BF08467047B5
:100C800090EA010F1CBF0020704712F07F4F04D183
:100C9000400028BF40F00040704712F100723CBF96
:100CA00000F50000704700F0004343F0FE4040F4C0
:100CB000000070477FEA226216BF08467FEA23637E
:100CC0000146420206BF5FEA412390EA010F40F469
:100CD000800070474FF0000304E000BF10F00043B5
:100CE00048BF40425FEA000C08BF704743F096439C
:100CF00001464FF000001CE050EA010208BF7047B7
:100D00004FF000030AE000BF50EA010208BF70473D
:100D100011F0004302D5404261EB41015FEA010C52
:100D200002BF84460146002043F0B64308BFA3F14A
:100D30008053A3F50003BCFA8CF2083AA3EBC2532C
:100D400010DB01FA02FC634400FA02FCC2F120024B
:100D5000BCF1004F20FA02F243EB020008BF20F082
:100D60000100704702F1200201FA02FCC2F12002E8
:100D700050EA4C0021FA02F243EB020008BF20EADD
:100D8000DC7070474FF0FF0C1CEAD0521EBF1CEA0B
:100D9000D15392EA0C0F93EA0C0F6FD01A4480EAF9
:100DA000010C400218BF5FEA41211ED04FF00063E2
:100DB00043EA501043EA5111A0FB01310CF000400E
:100DC000B1F5000F3EBF490041EAD3715B0040EA34
:100DD000010062F17F02FD2A1DD8B3F1004F40EB04
:100DE000C25008BF20F00100704790F0000F0CF0D7
:100DF000004C08BF49024CEA502040EA51207F3A9B
:100E0000C2BFD2F1FF0340EAC250704740F4000075
:100E10004FF00003013A5DDC12F1190FDCBF00F066
:100E200000407047C2F10002410021FA02F1C2F114
:100E3000200200FA02FC5FEA310040F1000053EAB0
:100E40004C0308BF20EADC70704792F0000F00F0FE
:100E5000004C02BF400010F4000F013AF9D040EA04
:100E60000C0093F0000F01F0004C02BF490011F498
:100E7000000F013BF9D041EA0C018FE70CEAD15396
:100E800092EA0C0F18BF93EA0C0F0AD030F0004C16
:100E900018BF31F0004CD8D180EA010000F00040CA
:100EA000704790F0000F17BF90F0004F084691F088
:100EB000000F91F0004F14D092EA0C0F01D14202C2
:100EC0000FD193EA0C0F03D14B0218BF084608D18B
:100ED00080EA010000F0004040F0FE4040F40000D5
:100EE000704740F0FE4040F4400070474FF0FF0C68
:100EF0001CEAD0521EBF1CEAD15392EA0C0F93EAAF
:100F00000C0F69D0A2EB030280EA010C49024FEA00
:100F1000402037D04FF0805343EA111143EA1013B9
:100F20000CF000408B4238BF5B0042F17D024FF471
:100F3000000C8B4224BF5B1A40EA0C00B3EB510F4C
:100F400024BFA3EB510340EA5C00B3EB910F24BF35
:100F5000A3EB910340EA9C00B3EBD10F24BFA3EBBA
:100F6000D10340EADC001B0118BF5FEA1C1CE0D182
:100F7000FD2A3FF650AF8B4240EBC25008BF20F035
:100F8000010070470CF0004C4CEA50207F32C2BF89
:100F9000D2F1FF0340EAC250704740F400004FF026
:100FA0000003013A37E792F0000F00F0004C02BF57
:100FB000400010F4000F013AF9D040EA0C0093F021
:100FC000000F01F0004C02BF490011F4000F013B7B
:100FD000F9D041EA0C0195E70CEAD15392EA0C0FE3
:100FE00008D142027FF47DAF93EA0C0F7FF470AF1B
:100FF000084676E793EA0C0F04D14B023FF44CAF5E
:1010000008466EE730F0004C18BF31F0004CCAD1F2
:1010100030F000427FF45CAF31F000437FF43CAF2E
:101020005FE700BF4FF0FF3C06E000BF4FF0010C50
:1010300002E000BF4FF0010C4DF804CD4FEA400232
:101040004FEA41037FEA226C18BF7FEA236C11D07C
:1010500001B052EA530C18BF90EA010F58BFB2EB2F
:10106000030088BFC81738BF6FEAE17018BF40F0AF
:10107000010070477FEA226C02D15FEA402C05D163
:101080007FEA236CE4D15FEA412CE1D05DF8040BE8
:10109000704700BF844608466146FFE70FB5FFF77B
:1010A000C9FF002848BF10F1000F0FBD4DF808ED33
:1010B000FFF7F4FF0CBF012000205DF808FB00BF24
:1010C0004DF808EDFFF7EAFF34BF012000205DF87E
:1010D00008FB00BF4DF808EDFFF7E0FF94BF0120CB
:1010E00000205DF808FB00BF4DF808EDFFF7D2FFC8
:1010F00094BF012000205DF808FB00BF4DF808ED0B
:10110000FFF7C8FF34BF012000205DF808FB00BFD7
:101110004FEA40024FEA41037FEA226C02D15FEAC4
:10112000402C08D17FEA236C02D15FEA412C02D126
:101130004FF0000070474FF0010070474FEA400247
:10114000B2F1FE4F0FD34FF09E03B3EB12620DD9F5
:101150004FEA002343F0004310F0004F23FA02F05F
:1011600018BF404270474FF00000704712F1610F06
:1011700001D1420205D110F0004008BF6FF00040DD
:1011800070474FF00000704742000ED2B2F1FE4FA0
:101190000BD34FF09E03B3EB126209D44FEA002346
:1011A00043F0004323FA02F070474FF0000070470D
:1011B00012F1610F01D1420202D14FF0FF307047AE
:1011C0004FF00000704700BF38B5002200230446EE
:1011D0000D46FFF7F3FB28B920462946BDE8384005
:1011E00000F00AB8204605F1004100F005F8404241
:1011F00061EB410138BD00BFD0B500220B4B064664
:101200000F46FFF769F9FFF73FFC0446FFF7EAF8DE
:101210000022074BFFF760F902460B46304639467D
:10122000FEF7A2FFFFF730FC2146D0BD0000F03DE5
:101230000000F0412DE9F0419EB007460E461546EC
:101240009DF890809DF8944023B30021FFF738FF6C
:1012500020B938462C49FFF751FFD8B13846FFF77F
:10126000E3F8024600200B462849CDE9020100219F
:101270000020CDE90001264905A806F0A1F905A83E
:10128000FEF766FF81B205A805F076F805201EB0CE
:10129000BDE8F081B8F1000F18D000213046FFF70B
:1012A0000FFF20B930461849FFF728FF70B13046CC
:1012B000FFF7BAF8024600200B461449CDE90201B7
:1012C00000210020CDE900011249D5E7CCB1002171
:1012D0002846FFF7F5FE28B928460B49FFF70EFF11
:1012E0000028D4D02846FFF79FF8024600200B467E
:1012F0000649CDE9020100210020CDE9000106499F
:10130000BAE72046C3E700BF000020430000644066
:10131000E8AE000817AF000846AF0008002200231F
:10132000002000B50C49BDB0CDE90801CDE9062388
:10133000CDE90401CDE90223CDE9000107490AA85E
:1013400006F03EF90AA8FEF703FF81B20AA805F0ED
:1013500013F83DB05DF804FB0000644075AF000871
:101360000022024B1A809A70704700BF6C03002065
:1013700010B50D4C25220021204606F086F90B4AB7
:101380001188927824F8031C04F8012C084AC4F848
:101390000120C4F80520C4F80920C4F80D20C4F8C1
:1013A0001120C4F8152010BD730300206C03002029
:1013B0000000C07FF8B515460B78C4182378204686
:1013C000202B04F1010405D0092B03D033B90024EC
:1013D0002046F8BD0B7801330B70EFE72B2B01D0C3
:1013E0002D2B17D10A78431C01320A70002426469F
:1013F000013B13F8012F2AB1A2F13007092F12D9AE
:101400002E2A09D0002CE2D005F0DAF9FFF75CFBB8
:101410002860DDE70346E9E7002EF3D101260A78CC
:1014200001320A70E5E70124F9E70000F7B500266C
:1014300007468DF80360FFF79BFF9DF80330FC5CC7
:1014400014B948E00133DBB2FC5C202CFAD0092C43
:10145000F8D0002C3FD0A4F16102192A98BF203C9B
:1014600003F10103384601AA0DF1030198BFE4B26C
:101470008DF80330FFF79EFF002800F08A80019D61
:10148000463C284608F01CFBFFF77EFEC3B2142C36
:1014900015D8DFE804F0610B141414141423141489
:1014A0006F1478721414141452575C00632B06D80E
:1014B0001C2B30D005D8032B05D9042B2BD014249A
:1014C00009E05C2BFAE7344A1370012246FA02F372
:1014D000DB072DD51524204603B0F0BD632BEED8D5
:1014E000112B18D012D8052BE9D8052BE7D801A26B
:1014F00052F823F021150008BF1400082115000838
:1015000029150008BF14000829150008122B02D065
:10151000542BD4D11223204A82F824300022D5E75C
:101520001D4A93700B22D1E71B4A53700C22CDE762
:101530000123934033439EB27FE70122164B5D6047
:101540005A777AE70122144B9D609A7775E701225A
:10155000114BDD60DA7770E701220F4B1D6183F8D4
:10156000202000212846FFF7ABFD00283FF465AF9F
:101570000424B0E7084A1377F3E70122064B5D61C4
:1015800083F82120EDE70122034B9D6183F822209F
:10159000E7E702249FE700BF700300202DE9F04138
:1015A000744C9EB094F82430122B78D010D8042BB1
:1015B00058D0112B6CD02378032B77D92378032BA9
:1015C00000F29480DFE813F085009E00B100C100B6
:1015D0001C2B56D05C2BEED1637F674E33B167492D
:1015E0006068FFF7CFFBFFF7A9FD3060A37F644D74
:1015F00033B16249A068FFF7C5FBFFF79FFD286084
:10160000E37FDFF880813BB15F49E068FFF7BAFB19
:10161000FFF794FDC8F800003068FFF75FFB5749FB
:10162000FFF764FCFEF700FF0646D8F800000F46FF
:10163000FFF754FB5449FFF759FCFEF7F5FECDE9DF
:1016400002012868FFF74AFB4C49FFF74FFCFEF701
:10165000EBFE3246CDE900013B464C4905A805F0BA
:10166000AFFF06E0227F002AA5D0494905A805F072
:10167000A7FF05A8FEF76CFD81B205A804F07CFE6B
:1016800099E71621434804F077FE00F007FB92E744
:101690001B21414804F070FE01F008FC8BE7182183
:1016A0003E4804F069FE01F01BFC84E7E369FF2B70
:1016B00084D9E37F0193A37F0093637FE268A168ED
:1016C0006068FFF7B7FD00283FF478AF1EB0BDE8B3
:1016D000F081E369FF2B09D9E37F0193A37F009396
:1016E000637FE268A168606800F040F96378032BCB
:1016F00037D0052B3AD02A4B2188A27800201980B8
:101700009A70E3E7E369FF2BF0D994F82030039354
:10171000E37F0293A37F0193637F00932369E268D1
:10172000A168606800F03AF9E0E7E36923F07F43DD
:1017300023F0FF0313B994F8223033B10123A269D7
:10174000A168606800F028F9D0E7E36923F07F43DF
:1017500023F0FF031BB994F82230002BC6D00023DE
:10176000EDE717210F4804F007FEC4E715210E48E6
:10177000F9E700BF700300205C23002000009E42B8
:10178000582300205423002000A07545FFAF000817
:10179000CCAF0008E8AF00082AB0000846B0000847
:1017A0006C0300205FB0000877B0000808B5421E47
:1017B00012F8013F33B9FFF739FE50B9BDE80840D0
:1017C000FFF7ECBEA3F1610119299CBF203B137008
:1017D000EEE708BD00B5024689B01C2841D8DFE815
:1017E00000F00F16191C1F2240404040404040406E
:1017F00040404040404025282B2E3134373A3D00B0
:1018000004211F4809B05DF804EB04F0B5BD2421A4
:101810001C48F7E71E211C48F4E71E211B48F1E78E
:101820001B211B48EEE720211A48EBE721211A482B
:10183000E8E723211948E5E721211948E2E72721B4
:101840001848DFE723211848DCE71B211748D9E7B0
:101850001B211748D6E721211648D3E72021164837
:10186000D0E71649684605F0ABFE6846FEF770FC07
:1018700081B2684604F080FD09B05DF804FB00BF4A
:101880008DB0000892B00008B6B00008D4B00008CF
:10189000F2B000080DB100082DB100084EB10008EB
:1018A00071B1000892B10008B9B10008DCB10008BC
:1018B000F7B1000812B2000833B2000853B20008B2
:1018C0004FF4805108B5034802F078F8B0FA80F080
:1018D000400908BD000C014010B50446FEF738FC75
:1018E00081B22046BDE8104004F0D2BD1D4A38B593
:1018F000D2F8FC30032543F08073C2F8FC30A2F527
:101900005D421368184C43F00103136001F0CEFAF6
:1019100000220221144802F057F800220121124847
:1019200002F052F801220221204602F04DF8012275
:101930002046114602F048F8962001F0E3FE00220E
:101940000221204602F040F800220121204602F048
:101950003BF8962001F0D6FE013DE3D1BDE83840CA
:10196000FFF7FEBC00ED00E0000C014030B49DF834
:1019700008509DF80C4003B9054805B9044904B95D
:10198000034A01230293034B30BC1B6801F0C2BA27
:101990000000C07F0400002001F0F6BB2DE9F14FEC
:1019A0001F469DF8343004460D4616469DF828B073
:1019B0009DF82CA09DF83090DFF8408033B10021D5
:1019C0003846FFF79BFB08B1C8F80070BBF1000F69
:1019D00000D10B4CBAF1000F00D1094DB9F1000F45
:1019E00000D1074E00233246294620460A93D8F8F4
:1019F000003001B0BDE8F04F01F08CBA08000020C3
:101A00000000C07F2DE9F04F40F2B635804C85B024
:101A10008048FFF761FF4F227F49204605F0D0FD47
:101A20002046FFF759FF2A460021204605F02DFEEB
:101A30004F227A49204605F0C3FD2046FFF74CFFB0
:101A40002A460021204605F020FE40F65A727449CD
:101A5000204605F0B5FD2046FFF73EFF2A4600214F
:101A6000204605F012FE4FF448726E49204605F0FC
:101A7000A7FD2046FFF730FF2A460021204605F04B
:101A800004FE694B1F683846FFF758FB0646FFF710
:101A900025F901463846FFF76BF86449FFF772F9FC
:101AA000FFF74CFB324603466149204605F088FDAE
:101AB0002046FFF711FF2A460021204605F0E5FDEC
:101AC0005C4B1F683846FFF739FB0646FFF706F9FF
:101AD00001463846FFF74CF85449FFF753F9FFF732
:101AE0002DFB324603465449204605F069FD204649
:101AF000FFF7F2FE2A460021204605F0C6FD4F4BB7
:101B00001F683846FFF71AFB0646FFF7E7F801465D
:101B10003846FFF72DF84549FFF734F9FFF70EFB7C
:101B2000324603464649204605F04AFD2046FFF767
:101B3000D3FE2A460021204605F0A7FD414B186838
:101B4000FFF7CCF84049FFF7D1F9404B83461868BE
:101B5000FFF7C4F83C49FFF7C9F93D4B80461868C8
:101B6000FFF7BCF83B49FFF7C1F982465846FFF73B
:101B7000E5FA06464046FFF7E1FA07465046FFF70A
:101B8000DDFA81463046FFF7A9F801465846FEF7D0
:101B9000EFFF3149FFF7F6F8FFF7D0FA80EAE07B74
:101BA000ABEBE07B4846FFF799F801465046FEF75D
:101BB000DFFF2949FFF7E6F8FFF7C0FA0028B8BFB2
:101BC0004042CDE902903846FFF788F8014640468A
:101BD000FEF7CEFF2049FFF7D5F8FFF7AFFA002850
:101BE000B8BF40425B463246CDE900701B492046F3
:101BF00005F0E6FC2046FFF76FFE2A46002120464E
:101C000005F043FD164805B0BDE8F04FFFF764BE90
:101C1000602300205EB200087BB2000890B200088A
:101C2000A5B20008BAB20008080000200000204158
:101C3000CEB2000804000020EFB20008000000202F
:101C400016B300085C23002000009E4258230020A9
:101C50005423002000A075450000C84238B3000896
:101C60006AB30008592808B507D05A280ED058285A
:101C70000FD1BDE80840FFF723BE4FF400510648DE
:101C800001F09CFEB0FA80F0400908BD4FF480419D
:101C9000F5E70020F9E700BF000C014010B528204F
:101CA00001F092FDA048FFF717FEA049A04805F0FB
:101CB0008CFD9F48FFF710FE40F2B63200219C4891
:101CC00005F0E3FC9B499A4805F07FFD9848FFF733
:101CD00003FE40F2B6320021954805F0D6FC002202
:101CE0008021954801F070FEFFF7EAFD00B3012264
:101CF0008021914801F068FE4FF49E7401F096F83F
:101D00004FF4487001F052F8013CF7D1FFF7D8FDCD
:101D1000A8B18A49864805F058FD8548FFF7DCFDE3
:101D20002146BDE8104040F2B632814805F0ADBC16
:101D300001F07CF84FF4487001F038F8D4E72246FF
:101D400080217D4801F040FE4FF49E7401F06EF852
:101D50004FF4166001F02AF8013CF7D1642001F03D
:101D6000D1FCFFF7ADFD08B97549D3E7754B76494E
:101D70006F481C6005F029FD6D48FFF7ADFD40F28E
:101D8000B63221466A4805F080FC7049684805F083
:101D90001CFD6748FFF7A0FD40F2B63221466448BB
:101DA00005F073FC22460821634801F00DFE59201E
:101DB000FFF758FFA0B1012208215F4801F004FE9F
:101DC0004FF49E7401F046F84FF4487000F0EEFFB7
:101DD000013CF7D15920FFF745FF40B15C4999E735
:101DE00001F038F84FF4487000F0E0FFDFE72246DA
:101DF0000821514801F0E8FD4FF49F7401F02AF8E2
:101E00004FF4166000F0D2FF013CF7D1642001F0DE
:101E100079FC5920FFF726FF08B94E497AE74E4B67
:101E20004E4943481C6005F0D0FC4148FFF754FD83
:101E300040F2B63221463E4805F027FC04F0F2FAA3
:101E400047493B4805F0C1FC3948FFF745FD04F020
:101E5000E9FA40F2B6322146354805F016FC012277
:101E60004FF400713F4801F0AFFD5A20FFF7FAFE32
:101E7000A8B100224FF400713A4801F0A5FD41F6E7
:101E8000B46400F0FDFF4FF4857000F08FFF013C5B
:101E9000F7D15A20FFF7E6FE40B133493AE700F0A8
:101EA000EFFF4FF4857000F081FFDEE701224FF471
:101EB00000712C4801F088FD41F6B46400F0E0FFA9
:101EC0004FF4487000F072FF013CF7D1642001F03C
:101ED00019FC5A20FFF7C6FE08B924491AE7244B1B
:101EE000244913481C6005F070FC1148FFF7F4FC0E
:101EF00004F098FA40F2B63221460D4805F0C5FBD1
:101F00001D490B4805F061FC0948FFF7E5FC214637
:101F100040F2B632064805F0B8FB04F083FABDE89B
:101F20001040282001F042BC87B30008AAB3000883
:101F300060230020D3B30008000C0140E5B3000883
:101F400026B400085C2300206DB4000887B40008A4
:101F500099B40008DAB400085823002021B500081D
:101F60003BB50008000801404DB500088EB50008DB
:101F700054230020D5B50008EFB50008012210B5A4
:101F800000240D4B1A700D4B1C600D4B1C700D4B3B
:101F900018465022002105F078FB03460134642CDA
:101FA00003F15003F4D10848FFF796FCBDE8104058
:101FB0000648FFF791BC00BF9E030020A403002049
:101FC0009D030020A803002026B600085DB6000887
:101FD00010B500240F4B1C700F4B1A68A24217DD7E
:101FE00001210E4B0E4819700E4905F0E9FA0C4814
:101FF000FFF772FC40F2B6322146094805F045FB76
:102000000948FFF769FCBDE810400848FFF764BCC9
:102010000748F6E79E030020A40300209D0300204C
:102020006023002082B60008ACB600088DB000081E
:10203000F1B6000830B5414CBDB02368632B03DD19
:102040003F48FFF749FC46E0014610F8013B202BD2
:10205000FAD0092BF8D0002B6DD000254F2202A812
:1020600005F02DFB02A88DF85750FEF771F802AB72
:10207000034430B113F8012C01380D2A2ED00A2A5E
:102080002CD002222F4902A805F007FB90B10222B2
:102090002D4902A805F001FB60B102222B4902A8DC
:1020A00005F0FBFA30B10222294902A805F0F5FA41
:1020B000002831D102A8FFF7B9F9054688B1226896
:1020C0002449013216A805F07BFA16A8FFF704FC94
:1020D0002846FFF77FFB00203DB030BD03F8015DCF
:1020E000C7E71D48C37F0193837F0093437FC26886
:1020F00081684068FFF79EF8054668B12268174975
:10210000013216A805F05CFA16A8FFF7E5FB284691
:10211000FFF760FB124894E750222568114B02A993
:1021200002FB05334F22184605F0C9FA002201359B
:1021300080F84F2025600120CEE700BFA4030020D7
:102140000CB700082EB7000831B7000834B70008F4
:1021500037B700083AB70008700300204EB70008F0
:1021600071B70008A803002038B500240C4A0D4DB3
:1021700014600D4A14600D4A14700D4A14700D4A13
:102180001470284650220021013405F07EFA642C98
:1021900005F15005F5D10848BDE83840FFF79CBB74
:1021A000A4030020A8030020A00300209D0300201A
:1021B0009C0300209E0300208FB70008164B10B52B
:1021C0001B7813B1154B1A6872B91549154805F0FB
:1021D000FCFA1448FFF780FBBDE8104040F2B6322D
:1021E0000021104805F051BA012100240E4B0D4882
:1021F00019700E4B0E491C6005F0E2F90948FFF713
:102200006BFB214640F2B632064805F03EFABDE8C7
:1022100010400848FFF760BB9D030020A403002086
:10222000A3B70008602300209C030020A003002027
:10223000C4B70008F3B7000870B5314B94B01B78F1
:1022400013B1304B1B687BB92F49304805F0BDFAFC
:102250002E48FFF741FB40F2B63200212B4814B064
:10226000BDE8704005F011BA294C2268934211DC98
:102270002849264805F0A9FA2448FFF72DFB40F22B
:10228000B6320021214805F000FA0022224B1A70D4
:1022900014B070BD5026214D214906FB02531B4846
:1022A000013205F08DF91948FFF716FB40F2B632FE
:1022B0000021164805F0E9F921684F2206FB01517B
:1022C0000025684605F0FBF968468DF84F50FFF78A
:1022D0006DFA23680246013308B92360D8E7114933
:1022E0000A4805F06DF90948FFF7F6FA40F2B632F0
:1022F0002946064805F0C9F9074B1D70C8E700BF1D
:102300009D030020A4030020A3B700086023002041
:10231000A00300202BB800089C030020A803002085
:1023200041B800085BB8000870B5002540F2B63629
:102330000E4C0F4B0F4920461D7005F046FA204603
:10234000FFF7CAFA32462946204605F09EF90A49A7
:10235000204605F03AFA2046FFF7BEFA32462946F3
:102360002046BDE8704005F090B900BF6023002012
:102370009C0300207AB800088DB0000808B52F48EB
:10238000FFF7AAFA2E48FFF7A7FA2E48FFF7A4FA9C
:102390002D48FFF7A1FA2D48FFF79EFA2C48FFF7CA
:1023A0009BFA2C48FFF798FA2B48FFF795FA2B4831
:1023B000FFF792FA2A48FFF78FFA2A48FFF78CFABC
:1023C0002948FFF789FA2948FFF786FA2848FFF7D6
:1023D00083FA2848FFF780FA2748FFF77DFA274855
:1023E000FFF77AFA2648FFF777FA2648FFF774FADC
:1023F0002548FFF771FA2548FFF76EFA2448FFF7E2
:102400006BFA2448FFF768FA2348FFF765FA234878
:10241000FFF762FA2248FFF75FFA2248FFF75CFAFB
:102420002148FFF759FA2148FFF756FA2048FFF7ED
:1024300053FABDE808401F48FFF74EBA8DB80008B0
:10244000AFB80008C9B8000803B900082DB90008E2
:1024500063B9000890B90008BBB90008DEB90008EC
:102460000CBA000840BA00086EBA0008A3BA000807
:10247000C0BA0008E5BA000818BB000840BB000855
:102480006EBB000893BB0008BBBB0008E7BB00089D
:1024900010BC000841BC000855BC000868BC00081E
:1024A0007ABC000893BC0008B1BC0008BABC0008A4
:1024B000CBBC00088DB0000808B52349234805F0BF
:1024C00084F92248FFF708FA40F2B63200211F488B
:1024D00005F0DBF803F0DEFF0A2302461C491B4827
:1024E00005F06EF81948FFF7F7F940F2B63200210F
:1024F000164805F0CAF803F0D3FF164B164A1749E1
:10250000002818BF1A46114805F05AF80F48FFF77F
:10251000E3F940F2B63200210C4805F0B6F8104954
:102520000A4805F052F90948FFF7D6F940F2B632E9
:102530000021064805F0A9F80A48FFF7CDF9BDE8E3
:1025400008400948FFF7C8B9E7BC0008602300202D
:1025500007BD0008E1BC0008E4BC000821BD00087C
:1025600032BD000849BD0008FBBD0008F8B545496B
:10257000454805F02AF9454C4348FFF7ADF940F2CC
:10258000B6320021404805F080F8414F2278414D95
:102590004149002A0CBF3A462A463B4805F010F84C
:1025A0003E4E3948FFF798F940F2B63200213648DE
:1025B00005F06BF832783A49002A0CBF3A462A46B1
:1025C000314804F0FDFF3048FFF786F940F2B6329B
:1025D00000212D4805F059F82378002B4CD0314CC0
:1025E00031492268284804F0EBFF304D2648FFF7B8
:1025F00073F940F2B6320021234805F046F82A6804
:102600002B490132204804F0DBFF1F48FFF764F933
:1026100040F2B63200211C4805F037F823681A480A
:10262000002BC5BF64212A6800224A432149C8BF44
:1026300092FBF3F204F0C4FF1348FFF74DF940F2A8
:10264000B6320021104805F020F83378A3B12B688A
:102650002268934210DA5021174A0B4801FB0322EB
:10266000164904F0ADFF0848FFF736F940F2B632DC
:102670000021054805F009F8BDE8F8401048FFF7CB
:102680002BB900BF50BD0008602300209D0300202F
:10269000E4BC0008E1BC000873BD00089C030020F6
:1026A0008ABD0008A4030020A7BD0008A0030020E5
:1026B000BEBD0008D2BD0008A8030020E3BD00088D
:1026C000F9BD00082DE9F0470D22A0B0AB49044642
:1026D00004F0E3FF20B920B0BDE8F047FFF74EBC9F
:1026E0000C222046A64904F0D8FF20B920B0BDE84E
:1026F000F047FFF76DBC0B222046A24904F0CDFF46
:1027000020B920B0BDE8F047FFF758BD0D222046A4
:102710009D4904F0C2FF20B920B0BDE8F047FFF7A3
:1027200023BD0D222046994904F0B7FF20B920B0FF
:10273000BDE8F047FFF7F8BD0C222046944904F0AD
:10274000ACFF20B920B0BDE8F047FFF775BD0E2201
:102750002046904904F0A1FF20B920B0BDE8F04721
:10276000FFF704BF042220468B4904F096FF28B1EE
:1027700004222046894904F090FF20B920B0BDE82A
:10278000F047FFF7FBBD0C222046854904F085FF8A
:1027900020B920B0BDE8F047FFF78EBE03222046E7
:1027A000804904F07AFF804D2E7830B10322204614
:1027B0007E4904F072FF002879D1002E96D1632261
:1027C000214607A804F07BFF002307A88DF87F307F
:1027D000FEF7ECFF0546002865D104222046744927
:1027E00004F05BFF002876D1724B1868FEF776FA8A
:1027F0007149FEF77BFB714B06461868FEF76EFACF
:102800006D49FEF773FB6E4B80461868FEF766FA5B
:102810006C49FEF76BFB81463046FEF78FFC0446A1
:102820004046FEF78BFC07464846FEF787FC82468B
:10283000FEF754FA01464846FEF79AF96249FEF758
:10284000A1FAFEF77BFC0028B8BF4042CDE903A007
:102850003846FEF743FA01464046FEF789F95A49E1
:10286000FEF790FAFEF76AFC0028B8BF4042CDE9B7
:1028700001702046FEF732FA01463046FEF778F93D
:102880005149FEF77FFAFEF759FC0028B8BF4042D5
:102890000090234640F2B6314C4A4D4804F05AFEAF
:1028A0004B48FFF719F82846FEF794FF10E0002E7A
:1028B00085D02046FFF7BEFB28B1464820B0BDE8D2
:1028C000F047FFF709B8444B28701870434B186065
:1028D00020B0BDE8F08704222046414904F0DDFE27
:1028E00010B9FFF78FF8DEE7042220463D4904F0D7
:1028F000D4FE10B9FEF712FDD5E7042220463A496E
:1029000004F0CBFE0028CED13849314804F05DFFF9
:102910002F48FEF7E1FFFEF7D3FF354E354C364921
:1029200000280CBF32462246294804F049FE2848B8
:10293000FEF7D2FF5920FFF795F9304900280CBF68
:1029400032462246224804F03BFE2148FEF7C4FFEF
:102950005A20FFF787F92A4900280CBF3246224641
:102960001B4804F02DFE1A48FEF7B6FF40F2B632BF
:102970002946174804F089FE95E700BF26BE0008E7
:1029800034BE000841BE00084DBE00085BBE000812
:1029900069BE000876BE000885BE00088ABE000831
:1029A0008FBE00089CBE00089E030020A0BE000849
:1029B000A4BE00085C23002000009E425823002093
:1029C0005423002000A075450000C842A9BE00089D
:1029D000602300208DB000089D030020A403002088
:1029E000C9BE0008CEBE0008D3BE0008D8BE00088D
:1029F00021BE000819BE0008F3BE0008FFBE000893
:102A00000BBF000870B594B000F076FE274C284B41
:102A100022681B689A4211DB2649274804F0D5FE3C
:102A20002548FEF759FF40F2B6320021224804F053
:102A30002CFE0022214B1A7014B070BD5026204D80
:102A4000204906FB02531C48013204F0B9FD1A4824
:102A5000FEF742FF40F2B6320021174804F015FE9F
:102A600021684F2206FB01510026684604F027FE2C
:102A700068468DF84F60FEF799FE054603F0D2FCDC
:102A8000236801330DB92360D6E72A460E490A4868
:102A900004F096FD0848FEF71FFF40F2B6323146BB
:102AA000054804F0F2FD054B1E70C5E7A0030020A9
:102AB000A403002017BF0008602300209C0300200F
:102AC000A803002041B800085BB80008144B70B59B
:102AD0001B780BB1FFF796FF124D2B7873B10022D4
:102AE000114E12493068124C824208DB00246422E5
:102AF00021460E48346004F0C8FD2C7070BD11F8FA
:102B0000013B093BDBB2172B05D824FA03F3DB07A3
:102B100001D50132E8E70548FFF7D4FDE6E700BF3D
:102B20009C030020E8220020EC220020F02200205C
:102B30001300800038B505460A4C00F0D1F92A464A
:102B40000949204604F03CFD2046FDF701FB81B217
:102B5000204603F09DFCBDE83840012203481146A1
:102B600000F032BF602300203ABF0008000C014093
:102B700010B5044600F0C0FD124A1368C31A312B89
:102B80001ED9B4F5005F10600ED0B4F5804F11D09F
:102B9000B4F5805F14D10C4B1B68002B10DD58205E
:102BA000BDE81040FFF7C6BF084B1B68002B07DDD0
:102BB0005920F5E7064B1B68002B01DD5A20EFE793
:102BC00010BD00BF980300205C2300205823002084
:102BD0005423002008B572B600F082F91B21094881
:102BE00003F056FC01220848114600F0EDFE064CA9
:102BF0002046012100F0EDFE4FF4FA7000F082FD56
:102C0000F6E700BF71BF0008000C014070B594B03A
:102C1000142200210CA804F038FD142210250021F4
:102C20000DEB020004F031FD2A46002101A804F05A
:102C30002CFD01244FF480330226CDE90A43CDE96F
:102C400011634FF480130AA80E94139301F07AFDD8
:102C500008B1FFF7BFFF0F23CDE905364FF48063BE
:102C60000790CDE90830214605A801F02DFF002886
:102C7000EFD14FF4800301A80195049301F0E0FF28
:102C80000028E6D114B070BD00B589B000F016FD83
:102C9000FFF7BCFF03F086FBFEF728FE01220221AE
:102CA0003B4800F091FE0E213A4803F0F1FB102260
:102CB00000210DEB020004F0E8FC374B40F2DB3161
:102CC0009A69334842F020029A619A69002402F01E
:102CD00020020192019A9A69012542F004029A6148
:102CE0009A69022602F004020292029A9A6942F05C
:102CF00008029A619B69002203F008030393039B77
:102D000000F062FE00224FF4E061244800F05CFE17
:102D100040F2DB331E4804A9CDE90435CDE906466F
:102D200000F078FD4FF4E0421D4B194804A9CDE9AD
:102D30000423069500F06EFD4FF4E063174804A9E4
:102D4000CDE90435CDE9064600F064FD2146224672
:102D5000282000F0FBFC282000F028FD4FF416533B
:102D600010481149C0E90244C0E900130C23046172
:102D7000C0E90534C46102F017F808B1FFF72AFF73
:102D800003F08CFA03F04EFBFFF7A0FEFAE700BF5A
:102D9000000C01408DBF00080010024000080140F7
:102DA000000011101827002000440040064B074A7D
:102DB0001B680749B3FBF2F3434348684A68121A99
:102DC0009A42FBD3704700BF0C00002040420F0026
:102DD000001000E00000000010B500210446FEF7DE
:102DE00079F9C0B920461049FDF7CCFF002104460F
:102DF000FEF770F978B92046FDF716FB02460B4640
:102E000007A1D1E90001FDF791FCFDF73DFEC828BF
:102E100038BFC82010BD4FF44870FBE7AFF3008007
:102E20000000000080842E4100A0754510B5084CBC
:102E300001224021204600F0C7FD0220FFF7B6FF27
:102E40002046BDE810400022402100F0BDBD00BF7B
:102E5000000C014010B5094C01224FF400712046CE
:102E600000F0B2FD0220FFF7A1FF2046BDE81040B0
:102E700000224FF4007100F0A7BD00BF000C01401C
:102E800010B5094C01224FF48071204600F09CFDE2
:102E90000220FFF78BFF2046BDE8104000224FF4D0
:102EA000807100F091BD00BF0008014010B50A4CD0
:102EB000002220464FF4807100F086FD204600225B
:102EC000102100F081FDBDE8104000224FF4806128
:102ED000024800F079BD00BF000C0140000801402D
:102EE00010B50A4C012220464FF4807100F06CFDB1
:102EF00020460122102100F067FDBDE810400122AC
:102F00004FF48061024800F05FBD00BF000C01403B
:102F1000000801402DE9F04F87B09B469DF84030F6
:102F20000D4605938F4B01461B68064614460493D5
:102F3000FEF7EEF8002840F005818B493046FDF79A
:102F400021FFFEF7FBF80090884B29461B682846B6
:102F50000393FEF7DDF8002840F0F7808249284609
:102F6000FDF710FFFEF7EAF80190814B214620465D
:102F7000D3F80090FEF7CCF8002840F0E9807D49B6
:102F80002046FDF7FFFEFEF7D9F80290009B049A59
:102F900031469F1A019B039A3046A3EB0208029B1D
:102FA000A3EB090AFEF7B4F8002840F0D480049897
:102FB000FDF794FE6C49FDF799FF01463046FDF799
:102FC000D7FD064629462846FEF7A2F8002840F01D
:102FD000C4800398FDF782FE6349FDF787FF014631
:102FE0002846FDF7C5FD054621462046FEF790F828
:102FF000002840F0B4804846FDF770FE5D49FDF7BB
:1030000075FF01462046FDF7B3FD81463146304647
:10301000FDF7B8FE294604462846FDF7B3FE0146F3
:103020002046FDF7A7FD494604464846FDF7AAFE9F
:1030300001462046FDF79EFDFDF7F6F906F0BEFBC2
:10304000059B04460D4613B14B4BD3F800B04B4BD8
:1030500059461E683046FEF733F800B95E462FB178
:10306000FA4380214648D20F00F0AEFCB8F1000FC1
:1030700006D06FEA080208214148D20F00F0A4FCF4
:10308000BAF1000F06D04FF400713E484FEADA72F1
:1030900000F09AFC002FB8BF7F42B8F1000FB8BF14
:1030A000C8F1000847453B46B8BF43468AEAEA797B
:1030B000A9EBEA794B45B8BF4B469A46002B3ED068
:1030C00029462046FDF700FD014630464FEA6A0BCF
:1030D000FFF782FE5D465C4600260490BB44DA455D
:1030E00044444D44D6BF01200020ABEB0A0BA2455F
:1030F000D6BF01210021A4EB0A04AA45D6BF0123B3
:103100000023A5EB0A05039318B10591FFF78EFE86
:10311000059909B1FFF79EFE039B0BB1FFF7B0FEC7
:1031200004980136FFF742FEB245D7D10D4B009A05
:103130001A600E4B019A1A600D4B029A1A6007B082
:10314000BDE8F08F049B0093FEE6039B01930CE720
:10315000CDF808901AE7002634E7002544E74FF041
:10316000000953E75C23002000009E425823002002
:103170005423002000A0754504000020000000201A
:10318000000C0140000801402DE9F04F8BB008937E
:10319000B34B8046186816460F46FDF79FFDB14BAE
:1031A00005461868FDF79AFDAF4904464046FDF70D
:1031B000E9FDAD4904903846FDF7E4FDAA490690C3
:1031C0003046FDF7DFFD294603900498FDF7D0FC5B
:1031D000214606460698FDF7CBFC3146834630462D
:1031E000FDF7D0FD594607465846FDF7CBFD014691
:1031F0003846FDF7BFFCFDF717F906F0DFFAFDF7DB
:1032000063FC0746FDF710F9039B804623F000405E
:103210008946FDF709F902460B46FCF7A7FF02466F
:103220000B4640464946FDF7E7FB28B18F480BB0F7
:10323000BDE8F04FFEF750BB04992846FDF79AFC15
:103240004FF07C51FDF79EFD069981462046FDF723
:1032500091FC4FF07C51FDF795FD4FF07C5180467D
:103260003846FDF78FFD039909900846FDF78AFD62
:10327000099982460846FDF785FD01465046FDF74F
:1032800077FCFDF7D1F806F099FAFDF71DFC3946F9
:1032900082460BF10040FDF729FE39468346304651
:1032A000FDF724FE089B064659465046002B00F0C9
:1032B000B680FDF767FD01464846FDF759FC3146EB
:1032C00081465046FDF75EFD01464046FDF750FC45
:1032D000804649462846FDF74BFCFDF7A5F8064613
:1032E0000F4620464146FDF743FCFDF79DF8324668
:1032F0003B4606F061FAFDF7E7FB49468346049832
:10330000FDF736FCFDF790F804460D460698414659
:10331000FDF72EFCFDF788F822462B4606F04CFA06
:10332000FDF7D2FB5946FDF723FC089B044600211C
:10333000002B00F08280FDF7E1FE50B12046FDF742
:1033400073F845A3D3E90023FCF70EFFFDF7BCFBA0
:1033500004460125DFF810A10398FDF765F8CDE9D3
:1033600004012846FDF7BAFC4149FDF7BFFD21469F
:10337000FDF708FD5946FDF7FDFBFDF755F806463C
:103380000F4606F03FFACDE906013046394606F011
:103390007FFA384B0646186840F65A7390FBF3F0F4
:1033A0000F46FDF79BFC32463B460890DDE90401E1
:1033B000FDF792F8064640460F46FDF735F80246FF
:1033C0000B4630463946FCF7D1FEFDF77DFB5146F2
:1033D000FDF78CFDDDE906230990DDE90401FDF729
:1033E0007BF8064648460F46FDF71EF802460B4698
:1033F00030463946FCF7BAFEFDF766FB5146FDF74D
:1034000075FD012300931C4B089A1B68099901352F
:10341000FFF780FD332D9FD10BB0BDE8F08FFDF796
:10342000B1FC4946FDF7A6FB314681465046FDF703
:10343000A9FC4146FDF79EFB4AE7FDF741FE002847
:1034400087D02046FCF7F0FF03A3D3E90023FCF765
:103450008DFE7BE7AFF30080182D4454FB2119400B
:103460005C2300205823002000009E429CBF0008DF
:103470000000484254230020040000200E4B82B07C
:103480009A6942F001029A619A6902F0010200927F
:10349000009ADA6942F08052DA61DB69074A03F088
:1034A00080530193019B536823F0E06343F0007362
:1034B000536002B0704700BF00100240000001409E
:1034C00010B5044686B01022002102A804F0DDF8F1
:1034D0002268164B9A4226D103F5E633DA6914487E
:1034E00042F40032DA61DA6902A902F40032009291
:1034F000009A9A6942F004029A619B69042203F0DF
:1035000004030193019B0223CDE9022303230593C6
:1035100000F080F9082100230548CDE9021302A933
:10352000049300F077F906B010BD00BF00440040DE
:1035300000080140FEE7FEE7FEE7FEE7FEE7704712
:103540007047704700F0CCB8014800F0E7BA00BF00
:10355000CC45002008B54FF4805000F043FA4FF4FA
:10356000005000F03FFABDE808404FF4804000F002
:1035700039BA0120704708B504F0FAF81623036041
:103580004FF0FF3008BD08B504F0F2F816230360D1
:10359000FEE770B50D4614460E46731B9C4201DCD7
:1035A000204670BDAFF3008006F8010BF5E770B55B
:1035B0000D4614460E46731B9C4201DC204670BD2E
:1035C00016F8010BAFF30080F5E74FF0FF307047BE
:1035D0004FF4005300204B607047012070470020DB
:1035E000704700000B4A0346116810B509B90A4933
:1035F0001160106809490A4C0344091B8B4206D923
:1036000004F0B6F80C2303604FF0FF3010BD1360D8
:10361000FCE700BF60270020F04900200050002098
:103620000004000070470000FFF7FCFF0B480C4946
:103630000C4A002302E0D458C4500433C4188C420E
:10364000F9D3094A094C002301E013600432A24275
:10365000FBD304F093F8FFF717FB7047000000203E
:103660005003002068C6000850030020F0490020E5
:10367000FEE7000038B50E4B05461A784FF47A7312
:10368000B3FBF2F30B4A1068B0FBF3F000F0AEF8B6
:10369000044658B90F2D09D8024629464FF0FF308D
:1036A00000F054F82046044B1D6038BD0120FCE7B3
:1036B000100000200C00002014000020074A08B56C
:1036C0001368032043F01003136000F02DF80F205F
:1036D000FFF7D0FFFFF7D2FE002008BD0020024018
:1036E000034A044B11681B780B441360704700BFFA
:1036F0006427002010000020014B1868704700BFAD
:103700006427002038B50446FFF7F6FF0546631C22
:103710001EBF044B1B78E418FFF7EEFF431BA342C8
:10372000FAD338BD1000002007490302CA6803F429
:10373000E06322F4E0621204120C134343F0BF630F
:1037400043F40033CB60704700ED00E0154B30B51B
:10375000DC68C4F30224C4F10703251D042B28BF31
:103760000423062D4FF0FF3594BF0024033C05FAD7
:1037700003F321EA0303A54022EA0502A34000283F
:1037800043EA0203ACBF00F16040074A4FEA03136B
:10379000DBB2ABBF00F5614000F00F0080F80033F2
:1037A000135430BD00ED00E014ED00E0002807DB0D
:1037B00001234109034A00F01F00834042F82130F1
:1037C000704700BF00E100E000280CDB0122064941
:1037D000430900F01F008240203341F82320BFF34B
:1037E0004F8FBFF36F8F704700E100E00138B0F1F9
:1037F000807F0BD24FF0E023F021054A586182F818
:1038000023100020072298611A6170470120704739
:1038100000ED00E02DE9F74F00244FF00F0E264693
:10382000DFF884C1614B00F104080A6832FA06F53A
:1038300002D103B0BDE8F08F012505FA06F702EAD0
:10384000070537EA020276D14A68032A07D8013A07
:10385000022A00F28380DFE802F091969C00122A8F
:1038600000F0948069D8112A00F08A80FF2D94BF5F
:103870008146C1464FEA8602D9F8007088BF203AD7
:103880000EFA02FA27EA0A0704FA02F21743C9F805
:103890000070D1F8049019F0805F4CD0DCF818204B
:1038A00026F0030742F00102CCF81820DCF81820BB
:1038B00007F1804702F00102019207F5803706F018
:1038C000030A019A4FEA8A0ABA680EFA0AFB22EA48
:1038D0000B0B374A904260D002F5806290425ED076
:1038E00002F5806290425CD002F58062904214BF83
:1038F0000422032202FA0AF242EA0B02BA609A6830
:1039000019F4801F14BF2A43AA439A60DA6819F495
:10391000001F14BF2A43AA43DA605A6819F4003F13
:1039200014BF2A43AA435A601A6819F4803F14BF8F
:103930002A43AA431A60013677E7DFF878904A45B0
:103940000CD014D8A9F580194A4507D009F570297B
:103950004A4503D0A9F580194A4587D18A68D2B172
:10396000012A4FF008040CBF076147617EE7DFF8CA
:1039700048904A45F2D009F58039EDE7CC6875E703
:10398000CC68043472E7CC6808346FE7CC680C3438
:103990006CE700246AE7042468E70022AAE7012212
:1039A000A8E70222A6E700BF001002400004014081
:1039B0000008014000002210000031108368194205
:1039C00014BF0120002070470AB10161704709044B
:1039D000FBE7C36801EA030221EA030141EA02416D
:1039E00001617047044A08B55169014202D0506133
:1039F000FFF7BEF808BD00BF00040140F8B504465B
:103A0000E0B190F8913203F0FF021BB980F89022E8
:103A100002F0CEFD032384F8913200232546637122
:103A200055F8040B01F0FFF995E80E00206801F04D
:103A3000EAF9014628B1022384F89132012528468B
:103A4000F8BD206801F0F9F90028F4D102460127F9
:103A5000267904F11003C1B28E4203F1280318D86D
:103A600000210A4604F5A873C8B2864203F1280370
:103A70001BD895E80E00206801F0E1F90546002802
:103A8000D9D101236073206884F8913201F08CFC55
:103A9000D5E743E9062203F8277C03F8281C03F83E
:103AA000252C43F8102C0130D5E743E9062203F812
:103AB000272C03F8280C03F8252C43F8102C01318F
:103AC000D2E738B590F890320446012B10D001258A
:103AD00080F89052006801F09DF92946204602F0D6
:103AE0006EFE206801F05EFC002084F8900238BD74
:103AF0000220FCE710B590F890220446012A0AD073
:103B00000122417380F89022006801F045FC0020FA
:103B100084F8900210BD0220FCE700002DE9F04F70
:103B2000044685B0006801F041FC10F4004500F047
:103B30004F842825C64E2068B0F844301F0402D4B4
:103B400005B0BDE8F08FB0F8443013F00F0799B21C
:103B500040F0C08011F0100126D103889BB23340A1
:103B600043F400430380B0F85030227C9BB203EB57
:103B7000C20300EB4303B3F80434626AC3F30903DE
:103B80001A44E3622046626202F041FD637B002B2F
:103B9000D1D0A26A2168002ACDD1637B43F0800393
:103BA000A1F84C306273C6E70788BBB217F4006710
:103BB00021D0B0F8503094F850219BB203EBC203EF
:103BC00000EB4303B3F80C34B4F85621C3F30903F4
:103BD000C4F86C3104F5267101F033FE22682046EA
:103BE000138823F070031B051B0D43F08003138023
:103BF00002F0FEFC9FE719049DD5038823F07003B3
:103C00001B051B0D43F080030380B0F8503094F87F
:103C100050219BB203EBC20300EB4303B3F80C3417
:103C2000C3F30903C4F86C318BB1D4F8641171B1DA
:103C3000B4F8562101F005FED4F86431D4F86C21B3
:103C4000394613442046C4F8643102F0D7FC216899
:103C50000A8893B212053FF56EAF03F44053B3F5F3
:103C6000405F3FF468AFB1F8502001F20C4092B2CF
:103C7000835AC3F309038352D4F860313E2B1DD914
:103C80005F09DB06835A08BF07F1FF379BB243EA9F
:103C900087236FEA43436FEA53439BB283520B88F7
:103CA00023F4804323F070031B041B0C83F4405364
:103CB00043F4004343F080030B803CE70BB9835A85
:103CC000E7E75F08DB07835A48BF01379BB243EA47
:103CD0008723E2E730F8273019041FFA83F840F110
:103CE000F68030F8273005FB074123F070031B05F1
:103CF0001B0D43F0800320F8273091F85C3100F56C
:103D0000806EBBB9B0F8503091F850219BB20633A9
:103D100003EBC2033EF81390C9F30909B9F1000F90
:103D200000F0BA804B46B1F85621D1F8641101F089
:103D300088FDB1E091F8533191F85021022B40F009
:103D40008980B0F850904FEAC20B1FFA89F918F435
:103D5000804AD1F86831D94408F0400C3CD009F1D0
:103D600002093EF81990C9F30909994513D90023AE
:103D7000C1F8683130F8223023F4804323F0700317
:103D80001B041B0C83F4005343F4004343F08003F3
:103D900020F8223005E0A3EB0903C1F86831002BBD
:103DA000E8D0BCF1000F0DD030F8223023F4E0430E
:103DB00023F070031B041B0C43F4004343F0C003C7
:103DC00020F82230B9F1000F66D0282101FB07410D
:103DD0004B46B1F85821A8E709F106093EF81990B9
:103DE000C9F30909994512D9C1F868A130F8223000
:103DF00023F4804323F070031B041B0C83F4005353
:103E000043F4004343F0800320F8223005E0A3EBA5
:103E10000903C1F86831002BE8D0BCF1000F0DD1C7
:103E200030F8223023F4E04323F070031B041B0C12
:103E300043F4004343F0C00320F82230B9F1000FEF
:103E40002AD0282101FB07414B46B1F85A216CE7E3
:103E50000F8FFFFF30F8223023F4E04323F070038C
:103E60001B041B0C43F4004343F0C00320F8223032
:103E700091F8503130F82320DB0012F4804FB0F875
:103E8000502092B254D0023213443EF81390C9F33A
:103E90000909B9F1000F9BD105FB07F16318D3F8AD
:103EA0006C214A44C3F86C21D3F864214A44C3F816
:103EB0006421D3F868211AB1D3F86031994541D211
:103EC00005FB0743204693F8501102F097FB18F0CA
:103ED000800F20683FF42FAE30F8273005FB07FC39
:103EE0009BB2334043F4004320F8273004EB0C032B
:103EF000DA7C012A56D1002107FB0552A1501A7F16
:103F000092B318F040085A7C36D012BBB0F850205B
:103F10001B7C92B21B0100F2044010441A5AC2F3F7
:103F200009021A521A5A92B242F400421A521BE083
:103F3000063213443EF81390C9F30909B9F1000F92
:103F4000AAD081E701F5A8712068214401F044FA64
:103F5000BDE7012A08D1B0F850201B7C92B200F2D4
:103F600004401B0110441952282303FB0743197C0A
:103F7000204602F04CFBDEE53AB9B0F850201B7C3D
:103F800092B21B0100F20C40C7E7012AECD1B0F855
:103F900050201B7C92B200F20C401B01104423F80D
:103FA0000080E1E7197C18F4807E9A6A4FEAC10A22
:103FB00000F580691BD1B0F85070BFB2574402378A
:103FC00039F81770C7F30907974202D3C3F828E0FE
:103FD000CEE7D21B9A625A6A0CF110013A445A6237
:103FE000DA6A21443A44DA6201F0F6F9A3E5B0F85E
:103FF00050C018F0400E1FFA8CFCD44408F48048DE
:1040000000F0F4800CF1020C39F81CC01FFA88F89B
:10401000CCF3090C94452CBF0022A2EB0C029A624F
:10402000002A5BD1282303FB07435B7C002B41D193
:10403000B0F8502000F2044C92B20B0194443CF8CA
:104040000320C2F309022CF803203CF803206FEA96
:1040500042426FEA524292B22CF80320B0F850204C
:1040600000F20C4092B21044C25AC2F30902C2528A
:10407000C25A6FEA42426FEA524292B2C25220469C
:1040800002F0C5FAB8F1000F00F0F480282303FB1A
:1040900007432268197C32F8213023F4E04323F0EF
:1040A00070031B041B0C43F4404343F0800322F8CD
:1040B0002130DFE0012BE2D1B0F850E000F2044CF7
:1040C0001FFA8EFEF4440B012CF80320B0F850C008
:1040D00000F20C401FFA8CFC6044CFE7B8F1000FEF
:1040E0000DD030F8212022F4E04222F070021204B8
:1040F000120C42F4404242F0800220F821204FF09E
:10410000280808FB074898F83420012A40F0B280BC
:10411000D8F8242002EB0C0EC8F824E0DA6A6244D6
:10412000DA62D8F83030D8F82020934235D39B1A81
:10413000C8F83030282303FB074393F811C093B22B
:10414000BCF1000F45D1B0F8508000F2044C1FFACA
:1041500088F8C44409013CF801803E2AC8F30908E4
:104160002CF8018025D94FEA5218D2063CF80120DC
:1041700008BF08F1FF3892B242EA88226FEA424251
:104180006FEA524292B22CF80120282202FB074229
:10419000128B714601F010F96CE01BB9624688F889
:1041A0003430C7E7002288F83420C8F830201A4697
:1041B000C0E712B93CF80120E0E74FEA5208D20705
:1041C0003CF8012048BF08F1010892B242EA882277
:1041D000D8E7BCF1010FD8D1B0F850C000F20442CA
:1041E0001FFA8CFC624409015352CEE70CF1060C15
:1041F00039F81CC01FFA88F8CCF3090C94458CBF21
:104200007246A2EB0C029A62002A5DD1282303FBBE
:1042100007435B7C002B43D1B0F8502000F2044CE4
:1042200092B20B0194443CF80320C2F309022CF82B
:1042300003203CF803206FEA42426FEA524292B2F6
:104240002CF80320B0F8502000F20C4092B2104439
:10425000C25AC2F30902C252C25A6FEA42426FEA1C
:10426000524292B2C252204602F0D1F9B8F1000F88
:104270003FF40CAF282303FB07432268197C32F874
:10428000213023F4E04323F040031B041B0C83F094
:10429000300343F4004343F0800322F821304AE422
:1042A000012BE0D1B0F850E000F2044C1FFA8EFE72
:1042B000F4440B012CF80320B0F850C000F20C407D
:1042C0001FFA8CFC6044CDE7B8F1000F0DD130F837
:1042D000212022F4E04222F070021204120C42F477
:1042E000404242F0800220F821204FF0280808FBCD
:1042F000074898F83420012ABCD1D8F8242002EBD2
:104300000C0EC8F824E0DA6A6244DA62D8F8303079
:10431000D8F82020934232D39B1AC8F83030282393
:1043200003FB074393F811C093B2BCF1000F42D1D5
:10433000B0F8508000F20C4C1FFA88F8C444090110
:104340003CF801803E2AC8F309082CF8018022D9E4
:104350004FEA5218D2063CF8012008BF08F1FF3896
:1043600092B242EA88226FEA42426FEA524292B225
:104370002CF80120282202FB0742528B09E71BB9C7
:10438000624688F83430CAE70022C8F8302088F83E
:1043900034201A46C3E712B93CF80120E3E74FEA9C
:1043A0005208D2073CF8012048BF08F1010892B238
:1043B00042EA8822DBE7BCF1010FDBD1B0F85020E4
:1043C00000F20C4C92B294440A012CF80230D1E76E
:1043D000460512D522682046B2F8443023F48063A3
:1043E0001B041B0CA2F8443002F01DF9294620469C
:1043F00005B0BDE8F04FFFF77DBB41040AD5226848
:10440000B2F8443023F480431B041B0CA2F8443060
:10441000FFF796BB820405D52268B2F8443023F436
:104420000053F1E7C30419D522682046B2F84030A2
:1044300023F004031B041B0CA2F84030B2F84030F8
:1044400023F008031B041B0CA2F8403002F00EF905
:104450002268B2F8443023F48053D5E7070548D5E5
:1044600068462368064619461A4603F1200532F8C5
:10447000047B954226F8027BF9D1B3F8402092B232
:1044800042F00102A3F84020B3F8402022F00102DC
:104490001204120CA3F84020B3F844205605FBD5B3
:1044A000B3F8442022F480621204120CA3F84420D2
:1044B00030F8022B21F8042B8D42F9D1B3F84020BB
:1044C000204692B242F00802A3F84020B3F84420FC
:1044D00022F400621204120CA3F84420B3F8402026
:1044E00092B242F00402A3F8402002F0AFF8FFF7C6
:1044F00027BB82050DD522682046B2F8443023F44C
:1045000000731B041B0CA2F8443002F088F8FFF77C
:1045100017BBC3057FF514AB2268B2F8443023F40F
:10452000807371E770B52824054601F00700444305
:1045300011F0800F14BF04F1100104F5A87105EB10
:10454000040615BF01240024747486F8514114BF79
:1045500049194919022BCB7008BF0023087008BF06
:104560000B710A6195F89032012B09D0012328685C
:1045700085F8903200F074FC002085F8900270BD40
:104580000220FCE7282301F00702534311F0800FBB
:1045900010B5044618BF03F1100118440BBF03F512
:1045A000A8710123002309190ABF0919437480F86F
:1045B00051310A7094F89032012B09D00123206800
:1045C00084F8903200F0ACFD002084F8900210BD19
:1045D0000220FCE770B52824002601F007014C43B7
:1045E000051985F8501104F5A8710144C5E959234E
:1045F000C5F86C6185F85161006800F0EDFE304649
:1046000070BD282301F0070103FB0100D0F86C0105
:10461000704770B5282501F007014D434419002665
:10462000C4E909230122217405F11001014484F831
:1046300034202363E6626274006800F0CDFE3046E9
:1046400070BD38B5037901F00705AB4204462AD3A3
:1046500011F0800F4FF028031CD001226B4303F1AF
:104660001001034401445A7401230D708B7094F8B7
:1046700090229A4219D0206884F8903200F023FEEC
:1046800025B9206804F5267100F094FE002084F816
:10469000900238BD00224B4303F5A8710344014446
:1046A00083F85121E0E70120F3E70220F1E738B574
:1046B000027901F00F039A42044626D3282301F021
:1046C0000702534311F0800F14BF03F1100103F5EB
:1046D000A87118444FF0000515BF012300230919E4
:1046E000091914BF437480F851318D700A7094F821
:1046F0009032012B0BD00123206884F8903200F017
:1047000002FE284684F8905238BD0120FCE70220C2
:10471000FAE710B5282411F0800F1BBF01F0070144
:1047200004FB010004FB0100103008BF00F5A87075
:1047300099B21AB90273C180002010BD01228360B2
:104740000273F9E72DE9F341054638B30368DB0747
:1047500010D42B689F075ED42B68190700F1958051
:104760002B685A0700F1C180EB69002B40F02C81C7
:10477000002029E0904C636803F00C03042B07D061
:10478000636803F00C03082B0AD16368DE0307D5C6
:1047900023689C03DDD56B68002BDAD1012013E080
:1047A0006B68B3F5803F12D1236843F480332360F4
:1047B000FEF7A2FF064623689803CAD4FEF79CFFC3
:1047C000801B6428F7D9032002B0BDE8F0819BB9B3
:1047D000236823F480332360236823F48023236039
:1047E000FEF78AFF064623689903B2D5FEF784FFD9
:1047F000801B6428F7D9E6E7B3F5A02F236803D11F
:1048000043F480232360CFE723F4803323602368BD
:1048100023F48023CBE7684C636813F00C0F07D0B8
:10482000636803F00C03082B10D16368DA030DD41E
:1048300023689B0702D52B69012BAFD123686A69D6
:1048400023F0F80343EAC203236085E72A695B4B40
:104850006AB101221A60FEF74FFF064623689F07E0
:10486000ECD4FEF749FF801B0228F7D9ABE71A60AA
:10487000FEF742FF0646236898077FF56DAFFEF707
:104880003BFF801B0228F6D99DE7AA694A4E4B4B95
:10489000E2B10122C3F88024FEF72EFF0446736ABA
:1048A0009B070DD54FF4FA52454B1B68B3FBF2F34F
:1048B000019300BF019B5A1E0192002BF9D14FE7D3
:1048C000FEF71AFF001B0228E9D97CE7C3F8802411
:1048D000FEF712FF0446736A9F077FF541AFFEF7AC
:1048E0000BFF001B0228F6D96DE7334CE369D800B3
:1048F00024D40127E36943F08053E361E36903F0C3
:1049000080530093009B2F4E3368D90518D5EB6870
:10491000012B26D1236A43F001032362FEF7ECFE4C
:1049200041F288380646236A9B073FD5002F3FF4A3
:104930001BAFE36923F08053E36115E70027E2E74B
:10494000336843F480733360FEF7D6FE80463368E5
:10495000DA05DCD4FEF7D0FEA0EB08006428F6D917
:1049600031E7ABB9236A41F2883823F001032362AF
:10497000236A23F004032362FEF7BEFE0646236A81
:104980009807D3D5FEF7B8FE801B4045F7D91AE744
:10499000052B236A03D143F004032362BAE723F013
:1049A00001032362236A23F00403B6E7FEF7A4FEA3
:1049B000801B4045B7D906E7001002400000424284
:1049C0000C000020007000402A4C626802F00C02CB
:1049D000082A3ED00022022B274B1A662CD1FEF764
:1049E0008BFE06462368990120D42B6AB3F5803FDD
:1049F00005D16268A96822F400320A436260696ADC
:104A000062680B4322F474121343012263601A4B51
:104A10001A66FEF771FE054623689A013FF5A8AEB7
:104A2000FEF76AFE401B0228F6D9CCE6FEF764FECC
:104A3000801B0228D6D9C6E6FEF75EFE054623682F
:104A40009B017FF595AEFEF757FE401B0228F6D975
:104A5000B9E6012B3FF4A2AE60682B6A00F4803205
:104A60009A427FF49BAE6B6A00F47010C01A18BFB4
:104A70000120A9E600100240000042420D4A53689E
:104A800003F00C01082912D10B48C3F38341DB0367
:104A9000405C09D55368094AC3F340435043084A70
:104AA000D35CB0FBF3F07047064B584370470348A4
:104AB000704700BF0010024096C1000800127A0043
:104AC00094C1000800093D002DE9F0410D4604465F
:104AD00010B90120BDE8F081444A136803F00703D0
:104AE0008B4228D321688E0730D4CA0743D43F4A6B
:104AF000136803F00703AB4265D822683C4D12F0FF
:104B0000040F6CD1130706D56B68226923F4605338
:104B100043EAC2036B60FFF7B1FF6B68354AC3F32A
:104B20000313D35CD840344B1860344B1868FEF73D
:104B3000A1FD0020CEE7136823F007030B431360A9
:104B4000136803F007038B42C3D1CBE7284B11F066
:104B5000040F1EBF5A6842F4E0625A60080742BF61
:104B60005A6842F460525A605A68A06822F0F00213
:104B700002435A60B9E762681D4E012A33681AD1B0
:104B800013F4003FA5D0736841F2883823F0030383
:104B900013437360FEF7B0FD07467368626803F065
:104BA0000C03B3EB820FA2D0FEF7A6FDC01B40455D
:104BB000F3D903208EE7022A02D113F0007FE1E748
:104BC00013F0020FDEE7136823F007032B43136093
:104BD000136803F00703AB427FF47BAF8DE76B688C
:104BE000E16823F4E0630B436B608BE70020024035
:104BF0000010024084C100080C00002014000020B6
:104C0000044B054A5B68C3F30223D35C034A106874
:104C1000D8407047001002407CC100080C00002002
:104C2000044B054A5B68C3F3C223D35C034A106894
:104C3000D8407047001002407CC100080C000020E2
:104C400003682DE9F3410546D80721D5364CE369C1
:104C5000D9002BD40126E36943F08053E361E36973
:104C600003F080530193019B304F3B68DA051FD559
:104C7000236A6A6813F440732ED1236A6A6823F4A6
:104C80004073134323621EB1E36923F08053E36151
:104C90002A68910706D52449A8684B6823F4404345
:104CA00003434B60D30636D4002012E00026DBE736
:104CB0003B6843F480733B60FEF71EFD80463B6813
:104CC000DB05D5D4FEF718FDA0EB08006428F6D963
:104CD000032002B0BDE8F08102F440729A42CCD0C9
:104CE0000120134A236AC2F84004002023F44071D3
:104CF000DF07C2F840042162BFD5FEF7FDFC41F298
:104D000088380746236A9807B7D4FEF7F5FCC01B1E
:104D10004045F7D9DCE7044AE968536823F4800387
:104D20000B435360C0E700BF00100240007000401A
:104D30000000424210B504460368C1681A6922F4B3
:104D400040520A431A6182680069D9680243606967
:104D500021F4B05121F00C0102430A43DA605A6990
:104D6000A16922F440720A435A610E4A934215D156
:104D7000FFF756FF19234343626820689200B3FB94
:104D8000F2F36422B3FBF2F102FB11331B01323365
:104D9000B3FBF2F303EB0113836010BDFFF730FFA9
:104DA000E8E700BF0038014010B5044648B390F86A
:104DB000413003F0FF021BB980F84020FEF780FB72
:104DC0002423226884F84130D368204623F400531A
:104DD000D360FFF7AFFF236800201A6922F49042E6
:104DE0001A615A6922F02A025A61DA6842F40052C2
:104DF000DA602023606484F8413084F842306063D4
:104E000010BD0120FCE784B004A800E90E000020DA
:104E100004B0704703464FF43F420020A3F844001B
:104E2000A3F840207047B0F8403023F47C535B0473
:104E30005B0CA0F8403000207047002070471FB581
:104E4000044604A800E90E0000200123A4F8403025
:104E5000A4F84000A4F84400A4F8500004B010BD29
:104E6000F0B50A78CD7830F82240034624F4EC44BB
:104E700024F070042404240C032D03D8DFE805F08B
:104E800041494745012048F28006344323F8224037
:104E900033F822409F4FA4B23C401443344323F8DC
:104EA00022400C7B03EB021C002C40F08D80CC8850
:104EB0004E78640864007EB3B3F8501089B2614440
:104EC000A1F8004433F82210490609D533F822101E
:104ED00089B2394041F4004141F0C00123F8221069
:104EE00033F822108C4C89B2012D01EA040101D063
:104EF00081F0200141F4004141F0800123F82210AB
:104F00004CE0284644F40074BDE744F4C06400203B
:104F1000B9E744F48064FAE7B3F850500969ADB2D8
:104F20006544A5F80844B3F850403E29A4B264444F
:104F3000B4F80C54C5F30905A4F80C542FD94D0945
:104F4000CE06B4F80C1408BF05F1FF3589B241EA6A
:104F500085216FEA41416FEA514189B2A4F80C14EE
:104F600033F822104F040DD533F8221021F4E0411C
:104F700021F070010904090C41F4404141F0800125
:104F800023F82210654CC2B91A8892B2224082F4EA
:104F9000405242F4004242F080021A80F0BD11B942
:104FA000B4F80C14D5E74D08C907B4F80C1448BF81
:104FB000013589B241EA8521CFE733F8221089B261
:104FC000214081F4005195E7022D33F822405BD156
:104FD000A4B23C4044F4014444F0800423F822404D
:104FE000B3F850400E89A4B2760864447600A4F861
:104FF00000644E89B3F850407608A4B26444760049
:10500000A4F808644978002948D133F822104E04E6
:105010000DD533F8221021F4E04121F0700109048C
:10502000090C41F4404141F0800123F8221033F88B
:1050300022104D060DD533F8221021F4E04121F065
:1050400070010904090C41F4004141F0C00123F84A
:10505000221048F2800433F8221021F4804121F01C
:1050600070010904090C81F44051214323F82210F6
:1050700033F8221021F4E04121F040010904090C29
:105080000C4323F8224089E724F4E24424F070041E
:105090002404240C264323F82260A1E733F82210CD
:1050A0004C040DD533F8221021F4E04121F07001B9
:1050B0000904090C41F4404141F0800123F8221019
:1050C00033F8221049060DD533F8221021F4E041BF
:1050D00021F070010904090C41F4004141F0C001C4
:1050E00023F8221033F822100B4C89B22140012DF5
:1050F00018BF81F0200141F4004141F0800123F804
:10510000221033F8221021F4804121F070010904AB
:10511000090CEFE68F8FFFFFBF8FFFFF8FBFFFFFF1
:105120004A780B78097BD9BB0AB330F823205106A3
:105130000DD530F8232022F4E04222F07002120450
:10514000120C42F4004242F0C00220F8232030F852
:10515000232022F4E04222F040021204120C42F416
:10516000004242F0800220F823200020704730F8EF
:10517000232052040DD530F8232022F4E04222F0FF
:1051800070021204120C42F4404242F0800220F8F5
:10519000232030F8232022F4804222F07002DCE742
:1051A000002A4AD130F8232051040DD530F82320AD
:1051B00022F4E04222F070021204120C42F4404247
:1051C00042F0800220F8232030F8232052060DD52B
:1051D00030F8232022F4E04222F070021204120C74
:1051E00042F4004242F0C00220F8232048F280013D
:1051F00030F8232022F4E04222F070021204120C54
:1052000042F4004242F0C00220F8232030F823206C
:1052100022F4804222F070021204120C0A4320F899
:10522000232030F8232022F4E04222F0400212042E
:10523000120C114320F8231097E730F82320510473
:105240000DD530F8232022F4E04222F0700212043F
:10525000120C42F4404242F0800220F8232030F841
:10526000232052060DD530F8232022F4E04222F00C
:1052700070021204120C42F4004242F0C00220F804
:10528000232048F2800130F8232022F4E04222F06B
:1052900070021204120C42F4404242F0800220F8E4
:1052A000232030F8232022F4E04222F040021204AE
:1052B000120C0A4320F8232030F8232022F48042E5
:1052C00022F07002B3E74B780A788BB130F82230C5
:1052D00023F4E04323F040031B041B0C83F0100372
:1052E00043F4004343F0800320F82230002070474D
:1052F00030F8223023F4804323F070031B041B0C8E
:1053000083F48053ECE70B7B3BBB4B780A7833B3D9
:1053100030F822305B060DD530F8223023F4E0431C
:1053200023F070031B041B0C43F4004343F0C00341
:1053300020F82230CB78012B0FD030F8223023F424
:10534000E04323F040031B041B0C83F0200343F4D1
:10535000004343F0800320F822300020704730F8EB
:1053600022305B040DD530F8223023F4E04323F0E3
:1053700070031B041B0C43F4404343F0800320F8EC
:10538000223030F8223023F4804323F070031B04D2
:105390001B0C83F44053DAE711B98023A0F84C309A
:1053A000002070470020704700207047B0F844008C
:1053B00080B270470020704700EB4200013300F5D7
:1053C00080605B0800EB8303834200D1704731F8B3
:1053D000022B20F8042BF7E72DE9F0474B78044621
:1053E000012B0D460A7B40F01881D1F810908F698F
:1053F00049694F4528BF4F460ABBBFB2EA883B46C2
:10540000FFF7DAFFB4F85000297880B204F20442C2
:10541000090102448F522A7834F8223023F4E04301
:1054200023F040031B041B0C83F03003002043F4E3
:10543000004343F0800324F82230BDE8F087EB7886
:1054400095F800E0022B2E6A4FEA0E1C40F0D08047
:10545000B14530F82E2080F0B48022F4E04222F0F2
:1054600070021204120C42F4014242F0800220F851
:105470002E2030F82E80B0F850E0F61B18F04008CF
:105480002E6201EB070ABBB21FFA8EFE4ED000F26D
:105490000C42724422F80C306A89FFF78DFFB14547
:1054A00036BFF31B00233E466A782B62C5F814A072
:1054B000B3B27ABBB4F85020287892B204F2044117
:1054C00000011144425A3E2EC2F30902425214D93D
:1054D000425A7709F60608BF07F1FF3792B242EA4F
:1054E00087226FEA42426FEA524292B242522A89BE
:1054F00051462046FFF760FF8DE70EB9425AF0E7AC
:10550000F207425A4FEA560748BF013792B242EAC1
:105510008722EAE7012AEAD1B4F85000297880B25C
:1055200004F20442090102448B52E0E700F2044213
:10553000724422F80C302A89FFF73EFFB14536BF8E
:10554000F31B43463E466A782B62C5F814A0B3B2FB
:105550005ABBB4F85020287892B204F20C410001F2
:105560001144425A3E2EC2F30902425210D9425A05
:105570007709F60608BF07F1FF3792B242EA8722A1
:105580006FEA42426FEA524292B242526A89AFE7F0
:105590000EB9425AF4E7F207425A4FEA560748BF9B
:1055A000013792B242EA8722EEE7012AEED1B4F83F
:1055B0005000297880B204F20C42090102448B5257
:1055C000E4E722F4E24222F070021204120C42F4E8
:1055D000004242F0800220F82E20B0F8503000F255
:1055E00004429BB21A44B3B222F80C302A8981E7F4
:1055F000F61B30F82E202E62B0F85060BBB2570672
:10560000B6B206D500F20C42324422F80C306A8958
:1056100070E700F204423244E6E7002A3BD18B698E
:105620000969B0F850008B4284BF5A1A0B4629789A
:10563000AA6180B204F20C4209010244885A3E2B4E
:10564000C0F3090088521AD95809DE068B5A08BFE0
:1056500000F1FF309BB243EA80236FEA43436FEAD5
:1056600053439BB28B522A7834F8223023F4804380
:1056700023F070031B041B0C83F44053D6E60BB9D4
:105680008B5AEAE75808DB078B5A48BF01309BB2B8
:1056900043EA8023E5E7CA78022A70D1002B38D18B
:1056A000B0F850200B7892B200F204401B01104475
:1056B000C25AC2F30902C2520A693E2A46D9C15AE5
:1056C0005609D70608BF06F1FF3689B241EA86219E
:1056D0006FEA41416FEA514189B2C152B4F85000BA
:1056E00004F20C4180B20144C85A3E2AC0F30900BA
:1056F000C85238D95009D706CA5A08BF00F1FF303E
:1057000092B242EA80226FEA42426FEA524292B279
:10571000CA52EB69002BA6D044F240032A7834F831
:10572000221003EA01008B4301D000289BD134F8FA
:10573000223023F4E04323F070031B041B0C43F4DA
:10574000004343F0C00324F822308CE70AB9C15A61
:10575000BEE7D107C15A4FEA520648BF013689B2A7
:1057600041EA8621B8E70AB9CA5ACCE75008D607F9
:10577000CA5A48BF013092B242EA8022C7E7012AE2
:105780005DD18A6909698A4294BF0020501AA861D4
:1057900088BF0A46002B7FF466AFB4F850102B7810
:1057A00089B204F204401B010844C15A3E2AC1F3E5
:1057B0000901C1522BD9D106C15A4FEA521608BF6E
:1057C00006F1FF3689B241EA86216FEA41416FEA6C
:1057D000514189B2C152B4F8500004F20C4180B278
:1057E0000144C85A3E2AC0F30900C8521BD95009C7
:1057F000D606CA5A08BF00F1FF3092B242EA8022B0
:105800006FEA42426FEA524292B2CA522BE70AB999
:10581000C15ADAE7C15A5608D70748BF013689B2DC
:1058200041EA8621D5E70AB9CA5AE9E75008D20702
:10583000CA5A48BF013092B242EA8022E4E701200E
:10584000FBE500EB4200F0B500F580605D080C461A
:1058500007462E46023436B9DB0744BF30F8253000
:1058600001F81530F0BD37F8042B013E92B204F870
:10587000022C120A04F8012CECE7D0F8BC3210B567
:105880006BB1D0F8B84294F80002FF2807D09B68AB
:10589000214694F801229847FF2384F80032002023
:1058A00010BD000043230380004870475C000020C7
:1058B0004323038000487047A00000204323038057
:1058C00000487047180000200A23038000487047F2
:1058D0001C01002038B50446D0F8B85200F066FF2D
:1058E000D4F8B832C5F80C024BB1D4F8BC32D5F8B4
:1058F0000402DB6805F503719847002038BD0220DB
:10590000FCE7F8B5D0F8B862CEB1142202FB010270
:10591000D369D0F8C05273B1282707FB0154246A19
:10592000B3FBF4F504FB15332BB9D3611A4600F031
:105930002BFF0020F8BD0023C6F81432F9E702203F
:10594000F8E70023F7B50F788DF80530ADF806308D
:1059500017F0600304460D46D0F8B86222D0202B21
:105960003AD1CA884B78BAB139060BD5D0F8BC12F7
:1059700018468F683146B84731462046EA8800F01D
:105980004DFC06E0314686F8003286F8012200F030
:105990005AFC002003B0F0BDD0F8BC028468184661
:1059A000A047F6E74B780A2B0AD00B2B10D09BB9F7
:1059B00090F89C32032B0FD102220DF10601DEE795
:1059C00090F89C32032B07D101220DF10501D6E797
:1059D00090F89C32032BDCD02046294600F0F7FBE0
:1059E0000220D7E738B504460025812100F097FE54
:1059F00001212046E56200F092FE82212046C4F893
:105A00006C5100F08CFED4F8B83225644BB1D4F858
:105A1000BC325B689847D4F8B80200F0CFFEC4F8F7
:105A2000B852002038BD70B5037C0446A3BB4FF4C8
:105A300000738121022200F066FE01214FF4007301
:105A4000E16201250222204600F05DFE08230322C8
:105A500082212046C4F86C5100F055FE4FF40770C7
:105A6000256400F0A7FE0646C4F8B802F8B1D4F8E1
:105A7000BC321B6898470023C6F81432C6F81832A7
:105A8000237C93B94FF4007329462046D6F80422AC
:105A900000F083FE002070BD40238121022200F02F
:105AA00032FE01214023E162CBE74023ECE72846A8
:105AB000F1E719B1C0F8BC1200207047022070470E
:105AC000D0F8B8320020C3F80812C3F8102270478B
:105AD000D0F8B8320020C3F804127047D0F8B822CA
