:020000040800F2
:1000000000500020153F0008193D0008213D000860
:10001000293D0008313D0008393D0008000000007E
:10002000000000000000000000000000413D00084A
:100030004D3D000800000000593D0008653D0008E6
:100040005D3F00085D3F00085D3F00085D3F000820
:100050005D3F00085D3F00085D3F00085D3F000810
:100060005D3F00085D3F00085D3F00085D3F000800
:100070005D3F00085D3F00085D3F00085D3F0008F0
:100080005D3F00085D3F00085D3F00085D3F0008E0
:10009000713D00085D3F00085D3F00085D3F0008BE
:1000A0005D3F00085D3F00085D3F00085D3F0008C0
:1000B0005D3F00085D3F00085D3F00085D3F0008B0
:1000C0005D3F00085D3F00085D3F00085D3F0008A0
:1000D0005D3F00085D3F00085D3F00085D3F000890
:1000E0005D3F00085D3F00085D3F00080000000024
:1000F0000000000000000000000000000000000000
:0C01000000000000000000005FF808F1A3
:1001100010B5054C237833B9044B13B10448AFF341
:1001200000800123237010BD500300200000000058
:10013000B0E5000808B5034B1BB103490348AFF312
:10014000008008BD0000000054030020B0E5000856
:10015000034613F8012B002AFBD1181A0138704707
:1001600081F0004102E000BF83F0004330B54FEA68
:1001700041044FEA430594EA050F08BF90EA020FD5
:100180001FBF54EA000C55EA020C7FEA645C7FEA68
:10019000655C00F0E2804FEA5454D4EB5555B8BF8B
:1001A0006D420CDD2C4480EA020281EA030382EAFC
:1001B000000083EA010180EA020281EA0303362D8E
:1001C00088BF30BD11F0004F4FEA01314FF4801C61
:1001D0004CEA113102D0404261EB410113F0004F73
:1001E0004FEA03334CEA133302D0524263EB43032A
:1001F00094EA050F00F0A780A4F10104D5F1200EC8
:100200000DDB02FA0EFC22FA05F2801841F1000122
:1002100003FA0EF2801843FA05F359410EE0A5F1F6
:1002200020050EF1200E012A03FA0EFC28BF4CF027
:10023000020C43FA05F3C01851EBE37101F00045DD
:1002400007D54FF0000EDCF1000C7EEB00006EEBEA
:100250000101B1F5801F1BD3B1F5001F0CD3490874
:100260005FEA30004FEA3C0C04F101044FEA4452CB
:1002700012F5800F80F09A80BCF1004F08BF5FEA52
:10028000500C50F1000041EB045141EA050130BD32
:100290005FEA4C0C404141EB0101013C28BFB1F544
:1002A000801FE9D291F0000F04BF01460020B1FA8F
:1002B00081F308BF2033A3F10B03B3F120020CDA62
:1002C0000C3208DD02F1140CC2F10C0201FA0CF040
:1002D00021FA02F10CE002F11402D8BFC2F1200CA5
:1002E00001FA02F120FA0CFCDCBF41EA0C0190405B
:1002F000E41AA2BF01EB0451294330BD6FEA0404A4
:100300001F3C1CDA0C340EDC04F11404C4F120028E
:1003100020FA04F001FA02F340EA030021FA04F3A0
:1003200045EA030130BDC4F10C04C4F1200220FAF7
:1003300002F001FA04F340EA0300294630BD21FA35
:1003400004F0294630BD94F0000F83F4801306BFFB
:1003500081F480110134013D4EE77FEA645C18BFEF
:100360007FEA655C29D094EA050F08BF90EA020F86
:1003700005D054EA000C04BF1946104630BD91EA7E
:10038000030F1EBF0021002030BD5FEA545C05D181
:100390004000494128BF41F0004130BD14F58004C0
:1003A0003CBF01F5801130BD01F0004545F0FE4134
:1003B00041F470014FF0000030BD7FEA645C1ABF69
:1003C000194610467FEA655C1CBF0B46024650EAA0
:1003D000013406BF52EA033591EA030F41F40021CC
:1003E00030BD00BF90F0000F04BF0021704730B552
:1003F0004FF4806404F132044FF000054FF0000127
:1004000050E700BF90F0000F04BF0021704730B5E7
:100410004FF4806404F1320410F0004548BF4042BC
:100420004FF000013EE700BF42004FEAE2014FEA11
:1004300031014FEA02701FBF12F07F4393F07F4FEC
:1004400081F06051704732F07F4208BF704793F0EF
:100450007F4F04BF41F40021704730B54FF4607402
:1004600001F0004521F000411CE700BF50EA010205
:1004700008BF704730B54FF000050AE050EA0102AE
:1004800008BF704730B511F0004502D5404261EB1E
:1004900041014FF4806404F132045FEA915C3FF45F
:1004A000D8AE4FF003025FEADC0C18BF03325FEAFC
:1004B000DC0C18BF033202EBDC02C2F1200300FAAD
:1004C00003FC20FA02F001FA03FE40EA0E0021FAD2
:1004D00002F11444BDE600BF70B54FF0FF0C4CF4C0
:1004E000E06C1CEA11541DBF1CEA135594EA0C0F72
:1004F00095EA0C0F00F0DEF82C4481EA030621EAAD
:100500004C5123EA4C5350EA013518BF52EA0335E7
:1005100041F4801143F4801338D0A0FB02CE4FF099
:100520000005E1FB02E506F00042E0FB03E54FF0C9
:100530000006E1FB03569CF0000F18BF4EF0010EC1
:10054000A4F1FF04B6F5007F64F5407404D25FEABD
:100550004E0E6D4146EB060642EAC62141EA555170
:100560004FEAC52040EA5E504FEACE2EB4F1FD0CB2
:1005700088BFBCF5E06F1ED8BEF1004F08BF5FEA30
:10058000500E50F1000041EB045170BD06F00046E2
:1005900046EA010140EA020081EA0301B4EB5C048F
:1005A000C2BFD4EB0C0541EA045170BD41F4801187
:1005B0004FF0000E013C00F3AB8014F1360FDEBFAC
:1005C000002001F0004170BDC4F10004203C35DA88
:1005D0000C341BDC04F11404C4F1200500FA05F30B
:1005E00020FA04F001FA05F240EA020001F00042AC
:1005F00021F0004110EBD37021FA04F642EB060122
:100600005EEA430E08BF20EAD37070BDC4F10C044B
:10061000C4F1200500FA04F320FA05F001FA04F20F
:1006200040EA020001F0004110EBD37041F10001FB
:100630005EEA430E08BF20EAD37070BDC4F1200506
:1006400000FA05F24EEA020E20FA04F301FA05F26E
:1006500043EA020321FA04F001F0004121FA04F216
:1006600020EA020000EBD3705EEA430E08BF20EAE6
:10067000D37070BD94F0000F0FD101F00046400020
:1006800041EB010111F4801F08BF013CF7D041EAA2
:10069000060195F0000F18BF704703F000465200A6
:1006A00043EB030313F4801F08BF013DF7D043EA77
:1006B0000603704794EA0C0F0CEA135518BF95EA2D
:1006C0000C0F0CD050EA410618BF52EA4306D1D1B4
:1006D00081EA030101F000414FF0000070BD50EAD3
:1006E000410606BF1046194652EA430619D094EA5D
:1006F0000C0F02D150EA013613D195EA0C0F05D147
:1007000052EA03361CBF104619460AD181EA03019A
:1007100001F0004141F0FE4141F470014FF0000052
:1007200070BD41F0FE4141F4780170BD70B54FF0ED
:10073000FF0C4CF4E06C1CEA11541DBF1CEA13556D
:1007400094EA0C0F95EA0C0F00F0A7F8A4EB05044F
:1007500081EA030E52EA03354FEA013100F0888046
:100760004FEA03334FF0805545EA131343EA12630F
:100770004FEA022245EA111545EA10654FEA0026C4
:100780000EF000419D4208BF964244F1FD0404F57D
:10079000407402D25B084FEA3202B61A65EB0305D9
:1007A0005B084FEA32024FF480104FF4002CB6EB96
:1007B000020E75EB030E22BFB61A754640EA0C0016
:1007C0005B084FEA3202B6EB020E75EB030E22BF56
:1007D000B61A754640EA5C005B084FEA3202B6EB97
:1007E000020E75EB030E22BFB61A754640EA9C0056
:1007F0005B084FEA3202B6EB020E75EB030E22BF26
:10080000B61A754640EADC0055EA060E18D04FEAE3
:10081000051545EA16754FEA06164FEAC30343EA83
:1008200052734FEAC2025FEA1C1CC0D111F4801F50
:100830000BD141EA00014FF000004FF0004CB6E749
:1008400011F4801F04BF01430020B4F1FD0C88BFE8
:10085000BCF5E06F3FF6AFAEB5EB030C04BFB6EBF3
:10086000020C5FEA500C50F1000041EB045170BDE6
:100870000EF0004E4EEA113114EB5C04C2BFD4EB13
:100880000C0541EA045170BD41F480114FF0000E97
:10089000013C90E645EA060E8DE60CEA135594EA13
:1008A0000C0F08BF95EA0C0F3FF43BAF94EA0C0F16
:1008B0000AD150EA01347FF434AF95EA0C0F7FF48B
:1008C00025AF104619462CE795EA0C0F06D152EADF
:1008D00003353FF4FDAE1046194622E750EA4106C3
:1008E00018BF52EA43067FF4C5AE50EA41047FF4D4
:1008F0000DAF52EA43057FF4EBAE12E74FF0FF3C39
:1009000006E000BF4FF0010C02E000BF4FF0010C09
:100910004DF804CD4FEA410C7FEA6C5C4FEA430C82
:1009200018BF7FEA6C5C1BD001B050EA410C0CBFD1
:1009300052EA430C91EA030F02BF90EA020F002033
:10094000704710F1000F91EA030F58BF994208BF9A
:1009500090422CBFD8176FEAE37040F00100704757
:100960004FEA410C7FEA6C5C02D150EA013C07D1AE
:100970004FEA430C7FEA6C5CD6D152EA033CD3D0F9
:100980005DF8040B704700BF8446104662468C46F3
:100990001946634600E000BF01B5FFF7B7FF002826
:1009A00048BF10F1000F01BD4DF808EDFFF7F4FF4F
:1009B0000CBF012000205DF808FB00BF4DF808EDDA
:1009C000FFF7EAFF34BF012000205DF808FB00BFFD
:1009D0004DF808EDFFF7E0FF94BF012000205DF81F
:1009E00008FB00BF4DF808EDFFF7CEFF94BF0120D4
:1009F00000205DF808FB00BF4DF808EDFFF7C4FFCD
:100A000034BF012000205DF808FB00BF4FEA410C15
:100A10007FEA6C5C02D150EA013C0AD14FEA430CF8
:100A20007FEA6C5C02D152EA033C02D14FF0000035
:100A300070474FF0010070474A0011D212F50012C2
:100A400011D20DD56FF47873B3EB62520ED44FEA26
:100A5000C12343F0004343EA505323FA02F07047A6
:100A60004FF00000704750EA013002D14FF0FF30E4
:100A700070474FF0000070474FEA4102B2F1E04387
:100A800024BFB3F5001CDCF1FE5C0DD901F0004C75
:100A90004FEAC0024CEA5070B2F1004F40EB8300C5
:100AA00008BF20F00100704711F0804F21D113F1F1
:100AB0003872BCBF01F00040704741F480114FEA2A
:100AC0005252C2F11802C2F1200C10FA0CF320FAB3
:100AD00002F018BF40F001004FEAC1234FEAD323D0
:100AE00003FA0CFC40EA0C0023FA02F34FEA43033A
:100AF000CCE77FEA625307D150EA01331EBF4FF0C3
:100B0000FE4040F44000704701F0004040F0FE40DD
:100B100040F40000704700BF80F0004002E000BFDA
:100B200081F0004142001FBF5FEA410392EA030FD8
:100B30007FEA226C7FEA236C6AD04FEA1262D2EB22
:100B40001363C1BFD218414048404140B8BF5B4227
:100B5000192B88BF704710F0004F40F4000020F0C0
:100B60007F4018BF404211F0004F41F4000121F0D6
:100B70007F4118BF494292EA030F3FD0A2F1010220
:100B800041FA03FC10EB0C00C3F1200301FA03F15E
:100B900000F0004302D5494260EB4000B0F5000F81
:100BA00013D3B0F1807F06D340084FEA310102F140
:100BB0000102FE2A51D2B1F1004F40EBC25008BFF2
:100BC00020F0010040EA03007047490040EB0000BC
:100BD000013A28BFB0F5000FEDD2B0FA80FCACF1BD
:100BE000080CB2EB0C0200FA0CF0AABF00EBC250EA
:100BF00052421843BCBFD0401843704792F0000FD8
:100C000081F4000106BF80F400000132013BB5E72A
:100C10004FEA41037FEA226C18BF7FEA236C21D0A0
:100C200092EA030F04D092F0000F08BF0846704705
:100C300090EA010F1CBF0020704712F07F4F04D1D3
:100C4000400028BF40F00040704712F100723CBFE6
:100C500000F50000704700F0004343F0FE4040F410
:100C6000000070477FEA226216BF08467FEA2363CE
:100C70000146420206BF5FEA412390EA010F40F4B9
:100C8000800070474FF0000304E000BF10F0004305
:100C900048BF40425FEA000C08BF704743F09643EC
:100CA00001464FF000001CE050EA010208BF704707
:100CB0004FF000030AE000BF50EA010208BF70478E
:100CC00011F0004302D5404261EB41015FEA010CA3
:100CD00002BF84460146002043F0B64308BFA3F19B
:100CE0008053A3F50003BCFA8CF2083AA3EBC2537D
:100CF00010DB01FA02FC634400FA02FCC2F120029C
:100D0000BCF1004F20FA02F243EB020008BF20F0D2
:100D10000100704702F1200201FA02FCC2F1200238
:100D200050EA4C0021FA02F243EB020008BF20EA2D
:100D3000DC7070474FF0FF0C1CEAD0521EBF1CEA5B
:100D4000D15392EA0C0F93EA0C0F6FD01A4480EA49
:100D5000010C400218BF5FEA41211ED04FF0006332
:100D600043EA501043EA5111A0FB01310CF000405E
:100D7000B1F5000F3EBF490041EAD3715B0040EA84
:100D8000010062F17F02FD2A1DD8B3F1004F40EB54
:100D9000C25008BF20F00100704790F0000F0CF027
:100DA000004C08BF49024CEA502040EA51207F3AEB
:100DB000C2BFD2F1FF0340EAC250704740F40000C6
:100DC0004FF00003013A5DDC12F1190FDCBF00F0B7
:100DD00000407047C2F10002410021FA02F1C2F165
:100DE000200200FA02FC5FEA310040F1000053EA01
:100DF0004C0308BF20EADC70704792F0000F00F04F
:100E0000004C02BF400010F4000F013AF9D040EA54
:100E10000C0093F0000F01F0004C02BF490011F4E8
:100E2000000F013BF9D041EA0C018FE70CEAD153E6
:100E300092EA0C0F18BF93EA0C0F0AD030F0004C66
:100E400018BF31F0004CD8D180EA010000F000401A
:100E5000704790F0000F17BF90F0004F084691F0D8
:100E6000000F91F0004F14D092EA0C0F01D1420212
:100E70000FD193EA0C0F03D14B0218BF084608D1DB
:100E800080EA010000F0004040F0FE4040F4000025
:100E9000704740F0FE4040F4400070474FF0FF0CB8
:100EA0001CEAD0521EBF1CEAD15392EA0C0F93EAFF
:100EB0000C0F69D0A2EB030280EA010C49024FEA51
:100EC000402037D04FF0805343EA111143EA10130A
:100ED0000CF000408B4238BF5B0042F17D024FF4C2
:100EE000000C8B4224BF5B1A40EA0C00B3EB510F9D
:100EF00024BFA3EB510340EA5C00B3EB910F24BF86
:100F0000A3EB910340EA9C00B3EBD10F24BFA3EB0A
:100F1000D10340EADC001B0118BF5FEA1C1CE0D1D2
:100F2000FD2A3FF650AF8B4240EBC25008BF20F085
:100F3000010070470CF0004C4CEA50207F32C2BFD9
:100F4000D2F1FF0340EAC250704740F400004FF076
:100F50000003013A37E792F0000F00F0004C02BFA7
:100F6000400010F4000F013AF9D040EA0C0093F071
:100F7000000F01F0004C02BF490011F4000F013BCB
:100F8000F9D041EA0C0195E70CEAD15392EA0C0F33
:100F900008D142027FF47DAF93EA0C0F7FF470AF6B
:100FA000084676E793EA0C0F04D14B023FF44CAFAE
:100FB00008466EE730F0004C18BF31F0004CCAD143
:100FC00030F000427FF45CAF31F000437FF43CAF7F
:100FD0005FE700BF4FF0FF3C06E000BF4FF0010CA1
:100FE00002E000BF4FF0010C4DF804CD4FEA400283
:100FF0004FEA41037FEA226C18BF7FEA236C11D0CD
:1010000001B052EA530C18BF90EA010F58BFB2EB7F
:10101000030088BFC81738BF6FEAE17018BF40F0FF
:10102000010070477FEA226C02D15FEA402C05D1B3
:101030007FEA236CE4D15FEA412CE1D05DF8040B38
:10104000704700BF844608466146FFE70FB5FFF7CB
:10105000C9FF002848BF10F1000F0FBD4DF808ED83
:10106000FFF7F4FF0CBF012000205DF808FB00BF74
:101070004DF808EDFFF7EAFF34BF012000205DF8CE
:1010800008FB00BF4DF808EDFFF7E0FF94BF01201B
:1010900000205DF808FB00BF4DF808EDFFF7D2FF18
:1010A00094BF012000205DF808FB00BF4DF808ED5B
:1010B000FFF7C8FF34BF012000205DF808FB00BF28
:1010C0004FEA40024FEA41037FEA226C02D15FEA15
:1010D000402C08D17FEA236C02D15FEA412C02D177
:1010E0004FF0000070474FF0010070474FEA400298
:1010F000B2F1FE4F0FD34FF09E03B3EB12620DD946
:101100004FEA002343F0004310F0004F23FA02F0AF
:1011100018BF404270474FF00000704712F1610F56
:1011200001D1420205D110F0004008BF6FF000402D
:1011300070474FF00000704742000ED2B2F1FE4FF0
:101140000BD34FF09E03B3EB126209D44FEA002396
:1011500043F0004323FA02F070474FF0000070475D
:1011600012F1610F01D1420202D14FF0FF307047FE
:101170004FF00000704700BF38B50022002304463E
:101180000D46FFF71BFC28B920462946BDE838402C
:1011900000F00AB8204605F1004100F005F8404291
:1011A00061EB410138BD00BFD0B500220B4B0646B4
:1011B0000F46FFF791F9FFF73FFC0446FFF712F9DE
:1011C0000022074BFFF788F902460B4630463946A6
:1011D000FEF7CAFFFFF730FC2146D0BD0000F03D0E
:1011E0000000F04180B500AF092200210F480BF04C
:1011F00040F80E4B00221A700C4B00225A700B4B19
:1012000000229A70094B0022DA70084B00221A71F2
:10121000064B00225A71054B00229A71034B0022A3
:10122000DA71024B00221A7200BF80BD9C030020BD
:1012300080B500AF302200211C480BF01AF81B4B80
:101240001B4A07CA03C31A70184B1A4ADA60174BB5
:10125000184A1A61154B174A5A61144B154A9A617C
:10126000124B144ADA61114B4FF0FF321A620F4BE6
:10127000002283F824200D4B002283F825200B4BFD
:10128000002283F82620094B002283F82720074BF1
:10129000002283F82820054B002283F82920034BE5
:1012A000002283F82A2000BF80BD00BF6C0300200D
:1012B0009C0300200000C07F80B588B000AFF860BC
:1012C000B9607A60BB681B781A46FB681344FB61FF
:1012D00008E0FB690133FB61BB681B780133DAB2BC
:1012E000BB681A70FB691B787B767B7E202BF0D065
:1012F0007B7E092BEDD07B7E002B01D100234DE0BE
:10130000FB697B617B7E2B2B02D07B7E2D2B08D152
:10131000FB690133FB61BB681B780133DAB2BB6840
:101320001A700023FB760023BB761CE07B7E2F2BFC
:1013300005D97B7E392B02D80123BB760AE07B7E60
:101340002E2B16D1FB7E83F00103DBB2002B10D0D5
:101350000123FB76FB690133FB61BB681B7801331A
:10136000DAB2BB681A70FB691B787B767B7E002B38
:10137000DCD1BB7E83F00103DBB2002B01D0002364
:101380000CE078690AF00EF802460B461046194642
:10139000FFF772FB02467B681A600123184620376C
:1013A000BD4680BD80B586B000AF786000237B74F9
:1013B0000023BB740023BB820023FB74FFF738FFBC
:1013C00091E27B7C0133DBB27B747B7C1A467B68C9
:1013D00013441B78202BF4D07B7C1A467B68134483
:1013E0001B78092BEDD07B7C1A467B6813441B7855
:1013F000FB75FB7D002B00F07F82FB7D602B05D908
:10140000FB7D7A2B02D8FB7D203BFB757B7C013377
:10141000DBB27B7407F10C0207F1110319467868FF
:10142000FFF74AFF034683F00103DBB2002B01D034
:10143000022363E2FB6818460DF0A0F80346184645
:10144000FFF77AFE0346BB74FB7D463B142B00F28C
:10145000488201A252F823F039180008AD140008A0
:10146000E3180008E3180008E3180008E318000870
:10147000C3180008F916000885180008E3180008CA
:10148000A3180008E3180008E31800085F18000814
:10149000E3180008E3180008E3180008E318000840
:1014A000091800081918000829180008BB7C632BCC
:1014B00001D9142322E2BB7C5E2B00F2068101A23B
:1014C00052F823F0411600084116000841160008A2
:1014D000411600084D160008CB160008CB16000870
:1014E000CB160008CB160008CB160008CB16000858
:1014F000CB160008CB160008CB160008CB16000848
:10150000CB160008CB1600085B1600085B16000817
:101510005B1600086B1600086B160008CB16000857
:10152000CB160008CB160008CB160008CB16000817
:10153000CB1600087D160008CB160008CB16000855
:10154000CB160008CB160008CB160008CB160008F7
:10155000CB160008CB160008CB160008CB160008E7
:10156000CB160008CB160008CB160008CB160008D7
:10157000CB160008CB160008CB160008CB160008C7
:10158000CB160008CB160008CB160008CB160008B7
:10159000CB160008CB160008CB160008BB160008B7
:1015A000BB160008BB160008BB160008BB160008D7
:1015B000BB160008CB160008CB160008CB16000897
:1015C000CB160008CB160008CB160008CB16000877
:1015D000CB160008CB160008CB160008CB16000867
:1015E000CB160008CB160008CB160008CB16000857
:1015F000CB160008CB160008CB160008CB16000847
:10160000CB160008CB160008CB160008CB16000836
:10161000CB160008CB160008CB160008CB16000826
:10162000CB160008CB160008CB1600088B16000856
:101630008B1600089B160008A9160008A9160008BA
:101640000123FB74AF4ABB7C137040E00023FB74A2
:10165000AC4B042283F82C2039E00223FB74BB7CC2
:10166000113BDAB2A74B9A7031E00623FB74BB7CC6
:10167000C3F11503DAB2A34BDA7028E00023FB7440
:10168000A04B1C2283F82C2021E00323FB74BB7C9D
:101690005A3BDAB29B4B1A7119E00023FB74994B49
:1016A0005C2283F82C2012E00523FB74BB7CC3F181
:1016B0005E03DAB2934B5A7109E00923FB74BB7CD9
:1016C000363BDAB28F4B5A7001E0142316E1BA8A26
:1016D000FB7C42FA03F303F00103002B01D0152336
:1016E0000CE1FB7C012202FA03F31AB2B7F91430C1
:1016F00013431BB2BB82F6E0BB7C632B01D91423DE
:10170000FCE0BB7C1E2B45DC002B66DB1E2B64D86B
:1017100001A252F823F000BF9B1700089B17000896
:101720009B170008A7170008A7170008A7170008AD
:10173000DB170008B3170008B3170008B317000839
:10174000DB170008DB170008DB170008DB170008B1
:10175000DB170008DB170008DB170008BF170008BD
:10176000CD170008DB170008DB170008DB1700089F
:10177000DB170008DB170008DB170008DB17000881
:10178000DB170008DB170008DB170008DB17000871
:101790009B170008542B19D01FE00B23FB74594AE8
:1017A000BB7C13721BE00C23FB74564ABB7C937109
:1017B00015E00D23FB74534ABB7CD3710FE000236B
:1017C000FB74504B112283F82C2008E00023FB749B
:1017D0004C4B122283F82C2001E014238EE0BA8AAD
:1017E000FB7C42FA03F303F00103002B01D0152325
:1017F00084E0FB7C012202FA03F31AB2B7F9143039
:1018000013431BB2BB826EE0FB683E4AD3603D4B84
:10181000012283F8262066E0FB683A4A1361394BBF
:10182000012283F827205EE0FB68364A5361354B7E
:10183000012283F8282056E0FB68324A9361314B3D
:10184000012283F82920FB684FF000011846FFF7BA
:101850000FFC0346002B00D145E004234EE0FB685B
:10186000284AD361274B012283F82A20FB684FF0D6
:1018700000011846FFF7FCFB0346002B00D132E0C5
:1018800004233BE0BB7C1F4A1362FB684FF000015E
:101890001846FFF7EDFB0346002B00D123E004239D
:1018A0002CE0184ABB7C82F82430FB684FF0000122
:1018B0001846FFF7DDFB0346002B00D113E004239D
:1018C0001CE0104ABB7C82F82530FB684FF0000119
:1018D0001846FFF7CDFB0346002B00D103E004239D
:1018E0000CE014230AE07B7C1A467B6813441B78C7
:1018F000002B7FF46AAD00E000BF002318461837C4
:10190000BD4680BD6C0300202DE9F0439FB004AFBD
:10191000AB4B93F82C301C2B3CDC042BC0F2EA8040
:10192000043B182B00F2E68001A252F823F000BF1E
:101930009B190008F51A0008F51A0008F51A0008A6
:10194000F51A0008F51A0008F51A0008F51A00083B
:10195000F51A0008F51A0008F51A0008F51A00082B
:10196000F51A0008D71A0008E51A0008F51A000849
:10197000F51A0008F51A0008F51A0008F51A00080B
:10198000F51A0008F51A0008F51A0008F51A0008FB
:10199000D11900085C2B22D0ACE0894B93F824309D
:1019A000002B00F0A680864B93F824301A463B1D8E
:1019B000844918460AF0F8FB3B1D1846FEF7C8FBA1
:1019C00003469AB23B1D1146184608F0F5FF90E019
:1019D00016217D4808F0F0FF01F0B2FB8AE0784B59
:1019E00093F82630002B0CD0754BDB6877491846EE
:1019F000FFF7A0F903461846FFF778FB0346744A41
:101A000013606F4B93F82730002B0CD06C4B1B6985
:101A10006E491846FFF78EF903461846FFF766FB36
:101A200003466C4A1360664B93F82830002B0CD0A9
:101A3000634B5B6968491846FFF77CF90346184613
:101A4000FFF754FB0346654A1360614B1B68184659
:101A5000FFF71CF903465D491846FFF71FFA0346D6
:101A60001846FEF7E1FC804689465A4B1B6818462B
:101A7000FFF70CF9034655491846FFF70FFA0346DE
:101A80001846FEF7D1FC04460D46544B1B68184619
:101A9000FFF7FCF8034650491846FFF7FFF90346E5
:101AA0001846FEF7C1FC02460B46381DCDE902235D
:101AB000CDE9004542464B4649490AF075FB3B1DBE
:101AC0001846FEF745FB03469AB23B1D11461846E1
:101AD00008F072FF0EE01B21424808F06DFF01F094
:101AE000E1FC07E01821404808F066FF01F0F4FC33
:101AF00000E000BF324B1B78032B00F2DA8001A21A
:101B000052F823F0151B0008611B0008ED1B0008AC
:101B10004B1C00082A4B93F82630002B0AD1284B87
:101B200093F82730002B05D1254B93F82830002B54
:101B300000F0BA80224BD868214B1969204B5C69B0
:101B40001F4B93F826501E4B93F827301C4A92F8EF
:101B50002820019200932B46224601F0BBF8A3E017
:101B6000174B93F82630002B0AD1154B93F82730EA
:101B7000002B05D1124B93F82830002B00F09680F3
:101B80000F4BDC680E4B1D690D4B5E690C4BD3F897
:101B900018C00B4B93F82630094A92F827200849C1
:101BA00091F82810064890F82900039002910192BC
:101BB0000093634632462946204601F0CDF875E091
:101BC0006C030020C8E50008E4E5000800009E4220
:101BD000700400207404002000A0754578040020E3
:101BE000FCE5000828E6000844E60008504B93F89E
:101BF0002630002B09D14E4B93F82730002B04D10F
:101C00004B4B93F82830002B1FD0494BDB6818460C
:101C1000FEF70AFC04460D46454B1B691846FEF7C5
:101C200003FC80468946424B5B691846FEF7FCFB85
:101C300002460B4601210291CDE9002342464B4664
:101C40002046294601F076F833E0394B93F82630E8
:101C5000002B09D1364B93F82730002B04D1344B9D
:101C600093F82830002B23D0314BDB681846FEF761
:101C7000DBFB04460D462E4B1B691846FEF7D4FBD2
:101C8000804689462A4B5B691846FEF7CDFB024623
:101C90000B4600210291CDE9002342464B462046E7
:101CA000294601F047F804E000BF02E000BF00E071
:101CB00000BF1F4B9B79052B10D0052B13DC032B8A
:101CC00002D0042B05D00EE017211A4808F074FE4C
:101CD00009E01821184808F06FFE04E015211748A4
:101CE00008F06AFE00BF124BDB79092B10D0092BDC
:101CF00013DC072B02D0082B05D00EE01E21104864
:101D000008F05AFE09E022210E4808F055FE04E0D2
:101D10001A210D4808F050FE00BF0C4B044A07CAB8
:101D200003C31A70002318466C37BD46BDE8F08324
:101D30006C03002060E6000878E6000894E60008DE
:101D4000ACE60008CCE60008F0E600089C030020A2
:101D500080B584B000AF78600023FB6018E0FB68BA
:101D60007A6813441B78602B0FD9FB687A68134498
:101D70001B787A2B09D8FB687A6813441A78FB68B9
:101D800079680B44203AD2B21A70FB680133FB60C9
:101D9000FB687A6813441B78002BE0D17868FFF762
:101DA00001FB0346FB72FB7A002B01D0FB7A09E0B2
:101DB000FFF7AAFD0346FB72FB7A002B01D0FB7AEA
:101DC00000E0002318461037BD4680BD80B58AB0BC
:101DD00000AF0346FB71FB791C2B00F2838001A24C
:101DE00052F823F0591E0008631E00086D1E0008FB
:101DF000771E0008811E0008E51E0008E51E000889
:101E0000E51E0008E51E0008E51E0008E51E0008A6
:101E1000E51E0008E51E0008E51E0008E51E000896
:101E2000E51E0008E51E0008E51E0008E51E000886
:101E3000E51E00088B1E0008951E00089F1E000866
:101E4000A91E0008B31E0008BD1E0008C71E00081A
:101E5000D11E0008DB1E000804212F4808F0ACFD4D
:101E600055E024212D4808F0A7FD50E01E212C4804
:101E700008F0A2FD4BE01E212A4808F09DFD46E037
:101E80001B21294808F098FD41E02121274808F04E
:101E900093FD3CE02321264808F08EFD37E0212108
:101EA000244808F089FD32E02721234808F084FD0A
:101EB0002DE02321214808F07FFD28E01B21204848
:101EC00008F07AFD23E01B211E4808F075FD1EE096
:101ED00021211D4808F070FD19E020211B4808F061
:101EE0006BFD14E0FA7907F10803194918460AF066
:101EF0005BF907F108031846FEF72AF903469AB280
:101F000007F108031146184608F056FD00BF00BF50
:101F10002837BD4680BD00BF0CE7000814E7000865
:101F200038E7000858E7000878E7000894E7000859
:101F3000B8E70008DCE7000800E8000828E8000827
:101F40004CE8000868E8000884E80008A8E80008F1
:101F5000C8E8000880B584B000AF78607868FEF704
:101F6000F7F80346FB81FB891946786808F036FECE
:101F700000BF1037BD4680BD80B500AF01F0F0FF57
:101F800000F018F800F072F808F028FC08F03AFDAC
:101F900000F07CFE0E21064808F020FE08F0B8FD97
:101FA00000F026FE322002F03DF800BFF6E700BF49
:101FB000D4E8000880B594B000AF07F128032822C8
:101FC000002118460AF055F907F1140300221A609F
:101FD0005A609A60DA601A613B1D00221A605A60EA
:101FE0009A60DA600123BB624FF48033FB62002306
:101FF0003B630123BB6302237B644FF48033BB64E8
:102000004FF48013FB6407F12803184604F050F8DE
:102010000346002B01D001F047FE0F237B61022312
:10202000BB610023FB614FF480633B6200237B6252
:1020300007F114030121184604F0BCFA0346002BF3
:1020400001D001F031FE10237B604FF480033B612F
:102050003B1D184604F00AFC0346002B01D001F09A
:1020600023FE00BF5037BD4680BD000080B588B05C
:1020700000AF07F1100300221A605A609A60DA601C
:102080002F4B9B692E4A43F0200393612C4B9B6995
:1020900003F02003FB60FB68294B9B69284A43F04F
:1020A00004039361264B9B6903F00403BB60BB6888
:1020B000234B9B69224A43F008039361204B9B69A1
:1020C00003F008037B607B68002240F2D9311D4891
:1020D00002F075FA00224FF4E0611B4802F06FFA3B
:1020E00040F2D9333B6101237B610023BB610223B2
:1020F000FB6107F110031946124802F0C5F84FF4CE
:10210000E0433B6100237B610023BB6107F11003C7
:1021100019460C4802F0B8F84FF4E0633B61012324
:102120007B610023BB610223FB6107F110031946A9
:10213000054802F0A9F800BF2037BD4680BD00BFAA
:1021400000100240000C01400008014080B485B03E
:1021500000AF78600D4B1B680D4AA2FB03239A0C5D
:102160007B6802FB03F3FB600A4B5B68BB6000BF4C
:10217000084B5A68BB68D31AFA689A42F8D800BF6D
:1021800000BF1437BD4680BC704700BF0C00002064
:1021900083DE1B43001000E080B500AF0122402128
:1021A000064802F00CFA0220FFF7D0FF002240217F
:1021B000024802F004FA00BF80BD00BF000C0140DD
:1021C00080B500AF01224FF40071074802F0F7F923
:1021D0000220FFF7BBFF00224FF40071024802F01B
:1021E000EEF900BF80BD00BF000C014080B500AF1C
:1021F00001224FF48071074802F0E1F90220FFF755
:10220000A5FF00224FF48071024802F0D8F900BF08
:1022100080BD00BF0008014080B586B000AF786087
:1022200039604FF000017868FEF72CFF0346002B61
:1022300002D04FF4487330E01D497868FEF72EFE57
:1022400003463B611B4BFB60F9683869FEF772FD82
:102250000346BB604FF00001B868FEF713FF03466A
:10226000002B02D04FF4487317E0B868FEF7DCF893
:1022700002460B460CA1D1E90001FEF757FA0246CF
:102280000B4610461946FEF7D7FB03467B617B6978
:10229000C72B01D8C8237B617B6918461837BD4618
:1022A00080BD00BFAFF300800000000080842E419D
:1022B0000000704200A07545F0B5B1B00CAFF860F9
:1022C000B9607A603B60F968F868FEF7F9FE03468A
:1022D000002B09D1A649F868FEF72CFD03461846E5
:1022E000FEF704FF034601E0A24B1B683B67B96899
:1022F000B868FEF7E5FE0346002B09D19C49B86893
:10230000FEF718FD03461846FEF7F0FE034601E00F
:10231000994B1B68FB6679687868FEF7D1FE034627
:10232000002B09D195497868FEF704FD034618464D
:10233000FEF7DCFE034601E0914B1B68BB668D4B4C
:102340001B683A6FD31A7B668B4B1B68FA6ED31AE5
:102350003B668B4B1B68BA6ED31AFB65F968F8684D
:10236000FEF7AEFE0346002B12D1824B1B681846C7
:10237000FEF78CFC03467E491846FEF78FFD0346A8
:102380001946F868FEF7CCFB034623F0004301E052
:102390004FF00003BB65B968B868FEF791FE0346CD
:1023A000002B12D1744B1B681846FEF76FFC0346D6
:1023B0006F491846FEF772FD03461946B868FEF7E6
:1023C000AFFB034623F0004301E04FF000037B65C1
:1023D00079687868FEF774FE0346002B12D1684BCB
:1023E0001B681846FEF752FC034664491846FEF780
:1023F00055FD034619467868FEF792FB034623F025
:10240000004301E04FF000033B65B96DB86DFEF786
:1024100091FC03461C46796D786DFEF78BFC0346F4
:1024200019462046FEF77EFB03461C46396D386D83
:10243000FEF780FC034619462046FEF773FB034671
:102440001846FDF7F1FF02460B46104619460BF001
:102450009FFF02460B4610461946FEF70DFB03464A
:10246000FB6497F8A830002B02D0464B1B6800E0B5
:102470003B68C7F88C30444B1B681946D7F88C0072
:10248000FEF714FE0346002B03D03F4B1B68C7F832
:102490008C307B6EDB43DB0F87F84B303B6EDB43CE
:1024A000DB0F87F84A30FB6DDB43DB0F87F84930E1
:1024B0007B6E002B06D097F84B301A4680213348AC
:1024C00002F07DF83B6E002B06D097F84A301A4692
:1024D00008212E4802F073F8FB6D002B0AD097F804
:1024E000493083F00103DBB21A464FF400712848EB
:1024F00002F065F87B6E002BB8BF5B427B663B6EDB
:10250000002BB8BF5B423B66FB6D002BB8BF5B4244
:10251000FB65F96CD7F88C00FFF77EFE7864F968EC
:10252000F868FEF7CDFD0346002B0BD0114B1B685E
:102530001846FEF7ABFB03460D491846FEF7AEFC06
:10254000034600E0FB683B64B968B868FEF7B8FD75
:102550000346002B1ED0084B1B681846FEF796FB5F
:10256000034603491846FEF799FC034613E000BFF3
:1025700000009E42700400207404002000A07545F5
:10258000780400200400002008000020000C014016
:1025900000080140BB68FB6379687868FEF790FD2E
:1025A0000346002B0BD07E4B1B681846FEF76EFBD4
:1025B00003467C491846FEF771FC034600E07B6841
:1025C000BB63386CFEF792FD03467B63786BFEF7C6
:1025D0005DFB03461946386CFEF7A2FA03467249C2
:1025E0001846FEF7A7FB03461846FEF77FFD034695
:1025F0003B63F86BFEF77AFD0346FB62F86AFEF771
:1026000045FB03461946F86BFEF78AFA034666490E
:102610001846FEF78FFB03461846FEF767FD034694
:10262000BB62B86BFEF762FD03467B62786AFEF719
:102630002DFB03461946B86BFEF772FA03465A495A
:102640001846FEF777FB03461846FEF74FFD034694
:102650003B62D7F88C00FEF749FD0346FB61F86941
:10266000FEF714FB03461946D7F88C00FEF758FA1C
:1026700003464E491846FEF75DFB03461846FEF733
:1026800035FD0346BB61F86CFEF730FD03467B6108
:102690007869FEF7FBFA03461946F86CFEF740FA34
:1026A000034641491846FEF745FB03461846FEF728
:1026B0001DFD03463B6197F8A830002B01D03C4E2E
:1026C00000E03C4E3B6B002BB8BF5B42BA6A002A6D
:1026D000B8BF5242396A0029B8BF4942B8690028D8
:1026E000B8BF40423C69002CB8BF64427D6C0A957B
:1026F00009947C6908940790F86906900591796AB5
:1027000004910392FA6A029201937B6B0093334621
:10271000294AC821294809F011FD2848FFF71AFC69
:10272000C8220021254809F0A4FD7B6EC7F8883037
:102730003A6ED7F888309A4202DD3B6EC7F888308F
:10274000FA6DD7F888309A4202DDFB6DC7F8883001
:10275000D7F88830002B00F0AC80D7F88830DA0F3B
:1027600013445B10C7F88430D7F88830DA0F13446D
:102770005B10C7F88030D7F88830DA0F13445B104D
:10278000FB6797F8A830002B01D0022300E001235B
:10279000012219460A4801F012FF0023BB676FE0CF
:1027A0007804002000A075450000C84200002041C8
:1027B000E4E80008F0E80008FCE80008A8030020AE
:1027C000000C0140002387F87730002387F876302B
:1027D000002387F87530D7F884207B6E1344C7F840
:1027E0008430D7F88420D7F888309A4209DBD7F8AC
:1027F0008420D7F88830D31AC7F88430012387F8AB
:102800007730D7F880203B6E1344C7F88030D7F874
:102810008020D7F888309A4209DBD7F88020D7F893
:102820008830D31AC7F88030012387F87630FA6FE2
:10283000FB6D1344FB67FA6FD7F888309A4207DBC9
:10284000FA6FD7F88830D31AFB67012387F8753001
:1028500097F87730002B01D0FFF79EFC97F8763081
:10286000002B01D0FFF7ACFC97F87530002B01D09E
:10287000FFF7BCFC786CFFF769FCBB6F0133BB67EB
:10288000BA6FD7F888309A429CDB002201210B48AE
:1028900001F095FE00220221084801F090FE084A4E
:1028A0003B6F1360074AFB6E1360074ABB6E1360F1
:1028B00000E000BF9437BD46F0BD00BF000C0140F2
:1028C00070040020740400207804002080B485B0D7
:1028D00000AFF860B9607A603B6000BF1437BD4656
:1028E00080BC704780B5ACB006AF78600D22A849B7
:1028F000786809F0C6FC0346002B02D100F006FE02
:1029000043E10C22A349786809F0BBFC0346002B85
:1029100002D100F037FE38E10B229F49786809F0B8
:10292000B0FC0346002B02D100F028FF2DE10D2260
:102930009A49786809F0A5FC0346002B02D100F003
:10294000DBFE22E10D229649786809F09AFC0346E5
:10295000002B02D101F08EF817E10C229149786822
:1029600009F08FFC0346002B02D100F0DFFF0CE1E1
:1029700004228D49786809F084FC0346002B07D0B7
:1029800004228A49786809F07CFC0346002B02D1B6
:1029900001F098F8F9E00C228549786809F071FC9B
:1029A0000346002B02D101F023F9EEE00322814916
:1029B000786809F066FC0346002B07D003227E49A5
:1029C000786809F05EFC0346002B06D17B4B1B7830
:1029D000002B02D000F0D6FDD7E0784B1B78002BFF
:1029E0000DD0786800F006FE0346002B03D0744833
:1029F000FFF7B0FAC9E07348FFF7ACFAC5E007F19A
:102A00000C0363227968184609F04DFC002387F80F
:102A10006F3007F10C031846FFF79AF9034687F861
:102A2000973097F89730002B40F0AA80042266492F
:102A3000786809F026FC0346002B40F09780634B32
:102A40001B681846FEF722F9034661491846FEF74F
:102A500025FA0346C7F890305E4B1B681846FEF710
:102A600015F903465A491846FEF718FA0346C7F8FF
:102A70008C30594B1B681846FEF708F90346574936
:102A80001846FEF70BFA0346C7F88830D7F89000CF
:102A9000FEF72CFB0346C7F88430D7F88400FEF716
:102AA000F5F803461946D7F89000FEF739F80346C3
:102AB0004B491846FEF73EF903461846FEF716FB4B
:102AC0000346C7F88030D7F88C00FEF70FFB0346AB
:102AD000FB67F86FFEF7DAF803461946D7F88C0063
:102AE000FEF71EF803463E491846FEF723F9034653
:102AF0001846FEF7FBFA0346BB67D7F88800FEF7D7
:102B0000F5FA03467B67786FFEF7C0F8034619466F
:102B1000D7F88800FEF704F8034631491846FEF757
:102B200009F903461846FEF7E1FA03463B67D7F872
:102B30008030002BB8BF5B42BA6F002AB8BF524248
:102B4000396F0029B8BF49420491796F039102920D
:102B5000FA6F01920093D7F88430224AC8212248A4
:102B600009F0ECFA2048FFF7F5F909E004221F49C3
:102B7000786809F086FB0346002B01D100F02CF9A0
:102B800097F897301846FFF721F99837BD4680BD72
:102B90003CE900084CE900085CE9000868E9000825
:102BA00078E9000888E9000898E90008A0E9000829
:102BB000A8E90008B8E90008BCE9000830240020B2
:102BC000C0E90008C8E90008E0E900087004002036
:102BD00000009E42740400207804002000A0754587
:102BE0000000C842E8E90008A803002008EA00083D
:102BF00080B582B000AF224B1B78002B3CD0002365
:102C0000FB7100233B601DE01E4A3B6813441B78A8
:102C1000202B14D01B4A3B6813441B78092B0ED081
:102C2000184A3B6813441B780D2B08D0154A3B68A3
:102C300013441B780A2B02D00123FB7107E03B6889
:102C400001333B60104B1B683A689A42DCDBFB792E
:102C5000002B06D00C4B1B68002B02DD0948FFF748
:102C600041FE094B00221A6064220021054809F048
:102C700000FB034B00221A7000BF0837BD4680BD21
:102C8000E40400207C040020E004002080B500AFB4
:102C90000D4BDB680C4A43F08073D3600B4B1B6811
:102CA0000A4A43F00103136000F0FCFB00220121FB
:102CB000074801F084FC00220221054801F07FFC56
:102CC000FEF790FA00BF80BDF0ED00E0001000E0DC
:102CD000000C014080B58AB002AFF860B9607A603C
:102CE000FB70FB78002B01D0FB6800E00F4BFB6111
:102CF00097F82830002B01D0BB6800E00B4BBB617C
:102D000097F82C30002B01D07B6800E0074B7B61EB
:102D1000074B1B68012200927A69B969F869FFF7CD
:102D2000CBFA00BF2037BD4680BD00BF0000C07F8A
:102D30000400002080B584B000AFF860B9607A600C
:102D40003B603B687A68B968F868FFF7BFFD00BF71
:102D50001037BD4680BD000080B58AB002AFF86074
:102D6000B9607A603B6097F82830002B01D0FB688F
:102D700000E0174BFB6197F82C30002B01D0BB68AB
:102D800000E0134BBB6197F83030002B01D07B681B
:102D900000E00F4B7B6197F83430002B0AD04FF0E6
:102DA00000013868FEF782F90346002B02D0094A79
:102DB0003B681360074B1B68002200927A69B9696F
:102DC000F869FFF779FA00BF2037BD4680BD00BF24
:102DD0000000C07F0000002090B595B004AFA64869
:102DE000FFF7B8F84F22A549A54809F0DDF9A44836
:102DF000FFF7B0F8C8220021A14809F03AFA4F22A3
:102E0000A0499F4809F0D0F99D48FFF7A3F8C822D0
:102E100000219B4809F02DFA40F65A729A499848C9
:102E200009F0C2F99648FFF795F8C82200219448A6
:102E300009F01FFA4FF448731A469449904809F074
:102E4000B3F98F48FFF786F8C82200218C4809F0B3
:102E500010FA8F4B1B681846FEF748F90346FB63D0
:102E60008B4B1C68F86BFDF711FF03461946204693
:102E7000FDF756FE034687491846FDF75BFF0346FC
:102E80001846FEF733F90346BB63BB6BFA6B824906
:102E90007B4809F089F97A48FFF75CF8C8220021DD
:102EA000774809F0E6F97D4B1B681846FEF71EF9D6
:102EB00003467B63794B1C68786BFDF7E7FE03469E
:102EC00019462046FDF72CFE034672491846FDF7C9
:102ED00031FF03461846FEF709F903463B633B6B97
:102EE0007A6B6F49664809F05FF96548FFF732F879
:102EF000C8220021624809F0BCF96A4B1B681846D9
:102F0000FEF7F4F80346FB62664B1C68F86AFDF7AF
:102F1000BDFE034619462046FDF702FE03465D4905
:102F20001846FDF707FF03461846FEF7DFF803468D
:102F3000BB62BB6AFA6A5C49514809F035F95048EE
:102F4000FFF708F8C82200214D4809F092F9574BC5
:102F50001B681846FDF79AFE034655491846FDF7CB
:102F60009DFF03467B62534B1B681846FDF78EFEA0
:102F700003464F491846FDF791FF03463B624E4B0F
:102F80001B681846FDF782FE03464C491846FDF7BC
:102F900085FF0346FB61786AFEF7A8F80346BB612C
:102FA000B869FDF773FE03461946786AFDF7B8FD68
:102FB000034643491846FDF7BDFE03461846FEF793
:102FC00095F803467B61386AFEF790F803463B614B
:102FD0003869FDF75BFE03461946386AFDF7A0FD28
:102FE000034637491846FDF7A5FE03461846FEF787
:102FF0007DF80346FB60F869FEF778F80346BB608E
:10300000B868FDF743FE03461946F869FDF788FDE9
:1030100003462B491846FDF78DFE03461846FEF77A
:1030200065F803467B607B6983EAE371A1EBE3719A
:10303000FB68002BB8BF5B427A68002AB8BF5242D7
:103040000392BA68029201933B6900930B46BA69F6
:103050001C490B4809F0A8F80948FEF77BFFC82275
:103060000021074809F005F91748FEF773FF00BF74
:103070004437BD4690BD00BF44EA000864EA00083A
:10308000A80300207CEA000894EA0008ACEA0008E3
:103090000000002000002041C0EA000804000020D9
:1030A000E4EA0008080000200CEB0008700400208F
:1030B00000009E42740400207804002000A07545A2
:1030C0000000C84230EB000864EB000880B582B015
:1030D00000AF0346FB71FB795A2B1ED05A2B28DC1C
:1030E000582B02D0592B0CD023E04FF480511348B9
:1030F00001F04EFA0346002B0CBF01230023DBB284
:1031000018E04FF400510D4801F042FA0346002B3D
:103110000CBF01230023DBB20CE04FF480410748D1
:1031200001F036FA0346002B0CBF01230023DBB26B
:1031300000E0002318460837BD4680BD000C014062
:1031400080B59AB000AFB548FEF704FFB449B54862
:1031500009F02AF8B348FEF7FDFEC8220021B14865
:1031600009F087F8B049AF4809F01EF8AD48FEF7FE
:10317000F1FEC8220021AB4809F07BF80022802133
:10318000AA4801F01CFA06E0FFF706F84FF448736E
:103190001846FEF7DBFF5820FFF798FF034683F041
:1031A0000103DBB2002BEFD1012280219F4801F007
:1031B00006FA00237B6609E0FEF7EEFF4FF4487342
:1031C0001846FEF7C3FF7B6E01337B667B6E9D2B3B
:1031D000F2DD00228021954801F0F1F900233B66E1
:1031E0000DE0FEF7D9FF4FF448731A4613465B0013
:1031F00013441846FEF7AAFF3B6E01333B663B6E55
:103200009D2BEEDD5820FFF761FF034683F001039D
:10321000DBB2002B0CD08649824808F0C5FF8148FC
:10322000FEF798FEC82200217E4809F022F82EE120
:10323000804B00221A6080497A4808F0B5FF79482F
:10324000FEF788FEC8220021764809F012F87B4973
:10325000744808F0A9FF7348FEF77CFEC8220021DD
:10326000704809F006F800220821704801F0A7F91B
:1032700006E0FEF7A5FF4FF448731846FEF766FF19
:103280005920FFF723FF034683F00103DBB2002B35
:10329000EFD101220821654801F091F90023FB6577
:1032A00009E0FEF78DFF4FF448731846FEF74EFF16
:1032B000FB6D0133FB65FB6D9D2BF2DD00220821C8
:1032C0005A4801F07CF90023BB650DE0FEF778FF5A
:1032D0004FF448731A4613465B0013441846FEF732
:1032E00035FFBB6D0133BB65BB6D9D2BEEDD5920FA
:1032F000FFF7ECFE034683F00103DBB2002B0CD09A
:103300004F49484808F050FF4648FEF723FEC822C0
:103310000021444808F0ADFFB9E04A4B00221A6092
:103320004949404808F040FF3E48FEF713FEC822D6
:1033300000213C4808F09DFF44493A4808F034FF1A
:103340003848FEF707FEC8220021364808F091FFF2
:1033500001224FF400713E4801F031F908E0FEF718
:1033600045FF4FF448735B089BB21846FEF7EEFE2C
:103370005A20FFF7ABFE034683F00103DBB2002BBC
:10338000EDD100224FF40071314801F018F900230B
:103390007B650BE0FEF72AFF4FF448735B089BB296
:1033A0001846FEF7D3FE7B6D01337B657B6D41F6DE
:1033B000B3629342EEDD01224FF40071244801F024
:1033C000FEF800233B650DE0FEF710FF4FF4487355
:1033D0001A4613465B0013441846FEF7B7FE3B6DD2
:1033E00001333B653B6D41F6B3629342ECDD5A20FD
:1033F000FFF76CFE034683F00103DBB2002B2BD0FA
:103400001449084808F0D0FE0648FEF7A3FDC8227C
:103410000021044808F02DFF39E000BF84EB0008CC
:10342000A8EB0008A8030020D4EB0008000C014022
:10343000E8EB00087004002014EC000830EC0008F1
:1034400044EC00087404002070EC00088CEC0008C8
:1034500000080140A0EC00080E4B00221A600E4943
:103460000E4808F0A1FE0D48FEF774FDC8220021A9
:103470000A4808F0FEFE0A49084808F095FE074889
:10348000FEF768FDC8220021044808F0F2FE683704
:10349000BD4680BD78040020CCEC0008A8030020C5
:1034A000E8EC000880B500AF00224FF480710848B6
:1034B00001F085F800221021054801F080F8002273
:1034C0004FF48061034801F07AF800BF80BD00BF6F
:1034D000000C01400008014080B500AF01224FF40C
:1034E0008071084801F06BF801221021054801F0B5
:1034F00066F801224FF48061034801F060F800BFD4
:1035000080BD00BF000C01400008014080B582B0C2
:1035100000AF154B01221A70144B00221A60144B95
:1035200000221A7000237B600EE07A6813469B002D
:1035300013441B010F4A134450220021184608F07F
:1035400098FE7B6801337B607B68632BEDDD0A4866
:10355000FEF700FD0948FEF7FDFC0948FEF7FAFCFE
:1035600000BF0837BD4680BD30240020282400203D
:1035700031240020E804002020ED000858ED000868
:10358000C0E9000880B500AF124B00221A70124B40
:103590001B68002B15DD114B01221A700E4B1B68A6
:1035A0001A460F490F4808F0FFFD0E48FEF7D2FCFF
:1035B000C82200210B4808F05CFE0B48FEF7CAFC4D
:1035C00002E00A48FEF7C6FC0948FEF7C3FC00BF4C
:1035D00080BD00BF3024002028240020312400209A
:1035E00080ED0008A8030020ACED0008F4ED000811
:1035F000C0E9000880B584B000AF78603C4B1B6820
:10360000632B01DD00236EE07B68FB6002E0FB685A
:103610000133FB60FB681B78202BF8D0FB681B781C
:10362000092BF4D0FB681B78002B01D101235AE051
:103630002F4B1A6813469B0013441B012D4A134459
:103640004F22F968184608F02EFE294B1A682949BE
:1036500013469B0013441B010B444F3300221A7086
:10366000234B1A6813469B0013441B01214A134441
:103670001846FCF76DFD0346BB600FE01C4B1A6853
:10368000BB68591E1B4813469B0013441B0103448F
:103690000B4400221A70BB68013BBB60BB68002B67
:1036A0001BDD134B1A68BB68591E124813469B005A
:1036B00013441B0103440B441B780D2BDED00C4B31
:1036C0001A68BB68591E0B4813469B0013441B0124
:1036D00003440B441B780A2BD0D0054B1B680133E5
:1036E000034A1360012318461037BD4680BD00BF52
:1036F00028240020E804002080B582B000AF174BDA
:1037000000221A60164B00221A60164B00221A7013
:10371000154B00221A70154B00221A7000237B6093
:103720000EE07A6813469B0013441B01104A1344B1
:1037300050220021184608F09CFD7B6801337B6015
:103740007B68632BEDDD0B48FEF704FC0A48FEF7AF
:1037500001FC00BF0837BD4680BD00BF2824002003
:103760002C2400203124002032240020302400208A
:10377000E804002010EE0008C0E9000880B596B00B
:1037800000AF5D4B1B7883F00103DBB2002B03D14C
:103790005A4B1B68002B0CD159495A4808F004FDBC
:1037A0005848FEF7D7FBC8220021564808F061FDB3
:1037B0009EE0554B01221A70544B00221A604F4B69
:1037C0001B681A4652494F4808F0EEFC4D48FEF778
:1037D000C1FBC82200214B4808F04BFD4B4B002297
:1037E0001A6067E0484B1B7883F00103DBB2002BC3
:1037F00003D04848FEF7AEFB62E0444B1B68591CFF
:10380000424B1A6813469B0013441B01424A13445F
:103810000A4642493B4808F0C7FC3A48FEF79AFB83
:10382000C8220021374808F024FD384B1A68134697
:103830009B0013441B01384A99183B1D4F22184620
:1038400008F031FD002387F853303B1D1846FEF782
:103850007FFA034687F8573097F85730002B0CD182
:103860002F49284808F0A0FC2648FEF773FBC82221
:103870000021244808F0FDFC14E097F85720234B62
:103880001B68013327491F4808F08EFC1D48FEF7CE
:1038900061FBC82200211B4808F0EBFC1A4B0022F8
:1038A0001A700DE00A2000F0BDFB184B1B680133B5
:1038B000164A1360154B1A68104B1B689A4291DB2D
:1038C000114B00221A70114B1A680C4B1B689A425C
:1038D0000BDB15490B4808F067FC0A48FEF73AFB7A
:1038E000C8220021074808F0C4FC0D48FEF732FB4F
:1038F0005837BD4680BD00BF312400202824002059
:1039000024EE0008A8030020322400202C240020EC
:1039100048EE000878EE0008E80400209CEE00085D
:10392000C0E90008B8EE0008D8EE000880B596B0EF
:1039300000AF454B1B7883F00103DBB2002B03D1B2
:10394000424B1B68002B0CD14149424808F02CFC2B
:103950004048FEF7FFFAC82200213E4808F089FCE3
:103960006EE03D4B1A68394B1B689A420FDB3B49AE
:10397000384808F019FC3748FEF7ECFAC822002155
:10398000344808F076FC364B00221A7058E0324B6F
:103990001B68591C304B1A6813469B0013441B01CB
:1039A000304A13440A4630492A4808F0FDFB2948AA
:1039B000FEF7D0FAC8220021264808F05AFC264B10
:1039C0001A6813469B0013441B01264A99183B1D95
:1039D0004F22184608F067FC002387F853303B1D40
:1039E0001846FEF7B5F9034687F8573097F8573071
:1039F000002B11D11D49174808F0D6FB1548FEF7DA
:103A0000A9FAC8220021134808F033FC124B1B68A6
:103A10000133114A136013E097F857200E4B1B68CF
:103A2000013313490B4808F0BFFB0A48FEF792FA2E
:103A3000C8220021074808F01CFC094B00221A701C
:103A40005837BD4680BD00BF312400202824002007
:103A500024EE0008A80300202C240020FCEE00081F
:103A600032240020E80400209CEE0008C0E9000891
:103A7000B8EE000880B500AF0E4B00221A700E4958
:103A80000E4808F091FB0D48FEF764FAC8220021A9
:103A90000A4808F0EEFB0A49084808F085FB074889
:103AA000FEF758FAC8220021044808F0E2FB00BFE4
:103AB00080BD00BF3224002014EF0008A8030020BE
:103AC000C0E9000880B500AF2C48FEF743FA2C4847
:103AD000FEF740FA2B48FEF73DFA2B48FEF73AFA7C
:103AE0002A48FEF737FA2A48FEF734FA2948FEF743
:103AF00031FA2948FEF72EFA2848FEF72BFA284813
:103B0000FEF728FA2748FEF725FA2748FEF722FA9B
:103B10002648FEF71FFA2648FEF71CFA2548FEF74E
:103B200019FA2548FEF716FA2448FEF713FA244836
:103B3000FEF710FA2348FEF70DFA2348FEF70AFABB
:103B40002248FEF707FA2248FEF704FA2148FEF75A
:103B500001FA2148FEF7FEF92048FEF7FBF920485C
:103B6000FEF7F8F91F48FEF7F5F91F48FEF7F2F9DE
:103B70001E48FEF7EFF900BF80BD00BF3CEF000814
:103B800060EF00087CEF0008B8EF0008E4EF0008E1
:103B90001CF000084CF0000878F000089CF00008C9
:103BA000D0F0000800F1000838F1000858F10008D2
:103BB00080F10008B4F10008DCF100080CF2000804
:103BC00034F200085CF2000888F20008B4F2000841
:103BD000C8F20008DCF20008F0F200080CF300085C
:103BE0002CF3000838F300084CF30008C0E9000883
:103BF00080B500AF2349244808F0D6FA2248FEF7E2
:103C0000A9F9C8220021204808F033FB06F0F6FF8E
:103C100003461A460A231D491B4808F0C5FA1A48EC
:103C2000FEF798F9C8220021174808F022FB06F099
:103C3000F1FF0346002B01D0154B00E0154B1A464F
:103C40001549114808F0B0FA0F48FEF783F9C82269
:103C500000210D4808F00DFB10490B4808F0A4FAAC
:103C60000948FEF777F9C8220021074808F001FB50
:103C70000B48FEF76FF900BF0A48FEF76BF900BF6B
:103C800080BD00BF64F30008A803002084F300088F
:103C9000A0F30008A4F30008A8F30008BCF3000890
:103CA000D4F30008DCF3000880B400AF72B600BFA4
:103CB00000BFFDE780B485B000AF154B9B69144A87
:103CC00043F001039361124B9B6903F00103BB6056
:103CD000BB680F4BDB690E4A43F08053D3610C4B3A
:103CE000DB6903F080537B607B680A4B5B68FB6099
:103CF000FB6823F0E063FB60FB6843F00073FB604C
:103D0000044AFB68536000BF1437BD4680BC70474F
:103D1000001002400000014080B400AF00BFFDE78A
:103D200080B400AF00BFFDE780B400AF00BFFDE787
:103D300080B400AF00BFFDE780B400AF00BFFDE777
:103D400080B400AF00BFBD4680BC704780B400AFF8
:103D500000BFBD4680BC704780B400AF00BFBD4609
:103D600080BC704780B500AF00F040F900BF80BD57
:103D700080B500AF024800F056FD00BF80BD00BF17
:103D80008040002080B400AF01231846BD4680BCAF
:103D9000704780B582B000AF7860396008F0DCFA17
:103DA000034616221A604FF0FF3318460837BD4607
:103DB00080BD80B582B000AF78604FF0FF31786889
:103DC000FFF7E7FF00BFFDE780B586B000AFF86002
:103DD000B9607A6000237B610AE0AFF3008001469E
:103DE000BB685A1CBA60CAB21A707B6901337B6126
:103DF0007A697B689A42F0DB7B6818461837BD46C3
:103E000080BD80B586B000AFF860B9607A600023ED
:103E10007B6109E0BB685A1CBA601B781846AFF397
:103E200000807B6901337B617A697B689A42F1DBB0
:103E30007B6818461837BD4680BD80B483B000AF9C
:103E400078604FF0FF3318460C37BD4680BC704792
:103E500080B483B000AF786039603B684FF40052A3
:103E60005A60002318460C37BD4680BC704780B4AA
:103E700083B000AF7860012318460C37BD4680BC84
:103E8000704780B485B000AFF860B9607A600023F5
:103E900018461437BD4680BC7047000080B586B018
:103EA00000AF7860144A154BD31A7B617B693B6184
:103EB000134B1B68002B02D1114B124A1A60104B96
:103EC0001A687B6813443A699A4207D208F044FAA8
:103ED00003460C221A604FF0FF3309E0084B1B68C1
:103EE000FB60074B1A687B681344054A1360FB6844
:103EF00018461837BD4680BD005000200004000061
:103F000034240020C846002080B400AF00BFBD4666
:103F100080BC7047FFF7F8FF0B480C490C4A0023A0
:103F200002E0D458C4500433C4188C42F9D3094A6F
:103F3000094C002301E013600432A242FBD308F0D5
:103F400011FAFEF719F87047000000205003002016
:103F500048F8000850030020C4460020FEE7000097
:103F600080B500AF084B1B68074A43F0100313608D
:103F7000032000F047F90F2000F008F8FFF79AFE41
:103F80000023184680BD00BF0020024080B582B0EB
:103F900000AF7860124B1A68124B1B7819464FF429
:103FA0007A73B3FBF1F3B2FBF3F3184600F05FF959
:103FB0000346002B01D001230EE07B680F2B0AD8AB
:103FC000002279684FF0FF3000F027F9064A7B683D
:103FD0001360002300E0012318460837BD4680BD6A
:103FE0000C000020140000201000002080B400AF5E
:103FF000054B1B781A46054B1B681344034A136094
:1040000000BFBD4680BC704714000020382400204B
:1040100080B400AF024B1B681846BD4680BC704799
:104020003824002080B584B000AF7860FFF7F0FF3F
:10403000B8607B68FB60FB68B3F1FF3F05D00A4BBB
:104040001B781A46FB681344FB6000BFFFF7E0FFD4
:104050000246BB68D31AFA689A42F7D800BF00BF7D
:104060001037BD4680BD00BF1400002080B485B06D
:1040700000AF78607B6803F00703FB600C4BDB68E4
:10408000BB60BA684FF6FF031340BB60FB681A02BF
:10409000BB68134343F0BF6343F40033BB60044A7F
:1040A000BB68D36000BF1437BD4680BC704700BFFB
:1040B00000ED00E080B400AF044BDB681B0A03F0A6
:1040C00007031846BD4680BC704700BF00ED00E006
:1040D00080B483B000AF0346FB7197F90730002B23
:1040E0000BDBFB7903F01F02064997F907305B09E8
:1040F000012000FA02F241F8232000BF0C37BD4630
:1041000080BC704700E100E080B483B000AF03469C
:104110003960FB7197F90730002B0ADB3B68DAB294
:104120000C4997F907301201D2B20B4483F80023EF
:104130000AE03B68DAB20849FB7903F00F03043B5D
:104140001201D2B20B441A7600BF0C37BD4680BCB8
:10415000704700BF00E100E000ED00E080B489B0EE
:1041600000AFF860B9607A60FB6803F00703FB6199
:10417000FB69C3F10703042B28BF0423BB61FB6960
:104180000433062B02D9FB69033B00E000237B616B
:104190004FF0FF32BB6902FA03F3DA43BB681A40FF
:1041A0007B699A404FF0FF317B6901FA03F3D943F1
:1041B0007B680B40134318462437BD4680BC7047CC
:1041C00080B582B000AF78607B68013BB3F1807F3F
:1041D00001D301230FE00A4A7B68013B53600F21A2
:1041E0004FF0FF30FFF790FF054B00229A60044B21
:1041F00007221A60002318460837BD4680BD00BF5D
:1042000010E000E080B582B000AF78607868FFF71A
:104210002DFF00BF0837BD4680BD80B586B000AF1A
:104220000346B9607A60FB7300237B61FFF742FFAE
:1042300078617A68B9687869FFF790FF024697F964
:104240000F3011461846FFF75FFF00BF1837BD4615
:1042500080BD80B582B000AF0346FB7197F907308F
:104260001846FFF735FF00BF0837BD4680BD80B553
:1042700082B000AF78607868FFF7A2FF0346184667
:104280000837BD4680BD000080B48BB000AF7860B9
:10429000396000237B6200233B6269E101227B6A73
:1042A00002FA03F3FB613B681B68FA691340BB61C8
:1042B000BA69FB699A4240F058813B685B689A4A48
:1042C00093425ED0984A934275D8984A934258D008
:1042D000964A93426FD8964A934252D0944A934258
:1042E00069D8944A93424CD0924A934263D8924AF6
:1042F000934246D0904A93425DD8122B2AD8122B73
:1043000059D801A252F823F0834300085D43000806
:104310006F430008B1430008B7430008B7430008E3
:10432000B7430008B7430008B7430008B743000885
:10433000B7430008B7430008B7430008B743000875
:10434000B7430008B7430008B743000865430008B7
:1043500079430008794A934213D02CE03B68DB682C
:104360003B6229E03B68DB6804333B6224E03B6846
:10437000DB6808333B621FE03B68DB680C333B6261
:104380001AE03B689B68002B02D104233B6213E0D8
:104390003B689B68012B05D108233B627B68FA6967
:1043A0001A6109E008233B627B68FA695A6103E0FD
:1043B00000233B6200E000BFBB69FF2B01D87B6894
:1043C00001E07B6804337B61BB69FF2B02D87B6A09
:1043D0009B0002E07B6A083B9B003B617B691A689B
:1043E0000F213B6901FA03F3DB431A40396A3B6949
:1043F00001FA03F31A437B691A603B685B6803F0B8
:104400008053002B00F0B1804D4B9B694C4A43F028
:10441000010393614A4B9B6903F00103BB60BB68D6
:10442000484A7B6A9B08023352F82330FB607B6A60
:1044300003F003039B000F2202FA03F3DB43FA6845
:104440001340FB607B68404A934213D07B683F4A2D
:1044500093420DD07B683E4A934207D07B683D4A29
:10446000934201D1032306E0042304E0022302E087
:10447000012300E000237A6A02F0030292009340D5
:10448000FA681343FB602F497B6A9B080233FA6882
:1044900041F823203B685B6803F48013002B06D0AF
:1044A0002D4B9A682C49BB6913438B6006E02A4B5D
:1044B0009A68BB69DB43284913408B603B685B68A3
:1044C00003F40013002B06D0234BDA682249BB69A2
:1044D0001343CB6006E0204BDA68BB69DB431E491F
:1044E0001340CB603B685B6803F40033002B06D0BD
:1044F000194B5A681849BB6913434B6006E0164BC9
:104500005A68BB69DB43144913404B603B685B68E6
:1045100003F48033002B21D00F4B1A680E49BB697E
:1045200013430B6021E000BF000032100000311087
:1045300000002210000021100000121000001110D5
:10454000001002400000014000080140000C014042
:104550000010014000140140000401400B4B1A6898
:10456000BB69DB43094913400B607B6A01337B6203
:104570003B681A687B6A22FA03F3002B7FF48EAE45
:1045800000BF00BF2C37BD4680BC7047000401400F
:1045900080B485B000AF78600B467B807B689A68FA
:1045A0007B881340002B02D00123FB7301E0002322
:1045B000FB73FB7B18461437BD4680BC704780B444
:1045C00083B000AF78600B467B8013467B707B78AE
:1045D000002B03D07A887B681A6103E07B881A0479
:1045E0007B681A6100BF0C37BD4680BC704780B540
:1045F00084B000AF78607B68002B01D10123E8E034
:104600007B6893F89132DBB2002B06D17B680022E5
:1046100083F89022786806F01BFC7B68032283F8FD
:1046200091227B6800225A717B681B68184602F051
:10463000F6F97B6818687B6804330ECB02F0CCF97E
:104640000346002B05D07B68022283F891220123C8
:10465000BFE07B681B680021184602F0FAF90346A8
:10466000002B05D07B68022283F891220123B0E061
:104670000023FB733EE0FA7B796813469B001344EA
:10468000DB000B44113301221A70FA7B7968134660
:104690009B001344DB000B441033FA7B1A70FA7B47
:1046A000796813469B001344DB000B44133300224C
:1046B0001A70FA7B796813469B001344DB000B44A5
:1046C000203300221A60FA7B796813469B0013445A
:1046D000DB000B44243300221A60FB7B79685A1CF0
:1046E00013469B001344DB000B4400221A60FB7B43
:1046F0000133FB737B681B79FA7B9A42BBD300239F
:10470000FB7344E0FA7B796813469B001344DB009B
:104710000B4403F2511300221A70FA7B7968134696
:104720009B001344DB000B4403F5A873FA7B1A705B
:10473000FA7B796813469B001344DB000B4403F2B9
:10474000531300221A70FA7B796813469B001344B6
:10475000DB000B4403F5B07300221A60FA7B796822
:1047600013469B001344DB000B4403F5B273002295
:104770001A60FA7B796813469B001344DB000B44F4
:1047800003F5B47300221A60FB7B0133FB737B6873
:104790001B79FA7B9A42B5D37B6818687B6804332F
:1047A0000ECB02F062F90346002B05D07B68022293
:1047B00083F8912201230CE07B6800225A737B6806
:1047C000012283F891227B681B68184604F0E1FB04
:1047D000002318461037BD4680BD80B582B000AFBB
:1047E00078607B6893F89032012B01D1022316E0A8
:1047F0007B68012283F890227B681B68184602F0D0
:10480000F8F80121786806F096FD7B681B68184669
:1048100004F0B5FB7B68002283F890220023184641
:104820000837BD4680BD80B588B000AF78607B6832
:104830001B68184604F0B7FBB861BB6903F400437A
:10484000002B03D0786800F01AFB19E1BB6903F470
:104850008063002B13D07B681B68B3F844309AB296
:104860007B681B6822F4806292B2A3F844207868C7
:1048700006F069FB0021786800F005F900E1BB69EA
:1048800003F48043002B0CD07B681B68B3F84430E2
:104890009AB27B681B6822F4804292B2A3F844204B
:1048A000EEE0BB6903F40053002B0CD07B681B685F
:1048B000B3F844309AB27B681B6822F4005292B27B
:1048C000A3F84420DCE0BB6903F48053002B27D01D
:1048D0007B681B68B3F840309AB27B681B6822F093
:1048E000040292B2A3F840207B681B68B3F8403002
:1048F0009AB27B681B6822F0080292B2A3F84020AB
:10490000786806F059FB7B681B68B3F844309AB2AC
:104910007B681B6822F4805292B2A3F84420AFE077
:10492000BB6903F40063002B00F083800023FB7756
:1049300010E07B681B681A46FB7F9B001A44FB7FD4
:10494000128892B25B0020333B4423F8182CFB7F83
:104950000133FB77FB7F072BEBD97B681B68B3F830
:1049600040309AB27B681B6842F0010292B2A3F811
:1049700040207B681B68B3F840309AB27B681B68A4
:1049800022F0010292B2A3F8402000BF7B681B68AE
:10499000B3F844309BB203F48063002BF6D07B68FD
:1049A0001B68B3F844309AB27B681B6822F48062BB
:1049B00092B2A3F844200023FB770FE0FB7F7A68D4
:1049C00012681146FA7F92000A445B0020333B4490
:1049D00033F8183C1380FB7F0133FB77FB7F072BF9
:1049E000ECD97B681B68B3F840309AB27B681B68CF
:1049F00042F0080292B2A3F840207B681B68B3F82B
:104A000044309AB27B681B6822F4006292B2A3F829
:104A100044207B681B68B3F840309AB27B681B68FF
:104A200042F0040292B2A3F84020786806F0AAFA95
:104A300026E0BB6903F40073002B0FD07B681B6872
:104A4000B3F844309AB27B681B6822F4007292B2C9
:104A5000A3F84420786806F068FA11E0BB6903F413
:104A60008073002B0CD07B681B68B3F844309AB27B
:104A70007B681B6822F4807292B2A3F8442000BFC6
:104A80002037BD4680BD80B582B000AF78600B4650
:104A9000FB707B6893F89032012B01D1022312E066
:104AA0007B68012283F890227B68FA785A737B68CE
:104AB0001B68FA781146184604F04EFA7B6800220B
:104AC00083F89022002318460837BD4680BD80B584
:104AD00084B000AF7860084611461A460346FB7062
:104AE0000B463B801346BB700023FB7297F90330E3
:104AF000002B0EDAFB7803F0070213469B001344E9
:104B0000DB0010337A681344FB60FB6801225A70A3
:104B10000EE0FB7803F0070213469B001344DB0012
:104B200003F5A8737A681344FB60FB6800225A708F
:104B3000FB7803F00703DAB2FB681A703A88FB6867
:104B40001A61FB68BA78DA70BB78022B02D1FB6875
:104B500000221A717B6893F89032012B01D1022355
:104B60000EE07B68012283F890227B681B68F9685D
:104B7000184601F097FF7B68002283F89022FB7AA9
:104B800018461037BD4680BD80B584B000AF786050
:104B90000B46FB7097F90330002B0EDAFB7803F01D
:104BA000070213469B001344DB0010337A6813445A
:104BB000FB60FB6801225A700EE0FB7803F00702ED
:104BC00013469B001344DB0003F5A8737A68134473
:104BD000FB60FB6800225A70FB7803F00703DAB22F
:104BE000FB681A707B6893F89032012B01D1022385
:104BF0000EE07B68012283F890227B681B68F968CD
:104C0000184602F00FFB7B68002283F890220023F5
:104C100018461037BD4680BD80B586B000AFF8603D
:104C20007A603B600B46FB72FB7A03F00702134687
:104C30009B001344DB0003F5A873FA6813447B61FF
:104C40007B697A685A617B693A689A617B6900225C
:104C5000DA617B6900225A70FB7A03F00703DAB24B
:104C60007B691A70FB681B687969184602F0C6FCFC
:104C7000002318461837BD4680BD80B483B000AF0E
:104C800078600B46FB70FB7803F0070279681346E7
:104C90009B001344DB000B4403F5B6731B681846F6
:104CA0000C37BD4680BC704780B586B000AFF86059
:104CB0007A603B600B46FB72FB7A03F007021346F7
:104CC0009B001344DB001033FA6813447B617B695B
:104CD0007A685A617B693A689A617B69012283F834
:104CE00024207B693A681A627B690022DA617B6959
:104CF00001225A70FB7A03F00703DAB27B691A705B
:104D0000FB681B687969184602F078FC0023184696
:104D10001837BD4680BD80B584B000AF78600B46C3
:104D2000FB70FB7803F007037A681279934201D98C
:104D300001234CE097F90330002B0EDAFB7803F0E7
:104D4000070213469B001344DB0010337A681344B8
:104D5000FB60FB6801225A700CE0FA7813469B0056
:104D60001344DB0003F5A8737A681344FB60FB6807
:104D700000225A70FB6801229A70FB7803F0070347
:104D8000DAB2FB681A707B6893F89032012B01D17C
:104D900002231CE07B68012283F890227B681B6859
:104DA000F968184603F0DBFFFB7803F00703002BDC
:104DB00008D17B681A687B6803F52673194610468C
:104DC00004F000F97B68002283F890220023184643
:104DD0001037BD4680BD80B584B000AF78600B460B
:104DE000FB70FB7803F00F037A681279934201D9C4
:104DF000012340E097F90330002B0EDAFB7803F033
:104E0000070213469B001344DB0010337A681344F7
:104E1000FB60FB6801225A700EE0FB7803F007028A
:104E200013469B001344DB0003F5A8737A68134410
:104E3000FB60FB6800225A70FB6800229A70FB78C6
:104E400003F00703DAB2FB681A707B6893F89032BC
:104E5000012B01D102230EE07B68012283F890220E
:104E60007B681B68F968184603F0C9FF7B6800225D
:104E700083F89022002318461037BD4680BD80B5C8
:104E800096B000AF7860BBE37B681B68B3F8443032
:104E9000A7F84E30B7F84E30DBB203F00F0387F8B7
:104EA0004D3097F84D30002B40F07581B7F84E30FB
:104EB00003F01003002B4ED17B681B681B889BB24C
:104EC00023F4E14323F07003FB817B681A68FB89BC
:104ED0006FEA43436FEA53439BB213807B681033FE
:104EE0007B657B681B68B3F850309BB21A467B6DBC
:104EF0001B78DB00134402335B007A6812681344AA
:104F000003F580631B88C3F309027B6DDA617B6D57
:104F10005A697B6DDB691A447B6D5A6100217868A0
:104F200005F0E9FF7B685B7BDBB2002B00F0688358
:104F30007B6D9B69002B40F063837B685B7BDBB2FE
:104F400063F07F03DAB27B681B68A3F84C207B68B0
:104F500000225A7354E37B6803F5A8737B657B6872
:104F60001B681B88A7F84A30B7F84A3003F400637F
:104F7000002B34D07B681B68B3F850309BB21A46C4
:104F80007B6D1B78DB00134406335B007A68126884
:104F9000134403F580631B88C3F309027B6DDA6158
:104FA0007B6818687B6803F526717B6DDA887B6DFA
:104FB000DB699BB204F057F87B681B681B889AB2C8
:104FC00040F68F7313403B827B681B683A8A42F03D
:104FD000800292B21A80786805F060FF10E3B7F99A
:104FE0004A30002B80F20C837B681B681B889AB2C6
:104FF00040F68F731340FB837B681B68FA8B42F08B
:10500000800292B21A807B681B68B3F850309BB262
:105010001A467B6D1B78DB00134406335B007A680D
:105020001268134403F580631B88C3F309027B6D88
:10503000DA617B6DDB69002B19D07B6D5B69002B1E
:1050400015D07B6818687B6D59697B6DDA887B6D3C
:10505000DB699BB204F007F87B6D5A697B6DDB69F5
:105060001A447B6D5A610021786805F029FF7B683E
:105070001B681B88A7F84A30B7F84A3003F400636E
:10508000002B40F0BD82B7F84A3003F44053B3F52B
:10509000405F00F0B5827B681B68BB617B681B6862
:1050A000B3F850309BB21A46BB691344BB61BB696D
:1050B00003F20C437B617B691B889BB2C3F309033A
:1050C0009AB27B691A807B6D1B693E2B1DD97B6D63
:1050D0001B695B097B647B6D1B6903F01F03002B5D
:1050E00002D17B6C013B7B647B691B889AB27B6C31
:1050F0009BB29B029BB213439BB26FEA43436FEA9E
:1051000053439AB27B691A8026E07B6D1B69002BA2
:105110000AD17B691B889BB26FEA43436FEA534312
:105120009AB27B691A8017E07B6D1B695B087B6410
:105130007B6D1B6903F00103002B02D07B6C0133F4
:105140007B647B691B889AB27B6C9BB29B029BB28F
:1051500013439AB27B691A807B681B681B889BB2D9
:1051600023F4804323F070037B827B8A83F4805393
:105170007B827B8A83F400537B827B681A687B8AFC
:1051800043F07F4343F47F0343F4004343F0800341
:105190009BB2138034E27B681B681A4697F84D3047
:1051A0009B0013441B88A7F84A30B7F94A30002BFC
:1051B00080F2FC807B681B681A4697F84D309B0094
:1051C00013441B889AB240F68F731340A7F84830F7
:1051D0007B681B681A4697F84D309B001344B7F85C
:1051E000482042F0800292B21A8097F84D20134670
:1051F0009B001344DB0003F5A8737A6813447B65B6
:105200007B6D1B7B002B25D17B681B68B3F850306E
:105210009BB21A467B6D1B78DB00134406335B00A0
:105220007A681268134403F580631B88C3F309038B
:10523000A7F85030B7F85030002B00F092807B6810
:1052400018687B6D59697B6DDA88B7F8503003F0C8
:105250000AFF86E07B6DDB78022B0AD1B7F84A3073
:105260001A46796D786800F0D9F90346A7F85030EE
:1052700077E07B681B681A467B6D1B789B001344A4
:105280001B889BB223F4E04323F07003A7F852304D
:105290007B681B681A467B6D1B789B001A44B7F825
:1052A000523043F07F4343F47F0343F4004343F021
:1052B000C0039BB213807B681B681A467B6D1B780A
:1052C0009B0013441B889BB203F48043002B24D023
:1052D0007B681B68B3F850309BB21A467B6D1B7815
:1052E000DB00134402335B007A681268134403F551
:1052F00080631B88C3F30903A7F85030B7F8503018
:10530000002B2ED07B6818687B6D59697B6D1A89DC
:10531000B7F8503003F0A7FE23E07B681B68B3F8B2
:1053200050309BB21A467B6D1B78DB00134406336A
:105330005B007A681268134403F580631B88C3F32B
:105340000903A7F85030B7F85030002B09D07B681C
:1053500018687B6D59697B6D5A89B7F8503003F036
:1053600082FE7B6DDA69B7F850301A447B6DDA61E2
:105370007B6D5A69B7F850301A447B6D5A617B6D6A
:105380009B69002B05D0B7F850207B6D1B699A42B2
:1053900006D27B6D1B781946786805F091FD05E013
:1053A0007B681B68796D184602F028F9B7F84A3017
:1053B00003F08003002B00F0238197F84D20134663
:1053C0009B001344DB0010337A6813447B657B68D1
:1053D0001B681A4697F84D309B0013441B889BB2FC
:1053E00023F4E14323F07003A7F842307B681B6885
:1053F0001A4697F84D309B001A44B7F842306FEACE
:1054000043436FEA53439BB213807B6DDB78012BE0
:1054100040F0A2807B6D00229A617B6D1B7B002B8C
:1054200000F09380B7F84A3003F04003002B46D0D9
:105430007B6D5B78002B26D17B681B687B627B6869
:105440001B68B3F850309BB21A467B6A13447B62E8
:105450007B6D1B781A017B6A134403F204433B62A1
:105460003B6A1B889BB2C3F309039AB23B6A1A805A
:105470003B6A1B889BB26FEA43436FEA53439AB27D
:105480003B6A1A8061E07B6D5B78012B5DD17B68A4
:105490001B68FB627B681B68B3F850309BB21A46EE
:1054A000FB6A1344FB627B6D1B781A01FB6A134491
:1054B00003F20443BB62BB6A00221A8045E07B68AA
:1054C0001B68FB637B6D5B78002B26D17B681B68B8
:1054D0007B637B681B68B3F850309BB21A467B6BCA
:1054E00013447B637B6D1B781A017B6B134403F2BF
:1054F0000C433B633B6B1B889BB2C3F309039AB21B
:105500003B6B1A803B6B1B889BB26FEA43436FEA8D
:1055100053439AB23B6B1A8017E07B6D5B78012B8B
:1055200013D17B681B68B3F850309BB21A46FB6BF3
:105530001344FB637B6D1B781A01FB6B134403F26E
:105540000C43BB63BB6B00221A807B6D1B78194632
:10555000786805F0D0FC53E0B7F84A3003F4807364
:10556000002B46D17B681B68B3F850309BB21A46BB
:105570007B6D1B78DB00134402335B007A68126892
:10558000134403F580631B88C3F30903A7F8403075
:105590007B6D9A69B7F840309A4207D97B6D9A695A
:1055A000B7F84030D21A7B6D9A6102E07B6D002221
:1055B0009A617B6D9B69002B06D17B6D1B78194628
:1055C000786805F098FC1BE07B6D5A69B7F84030AD
:1055D0001A447B6D5A617B6DDA69B7F840301A4422
:1055E0007B6DDA617B681B68796D184602F006F8FE
:1055F00006E0B7F84A301A46796D786800F01BF972
:105600007B681B68B3F844309BB21BB2002BFFF6DB
:105610003BAC002318465837BD4680BD80B588B0E6
:1056200000AFF860B9601346FB80FB8803F4804349
:10563000002B7ED0FB681B68B3F850309BB21A4633
:10564000BB681B78DB00134402335B00FA68126806
:10565000134403F580631B88C3F309037B83BB6892
:105660009A697B8B9A4206D3BB689A697B8BD21A64
:10567000BB689A6102E0BB6800229A61BB689B69C3
:10568000002B23D1FB681B681A46BB681B789B0064
:1056900013441B889BB223F4804323F070033B83A5
:1056A0003B8B83F400533B83FB681B681A46BB6843
:1056B0001B789B001A443B8B43F07F4343F47F03EA
:1056C00043F4004343F080039BB21380FB8803F054
:1056D0004003002B1FD0FB681B681A46BB681B7871
:1056E0009B0013441B889BB223F4E04323F0700318
:1056F000FB82FB681B681A46BB681B789B001A4438
:10570000FB8A43F07F4343F47F0343F4004343F0B9
:10571000C0039BB213807B8B002B00F08780FB685B
:105720001868BB685969BB681A897B8B03F09BFCBE
:105730007CE0FB681B68B3F850309BB21A46BB682C
:105740001B78DB00134406335B00FA6812681344CD
:1057500003F580631B88C3F309037B83BB689A69E5
:105760007B8B9A4206D3BB689A697B8BD21ABB6843
:105770009A6102E0BB6800229A61BB689B69002BBA
:1057800023D1FB681B681A46BB681B789B00134437
:105790001B889BB223F4804323F07003FB83FB8BB5
:1057A00083F40053FB83FB681B681A46BB681B78B5
:1057B0009B001A44FB8B43F07F4343F47F0343F485
:1057C000004343F080039BB21380FB8803F0400347
:1057D000002B1FD1FB681B681A46BB681B789B0017
:1057E00013441B889BB223F4E04323F07003BB8374
:1057F000FB681B681A46BB681B789B001A44BB8B6E
:1058000043F07F4343F47F0343F4004343F0C0037A
:105810009BB213807B8B002B08D0FB681868BB6899
:105820005969BB685A897B8B03F01DFC7B8B18463A
:105830002037BD4680BD80B5A4B000AFF860B96028
:105840001346FB80FB8803F04003002B00F0DD8152
:10585000FB681B68B3F850309BB21A46BB681B78D4
:10586000DB00134402335B00FA681268134403F54B
:1058700080631B88C3F30903A7F88630BB689A6965
:10588000B7F886309A4207D9BB689A69B7F886306C
:10589000D21ABB689A6102E0BB6800229A61BB68B9
:1058A0009B69002B40F0B980BB685B78002B26D148
:1058B000FB681B68FB62FB681B68B3F850309BB247
:1058C0001A46FB6A1344FB62BB681B781A01FB6A29
:1058D000134403F20443BB62BB6A1B889BB2C3F34D
:1058E00009039AB2BB6A1A80BB6A1B889BB26FEA33
:1058F00043436FEA53439AB2BB6A1A801AE0BB680B
:105900005B78012B16D1FB681B687B63FB681B6807
:10591000B3F850309BB21A467B6B13447B63BB6871
:105920001B781A017B6B134403F204433B633B6B0C
:1059300000221A80FB681B687B62BB685B78002BC7
:1059400026D1FB681B68FB61FB681B68B3F850300D
:105950009BB21A46FB691344FB61BB681B781A01B2
:10596000FB69134403F20C43BB61BB691B889BB208
:10597000C3F309039AB2BB691A80BB691B889BB247
:105980006FEA43436FEA53439AB2BB691A8017E048
:10599000BB685B78012B13D1FB681B68B3F85030F0
:1059A0009BB21A467B6A13447B62BB681B781A0160
:1059B0007B6A134403F20C433B623B6A00221A8069
:1059C000BB681B781946F86805F095FAFB8803F464
:1059D0008043002B00F0FC82FB681B681A46BB6802
:1059E0001B789B0013441B889BB223F4E04323F0F5
:1059F0007003FB82FB681B681A46BB681B789B0020
:105A00001A44FB8A43F07F4343F47F0343F440434B
:105A100043F080039BB21380DAE2FB8803F48043F7
:105A2000002B21D0FB681B681A46BB681B789B00C3
:105A300013441B889BB223F4E04323F07003A7F8C0
:105A40008A30FB681B681A46BB681B789B001A44A7
:105A5000B7F88A3043F07F4343F47F0343F4404375
:105A600043F080039BB21380BB6893F82430012B72
:105A700040F0AE82BB685A69B7F886301A44BB68FA
:105A80005A61BB68DA69B7F886301A44BB68DA61D4
:105A9000BB681A6ABB681B699A420BD3BB681B6957
:105AA000C7F88C30BB681A6AD7F88C30D21ABB683A
:105AB0001A6217E0BB681B6A002B08D1B7F8863062
:105AC000C7F88C30BB68002283F824200AE0BB684A
:105AD000002283F82420BB681B6AC7F88C30BB689F
