:020000040800F2
:1000000000500020D9410008DD3F0008E53F00080E
:10001000ED3F0008F53F0008FD3F0008000000002C
:100020000000000000000000000000000540000883
:1000300011400008000000001D4000082940000891
:100040002142000821420008214200082142000804
:1000500021420008214200082142000821420008F4
:1000600021420008214200082142000821420008E4
:1000700021420008214200082142000821420008D4
:1000800021420008214200082142000821420008C4
:1000900035400008214200082142000821420008A2
:1000A00021420008214200082142000821420008A4
:1000B0002142000821420008214200082142000894
:1000C0002142000821420008214200082142000884
:1000D0002142000821420008214200082142000874
:1000E00021420008214200082142000800000000CF
:1000F0000000000000000000000000000000000000
:0C01000000000000000000005FF808F1A3
:1001100010B5054C237833B9044B13B10448AFF341
:1001200000800123237010BD500300200000000058
:1001300058E8000808B5034B1BB103490348AFF367
:10014000008008BD000000005403002058E80008AB
:10015000034613F8012B002AFBD1181A0138704707
:1001600081F0004102E000BF83F0004330B54FEA68
:1001700041044FEA430594EA050F08BF90EA020FD5
:100180001FBF54EA000C55EA020C7FEA645C7FEA68
:10019000655C00F0E2804FEA5454D4EB5555B8BF8B
:1001A0006D420CDD2C4480EA020281EA030382EAFC
:1001B000000083EA010180EA020281EA0303362D8E
:1001C00088BF30BD11F0004F4FEA01314FF4801C61
:1001D0004CEA113102D0404261EB410113F0004F73
:1001E0004FEA03334CEA133302D0524263EB43032A
:1001F00094EA050F00F0A780A4F10104D5F1200EC8
:100200000DDB02FA0EFC22FA05F2801841F1000122
:1002100003FA0EF2801843FA05F359410EE0A5F1F6
:1002200020050EF1200E012A03FA0EFC28BF4CF027
:10023000020C43FA05F3C01851EBE37101F00045DD
:1002400007D54FF0000EDCF1000C7EEB00006EEBEA
:100250000101B1F5801F1BD3B1F5001F0CD3490874
:100260005FEA30004FEA3C0C04F101044FEA4452CB
:1002700012F5800F80F09A80BCF1004F08BF5FEA52
:10028000500C50F1000041EB045141EA050130BD32
:100290005FEA4C0C404141EB0101013C28BFB1F544
:1002A000801FE9D291F0000F04BF01460020B1FA8F
:1002B00081F308BF2033A3F10B03B3F120020CDA62
:1002C0000C3208DD02F1140CC2F10C0201FA0CF040
:1002D00021FA02F10CE002F11402D8BFC2F1200CA5
:1002E00001FA02F120FA0CFCDCBF41EA0C0190405B
:1002F000E41AA2BF01EB0451294330BD6FEA0404A4
:100300001F3C1CDA0C340EDC04F11404C4F120028E
:1003100020FA04F001FA02F340EA030021FA04F3A0
:1003200045EA030130BDC4F10C04C4F1200220FAF7
:1003300002F001FA04F340EA0300294630BD21FA35
:1003400004F0294630BD94F0000F83F4801306BFFB
:1003500081F480110134013D4EE77FEA645C18BFEF
:100360007FEA655C29D094EA050F08BF90EA020F86
:1003700005D054EA000C04BF1946104630BD91EA7E
:10038000030F1EBF0021002030BD5FEA545C05D181
:100390004000494128BF41F0004130BD14F58004C0
:1003A0003CBF01F5801130BD01F0004545F0FE4134
:1003B00041F470014FF0000030BD7FEA645C1ABF69
:1003C000194610467FEA655C1CBF0B46024650EAA0
:1003D000013406BF52EA033591EA030F41F40021CC
:1003E00030BD00BF90F0000F04BF0021704730B552
:1003F0004FF4806404F132044FF000054FF0000127
:1004000050E700BF90F0000F04BF0021704730B5E7
:100410004FF4806404F1320410F0004548BF4042BC
:100420004FF000013EE700BF42004FEAE2014FEA11
:1004300031014FEA02701FBF12F07F4393F07F4FEC
:1004400081F06051704732F07F4208BF704793F0EF
:100450007F4F04BF41F40021704730B54FF4607402
:1004600001F0004521F000411CE700BF50EA010205
:1004700008BF704730B54FF000050AE050EA0102AE
:1004800008BF704730B511F0004502D5404261EB1E
:1004900041014FF4806404F132045FEA915C3FF45F
:1004A000D8AE4FF003025FEADC0C18BF03325FEAFC
:1004B000DC0C18BF033202EBDC02C2F1200300FAAD
:1004C00003FC20FA02F001FA03FE40EA0E0021FAD2
:1004D00002F11444BDE600BF70B54FF0FF0C4CF4C0
:1004E000E06C1CEA11541DBF1CEA135594EA0C0F72
:1004F00095EA0C0F00F0DEF82C4481EA030621EAAD
:100500004C5123EA4C5350EA013518BF52EA0335E7
:1005100041F4801143F4801338D0A0FB02CE4FF099
:100520000005E1FB02E506F00042E0FB03E54FF0C9
:100530000006E1FB03569CF0000F18BF4EF0010EC1
:10054000A4F1FF04B6F5007F64F5407404D25FEABD
:100550004E0E6D4146EB060642EAC62141EA555170
:100560004FEAC52040EA5E504FEACE2EB4F1FD0CB2
:1005700088BFBCF5E06F1ED8BEF1004F08BF5FEA30
:10058000500E50F1000041EB045170BD06F00046E2
:1005900046EA010140EA020081EA0301B4EB5C048F
:1005A000C2BFD4EB0C0541EA045170BD41F4801187
:1005B0004FF0000E013C00F3AB8014F1360FDEBFAC
:1005C000002001F0004170BDC4F10004203C35DA88
:1005D0000C341BDC04F11404C4F1200500FA05F30B
:1005E00020FA04F001FA05F240EA020001F00042AC
:1005F00021F0004110EBD37021FA04F642EB060122
:100600005EEA430E08BF20EAD37070BDC4F10C044B
:10061000C4F1200500FA04F320FA05F001FA04F20F
:1006200040EA020001F0004110EBD37041F10001FB
:100630005EEA430E08BF20EAD37070BDC4F1200506
:1006400000FA05F24EEA020E20FA04F301FA05F26E
:1006500043EA020321FA04F001F0004121FA04F216
:1006600020EA020000EBD3705EEA430E08BF20EAE6
:10067000D37070BD94F0000F0FD101F00046400020
:1006800041EB010111F4801F08BF013CF7D041EAA2
:10069000060195F0000F18BF704703F000465200A6
:1006A00043EB030313F4801F08BF013DF7D043EA77
:1006B0000603704794EA0C0F0CEA135518BF95EA2D
:1006C0000C0F0CD050EA410618BF52EA4306D1D1B4
:1006D00081EA030101F000414FF0000070BD50EAD3
:1006E000410606BF1046194652EA430619D094EA5D
:1006F0000C0F02D150EA013613D195EA0C0F05D147
:1007000052EA03361CBF104619460AD181EA03019A
:1007100001F0004141F0FE4141F470014FF0000052
:1007200070BD41F0FE4141F4780170BD70B54FF0ED
:10073000FF0C4CF4E06C1CEA11541DBF1CEA13556D
:1007400094EA0C0F95EA0C0F00F0A7F8A4EB05044F
:1007500081EA030E52EA03354FEA013100F0888046
:100760004FEA03334FF0805545EA131343EA12630F
:100770004FEA022245EA111545EA10654FEA0026C4
:100780000EF000419D4208BF964244F1FD0404F57D
:10079000407402D25B084FEA3202B61A65EB0305D9
:1007A0005B084FEA32024FF480104FF4002CB6EB96
:1007B000020E75EB030E22BFB61A754640EA0C0016
:1007C0005B084FEA3202B6EB020E75EB030E22BF56
:1007D000B61A754640EA5C005B084FEA3202B6EB97
:1007E000020E75EB030E22BFB61A754640EA9C0056
:1007F0005B084FEA3202B6EB020E75EB030E22BF26
:10080000B61A754640EADC0055EA060E18D04FEAE3
:10081000051545EA16754FEA06164FEAC30343EA83
:1008200052734FEAC2025FEA1C1CC0D111F4801F50
:100830000BD141EA00014FF000004FF0004CB6E749
:1008400011F4801F04BF01430020B4F1FD0C88BFE8
:10085000BCF5E06F3FF6AFAEB5EB030C04BFB6EBF3
:10086000020C5FEA500C50F1000041EB045170BDE6
:100870000EF0004E4EEA113114EB5C04C2BFD4EB13
:100880000C0541EA045170BD41F480114FF0000E97
:10089000013C90E645EA060E8DE60CEA135594EA13
:1008A0000C0F08BF95EA0C0F3FF43BAF94EA0C0F16
:1008B0000AD150EA01347FF434AF95EA0C0F7FF48B
:1008C00025AF104619462CE795EA0C0F06D152EADF
:1008D00003353FF4FDAE1046194622E750EA4106C3
:1008E00018BF52EA43067FF4C5AE50EA41047FF4D4
:1008F0000DAF52EA43057FF4EBAE12E74FF0FF3C39
:1009000006E000BF4FF0010C02E000BF4FF0010C09
:100910004DF804CD4FEA410C7FEA6C5C4FEA430C82
:1009200018BF7FEA6C5C1BD001B050EA410C0CBFD1
:1009300052EA430C91EA030F02BF90EA020F002033
:10094000704710F1000F91EA030F58BF994208BF9A
:1009500090422CBFD8176FEAE37040F00100704757
:100960004FEA410C7FEA6C5C02D150EA013C07D1AE
:100970004FEA430C7FEA6C5CD6D152EA033CD3D0F9
:100980005DF8040B704700BF8446104662468C46F3
:100990001946634600E000BF01B5FFF7B7FF002826
:1009A00048BF10F1000F01BD4DF808EDFFF7F4FF4F
:1009B0000CBF012000205DF808FB00BF4DF808EDDA
:1009C000FFF7EAFF34BF012000205DF808FB00BFFD
:1009D0004DF808EDFFF7E0FF94BF012000205DF81F
:1009E00008FB00BF4DF808EDFFF7CEFF94BF0120D4
:1009F00000205DF808FB00BF4DF808EDFFF7C4FFCD
:100A000034BF012000205DF808FB00BF4FEA410C15
:100A10007FEA6C5C02D150EA013C0AD14FEA430CF8
:100A20007FEA6C5C02D152EA033C02D14FF0000035
:100A300070474FF0010070474A0011D212F50012C2
:100A400011D20DD56FF47873B3EB62520ED44FEA26
:100A5000C12343F0004343EA505323FA02F07047A6
:100A60004FF00000704750EA013002D14FF0FF30E4
:100A700070474FF0000070474FEA4102B2F1E04387
:100A800024BFB3F5001CDCF1FE5C0DD901F0004C75
:100A90004FEAC0024CEA5070B2F1004F40EB8300C5
:100AA00008BF20F00100704711F0804F21D113F1F1
:100AB0003872BCBF01F00040704741F480114FEA2A
:100AC0005252C2F11802C2F1200C10FA0CF320FAB3
:100AD00002F018BF40F001004FEAC1234FEAD323D0
:100AE00003FA0CFC40EA0C0023FA02F34FEA43033A
:100AF000CCE77FEA625307D150EA01331EBF4FF0C3
:100B0000FE4040F44000704701F0004040F0FE40DD
:100B100040F40000704700BF80F0004002E000BFDA
:100B200081F0004142001FBF5FEA410392EA030FD8
:100B30007FEA226C7FEA236C6AD04FEA1262D2EB22
:100B40001363C1BFD218414048404140B8BF5B4227
:100B5000192B88BF704710F0004F40F4000020F0C0
:100B60007F4018BF404211F0004F41F4000121F0D6
:100B70007F4118BF494292EA030F3FD0A2F1010220
:100B800041FA03FC10EB0C00C3F1200301FA03F15E
:100B900000F0004302D5494260EB4000B0F5000F81
:100BA00013D3B0F1807F06D340084FEA310102F140
:100BB0000102FE2A51D2B1F1004F40EBC25008BFF2
:100BC00020F0010040EA03007047490040EB0000BC
:100BD000013A28BFB0F5000FEDD2B0FA80FCACF1BD
:100BE000080CB2EB0C0200FA0CF0AABF00EBC250EA
:100BF00052421843BCBFD0401843704792F0000FD8
:100C000081F4000106BF80F400000132013BB5E72A
:100C10004FEA41037FEA226C18BF7FEA236C21D0A0
:100C200092EA030F04D092F0000F08BF0846704705
:100C300090EA010F1CBF0020704712F07F4F04D1D3
:100C4000400028BF40F00040704712F100723CBFE6
:100C500000F50000704700F0004343F0FE4040F410
:100C6000000070477FEA226216BF08467FEA2363CE
:100C70000146420206BF5FEA412390EA010F40F4B9
:100C8000800070474FF0000304E000BF10F0004305
:100C900048BF40425FEA000C08BF704743F09643EC
:100CA00001464FF000001CE050EA010208BF704707
:100CB0004FF000030AE000BF50EA010208BF70478E
:100CC00011F0004302D5404261EB41015FEA010CA3
:100CD00002BF84460146002043F0B64308BFA3F19B
:100CE0008053A3F50003BCFA8CF2083AA3EBC2537D
:100CF00010DB01FA02FC634400FA02FCC2F120029C
:100D0000BCF1004F20FA02F243EB020008BF20F0D2
:100D10000100704702F1200201FA02FCC2F1200238
:100D200050EA4C0021FA02F243EB020008BF20EA2D
:100D3000DC7070474FF0FF0C1CEAD0521EBF1CEA5B
:100D4000D15392EA0C0F93EA0C0F6FD01A4480EA49
:100D5000010C400218BF5FEA41211ED04FF0006332
:100D600043EA501043EA5111A0FB01310CF000405E
:100D7000B1F5000F3EBF490041EAD3715B0040EA84
:100D8000010062F17F02FD2A1DD8B3F1004F40EB54
:100D9000C25008BF20F00100704790F0000F0CF027
:100DA000004C08BF49024CEA502040EA51207F3AEB
:100DB000C2BFD2F1FF0340EAC250704740F40000C6
:100DC0004FF00003013A5DDC12F1190FDCBF00F0B7
:100DD00000407047C2F10002410021FA02F1C2F165
:100DE000200200FA02FC5FEA310040F1000053EA01
:100DF0004C0308BF20EADC70704792F0000F00F04F
:100E0000004C02BF400010F4000F013AF9D040EA54
:100E10000C0093F0000F01F0004C02BF490011F4E8
:100E2000000F013BF9D041EA0C018FE70CEAD153E6
:100E300092EA0C0F18BF93EA0C0F0AD030F0004C66
:100E400018BF31F0004CD8D180EA010000F000401A
:100E5000704790F0000F17BF90F0004F084691F0D8
:100E6000000F91F0004F14D092EA0C0F01D1420212
:100E70000FD193EA0C0F03D14B0218BF084608D1DB
:100E800080EA010000F0004040F0FE4040F4000025
:100E9000704740F0FE4040F4400070474FF0FF0CB8
:100EA0001CEAD0521EBF1CEAD15392EA0C0F93EAFF
:100EB0000C0F69D0A2EB030280EA010C49024FEA51
:100EC000402037D04FF0805343EA111143EA10130A
:100ED0000CF000408B4238BF5B0042F17D024FF4C2
:100EE000000C8B4224BF5B1A40EA0C00B3EB510F9D
:100EF00024BFA3EB510340EA5C00B3EB910F24BF86
:100F0000A3EB910340EA9C00B3EBD10F24BFA3EB0A
:100F1000D10340EADC001B0118BF5FEA1C1CE0D1D2
:100F2000FD2A3FF650AF8B4240EBC25008BF20F085
:100F3000010070470CF0004C4CEA50207F32C2BFD9
:100F4000D2F1FF0340EAC250704740F400004FF076
:100F50000003013A37E792F0000F00F0004C02BFA7
:100F6000400010F4000F013AF9D040EA0C0093F071
:100F7000000F01F0004C02BF490011F4000F013BCB
:100F8000F9D041EA0C0195E70CEAD15392EA0C0F33
:100F900008D142027FF47DAF93EA0C0F7FF470AF6B
:100FA000084676E793EA0C0F04D14B023FF44CAFAE
:100FB00008466EE730F0004C18BF31F0004CCAD143
:100FC00030F000427FF45CAF31F000437FF43CAF7F
:100FD0005FE700BF4FF0FF3C06E000BF4FF0010CA1
:100FE00002E000BF4FF0010C4DF804CD4FEA400283
:100FF0004FEA41037FEA226C18BF7FEA236C11D0CD
:1010000001B052EA530C18BF90EA010F58BFB2EB7F
:10101000030088BFC81738BF6FEAE17018BF40F0FF
:10102000010070477FEA226C02D15FEA402C05D1B3
:101030007FEA236CE4D15FEA412CE1D05DF8040B38
:10104000704700BF844608466146FFE70FB5FFF7CB
:10105000C9FF002848BF10F1000F0FBD4DF808ED83
:10106000FFF7F4FF0CBF012000205DF808FB00BF74
:101070004DF808EDFFF7EAFF34BF012000205DF8CE
:1010800008FB00BF4DF808EDFFF7E0FF94BF01201B
:1010900000205DF808FB00BF4DF808EDFFF7D2FF18
:1010A00094BF012000205DF808FB00BF4DF808ED5B
:1010B000FFF7C8FF34BF012000205DF808FB00BF28
:1010C0004FEA40024FEA41037FEA226C02D15FEA15
:1010D000402C08D17FEA236C02D15FEA412C02D177
:1010E0004FF0000070474FF0010070474FEA400298
:1010F000B2F1FE4F0FD34FF09E03B3EB12620DD946
:101100004FEA002343F0004310F0004F23FA02F0AF
:1011100018BF404270474FF00000704712F1610F56
:1011200001D1420205D110F0004008BF6FF000402D
:1011300070474FF00000704742000ED2B2F1FE4FF0
:101140000BD34FF09E03B3EB126209D44FEA002396
:1011500043F0004323FA02F070474FF0000070475D
:1011600012F1610F01D1420202D14FF0FF307047FE
:101170004FF00000704700BF38B50022002304463E
:101180000D46FFF71BFC28B920462946BDE838402C
:1011900000F00AB8204605F1004100F005F8404291
:1011A00061EB410138BD00BFD0B500220B4B0646B4
:1011B0000F46FFF791F9FFF73FFC0446FFF712F9DE
:1011C0000022074BFFF788F902460B4630463946A6
:1011D000FEF7CAFFFFF730FC2146D0BD0000F03D0E
:1011E0000000F04180B500AF092200210F480BF04C
:1011F00094F90E4B00221A700C4B00225A700B4BC4
:1012000000229A70094B0022DA70084B00221A71F2
:10121000064B00225A71054B00229A71034B0022A3
:10122000DA71024B00221A7200BF80BD9C030020BD
:1012300080B500AF302200211C480BF06EF91B4B2B
:101240001B4A07CA03C31A70184B1A4ADA60174BB5
:10125000184A1A61154B174A5A61144B154A9A617C
:10126000124B144ADA61114B4FF0FF321A620F4BE6
:10127000002283F824200D4B002283F825200B4BFD
:10128000002283F82620094B002283F82720074BF1
:10129000002283F82820054B002283F82920034BE5
:1012A000002283F82A2000BF80BD00BF6C0300200D
:1012B0009C0300200000C07F80B588B000AFF860BC
:1012C000B9607A60BB681B781A46FB681344FB61FF
:1012D00008E0FB690133FB61BB681B780133DAB2BC
:1012E000BB681A70FB691B787B767B7E202BF0D065
:1012F0007B7E092BEDD07B7E002B01D100234DE0BE
:10130000FB697B617B7E2B2B02D07B7E2D2B08D152
:10131000FB690133FB61BB681B780133DAB2BB6840
:101320001A700023FB760023BB761CE07B7E2F2BFC
:1013300005D97B7E392B02D80123BB760AE07B7E60
:101340002E2B16D1FB7E83F00103DBB2002B10D0D5
:101350000123FB76FB690133FB61BB681B7801331A
:10136000DAB2BB681A70FB691B787B767B7E002B38
:10137000DCD1BB7E83F00103DBB2002B01D0002364
:101380000CE078690AF064F902460B4610461946EB
:10139000FFF772FB02467B681A600123184620376C
:1013A000BD4680BD80B586B000AF786000237B74F9
:1013B0000023BB740023BB820023FB74FFF738FFBC
:1013C00091E27B7C0133DBB27B747B7C1A467B68C9
:1013D00013441B78202BF4D07B7C1A467B68134483
:1013E0001B78092BEDD07B7C1A467B6813441B7855
:1013F000FB75FB7D002B00F07F82FB7D602B05D908
:10140000FB7D7A2B02D8FB7D203BFB757B7C013377
:10141000DBB27B7407F10C0207F1110319467868FF
:10142000FFF74AFF034683F00103DBB2002B01D034
:10143000022363E2FB6818460DF0F4F903461846F0
:10144000FFF77AFE0346BB74FB7D463B142B00F28C
:10145000488201A252F823F039180008AD140008A0
:10146000E3180008E3180008E3180008E318000870
:10147000C3180008F916000885180008E3180008CA
:10148000A3180008E3180008E31800085F18000814
:10149000E3180008E3180008E3180008E318000840
:1014A000091800081918000829180008BB7C632BCC
:1014B00001D9142322E2BB7C5E2B00F2068101A23B
:1014C00052F823F0411600084116000841160008A2
:1014D000411600084D160008CB160008CB16000870
:1014E000CB160008CB160008CB160008CB16000858
:1014F000CB160008CB160008CB160008CB16000848
:10150000CB160008CB1600085B1600085B16000817
:101510005B1600086B1600086B160008CB16000857
:10152000CB160008CB160008CB160008CB16000817
:10153000CB1600087D160008CB160008CB16000855
:10154000CB160008CB160008CB160008CB160008F7
:10155000CB160008CB160008CB160008CB160008E7
:10156000CB160008CB160008CB160008CB160008D7
:10157000CB160008CB160008CB160008CB160008C7
:10158000CB160008CB160008CB160008CB160008B7
:10159000CB160008CB160008CB160008BB160008B7
:1015A000BB160008BB160008BB160008BB160008D7
:1015B000BB160008CB160008CB160008CB16000897
:1015C000CB160008CB160008CB160008CB16000877
:1015D000CB160008CB160008CB160008CB16000867
:1015E000CB160008CB160008CB160008CB16000857
:1015F000CB160008CB160008CB160008CB16000847
:10160000CB160008CB160008CB160008CB16000836
:10161000CB160008CB160008CB160008CB16000826
:10162000CB160008CB160008CB1600088B16000856
:101630008B1600089B160008A9160008A9160008BA
:101640000123FB74AF4ABB7C137040E00023FB74A2
:10165000AC4B042283F82C2039E00223FB74BB7CC2
:10166000113BDAB2A74B9A7031E00623FB74BB7CC6
:10167000C3F11503DAB2A34BDA7028E00023FB7440
:10168000A04B1C2283F82C2021E00323FB74BB7C9D
:101690005A3BDAB29B4B1A7119E00023FB74994B49
:1016A0005C2283F82C2012E00523FB74BB7CC3F181
:1016B0005E03DAB2934B5A7109E00923FB74BB7CD9
:1016C000363BDAB28F4B5A7001E0142316E1BA8A26
:1016D000FB7C42FA03F303F00103002B01D0152336
:1016E0000CE1FB7C012202FA03F31AB2B7F91430C1
:1016F00013431BB2BB82F6E0BB7C632B01D91423DE
:10170000FCE0BB7C1E2B45DC002B66DB1E2B64D86B
:1017100001A252F823F000BF9B1700089B17000896
:101720009B170008A7170008A7170008A7170008AD
:10173000DB170008B3170008B3170008B317000839
:10174000DB170008DB170008DB170008DB170008B1
:10175000DB170008DB170008DB170008BF170008BD
:10176000CD170008DB170008DB170008DB1700089F
:10177000DB170008DB170008DB170008DB17000881
:10178000DB170008DB170008DB170008DB17000871
:101790009B170008542B19D01FE00B23FB74594AE8
:1017A000BB7C13721BE00C23FB74564ABB7C937109
:1017B00015E00D23FB74534ABB7CD3710FE000236B
:1017C000FB74504B112283F82C2008E00023FB749B
:1017D0004C4B122283F82C2001E014238EE0BA8AAD
:1017E000FB7C42FA03F303F00103002B01D0152325
:1017F00084E0FB7C012202FA03F31AB2B7F9143039
:1018000013431BB2BB826EE0FB683E4AD3603D4B84
:10181000012283F8262066E0FB683A4A1361394BBF
:10182000012283F827205EE0FB68364A5361354B7E
:10183000012283F8282056E0FB68324A9361314B3D
:10184000012283F82920FB684FF000011846FFF7BA
:101850000FFC0346002B00D145E004234EE0FB685B
:10186000284AD361274B012283F82A20FB684FF0D6
:1018700000011846FFF7FCFB0346002B00D132E0C5
:1018800004233BE0BB7C1F4A1362FB684FF000015E
:101890001846FFF7EDFB0346002B00D123E004239D
:1018A0002CE0184ABB7C82F82430FB684FF0000122
:1018B0001846FFF7DDFB0346002B00D113E004239D
:1018C0001CE0104ABB7C82F82530FB684FF0000119
:1018D0001846FFF7CDFB0346002B00D103E004239D
:1018E0000CE014230AE07B7C1A467B6813441B78C7
:1018F000002B7FF46AAD00E000BF002318461837C4
:10190000BD4680BD6C0300202DE9F0439FB004AFBD
:10191000AC4B93F82C301C2B3CDC042BC0F2EA803F
:10192000043B182B00F2E68001A252F823F000BF1E
:101930009B190008F51A0008F51A0008F51A0008A6
:10194000F51A0008F51A0008F51A0008F51A00083B
:10195000F51A0008F51A0008F51A0008F51A00082B
:10196000F51A0008D71A0008E51A0008F51A000849
:10197000F51A0008F51A0008F51A0008F51A00080B
:10198000F51A0008F51A0008F51A0008F51A0008FB
:10199000D11900085C2B22D0ACE08A4B93F824309C
:1019A000002B00F0A680874B93F824301A463B1D8D
:1019B000854918460AF04CFD3B1D1846FEF7C8FB4A
:1019C00003469AB23B1D1146184609F057F990E0BC
:1019D00016217E4809F052F901F080FC8AE0794B2B
:1019E00093F82630002B0CD0764BDB6878491846EC
:1019F000FFF7A0F903461846FFF778FB0346754A40
:101A00001360704B93F82730002B0CD06D4B1B6983
:101A10006F491846FFF78EF903461846FFF766FB35
:101A200003466D4A1360674B93F82830002B0CD0A7
:101A3000644B5B6969491846FFF77CF90346184611
:101A4000FFF754FB0346664A1360624B1B68184657
:101A5000FFF71CF903465E491846FFF71FFA0346D5
:101A60001846FEF7E1FC804689465B4B1B6818462A
:101A7000FFF70CF9034656491846FFF70FFA0346DD
:101A80001846FEF7D1FC04460D46554B1B68184618
:101A9000FFF7FCF8034651491846FFF7FFF90346E4
:101AA0001846FEF7C1FC02460B46381DCDE902235D
:101AB000CDE9004542464B464A490AF0C9FC3B1D68
:101AC0001846FEF745FB03469AB23B1D11461846E1
:101AD00009F0D4F80EE01B21434809F0CFF801F0DB
:101AE000A7FD07E01821414809F0C8F801F0BAFD48
:101AF00000E000BF334B1B78032B7CDC022B58DA51
:101B0000002B02D0012B25D075E02E4B93F8263008
:101B1000002B09D12B4B93F82730002B04D1294BF4
:101B200093F82830002B4AD0264BD868254B1969EA
:101B3000244B5C69234B93F82650224B93F82730B3
:101B4000204A92F82820019200932B46224601F069
:101B50005FF934E01B4B93F82630002B09D1194B69
:101B600093F82730002B04D1164B93F82830002B24
:101B700040D0144BDC68134B1D69124B5E69114B4E
:101B8000D3F818C00F4B93F826300E4A92F827204E
:101B90000C4991F828100B4890F829000390029105
:101BA00001920093634632462946204601F060F9CF
:101BB00020E02A210E4809F061F8142355E000BF07
:101BC00019E000BF6C03002070E800088CE80008F2
:101BD00000009E42A8030020AC03002000A0754531
:101BE000B0030020A4E80008D0E80008ECE80008F2
:101BF00008E9000800BF1F4B9B79052B10D0052B6F
:101C000013DC032B02D0042B05D00EE017211A4859
:101C100009F034F809E01821184809F02FF804E019
:101C20001521174809F02AF800BF124BDB79092B60
:101C300010D0092B13DC072B02D0082B05D00EE0A7
:101C40001E21104809F01AF809E022210E4809F077
:101C500015F804E01A210D4809F010F800BF0C4BEC
:101C6000044A07CA03C31A70002318466C37BD46DE
:101C7000BDE8F0836C03002034E900084CE900085B
:101C800068E9000880E90008A0E90008C4E9000844
:101C90009C03002080B584B000AF78600023FB6017
:101CA00018E0FB687A6813441B78602B0FD9FB6837
:101CB0007A6813441B787A2B09D8FB687A68134436
:101CC0001A78FB6879680B44203AD2B21A70FB6824
:101CD0000133FB60FB687A6813441B78002BE0D16A
:101CE0007868FFF75FFB0346FB72FB7A002B01D09D
:101CF000FB7A09E0FFF708FE0346FB72FB7A002B34
:101D000001D0FB7A00E0002318461037BD4680BDA5
:101D100080B58AB000AF0346FB71FB791C2B00F243
:101D2000838001A252F823F09D1D0008A71D000822
:101D3000B11D0008BB1D0008C51D0008291E0008B4
:101D4000291E0008291E0008291E0008291E000857
:101D5000291E0008291E0008291E0008291E000847
:101D6000291E0008291E0008291E0008291E000837
:101D7000291E0008291E0008CF1D0008D91D0008D3
:101D8000E31D0008ED1D0008F71D0008011E0008F6
:101D90000B1E0008151E00081F1E000804212F48F6
:101DA00008F06CFF55E024212D4808F067FF50E053
:101DB0001E212C4808F062FF4BE01E212A4808F043
:101DC0005DFF46E01B21294808F058FF41E0212132
:101DD000274808F053FF3CE02321264808F04EFF37
:101DE00037E02121244808F049FF32E02721234829
:101DF00008F044FF2DE02321214808F03FFF28E0B0
:101E00001B21204808F03AFF23E01B211E4808F060
:101E100035FF1EE021211D4808F030FF19E0202188
:101E20001B4808F02BFF14E0FA7907F10803194961
:101E300018460AF00DFB07F108031846FEF788F96B
:101E400003469AB207F108031146184608F016FF38
:101E500000BF00BF2837BD4680BD00BFE0E90008D5
:101E6000E8E900080CEA00082CEA00084CEA00083F
:101E700068EA00088CEA0008B0EA0008D4EA000822
:101E8000FCEA000820EB00083CEB000858EB0008D7
:101E90007CEB00089CEB000880B584B000AF786054
:101EA0007868FEF755F90346FB81FB891946786887
:101EB00008F0EAFF034683F00103DBB2002B04D0F5
:101EC000FB891946786808F0D9FE00BF00BF1037BB
:101ED000BD4680BD80B500AF02F0A4F900F018F84F
:101EE00000F072F808F0DCFD08F0E2FE00F06CFF94
:101EF0000E21064808F0C8FF08F060FF00F016FF4A
:101F0000322002F0F1F900BFF6E700BFA8EB0008AD
:101F100080B594B000AF07F12803282200211846AD
:101F20000AF0FBFA07F1140300221A605A609A6063
:101F3000DA601A613B1D00221A605A609A60DA600A
:101F40000123BB624FF48033FB6200233B63012318
:101F5000BB6302237B644FF48033BB644FF4801374
:101F6000FB6407F12803184604F004FA0346002B2B
:101F700001D001F0FBFF0F237B610223BB61002333
:101F8000FB614FF480633B6200237B6207F1140323
:101F90000121184604F070FC0346002B01D001F02B
:101FA000E5FF10237B604FF480033B613B1D184627
:101FB00004F0BEFD0346002B01D001F0D7FF00BFA7
:101FC0005037BD4680BD000080B588B000AF07F136
:101FD000100300221A605A609A60DA602F4B9B69E6
:101FE0002E4A43F0200393612C4B9B6903F020039E
:101FF000FB60FB68294B9B69284A43F0040393610B
:10200000264B9B6903F00403BB60BB68234B9B69B1
:10201000224A43F008039361204B9B6903F00803B5
:102020007B607B68002240F2D9311D4802F029FC18
:1020300000224FF4E0611B4802F023FC40F2D93348
:102040003B6101237B610023BB610223FB6107F13C
:1020500010031946124802F079FA4FF4E0433B614D
:1020600000237B610023BB6107F1100319460C4874
:1020700002F06CFA4FF4E0633B6101237B610023C3
:10208000BB610223FB6107F110031946054802F00A
:102090005DFA00BF2037BD4680BD00BF0010024082
:1020A000000C01400008014080B485B000AF7860AA
:1020B0000D4B1B680D4AA2FB03239A0C7B6802FBA5
:1020C00003F3FB600A4B5B68BB6000BF084B5A68B8
:1020D000BB68D31AFA689A42F8D800BF00BF143719
:1020E000BD4680BC704700BF0C00002083DE1B4350
:1020F000001000E080B500AF01224021064802F048
:10210000C0FB0220FFF7D0FF00224021024802F06E
:10211000B8FB00BF80BD00BF000C014080B500AF20
:1021200001224FF40071074802F0ABFB0220FFF7D9
:10213000BBFF00224FF40071024802F0A2FB00BF77
:1021400080BD00BF000C014080B500AF01224FF4FC
:102150008071074802F095FB0220FFF7A5FF0022DF
:102160004FF48071024802F08CFB00BF80BD00BFBD
:10217000000801400000000080B586B000AF786024
:1021800039604FF000017868FEF77CFF0346002BB2
:1021900002D04FF4487330E01D497868FEF77EFEA8
:1021A00003463B611B4BFB60F9683869FEF7C2FDD3
:1021B0000346BB604FF00001B868FEF763FF0346BB
:1021C000002B02D04FF4487317E0B868FEF72CF9E3
:1021D00002460B460CA1D1E90001FEF7A7FA024620
:1021E0000B4610461946FEF727FC03467B617B69C8
:1021F000C72B01D8C8237B617B6918461837BD46B9
:1022000080BD00BFAFF300800000000080842E413D
:102210000000704200A07545F0B5E5B00CAF07F5C1
:10222000B074A4F5A674206007F5B070A0F5A8708E
:10223000016007F5B071A1F5AA710A6007F5B072E7
:10224000A2F5AC72136007F5B073A3F5A67307F59A
:10225000B072A2F5A67211681868FEF731FF034646
:10226000002B0DD107F5B073A3F5A6738F4918683D
:10227000FEF760FD03461846FEF738FF034601E00F
:102280008B4B1B68C7F8403107F5B073A3F5A873F3
:1022900007F5B072A2F5A87211681868FEF710FF72
:1022A0000346002B0DD107F5B073A3F5A8737F4942
:1022B0001868FEF73FFD03461846FEF717FF034672
:1022C00001E07C4B1B68C7F83C3107F5B073A3F500
:1022D000AA7307F5B072A2F5AA7211681868FEF722
:1022E000EFFE0346002B0DD107F5B073A3F5AA73DB
:1022F00071491868FEF71EFD03461846FEF7F6FE04
:10230000034601E06D4B1B68C7F83831684B1B680A
:10231000D7F84021D31AC7F83431664B1B68D7F879
:102320003C21D31AC7F83031644B1B68D7F83821E9
:10233000D31AC7F82C3107F5B073A3F5A67307F5C8
:10234000B072A2F5A67211681868FEF7B9FE0346CE
:10235000002B17D1564B1B681846FEF797FC034617
:1023600052491846FEF79AFD03461A4607F5B07320
:10237000A3F5A67311461868FEF7D2FB034623F0B7
:10238000004301E04FF00003C7F8283107F5B073B0
:10239000A3F5A87307F5B072A2F5A87211681868C2
:1023A000FEF78EFE0346002B17D1424B1B681846E2
:1023B000FEF76CFC03463D491846FEF76FFD0346E9
:1023C0001A4607F5B073A3F5A87311461868FEF70F
:1023D000A7FB034623F0004301E04FF00003C7F8DA
:1023E000243107F5B073A3F5AA7307F5B072A2F50F
:1023F000AA7211681868FEF763FE0346002B17D116
:102400002E4B1B681846FEF741FC03462A49184626
:10241000FEF744FD03461A4607F5B073A3F5AA7309
:1024200011461868FEF77CFB034623F0004301E0E9
:102430004FF00003C7F82031D7F82811D7F828014A
:10244000FEF778FC03461C46D7F82411D7F8240180
:10245000FEF770FC034619462046FEF763FB034671
:102460001C46D7F82011D7F82001FEF763FC03467D
:1024700019462046FEF756FB03461846FDF7D4FFE3
:1024800002460B46104619460CF0D6F802460B469B
:1024900010461946FEF7F0FA0346C7F81C3197F8C4
:1024A0007831002B0ED0064B1B6810E000009E42D6
:1024B000A8030020AC03002000A07545B003002055
:1024C0000400002007F5B073A3F5AC731B68C7F8D0
:1024D0005C31B04B1B681946D7F85C01FEF7E6FD8E
:1024E0000346002B03D0AB4B1B68C7F85C31D7F811
:1024F0003431DB43DB0F87F81B31D7F83031DB4356
:10250000DB0F87F81A31D7F82C31DB43DB0F87F864
:102510001931D7F83431002B06D097F81B311A4601
:1025200080219D4802F0ADF9D7F83031002B06D05C
:1025300097F81A311A460821974802F0A2F9D7F8FD
:102540002C31002B0AD097F8193183F00103DBB24C
:102550001A464FF40071914802F093F9D7F83431DC
:10256000002BB8BF5B42C7F83431D7F83031002BAD
:10257000B8BF5B42C7F83031D7F82C31002BB8BF59
:102580005B42C7F82C31D7F81C11D7F85C01FFF774
:10259000F3FDC7F8140107F5B073A3F5A67307F5AB
:1025A000B072A2F5A67211681868FEF789FD03469D
:1025B000002B0BD07A4B1B681846FEF767FB0346CF
:1025C00078491846FEF76AFC034604E007F5B07345
:1025D000A3F5A6731B68C7F8103107F5B073A3F510
:1025E000A87307F5B072A2F5A87211681868FEF713
:1025F00067FD0346002B0BD06B4B1B681846FEF79C
:1026000045FB034667491846FEF748FC034604E0CD
:1026100007F5B073A3F5A8731B68C7F80C3107F56D
:10262000B073A3F5AA7307F5B072A2F5AA72116888
:102630001868FEF745FD0346002B0BD05B4B1B686B
:102640001846FEF723FB034659491846FEF726FCB9
:10265000034604E007F5B073A3F5AA731B68C7F837
:102660000831D7F81001FEF741FD0346C7F80431E1
:10267000D7F80401FEF70AFB03461946D7F8100104
:10268000FEF74EFA03464B491846FEF753FB034646
:102690001846FEF72BFD0346C7F80031D7F80C01AA
:1026A000FEF724FD0346C7F8FC30D7F8FC00FEF720
:1026B000EDFA03461946D7F80C01FEF731FA034646
:1026C0003C491846FEF736FB03461846FEF70EFD5A
:1026D0000346C7F8F830D7F80801FEF707FD0346B0
:1026E000C7F8F430D7F8F400FEF7D0FA03461946DD
:1026F000D7F80801FEF714FA03462E491846FEF7EC
:1027000019FB03461846FEF7F1FC0346C7F8F03004
:10271000D7F85C01FEF7EAFC0346C7F8EC30D7F8BF
:10272000EC00FEF7B3FA03461946D7F85C01FEF752
:10273000F7F9034620491846FEF7FCFA0346184607
:10274000FEF7D4FC0346C7F8E830D7F81C01FEF7C3
:10275000CDFC0346C7F8E430D7F8E400FEF796FA5C
:1027600003461946D7F81C01FEF7DAF9034611496A
:102770001846FEF7DFFA03461846FEF7B7FC034695
:10278000C7F8E03097F87831002B19D00B4B7B60FD
:1027900018E000BF08000020000C014000080140C4
:1027A000A803002000009E42AC030020B0030020DC
:1027B00000A075450000C84200002041B8EB0008A9
:1027C000854B7B60D7F80031002BB8BF5B42D7F850
:1027D000F820002AB8BF5242D7F8F0100029B8BF3D
:1027E0004942D7F8E8000028B8BF4042D7F8E04097
:1027F000002CB8BF644207F11806D7F814510A95A7
:102800000994D7F8E44008940790D7F8EC000690B4
:102810000591D7F8F41004910392D7F8FC200292A6
:102820000193D7F8043100937B686C4AC821304685
:1028300009F0D8FD07F118031846FFF72DFBD7F86C
:102840003431C7F85831D7F83021D7F858319A4287
:1028500003DDD7F83031C7F85831D7F82C21D7F835
:1028600058319A4203DDD7F82C31C7F85831D7F8E0
:102870005831002B00F0AB80D7F85831DA0F1344F1
:102880005B10C7F85431D7F85831DA0F13445B1096
:10289000C7F85031D7F85831DA0F13445B10C7F836
:1028A0004C3197F87831002B01D0022300E001234E
:1028B000012219464A4801F0E4FF0023C7F84831D5
:1028C00068E0002387F84731002387F8463100236A
:1028D00087F84531D7F85421D7F834311344C7F875
:1028E0005431D7F85421D7F858319A4209DBD7F838
:1028F0005421D7F85831D31AC7F85431012387F837
:102900004731D7F85021D7F830311344C7F8503148
:10291000D7F85021D7F858319A4209DBD7F850211F
:10292000D7F85831D31AC7F85031012387F8463108
:10293000D7F84C21D7F82C311344C7F84C31D7F8CD
:102940004C21D7F858319A4209DBD7F84C21D7F8F7
:102950005831D31AC7F84C31012387F8453197F81D
:102960004731002B01D0FFF7C5FB97F84631002B0C
:1029700001D0FFF7D3FB97F84531002B01D0FFF7CB
:10298000E3FBD7F81401FFF78FFBD7F84831013389
:10299000C7F84831D7F84821D7F858319A4290DB28
:1029A000002201210E4801F06CFF002202210C4898
:1029B00001F067FF0B4AD7F8403113600A4AD7F895
:1029C0003C311360094AD7F83831136000E000BF8A
:1029D00007F5B277BD46F0BDC4EB0008D0EB0008A8
:1029E000000C0140A8030020AC030020B00300202D
:1029F00080B5C2B004AF78600D22B449786809F0A0
:102A000094FD0346002B02D100F046FE5BE10C2250
:102A1000AF49786809F089FD0346002B02D100F028
:102A200077FE50E10B22AB49786809F07EFD034642
:102A3000002B02D101F038F845E10C22A649786854
:102A400009F073FD0346002B02D100F061FF3AE16B
:102A50000D22A249786809F068FD0346002B02D1D7
:102A600000F014FF2FE10D229D49786809F05DFD0B
:102A70000346002B02D101F07FF924E10C22994991
:102A8000786809F052FD0346002B02D101F0DEF810
:102A900019E104229449786809F047FD0346002BA8
:102AA00007D004229149786809F03FFD0346002BC6
:102AB00002D101F077F906E10C228D49786809F01E
:102AC00034FD0346002B02D101F002FAFBE00322A1
:102AD0008849786809F029FD0346002B07D00322B6
:102AE0008549786809F021FD0346002B06D1834B08
:102AF0001B78002B02D000F00BFEE4E07F4B1B782C
:102B0000002B0DD0786800F03FFE0346002B03D069
:102B10007B48FFF7C1F9D6E07A48FFF7BDF9D2E06C
:102B200007F16C0363227968184609F010FD002351
:102B300087F8CF3007F16C031846FFF7ABF8034670
:102B400087F8F73097F8F730002B40F0B780042271
:102B50006D49786809F0E9FC0346002B40F0A48039
:102B60006A4B1B681846FEF791F8034668491846F9
:102B7000FEF794F90346C7F8F030664B1B68184619
:102B8000FEF784F8034662491846FEF787F90346C4
:102B9000C7F8EC30604B1B681846FEF777F8034621
:102BA0005E491846FEF77AF90346C7F8E830D7F8C9
:102BB000F000FEF79BFA0346C7F8E430D7F8E400CC
:102BC000FEF764F803461946D7F8F000FDF7A8FFB2
:102BD000034653491846FEF7ADF803461846FEF77C
:102BE00085FA0346C7F8E030D7F8EC00FEF77EFA26
:102BF0000346C7F8DC30D7F8DC00FEF747F8034699
:102C00001946D7F8EC00FDF78BFF034644491846F8
:102C1000FEF790F803461846FEF768FA0346C7F831
:102C2000D830D7F8E800FEF761FA0346C7F8D43089
:102C3000D7F8D400FEF72AF803461946D7F8E8007B
:102C4000FDF76EFF034636491846FEF773F8034654
:102C50001846FEF74BFA0346C7F8D030D7F8E030F5
:102C600083EAE371A1EBE371D7F8D830002BB8BF4A
:102C70005B42D7F8D020002AB8BF524207F10800C3
:102C80000392D7F8D42002920193D7F8DC30009356
:102C90000B46D7F8E420234909F0DAFB07F10803D3
:102CA0001846FFF7F9F809E004221F49786809F08F
:102CB0003CFC0346002B01D100F01AF997F8F730DD
:102CC0001846FFF725F8F837BD4680BD10EC000820
:102CD00020EC000830EC00083CEC00084CEC00084C
:102CE0005CEC00086CEC00087CEC000884EC00084C
:102CF0008CEC00089CEC0008A0EC00086823002085
:102D0000A4EC0008ACEC0008C4EC0008A803002008
:102D100000009E42AC030020B003002000A07545D7
:102D20000000C842CCEC0008ECEC000880B582B092
:102D300000AF224B1B78002B3CD00023FB710023FB
:102D40003B601DE01E4A3B6813441B78202B14D0C7
:102D50001B4A3B6813441B78092B0ED0184A3B686A
:102D600013441B780D2B08D0154A3B6813441B787D
:102D70000A2B02D00123FB7107E03B6801333B6063
:102D8000104B1B683A689A42DCDBFB79002B06D0BB
:102D90000C4B1B68002B02DD0948FFF729FE094B8D
:102DA00000221A6064220021054809F0B6FB034B9B
:102DB00000221A7000BF0837BD4680BD1C040020E9
:102DC000B40300201804002080B500AF0D4BDB6871
:102DD0000C4A43F08073D3600B4B1B680A4A43F0E4
:102DE0000103136000F024FC00220121074801F0D8
:102DF00048FD00220221054801F043FDFEF7F2F9EB
:102E000000BF80BDF0ED00E0001000E0000C0140CC
:102E100080B58AB002AFF860B9607A60FB70FB7869
:102E2000002B01D0FB6800E00F4BFB6197F82830C6
:102E3000002B01D0BB6800E00B4BBB6197F82C3036
:102E4000002B01D07B6800E0074B7B61074B1B68C0
:102E5000012200927A69B969F869FFF7DDF900BFCC
:102E60002037BD4680BD00BF0000C07F04000020A9
:102E700080B58AB002AFF860B9607A603B6097F8BD
:102E80002830002B01D0FB6800E0174BFB6197F85E
:102E90002C30002B01D0BB6800E0134BBB6197F8CE
:102EA0003030002B01D07B6800E00F4B7B6197F83E
:102EB0003430002B0AD04FF000013868FEF7F6F8E6
:102EC0000346002B02D0094A3B681360074B1B687E
:102ED000002200927A69B969F869FFF79DF900BF8D
:102EE0002037BD4680BD00BF0000C07F000000202D
:102EF00090B5C7B004AFC848FEF7CEFF3B1D4F22C8
:102F0000C649184609F0A4FA3B1D1846FDF720F9FA
:102F100003469AB23B1D1146184607F0AFFE3B1D13
:102F20004F22BF49184609F093FA3B1D1846FDF79A
:102F30000FF903469AB23B1D1146184607F09EFE54
:102F40003B1D40F65A72B749184609F081FA3B1DFD
:102F50001846FDF7FDF803469AB23B1D1146184688
:102F600007F08CFE4FF448731A463B1DAE491846D5
:102F700009F06EFA3B1D1846FDF7EAF803469AB2CF
:102F80003B1D1146184607F079FEA84B1B681846F2
:102F9000FEF7ACF80346C7F80431A44B1C68D7F819
:102FA0000401FDF773FE034619462046FDF7B8FD00
:102FB00003469F491846FDF7BDFE03461846FEF737
:102FC00095F80346C7F80031381DD7F80031D7F817
:102FD0000421984909F03CFA3B1D1846FDF7B8F862
:102FE00003469AB23B1D1146184607F047FE924B26
:102FF0001B681846FEF77AF80346C7F8FC308E4B7C
:103000001C68D7F8FC00FDF741FE03461946204630
:10301000FDF786FD034686491846FDF78BFE0346FD
:103020001846FEF763F80346C7F8F830381DD7F89E
:10303000F830D7F8FC20814909F00AFA3B1D184600
:10304000FDF786F803469AB23B1D1146184607F075
:1030500015FE7B4B1B681846FEF748F80346C7F879
:10306000F430774B1C68D7F8F400FDF70FFE0346E9
:1030700019462046FDF754FD03466D491846FDF7F5
:1030800059FE03461846FEF731F80346C7F8F030FC
:10309000381DD7F8F030D7F8F4206A4909F0D8F98C
:1030A0003B1D1846FDF754F803469AB23B1D1146E6
:1030B000184607F0E3FD644B1B681846FDF7E6FD74
:1030C000034662491846FDF7E9FE0346C7F8EC30AF
:1030D0005F4B1B681846FDF7D9FD03465B49184650
:1030E000FDF7DCFE0346C7F8E8305A4B1B6818466C
:1030F000FDF7CCFD034658491846FDF7CFFE0346C1
:10310000C7F8E430D7F8EC00FDF7F0FF0346C7F846
:10311000E030D7F8E000FDF7B9FD03461946D7F8CF
:10312000EC00FDF7FDFC03464C491846FDF702FE96
:1031300003461846FDF7DAFF0346C7F8DC30D7F838
:10314000E800FDF7D3FF0346C7F8D830D7F8D8001A
:10315000FDF79CFD03461946D7F8E800FDF7E0FCB3
:1031600003463E491846FDF7E5FD03461846FDF7C0
:10317000BDFF0346C7F8D430D7F8E400FDF7B6FF2B
:103180000346C7F8D030D7F8D000FDF77FFD0346DF
:103190001946D7F8E400FDF7C3FC03462F4918464B
:1031A000FDF7C8FD03461846FDF7A0FF0346C7F824
:1031B000CC30D7F8DC3083EAE371A1EBE371D7F8C8
:1031C000D430002BB8BF5B42D7F8CC20002AB8BF60
:1031D0005242381D0392D7F8D02002920193D7F8BB
:1031E000D83000930B46D7F8E0201D4909F030F99C
:1031F0003B1D1846FCF7ACFF03469AB23B1D114637
:10320000184607F03BFD1748FEF746FE00BF07F5DE
:103210008677BD4690BD00BF28ED000848ED000848
:1032200060ED000878ED000890ED00080000002037
:1032300000002041A4ED000804000020C8ED0008B3
:1032400008000020F0ED0008A803002000009E42C6
:10325000AC030020B003002000A075450000C84268
:1032600014EE000848EE000880B582B000AF0346B7
:10327000FB71FB795A2B1ED05A2B28DC582B02D01D
:10328000592B0CD023E04FF48051134801F0E2FA9F
:103290000346002B0CBF01230023DBB218E04FF4E0
:1032A00000510D4801F0D6FA0346002B0CBF012354
:1032B0000023DBB20CE04FF48041074801F0CAFA6A
:1032C0000346002B0CBF01230023DBB200E00023E8
:1032D00018460837BD4680BD000C014080B59AB045
:1032E00000AFC248FEF7D8FD3B46C149184609F079
:1032F000AFF83B461846FCF72BFF03469AB23B4615
:103300001146184607F0BAFC3B46BA49184609F080
:103310009FF83B461846FCF71BFF03469AB23B4614
:103320001146184607F0AAFC00228021B24801F09D
:10333000A8FA06E0FEF7DEFE4FF448731846FEF7E3
:10334000B3FE5820FFF790FF034683F00103DBB282
:10335000002BEFD101228021A74801F092FA00232F
:103360007B6609E0FEF7C6FE4FF448731846FEF789
:103370009BFE7B6E01337B667B6E9D2BF2DD002214
:1033800080219D4801F07DFA00233B660DE0FEF7A9
:10339000B1FE4FF448731A4613465B0013441846B7
:1033A000FEF782FE3B6E01333B663B6E9D2BEEDDEE
:1033B0005820FFF759FF034683F00103DBB2002BCF
:1033C00004D029218D4807F059FC0BE18C4B0022D9
:1033D0001A603B468B49184609F03AF83B461846B6
:1033E000FCF7B6FE03469AB23B461146184607F074
:1033F00045FC3B468449184609F02AF83B461846E6
:10340000FCF7A6FE03469AB23B461146184607F063
:1034100035FC00220821784801F033FA06E0FEF777
:103420007DFE4FF448731846FEF73EFE5920FFF725
:103430001BFF034683F00103DBB2002BEFD1012217
:1034400008216D4801F01DFA0023FB6509E0FEF735
:1034500065FE4FF448731846FEF726FEFB6D0133F8
:10346000FB65FB6D9D2BF2DD00220821624801F017
:1034700008FA0023BB650DE0FEF750FE4FF44873D9
:103480001A4613465B0013441846FEF70DFEBB6D4B
:103490000133BB65BB6D9D2BEEDD5920FFF7E4FECC
:1034A000034683F00103DBB2002B04D029215748E7
:1034B00007F0E4FB96E0564B00221A603B46554964
:1034C000184608F0C5FF3B461846FCF741FE034688
:1034D0009AB23B461146184607F0D0FB3B464E4990
:1034E000184608F0B5FF3B461846FCF731FE034688
:1034F0009AB23B461146184607F0C0FB01224FF432
:103500000071464801F0BDF908E0FEF71DFE4FF4DA
:1035100048735B089BB21846FEF7C6FD5A20FFF7BA
:10352000A3FE034683F00103DBB2002BEDD10022A2
:103530004FF40071394801F0A4F900237B650BE0DA
:10354000FEF702FE4FF448735B089BB21846FEF785
:10355000ABFD7B6D01337B657B6D41F6B3629342BE
:10356000EEDD01224FF400712C4801F08AF90023AE
:103570003B650DE0FEF7E8FD4FF448731A4613462D
:103580005B0013441846FEF78FFD3B6D01333B652E
:103590003B6D41F6B3629342ECDD5A20FFF764FEC7
:1035A000034683F00103DBB2002B04D029211C4821
:1035B00007F064FB16E01B4B00221A603B461A49D9
:1035C000184608F045FF3B461846FCF7C1FD034688
:1035D0009AB23B461146184607F050FB3621134875
:1035E00007F04CFB6837BD4680BD00BF68EE0008A1
:1035F0008CEE0008B8EE0008000C0140CCEE00088C
:10360000A8030020F8EE000814EF000828EF0008D7
:10361000AC03002054EF000870EF000800080140E0
:1036200084EF0008B0030020B0EF0008CCEF0008E2
:1036300080B500AF00224FF48071084801F021F9F5
:1036400000221021054801F01CF900224FF480618E
:10365000034801F016F900BF80BD00BF000C014017
:103660000008014080B500AF01224FF48071084886
:1036700001F007F901221021054801F002F90122A9
:103680004FF48061034801F0FCF800BF80BD00BF2B
:10369000000C01400008014080B582B000AF154B1E
:1036A00001221A70144B00221A60144B00221A7067
:1036B00000237B600EE07A6813469B0013441B01D5
:1036C0000F4A134450220021184608F026FF7B6859
:1036D00001337B607B68632BEDDD0A48FEF7DCFB82
:1036E0000948FEF7D9FB0948FEF7D6FB00BF0837AB
:1036F000BD4680BD68230020602300206923002090
:103700002004002004F000083CF00008A4EC0008AD
:1037100080B59AB000AF154B00221A70144B1B688D
:10372000002B18DD134B01221A70114B1A683B1D38
:103730001149184608F08CFE3B1D1846FCF708FDA1
:1037400003469AB23B1D1146184607F097FA0B48FC
:10375000FEF7A2FB02E00A48FEF79EFB0948FEF7CF
:103760009BFB00BF6837BD4680BD00BF68230020BB
:10377000602300206923002064F0000890F0000816
:10378000D8F00008A4EC000880B584B000AF7860E1
:103790003C4B1B68632B01DD00236EE07B68FB6004
:1037A00002E0FB680133FB60FB681B78202BF8D03C
:1037B000FB681B78092BF4D0FB681B78002B01D128
:1037C00001235AE02F4B1A6813469B0013441B0138
:1037D0002D4A13444F22F968184608F0B8FE294BC9
:1037E0001A68294913469B0013441B010B444F33AD
:1037F00000221A70234B1A6813469B0013441B01C6
:10380000214A13441846FCF7A3FC0346BB600FE0B3
:103810001C4B1A68BB68591E1B4813469B00134477
:103820001B0103440B4400221A70BB68013BBB60C0
:10383000BB68002B1BDD134B1A68BB68591E12486E
:1038400013469B0013441B0103440B441B780D2BB0
:10385000DED00C4B1A68BB68591E0B4813469B0000
:1038600013441B0103440B441B780A2BD0D0054B97
:103870001B680133034A1360012318461037BD4605
:1038800080BD00BF602300202004002080B582B0EE
:1038900000AF174B00221A60164B00221A60164B1D
:1038A00000221A70154B00221A70154B00221A7054
:1038B00000237B600EE07A6813469B0013441B01D3
:1038C000104A134450220021184608F026FE7B6857
:1038D00001337B607B68632BEDDD0B48FEF7DCFA80
:1038E0000A48FEF7D9FA00BF0837BD4680BD00BFC1
:1038F0006023002064230020692300206A23002025
:103900006823002020040020F4F00008A4EC000844
:1039100080B5A8B000AF3B1D5149184608F098FD8E
:103920003B1D1846FCF714FC03469AB23B1D11469A
:10393000184607F0A3F94B4B1A68381D64234A490F
:1039400008F086FD3B1D1846FCF702FC03469AB2C0
:103950003B1D1146184607F091F9444B1B78002B8C
:1039600001D0434A00E0434A3B1D4349184608F052
:103970006FFD3B1D1846FCF7EBFB03469AB23B1D5F
:103980001146184607F07AF93C4B1B78002B01D002
:103990003B4A00E03B4A3B1D3B49184608F058FDB6
:1039A0003B1D1846FCF7D4FB03469AB23B1D11465B
:1039B000184607F063F92D4B1B78002B44D0294B98
:1039C0001B68002B40DD314B1B685A1C3B1D3049E6
:1039D000184608F03DFD3B1D1846FCF7B9FB0346B1
:1039E0009AB23B1D1146184607F048F91A2129489A
:1039F00007F044F90023C7F89C301FE0D7F89C304B
:103A0000591CD7F89C2013469B0013441B01224AE3
:103A10001344381D0A46214908F01AFD3B1D18467B
:103A2000FCF796FB03469AB23B1D1146184607F079
:103A300025F9D7F89C300133C7F89C30094B1B6837
:103A4000D7F89C209A42D9DB1A21154807F016F9BD
:103A50000421144807F012F900BFA037BD4680BD0D
:103A600008F10008602300202CF1000869230020E1
:103A700048F100084CF1000850F100086A230020CA
:103A800068F1000874F1000880F100086423002048
:103A900090F10008A4F1000820040020C0F1000803
:103AA000CCF10008A4EC000880B5AEB000AF5B4BD1
:103AB0001B7883F00103DBB2002B03D1584B1B684A
:103AC000002B04D12121574807F0D8F8A2E0564B2B
:103AD00001221A70554B00221A60514B1A6807F1E7
:103AE00050035349184608F0B3FC07F15003184639
:103AF000FCF72EFB03469AB207F150031146184615
:103B000007F0BCF8494B00221A606CE0464B1B786A
:103B100083F00103DBB2002B04D02221454807F0DB
:103B2000ADF866E0414B1B68591C404B1A681346C0
:103B30009B0013441B01404A134407F150000A46FE
:103B40003E4908F085FC07F150031846FCF700FBDE
:103B500003469AB207F150031146184607F08EF853
:103B6000324B1A6813469B0013441B01324A9918C2
:103B70003B464F22184608F0EAFC002387F84F30F6
:103B80003B461846FEF786F8034687F8B73097F8A5
:103B9000B730002B04D10421294807F06FF81AE050
:103BA00097F8B720214B1B68013307F150002549D6
:103BB00008F04EFC07F150031846FCF7C9FA03461B
:103BC0009AB207F150031146184607F057F8164B02
:103BD00000221A700DE00A2000F086FB134B1B68D0
:103BE0000133124A1360114B1A680D4B1B689A423D
:103BF0008CDB0D4B00221A700C4B1A68084B1B68AB
:103C00009A4203DB2221104807F038F804210C48BF
:103C100007F034F8B837BD4680BD00BF69230020E7
:103C200060230020E8F100086A23002064230020BC
:103C30000CF200083CF200082004002060F20008AA
:103C4000A4EC00087CF200089CF2000880B5BAB031
:103C500000AF3F4B1B7883F00103DBB2002B03D195
:103C60003C4B1B68002B04D121213B4807F006F890
:103C70006AE03A4B1A68374B1B689A4207DB1521FA
:103C8000374806F0FBFF374B00221A705CE0334BDD
:103C90001B68591C314B1A6813469B0013441B01C7
:103CA000314A134407F150000A46304908F0D0FB6E
:103CB00007F150031846FCF74BFA03469AB207F196
:103CC00050031146184606F0D9FF244B1A681346D4
:103CD0009B0013441B01244A99183B464F22184667
:103CE00008F035FC002387F84F303B461846FDF7B7
:103CF000D1FF034687F8E73097F8E730002B09D16A
:103D000004211B4806F0BAFF144B1B680133134A09
:103D1000136019E097F8E720104B1B68013307F197
:103D20005000144908F094FB07F150031846FCF7C3
:103D30000FFA03469AB207F150031146184606F0EF
:103D40009DFF084B00221A70E837BD4680BD00BFBA
:103D50006923002060230020E8F10008642300208C
:103D6000C0F200086A2300202004002060F200084E
:103D7000A4EC00087CF2000880B500AF064B0022DE
:103D80001A701221054806F079FF0421044806F054
:103D900075FF00BF80BD00BF6A230020D8F2000875
:103DA000A4EC000880B500AF2C48FEF775F82C484D
:103DB000FEF772F82B48FEF76FF82B48FEF76CF809
:103DC0002A48FEF769F82A48FEF766F82948FEF700
:103DD00063F82948FEF760F82848FEF75DF82848A0
:103DE000FEF75AF82748FEF757F82748FEF754F829
:103DF0002648FEF751F82648FEF74EF82548FEF70C
:103E00004BF82548FEF748F82448FEF745F82448C3
:103E1000FEF742F82348FEF73FF82348FEF73CF848
:103E20002248FEF739F82248FEF736F82148FEF717
:103E300033F82148FEF730F82048FEF72DF82048E7
:103E4000FEF72AF81F48FEF727F81F48FEF724F868
:103E50001E48FEF721F800BF80BD00BF00F3000838
:103E600024F3000840F300087CF30008A8F30008DE
:103E7000E0F3000810F400083CF4000860F40008C7
:103E800094F40008C4F40008FCF400081CF50008D1
:103E900044F5000878F50008A0F50008D0F5000802
:103EA000F8F5000820F600084CF6000878F600083F
:103EB0008CF60008A0F60008B4F60008D0F600085A
:103EC000F0F60008FCF6000810F70008A4EC000863
:103ED00080B5A6B000AF3B461C49184608F0B8FABA
:103EE0003B461846FDF7D8FF06F0DEFF03461A46AC
:103EF00038460A23164908F0ABFA3B461846FDF748
:103F0000CBFF06F0DDFF0346002B01D0114A00E095
:103F1000114A3B461149184608F09AFA3B461846A2
:103F2000FDF7BAFF3B460E49184608F091FA3B46AA
:103F30001846FDF7B1FF0B48FDF7AEFF00BF0A487A
:103F4000FDF7AAFF00BF9837BD4680BD28F70008DF
:103F500048F7000848F100084CF1000864F7000831
:103F600078F7000890F7000898F7000880B400AFD1
:103F700072B600BF00BFFDE780B485B000AF154B3F
:103F80009B69144A43F001039361124B9B6903F050
:103F90000103BB60BB680F4BDB690E4A43F08053E3
:103FA000D3610C4BDB6903F080537B607B680A4B69
:103FB0005B68FB60FB6823F0E063FB60FB6843F039
:103FC0000073FB60044AFB68536000BF1437BD46B2
:103FD00080BC7047001002400000014080B400AF78
:103FE00000BFFDE780B400AF00BFFDE780B400AFC5
:103FF00000BFFDE780B400AF00BFFDE780B400AFB5
:1040000000BFFDE780B400AF00BFBD4680BC704775
:1040100080B400AF00BFBD4680BC704780B400AF25
:1040200000BFBD4680BC704780B500AF00F040F9CE
:1040300000BF80BD80B500AF024800F056FD00BF54
:1040400080BD00BF6835002080B400AF0123184652
:10405000BD4680BC704780B582B000AF78603960E3
:1040600008F0CEFA034616221A604FF0FF331846C6
:104070000837BD4680BD80B582B000AF78604FF094
:10408000FF317868FFF7E7FF00BFFDE780B586B036
:1040900000AFF860B9607A6000237B610AE0AFF39B
:1040A00000800146BB685A1CBA60CAB21A707B69AC
:1040B00001337B617A697B689A42F0DB7B68184642
:1040C0001837BD4680BD80B586B000AFF860B960D6
:1040D0007A6000237B6109E0BB685A1CBA601B78D8
:1040E0001846AFF300807B6901337B617A697B6896
:1040F0009A42F1DB7B6818461837BD4680BD80B414
:1041000083B000AF78604FF0FF3318460C37BD46E0
:1041100080BC704780B483B000AF786039603B6882
:104120004FF400525A60002318460C37BD4680BC3D
:10413000704780B483B000AF7860012318460C3715
:10414000BD4680BC704780B485B000AFF860B960F0
:104150007A60002318461437BD4680BC70470000C3
:1041600080B586B000AF7860144A154BD31A7B61D6
:104170007B693B61134B1B68002B02D1114B124A28
:104180001A60104B1A687B6813443A699A4207D246
:1041900008F036FA03460C221A604FF0FF3309E0AC
:1041A000084B1B68FB60074B1A687B681344054A81
:1041B0001360FB6818461837BD4680BD00500020CC
:1041C000000400006C230020B03B002080B400AF4E
:1041D00000BFBD4680BC7047FFF7F8FF0B480C4995
:1041E0000C4A002302E0D458C4500433C4188C4253
:1041F000F9D3094A094C002301E013600432A242BA
:10420000FBD308F003FAFDF765FE704700000020BD
:104210005003002000FC000850030020AC3B0020AD
:10422000FEE7000080B500AF084B1B68074A43F06B
:1042300010031360032000F047F90F2000F008F886
:10424000FFF79AFE0023184680BD00BF0020024001
:1042500080B582B000AF7860124B1A68124B1B78A1
:1042600019464FF47A73B3FBF1F3B2FBF3F318463C
:1042700000F05FF90346002B01D001230EE07B68BC
:104280000F2B0AD8002279684FF0FF3000F027F991
:10429000064A7B681360002300E0012318460837B4
:1042A000BD4680BD0C00002014000020100000203E
:1042B00080B400AF054B1B781A46054B1B681344AE
:1042C000034A136000BFBD4680BC70471400002045
:1042D0007023002080B400AF024B1B681846BD4617
:1042E00080BC70477023002080B584B000AF786038
:1042F000FFF7F0FFB8607B68FB60FB68B3F1FF3F3E
:1043000005D00A4B1B781A46FB681344FB6000BFBC
:10431000FFF7E0FF0246BB68D31AFA689A42F7D863
:1043200000BF00BF1037BD4680BD00BF1400002095
:1043300080B485B000AF78607B6803F00703FB6052
:104340000C4BDB68BB60BA684FF6FF031340BB60E1
:10435000FB681A02BB68134343F0BF6343F40033A6
:10436000BB60044ABB68D36000BF1437BD4680BC45
:10437000704700BF00ED00E080B400AF044BDB6885
:104380001B0A03F007031846BD4680BC704700BFF8
:1043900000ED00E080B483B000AF0346FB7197F9F5
:1043A0000730002B0BDBFB7903F01F02064997F95E
:1043B00007305B09012000FA02F241F8232000BF18
:1043C0000C37BD4680BC704700E100E080B483B08C
:1043D00000AF03463960FB7197F90730002B0ADB09
:1043E0003B68DAB20C4997F907301201D2B20B449C
:1043F00083F800230AE03B68DAB20849FB7903F04E
:104400000F03043B1201D2B20B441A7600BF0C37E3
:10441000BD4680BC704700BF00E100E000ED00E059
:1044200080B489B000AFF860B9607A60FB6803F0CF
:104430000703FB61FB69C3F10703042B28BF0423B7
:10444000BB61FB690433062B02D9FB69033B00E027
:1044500000237B614FF0FF32BB6902FA03F3DA43BA
:10446000BB681A407B699A404FF0FF317B6901FAC3
:1044700003F3D9437B680B40134318462437BD46EA
:1044800080BC704780B582B000AF78607B68013B2C
:10449000B3F1807F01D301230FE00A4A7B68013B1F
:1044A00053600F214FF0FF30FFF790FF054B0022C4
:1044B0009A60044B07221A60002318460837BD464D
:1044C00080BD00BF10E000E080B582B000AF786032
:1044D0007868FFF72DFF00BF0837BD4680BD80B567
:1044E00086B000AF0346B9607A60FB7300237B613E
:1044F000FFF742FF78617A68B9687869FFF790FF43
:10450000024697F90F3011461846FFF75FFF00BFCC
:104510001837BD4680BD80B582B000AF0346FB7141
:1045200097F907301846FFF735FF00BF0837BD463B
:1045300080BD80B582B000AF78607868FFF7A2FFD9
:10454000034618460837BD4680BD000080B48BB0D6
:1045500000AF7860396000237B6200233B6269E131
:1045600001227B6A02FA03F3FB613B681B68FA696C
:104570001340BB61BA69FB699A4240F058813B68BD
:104580005B689A4A93425ED0984A934275D8984A9B
:10459000934258D0964A93426FD8964A934252D04B
:1045A000944A934269D8944A93424CD0924A934297
:1045B00063D8924A934246D0904A93425DD8122BD8
:1045C0002AD8122B59D801A252F823F047460008E6
:1045D0002146000833460008754600087B4600085F
:1045E0007B4600087B4600087B4600087B460008A7
:1045F0007B4600087B4600087B4600087B46000897
:104600007B4600087B4600087B4600087B46000886
:10461000294600083D460008794A934213D02CE011
:104620003B68DB683B6229E03B68DB6804333B6244
:1046300024E03B68DB6808333B621FE03B68DB68D3
:104640000C333B621AE03B689B68002B02D10423C9
:104650003B6213E03B689B68012B05D108233B625A
:104660007B68FA691A6109E008233B627B68FA6992
:104670005A6103E000233B6200E000BFBB69FF2BEF
:1046800001D87B6801E07B6804337B61BB69FF2B49
:1046900002D87B6A9B0002E07B6A083B9B003B617F
:1046A0007B691A680F213B6901FA03F3DB431A4067
:1046B000396A3B6901FA03F31A437B691A603B6864
:1046C0005B6803F08053002B00F0B1804D4B9B6979
:1046D0004C4A43F0010393614A4B9B6903F0010389
:1046E000BB60BB68484A7B6A9B08023352F82330A0
:1046F000FB607B6A03F003039B000F2202FA03F3C3
:10470000DB43FA681340FB607B68404A934213D056
:104710007B683F4A93420DD07B683E4A934207D064
:104720007B683D4A934201D1032306E0042304E061
:10473000022302E0012300E000237A6A02F0030270
:1047400092009340FA681343FB602F497B6A9B08F1
:104750000233FA6841F823203B685B6803F4801356
:10476000002B06D02D4B9A682C49BB6913438B60F4
:1047700006E02A4B9A68BB69DB43284913408B60EB
:104780003B685B6803F40013002B06D0234BDA6808
:104790002249BB691343CB6006E0204BDA68BB6952
:1047A000DB431E491340CB603B685B6803F4003376
:1047B000002B06D0194B5A681849BB6913434B604C
:1047C00006E0164B5A68BB69DB43144913404B6043
:1047D0003B685B6803F48033002B21D00F4B1A68D1
:1047E0000E49BB6913430B6021E000BF000032108B
:1047F00000003110000022100000211000001210F3
:1048000000001110001002400000014000080140AB
:10481000000C014000100140001401400004014060
:104820000B4B1A68BB69DB43094913400B607B6A79
:1048300001337B623B681A687B6A22FA03F3002B20
:104840007FF48EAE00BF00BF2C37BD4680BC7047E2
:104850000004014080B485B000AF78600B467B80D7
:104860007B689A687B881340002B02D00123FB737E
:1048700001E00023FB73FB7B18461437BD4680BC68
:10488000704780B483B000AF78600B467B801346DE
:104890007B707B78002B03D07A887B681A6103E0F9
:1048A0007B881A047B681A6100BF0C37BD4680BC48
:1048B000704780B584B000AF78607B68002B01D171
:1048C0000123E8E07B6893F89132DBB2002B06D13C
:1048D0007B68002283F89022786806F00FFC7B68E2
:1048E000032283F891227B6800225A717B681B683F
:1048F000184602F0F6F97B6818687B6804330ECB23
:1049000002F0CCF90346002B05D07B68022283F825
:1049100091220123BFE07B681B680021184602F04A
:10492000FAF90346002B05D07B68022283F8912216
:104930000123B0E00023FB733EE0FA7B7968134665
:104940009B001344DB000B44113301221A70FA7BE5
:10495000796813469B001344DB000B441033FA7B49
:104960001A70FA7B796813469B001344DB000B44F2
:10497000133300221A70FA7B796813469B001344A4
:10498000DB000B44203300221A60FA7B796813465F
:104990009B001344DB000B44243300221A60FB7B92
:1049A00079685A1C13469B001344DB000B44002219
:1049B0001A60FB7B0133FB737B681B79FA7B9A429D
:1049C000BBD30023FB7344E0FA7B796813469B005A
:1049D0001344DB000B4403F2511300221A70FA7BDC
:1049E000796813469B001344DB000B4403F5A8735E
:1049F000FA7B1A70FA7B796813469B001344DB003C
:104A00000B4403F2531300221A70FA7B79681346A1
:104A10009B001344DB000B4403F5B07300221A60C3
:104A2000FA7B796813469B001344DB000B4403F5C3
:104A3000B27300221A60FA7B796813469B00134414
:104A4000DB000B4403F5B47300221A60FB7B0133D7
:104A5000FB737B681B79FA7B9A42B5D37B68186835
:104A60007B6804330ECB02F062F90346002B05D0BD
:104A70007B68022283F8912201230CE07B680022EC
:104A80005A737B68012283F891227B681B68184661
:104A900004F0E1FB002318461037BD4680BD80B509
:104AA00082B000AF78607B6893F89032012B01D11F
:104AB000022316E07B68012283F890227B681B6842
:104AC000184602F0F8F80121786806F08AFD7B6844
:104AD0001B68184604F0B5FB7B68002283F890221F
:104AE000002318460837BD4680BD80B588B000AFAA
:104AF00078607B681B68184604F0B7FBB861BB6937
:104B000003F40043002B03D0786800F01AFB19E18E
:104B1000BB6903F48063002B13D07B681B68B3F878
:104B200044309AB27B681B6822F4806292B2A3F888
:104B30004420786806F05DFB0021786800F005F9F4
:104B400000E1BB6903F48043002B0CD07B681B6839
:104B5000B3F844309AB27B681B6822F4804292B268
:104B6000A3F84420EEE0BB6903F40053002B0CD003
:104B70007B681B68B3F844309AB27B681B6822F4E8
:104B8000005292B2A3F84420DCE0BB6903F48053E6
:104B9000002B27D07B681B68B3F840309AB27B6843
:104BA0001B6822F0040292B2A3F840207B681B68C5
:104BB000B3F840309AB27B681B6822F0080292B2C8
:104BC000A3F84020786806F04DFB7B681B68B3F8BB
:104BD00044309AB27B681B6822F4805292B2A3F8E8
:104BE0004420AFE0BB6903F40063002B00F0838036
:104BF0000023FB7710E07B681B681A46FB7F9B0055
:104C00001A44FB7F128892B25B0020333B4423F8A6
:104C1000182CFB7F0133FB77FB7F072BEBD97B68DD
:104C20001B68B3F840309AB27B681B6842F00102FF
:104C300092B2A3F840207B681B68B3F840309AB268
:104C40007B681B6822F0010292B2A3F8402000BFEB
:104C50007B681B68B3F844309BB203F48063002B7D
:104C6000F6D07B681B68B3F844309AB27B681B6847
:104C700022F4806292B2A3F844200023FB770FE075
:104C8000FB7F7A6812681146FA7F92000A445B0043
:104C900020333B4433F8183C1380FB7F0133FB7710
:104CA000FB7F072BECD97B681B68B3F840309AB2C6
:104CB0007B681B6842F0080292B2A3F840207B6830
:104CC0001B68B3F844309AB27B681B6822F4006218
:104CD00092B2A3F844207B681B68B3F840309AB2C4
:104CE0007B681B6842F0040292B2A3F84020786807
:104CF00006F09EFA26E0BB6903F40073002B0FD088
:104D00007B681B68B3F844309AB27B681B6822F456
:104D1000007292B2A3F84420786806F05CFA11E0C1
:104D2000BB6903F48073002B0CD07B681B68B3F85D
:104D300044309AB27B681B6822F4807292B2A3F866
:104D4000442000BF2037BD4680BD80B582B000AF93
:104D500078600B46FB707B6893F89032012B01D191
:104D6000022312E07B68012283F890227B68FA78A4
:104D70005A737B681B68FA781146184604F04EFA9D
:104D80007B68002283F89022002318460837BD462E
:104D900080BD80B584B000AF7860084611461A46E1
:104DA0000346FB700B463B801346BB700023FB722F
:104DB00097F90330002B0EDAFB7803F00702134655
:104DC0009B001344DB0010337A681344FB60FB68DC
:104DD00001225A700EE0FB7803F0070213469B0095
:104DE0001344DB0003F5A8737A681344FB60FB6887
:104DF00000225A70FB7803F00703DAB2FB681A70DE
:104E00003A88FB681A61FB68BA78DA70BB78022BC3
:104E100002D1FB6800221A717B6893F89032012B53
:104E200001D102230EE07B68012283F890227B6887
:104E30001B68F968184601F097FF7B68002283F829
:104E40009022FB7A18461037BD4680BD80B584B0ED
:104E500000AF78600B46FB7097F90330002B0EDA39
:104E6000FB7803F0070213469B001344DB0010336A
:104E70007A681344FB60FB6801225A700EE0FB78ED
:104E800003F0070213469B001344DB0003F5A873ED
:104E90007A681344FB60FB6800225A70FB7803F0C9
:104EA0000703DAB2FB681A707B6893F89032012B23
:104EB00001D102230EE07B68012283F890227B68F7
:104EC0001B68F968184602F00FFB7B68002283F824
:104ED0009022002318461037BD4680BD80B586B0AD
:104EE00000AFF8607A603B600B46FB72FB7A03F020
:104EF000070213469B001344DB0003F5A873FA680E
:104F000013447B617B697A685A617B693A689A616C
:104F10007B690022DA617B6900225A70FB7A03F018
:104F20000703DAB27B691A70FB681B687969184657
:104F300002F0C6FC002318461837BD4680BD80B479
:104F400083B000AF78600B46FB70FB7803F007027C
:104F5000796813469B001344DB000B4403F5B673DA
:104F60001B6818460C37BD4680BC704780B586B0BC
:104F700000AFF8607A603B600B46FB72FB7A03F08F
:104F8000070213469B001344DB001033FA681344F6
:104F90007B617B697A685A617B693A689A617B694F
:104FA000012283F824207B693A681A627B69002217
:104FB000DA617B6901225A70FB7A03F00703DAB2E7
:104FC0007B691A70FB681B687969184602F078FCE7
:104FD000002318461837BD4680BD80B584B000AFA9
:104FE00078600B46FB70FB7803F007037A68127950
:104FF000934201D901234CE097F90330002B0EDADC
:10500000FB7803F0070213469B001344DB001033C8
:105010007A681344FB60FB6801225A700CE0FA784E
:1050200013469B001344DB0003F5A8737A6813440E
:10503000FB60FB6800225A70FB6801229A70FB78C3
:1050400003F00703DAB2FB681A707B6893F89032BA
:10505000012B01D102231CE07B68012283F89022FE
:105060007B681B68F968184603F0DBFFFB7803F0E8
:105070000703002B08D17B681A687B6803F5267349
:105080001946104604F000F97B68002283F890224C
:10509000002318461037BD4680BD80B584B000AFF0
:1050A00078600B46FB70FB7803F00F037A68127987
:1050B000934201D9012340E097F90330002B0EDA27
:1050C000FB7803F0070213469B001344DB00103308
:1050D0007A681344FB60FB6801225A700EE0FB788B
:1050E00003F0070213469B001344DB0003F5A8738B
:1050F0007A681344FB60FB6800225A70FB68002248
:105100009A70FB7803F00703DAB2FB681A707B68C9
:1051100093F89032012B01D102230EE07B6801222B
:1051200083F890227B681B68F968184603F0C9FF72
:105130007B68002283F89022002318461037BD4672
:1051400080BD80B596B000AF7860BBE37B681B681C
:10515000B3F84430A7F84E30B7F84E30DBB203F066
:105160000F0387F84D3097F84D30002B40F07581D4
:10517000B7F84E3003F01003002B4ED17B681B684C
:105180001B889BB223F4E14323F07003FB817B680F
:105190001A68FB896FEA43436FEA53439BB213805B
:1051A0007B6810337B657B681B68B3F850309BB21B
:1051B0001A467B6D1B78DB00134402335B007A6870
:1051C0001268134403F580631B88C3F309027B6DE7
:1051D000DA617B6D5A697B6DDB691A447B6D5A61BC
:1051E0000021786805F0DDFF7B685B7BDBB2002B7C
:1051F00000F068837B6D9B69002B40F063837B68C4
:105200005B7BDBB263F07F03DAB27B681B68A3F8D9
:105210004C207B6800225A7354E37B6803F5A87323
:105220007B657B681B681B88A7F84A30B7F84A3053
:1052300003F40063002B34D07B681B68B3F8503054
:105240009BB21A467B6D1B78DB00134406335B0070
:105250007A681268134403F580631B88C3F309025C
:105260007B6DDA617B6818687B6803F526717B6D5E
:10527000DA887B6DDB699BB204F057F87B681B68AA
:105280001B889AB240F68F7313403B827B681B6881
:105290003A8A42F0800292B21A80786805F054FF90
:1052A00010E3B7F94A30002B80F20C837B681B684F
:1052B0001B889AB240F68F731340FB837B681B6890
:1052C000FA8B42F0800292B21A807B681B68B3F8B6
:1052D00050309BB21A467B6D1B78DB0013440633BB
:1052E0005B007A681268134403F580631B88C3F37C
:1052F00009027B6DDA617B6DDB69002B19D07B6D58
:105300005B69002B15D07B6818687B6D59697B6DD4
:10531000DA887B6DDB699BB204F007F87B6D5A6914
:105320007B6DDB691A447B6D5A610021786805F05A
:105330001DFF7B681B681B88A7F84A30B7F84A3006
:1053400003F40063002B40F0BD82B7F84A3003F449
:105350004053B3F5405F00F0B5827B681B68BB61CA
:105360007B681B68B3F850309BB21A46BB69134484
:10537000BB61BB6903F20C437B617B691B889BB2F9
:10538000C3F309039AB27B691A807B6D1B693E2BBC
:105390001DD97B6D1B695B097B647B6D1B6903F009
:1053A0001F03002B02D17B6C013B7B647B691B8854
:1053B0009AB27B6C9BB29B029BB213439BB26FEA87
:1053C00043436FEA53439AB27B691A8026E07B6DB0
:1053D0001B69002B0AD17B691B889BB26FEA434390
:1053E0006FEA53439AB27B691A8017E07B6D1B69A1
:1053F0005B087B647B6D1B6903F00103002B02D00B
:105400007B6C01337B647B691B889AB27B6C9BB29B
:105410009B029BB213439AB27B691A807B681B681C
:105420001B889BB223F4804323F070037B827B8A2A
:1054300083F480537B827B8A83F400537B827B6876
:105440001A687B8A43F07F4343F47F0343F40043AD
:1054500043F080039BB2138034E27B681B681A46DA
:1054600097F84D309B0013441B88A7F84A30B7F9D2
:105470004A30002B80F2FC807B681B681A4697F844
:105480004D309B0013441B889AB240F68F73134033
:10549000A7F848307B681B681A4697F84D309B0088
:1054A0001344B7F8482042F0800292B21A8097F86D
:1054B0004D2013469B001344DB0003F5A8737A6864
:1054C00013447B657B6D1B7B002B25D17B681B68A0
:1054D000B3F850309BB21A467B6D1B78DB00134447
:1054E00006335B007A681268134403F580631B88F7
:1054F000C3F30903A7F85030B7F85030002B00F081
:1055000092807B6818687B6D59697B6DDA88B7F883
:10551000503003F00AFF86E07B6DDB78022B0AD166
:10552000B7F84A301A46796D786800F0D9F9034621
:10553000A7F8503077E07B681B681A467B6D1B78B4
:105540009B0013441B889BB223F4E04323F07003B9
:10555000A7F852307B681B681A467B6D1B789B004E
:105560001A44B7F8523043F07F4343F47F0343F4C7
:10557000004343F0C0039BB213807B681B681A464C
:105580007B6D1B789B0013441B889BB203F4804304
:10559000002B24D07B681B68B3F850309BB21A46AE
:1055A0007B6D1B78DB00134402335B007A68126862
:1055B000134403F580631B88C3F30903A7F8503035
:1055C000B7F85030002B2ED07B6818687B6D596976
:1055D0007B6D1A89B7F8503003F0A7FE23E07B6893
:1055E0001B68B3F850309BB21A467B6D1B78DB000A
:1055F000134406335B007A681268134403F5806332
:105600001B88C3F30903A7F85030B7F85030002BBC
:1056100009D07B6818687B6D59697B6D5A89B7F82A
:10562000503003F082FE7B6DDA69B7F850301A44CF
:105630007B6DDA617B6D5A69B7F850301A447B6D27
:105640005A617B6D9B69002B05D0B7F850207B6DAC
:105650001B699A4206D27B6D1B781946786805F063
:1056600085FD05E07B681B68796D184602F028F916
:10567000B7F84A3003F08003002B00F0238197F83D
:105680004D2013469B001344DB0010337A6813440B
:105690007B657B681B681A4697F84D309B00134466
:1056A0001B889BB223F4E14323F07003A7F8423038
:1056B0007B681B681A4697F84D309B001A44B7F870
:1056C00042306FEA43436FEA53439BB213807B6DD2
:1056D000DB78012B40F0A2807B6D00229A617B6D0C
:1056E0001B7B002B00F09380B7F84A3003F0400397
:1056F000002B46D07B6D5B78002B26D17B681B6826
:105700007B627B681B68B3F850309BB21A467B6A99
:1057100013447B627B6D1B781A017B6A134403F28E
:1057200004433B623B6A1B889BB2C3F309039AB2F2
:105730003B6A1A803B6A1B889BB26FEA43436FEA5D
:1057400053439AB23B6A1A8061E07B6D5B78012B10
:105750005DD17B681B68FB627B681B68B3F85030C7
:105760009BB21A46FB6A1344FB627B6D1B781A01DD
:10577000FB6A134403F20443BB62BB6A00221A8033
:1057800045E07B681B68FB637B6D5B78002B26D153
:105790007B681B687B637B681B68B3F850309BB2E7
:1057A0001A467B6B13447B637B6D1B781A017B6B02
:1057B000134403F20C433B633B6B1B889BB2C3F364
:1057C00009039AB23B6B1A803B6B1B889BB26FEA52
:1057D00043436FEA53439AB23B6B1A8017E07B6DE9
:1057E0005B78012B13D17B681B68B3F850309BB2F8
:1057F0001A46FB6B1344FB637B6D1B781A01FB6B32
:10580000134403F20C43BB63BB6B00221A807B6D15
:105810001B781946786805F0C4FC53E0B7F84A30A5
:1058200003F48073002B46D17B681B68B3F85030BB
:105830009BB21A467B6D1B78DB00134402335B007E
:105840007A681268134403F580631B88C3F3090365
:10585000A7F840307B6D9A69B7F840309A4207D973
:105860007B6D9A69B7F84030D21A7B6D9A6102E07D
:105870007B6D00229A617B6D9B69002B06D17B6D4D
:105880001B781946786805F08CFC1BE07B6D5A6923
:10589000B7F840301A447B6D5A617B6DDA69B7F80E
:1058A00040301A447B6DDA617B681B68796D18465D
:1058B00002F006F806E0B7F84A301A46796D7868C3
:1058C00000F01BF97B681B68B3F844309BB21BB235
:1058D000002BFFF63BAC002318465837BD4680BD71
:1058E00080B588B000AFF860B9601346FB80FB88D4
:1058F00003F48043002B7ED0FB681B68B3F8503064
:105900009BB21A46BB681B78DB00134402335B0072
:10591000FA681268134403F580631B88C3F3090314
:105920007B83BB689A697B8B9A4206D3BB689A6972
:105930007B8BD21ABB689A6102E0BB6800229A6135
:10594000BB689B69002B23D1FB681B681A46BB68A8
:105950001B789B0013441B889BB223F4804323F0E5
:1059600070033B833B8B83F400533B83FB681B68D2
:105970001A46BB681B789B001A443B8B43F07F435D
:1059800043F47F0343F4004343F080039BB213804E
:10599000FB8803F04003002B1FD0FB681B681A46EE
:1059A000BB681B789B0013441B889BB223F4E04325
:1059B00023F07003FB82FB681B681A46BB681B78E8
:1059C0009B001A44FB8A43F07F4343F47F0343F474
:1059D000004343F0C0039BB213807B8B002B00F08D
:1059E0008780FB681868BB685969BB681A897B8B1C
:1059F00003F09BFC7CE0FB681B68B3F850309BB263
:105A00001A46BB681B78DB00134406335B00FA6858
:105A10001268134403F580631B88C3F309037B8377
:105A2000BB689A697B8B9A4206D3BB689A697B8B69
:105A3000D21ABB689A6102E0BB6800229A61BB6817
:105A40009B69002B23D1FB681B681A46BB681B7837
:105A50009B0013441B889BB223F4804323F0700304
:105A6000FB83FB8B83F40053FB83FB681B681A46A4
:105A7000BB681B789B001A44FB8B43F07F4343F4C5
:105A80007F0343F4004343F080039BB21380FB8801
:105A900003F04003002B1FD1FB681B681A46BB684C
:105AA0001B789B0013441B889BB223F4E04323F034
:105AB0007003BB83FB681B681A46BB681B789B009E
:105AC0001A44BB8B43F07F4343F47F0343F400430A
:105AD00043F0C0039BB213807B8B002B08D0FB6884
